{
	"contracts/newBuilding.sol": {
		"newBuilding": {
			"abi": [
				{
					"inputs": [
						{
							"internalType": "address",
							"name": "build_developer",
							"type": "address"
						},
						{
							"internalType": "string",
							"name": "name",
							"type": "string"
						}
					],
					"stateMutability": "nonpayable",
					"type": "constructor"
				},
				{
					"inputs": [
						{
							"internalType": "address",
							"name": "",
							"type": "address"
						}
					],
					"name": "BatchCertificate",
					"outputs": [
						{
							"internalType": "string",
							"name": "",
							"type": "string"
						}
					],
					"stateMutability": "view",
					"type": "function"
				},
				{
					"inputs": [
						{
							"internalType": "address",
							"name": "contractor_Address",
							"type": "address"
						},
						{
							"internalType": "string",
							"name": "name_",
							"type": "string"
						}
					],
					"name": "addContractor",
					"outputs": [],
					"stateMutability": "nonpayable",
					"type": "function"
				},
				{
					"inputs": [
						{
							"internalType": "string",
							"name": "material",
							"type": "string"
						},
						{
							"internalType": "uint256",
							"name": "quantity",
							"type": "uint256"
						},
						{
							"internalType": "string",
							"name": "unit",
							"type": "string"
						},
						{
							"internalType": "address[]",
							"name": "supplAddresses",
							"type": "address[]"
						},
						{
							"internalType": "string[]",
							"name": "supplNames",
							"type": "string[]"
						},
						{
							"internalType": "address",
							"name": "batchAddress",
							"type": "address"
						}
					],
					"name": "assignMaterial",
					"outputs": [],
					"stateMutability": "nonpayable",
					"type": "function"
				},
				{
					"inputs": [],
					"name": "disableOrEnableContract",
					"outputs": [],
					"stateMutability": "nonpayable",
					"type": "function"
				},
				{
					"inputs": [],
					"name": "generalInfo",
					"outputs": [
						{
							"internalType": "string",
							"name": "Building_Name",
							"type": "string"
						},
						{
							"internalType": "address",
							"name": "Building_Address",
							"type": "address"
						},
						{
							"internalType": "address",
							"name": "Developer_Address",
							"type": "address"
						}
					],
					"stateMutability": "view",
					"type": "function"
				},
				{
					"inputs": [],
					"name": "showAllRegisteredContractors",
					"outputs": [
						{
							"components": [
								{
									"internalType": "string",
									"name": "name",
									"type": "string"
								},
								{
									"internalType": "address",
									"name": "addr",
									"type": "address"
								}
							],
							"internalType": "struct newBuilding.tempContractor[]",
							"name": "",
							"type": "tuple[]"
						}
					],
					"stateMutability": "view",
					"type": "function"
				},
				{
					"inputs": [],
					"name": "showListOfMaterials",
					"outputs": [
						{
							"internalType": "string[]",
							"name": "",
							"type": "string[]"
						}
					],
					"stateMutability": "view",
					"type": "function"
				},
				{
					"inputs": [
						{
							"internalType": "string",
							"name": "material",
							"type": "string"
						}
					],
					"name": "showOverviewOfMaterial",
					"outputs": [
						{
							"components": [
								{
									"internalType": "uint256",
									"name": "assignementId",
									"type": "uint256"
								},
								{
									"internalType": "address",
									"name": "batchContractAddress",
									"type": "address"
								},
								{
									"internalType": "uint256",
									"name": "quantityAssigned",
									"type": "uint256"
								},
								{
									"internalType": "string",
									"name": "quantityUnit",
									"type": "string"
								}
							],
							"internalType": "struct newBuilding.Batch[]",
							"name": "",
							"type": "tuple[]"
						}
					],
					"stateMutability": "view",
					"type": "function"
				},
				{
					"inputs": [
						{
							"internalType": "uint256",
							"name": "assignId",
							"type": "uint256"
						}
					],
					"name": "showSupplyChain",
					"outputs": [
						{
							"internalType": "string",
							"name": "chainOfSupply",
							"type": "string"
						}
					],
					"stateMutability": "view",
					"type": "function"
				}
			],
			"devdoc": {
				"kind": "dev",
				"methods": {},
				"version": 1
			},
			"evm": {
				"assembly": "    /* \"contracts/newBuilding.sol\":229:10619  contract newBuilding {\r... */\n  mstore(0x40, 0x80)\n    /* \"contracts/newBuilding.sol\":903:908  false */\n  0x00\n    /* \"contracts/newBuilding.sol\":869:908  bool private contractIsDisabled = false */\n  dup1\n  exp(0x0100, 0x00)\n  dup2\n  sload\n  dup2\n  0xff\n  mul\n  not\n  and\n  swap1\n  dup4\n  iszero\n  iszero\n  mul\n  or\n  swap1\n  sstore\n  pop\n    /* \"contracts/newBuilding.sol\":1317:1318  1 */\n  0x01\n    /* \"contracts/newBuilding.sol\":1283:1318  uint private assignement_number = 1 */\n  dup1\n  sstore\n    /* \"contracts/newBuilding.sol\":2617:3402  constructor (address build_developer, string memory name) { \r... */\n  callvalue\n  dup1\n  iszero\n  tag_1\n  jumpi\n  0x00\n  dup1\n  revert\ntag_1:\n  pop\n  mload(0x40)\n  sub(codesize, bytecodeSize)\n  dup1\n  bytecodeSize\n  dup4\n  codecopy\n  dup2\n  dup2\n  add\n  0x40\n  mstore\n  dup2\n  add\n  swap1\n  tag_2\n  swap2\n  swap1\n  tag_3\n  jump\t// in\ntag_2:\n    /* \"contracts/newBuilding.sol\":2702:2706  name */\n  dup1\n    /* \"contracts/newBuilding.sol\":2687:2699  BuildingName */\n  0x09\n    /* \"contracts/newBuilding.sol\":2687:2706  BuildingName = name */\n  swap1\n  dup1\n  mload\n  swap1\n  0x20\n  add\n  swap1\n  tag_6\n  swap3\n  swap2\n  swap1\n  tag_7\n  jump\t// in\ntag_6:\n  pop\n    /* \"contracts/newBuilding.sol\":2729:2744  build_developer */\n  dup2\n    /* \"contracts/newBuilding.sol\":2717:2726  Developer */\n  0x07\n  0x00\n    /* \"contracts/newBuilding.sol\":2717:2744  Developer = build_developer */\n  0x0100\n  exp\n  dup2\n  sload\n  dup2\n  0xffffffffffffffffffffffffffffffffffffffff\n  mul\n  not\n  and\n  swap1\n  dup4\n  0xffffffffffffffffffffffffffffffffffffffff\n  and\n  mul\n  or\n  swap1\n  sstore\n  pop\n    /* \"contracts/newBuilding.sol\":2756:2798  listOfContractors[Developer] = \"Developer\" */\n  mload(0x40)\n  dup1\n  0x40\n  add\n  0x40\n  mstore\n  dup1\n  0x09\n  dup2\n  mstore\n  0x20\n  add\n  0x446576656c6f7065720000000000000000000000000000000000000000000000\n  dup2\n  mstore\n  pop\n    /* \"contracts/newBuilding.sol\":2756:2773  listOfContractors */\n  0x06\n    /* \"contracts/newBuilding.sol\":2756:2784  listOfContractors[Developer] */\n  0x00\n    /* \"contracts/newBuilding.sol\":2774:2783  Developer */\n  0x07\n  0x00\n  swap1\n  sload\n  swap1\n  0x0100\n  exp\n  swap1\n  div\n  0xffffffffffffffffffffffffffffffffffffffff\n  and\n    /* \"contracts/newBuilding.sol\":2756:2784  listOfContractors[Developer] */\n  0xffffffffffffffffffffffffffffffffffffffff\n  and\n  0xffffffffffffffffffffffffffffffffffffffff\n  and\n  dup2\n  mstore\n  0x20\n  add\n  swap1\n  dup2\n  mstore\n  0x20\n  add\n  0x00\n  keccak256\n    /* \"contracts/newBuilding.sol\":2756:2798  listOfContractors[Developer] = \"Developer\" */\n  swap1\n  dup1\n  mload\n  swap1\n  0x20\n  add\n  swap1\n  tag_8\n  swap3\n  swap2\n  swap1\n  tag_7\n  jump\t// in\ntag_8:\n  pop\n    /* \"contracts/newBuilding.sol\":2810:2833  allContractorsAddresses */\n  0x05\n    /* \"contracts/newBuilding.sol\":2839:2848  Developer */\n  0x07\n  0x00\n  swap1\n  sload\n  swap1\n  0x0100\n  exp\n  swap1\n  div\n  0xffffffffffffffffffffffffffffffffffffffff\n  and\n    /* \"contracts/newBuilding.sol\":2810:2849  allContractorsAddresses.push(Developer) */\n  swap1\n  dup1\n  0x01\n  dup2\n  sload\n  add\n  dup1\n  dup3\n  sstore\n  dup1\n  swap2\n  pop\n  pop\n  0x01\n  swap1\n  sub\n  swap1\n  0x00\n  mstore\n  keccak256(0x00, 0x20)\n  add\n  0x00\n  swap1\n  swap2\n  swap1\n  swap2\n  swap1\n  swap2\n  0x0100\n  exp\n  dup2\n  sload\n  dup2\n  0xffffffffffffffffffffffffffffffffffffffff\n  mul\n  not\n  and\n  swap1\n  dup4\n  0xffffffffffffffffffffffffffffffffffffffff\n  and\n  mul\n  or\n  swap1\n  sstore\n  pop\n    /* \"contracts/newBuilding.sol\":2916:2920  this */\n  address\n    /* \"contracts/newBuilding.sol\":2890:2905  BuildingAddress */\n  0x08\n  0x00\n    /* \"contracts/newBuilding.sol\":2890:2921  BuildingAddress = address(this) */\n  0x0100\n  exp\n  dup2\n  sload\n  dup2\n  0xffffffffffffffffffffffffffffffffffffffff\n  mul\n  not\n  and\n  swap1\n  dup4\n  0xffffffffffffffffffffffffffffffffffffffff\n  and\n  mul\n  or\n  swap1\n  sstore\n  pop\n    /* \"contracts/newBuilding.sol\":3382:3392  msg.sender */\n  caller\n    /* \"contracts/newBuilding.sol\":3357:3379  factoryContractAddress */\n  0x00\n  0x01\n    /* \"contracts/newBuilding.sol\":3357:3392  factoryContractAddress = msg.sender */\n  0x0100\n  exp\n  dup2\n  sload\n  dup2\n  0xffffffffffffffffffffffffffffffffffffffff\n  mul\n  not\n  and\n  swap1\n  dup4\n  0xffffffffffffffffffffffffffffffffffffffff\n  and\n  mul\n  or\n  swap1\n  sstore\n  pop\n    /* \"contracts/newBuilding.sol\":2617:3402  constructor (address build_developer, string memory name) { \r... */\n  pop\n  pop\n    /* \"contracts/newBuilding.sol\":229:10619  contract newBuilding {\r... */\n  jump(tag_10)\ntag_7:\n  dup3\n  dup1\n  sload\n  tag_11\n  swap1\n  tag_12\n  jump\t// in\ntag_11:\n  swap1\n  0x00\n  mstore\n  keccak256(0x00, 0x20)\n  swap1\n  0x1f\n  add\n  0x20\n  swap1\n  div\n  dup2\n  add\n  swap3\n  dup3\n  tag_14\n  jumpi\n  0x00\n  dup6\n  sstore\n  jump(tag_13)\ntag_14:\n  dup3\n  0x1f\n  lt\n  tag_15\n  jumpi\n  dup1\n  mload\n  not(0xff)\n  and\n  dup4\n  dup1\n  add\n  or\n  dup6\n  sstore\n  jump(tag_13)\ntag_15:\n  dup3\n  dup1\n  add\n  0x01\n  add\n  dup6\n  sstore\n  dup3\n  iszero\n  tag_13\n  jumpi\n  swap2\n  dup3\n  add\ntag_16:\n  dup3\n  dup2\n  gt\n  iszero\n  tag_17\n  jumpi\n  dup3\n  mload\n  dup3\n  sstore\n  swap2\n  0x20\n  add\n  swap2\n  swap1\n  0x01\n  add\n  swap1\n  jump(tag_16)\ntag_17:\ntag_13:\n  pop\n  swap1\n  pop\n  tag_18\n  swap2\n  swap1\n  tag_19\n  jump\t// in\ntag_18:\n  pop\n  swap1\n  jump\t// out\ntag_19:\ntag_20:\n  dup1\n  dup3\n  gt\n  iszero\n  tag_21\n  jumpi\n  0x00\n  dup2\n  0x00\n  swap1\n  sstore\n  pop\n  0x01\n  add\n  jump(tag_20)\ntag_21:\n  pop\n  swap1\n  jump\t// out\n    /* \"#utility.yul\":7:360   */\ntag_23:\n  0x00\n    /* \"#utility.yul\":121:186   */\n  tag_25\n    /* \"#utility.yul\":136:185   */\n  tag_26\n    /* \"#utility.yul\":178:184   */\n  dup5\n    /* \"#utility.yul\":136:185   */\n  tag_27\n  jump\t// in\ntag_26:\n    /* \"#utility.yul\":121:186   */\n  tag_28\n  jump\t// in\ntag_25:\n    /* \"#utility.yul\":112:186   */\n  swap1\n  pop\n    /* \"#utility.yul\":209:215   */\n  dup3\n    /* \"#utility.yul\":202:207   */\n  dup2\n    /* \"#utility.yul\":195:216   */\n  mstore\n    /* \"#utility.yul\":247:251   */\n  0x20\n    /* \"#utility.yul\":240:245   */\n  dup2\n    /* \"#utility.yul\":236:252   */\n  add\n    /* \"#utility.yul\":285:288   */\n  dup5\n    /* \"#utility.yul\":276:282   */\n  dup5\n    /* \"#utility.yul\":271:274   */\n  dup5\n    /* \"#utility.yul\":267:283   */\n  add\n    /* \"#utility.yul\":264:289   */\n  gt\n    /* \"#utility.yul\":261:263   */\n  iszero\n  tag_29\n  jumpi\n    /* \"#utility.yul\":302:303   */\n  0x00\n    /* \"#utility.yul\":299:300   */\n  dup1\n    /* \"#utility.yul\":292:304   */\n  revert\n    /* \"#utility.yul\":261:263   */\ntag_29:\n    /* \"#utility.yul\":315:354   */\n  tag_30\n    /* \"#utility.yul\":347:353   */\n  dup5\n    /* \"#utility.yul\":342:345   */\n  dup3\n    /* \"#utility.yul\":337:340   */\n  dup6\n    /* \"#utility.yul\":315:354   */\n  tag_31\n  jump\t// in\ntag_30:\n    /* \"#utility.yul\":102:360   */\n  pop\n  swap4\n  swap3\n  pop\n  pop\n  pop\n  jump\t// out\n    /* \"#utility.yul\":366:509   */\ntag_32:\n  0x00\n    /* \"#utility.yul\":454:460   */\n  dup2\n    /* \"#utility.yul\":448:461   */\n  mload\n    /* \"#utility.yul\":439:461   */\n  swap1\n  pop\n    /* \"#utility.yul\":470:503   */\n  tag_34\n    /* \"#utility.yul\":497:502   */\n  dup2\n    /* \"#utility.yul\":470:503   */\n  tag_35\n  jump\t// in\ntag_34:\n    /* \"#utility.yul\":429:509   */\n  swap3\n  swap2\n  pop\n  pop\n  jump\t// out\n    /* \"#utility.yul\":529:817   */\ntag_36:\n  0x00\n    /* \"#utility.yul\":645:648   */\n  dup3\n    /* \"#utility.yul\":638:642   */\n  0x1f\n    /* \"#utility.yul\":630:636   */\n  dup4\n    /* \"#utility.yul\":626:643   */\n  add\n    /* \"#utility.yul\":622:649   */\n  slt\n    /* \"#utility.yul\":612:614   */\n  tag_38\n  jumpi\n    /* \"#utility.yul\":663:664   */\n  0x00\n    /* \"#utility.yul\":660:661   */\n  dup1\n    /* \"#utility.yul\":653:665   */\n  revert\n    /* \"#utility.yul\":612:614   */\ntag_38:\n    /* \"#utility.yul\":696:702   */\n  dup2\n    /* \"#utility.yul\":690:703   */\n  mload\n    /* \"#utility.yul\":721:811   */\n  tag_39\n    /* \"#utility.yul\":807:810   */\n  dup5\n    /* \"#utility.yul\":799:805   */\n  dup3\n    /* \"#utility.yul\":792:796   */\n  0x20\n    /* \"#utility.yul\":784:790   */\n  dup7\n    /* \"#utility.yul\":780:797   */\n  add\n    /* \"#utility.yul\":721:811   */\n  tag_23\n  jump\t// in\ntag_39:\n    /* \"#utility.yul\":712:811   */\n  swap2\n  pop\n    /* \"#utility.yul\":602:817   */\n  pop\n  swap3\n  swap2\n  pop\n  pop\n  jump\t// out\n    /* \"#utility.yul\":823:1369   */\ntag_3:\n  0x00\n  dup1\n    /* \"#utility.yul\":969:971   */\n  0x40\n    /* \"#utility.yul\":957:966   */\n  dup4\n    /* \"#utility.yul\":948:955   */\n  dup6\n    /* \"#utility.yul\":944:967   */\n  sub\n    /* \"#utility.yul\":940:972   */\n  slt\n    /* \"#utility.yul\":937:939   */\n  iszero\n  tag_41\n  jumpi\n    /* \"#utility.yul\":985:986   */\n  0x00\n    /* \"#utility.yul\":982:983   */\n  dup1\n    /* \"#utility.yul\":975:987   */\n  revert\n    /* \"#utility.yul\":937:939   */\ntag_41:\n    /* \"#utility.yul\":1028:1029   */\n  0x00\n    /* \"#utility.yul\":1053:1117   */\n  tag_42\n    /* \"#utility.yul\":1109:1116   */\n  dup6\n    /* \"#utility.yul\":1100:1106   */\n  dup3\n    /* \"#utility.yul\":1089:1098   */\n  dup7\n    /* \"#utility.yul\":1085:1107   */\n  add\n    /* \"#utility.yul\":1053:1117   */\n  tag_32\n  jump\t// in\ntag_42:\n    /* \"#utility.yul\":1043:1117   */\n  swap3\n  pop\n    /* \"#utility.yul\":999:1127   */\n  pop\n    /* \"#utility.yul\":1187:1189   */\n  0x20\n    /* \"#utility.yul\":1176:1185   */\n  dup4\n    /* \"#utility.yul\":1172:1190   */\n  add\n    /* \"#utility.yul\":1166:1191   */\n  mload\n    /* \"#utility.yul\":1218:1236   */\n  0xffffffffffffffff\n    /* \"#utility.yul\":1210:1216   */\n  dup2\n    /* \"#utility.yul\":1207:1237   */\n  gt\n    /* \"#utility.yul\":1204:1206   */\n  iszero\n  tag_43\n  jumpi\n    /* \"#utility.yul\":1250:1251   */\n  0x00\n    /* \"#utility.yul\":1247:1248   */\n  dup1\n    /* \"#utility.yul\":1240:1252   */\n  revert\n    /* \"#utility.yul\":1204:1206   */\ntag_43:\n    /* \"#utility.yul\":1278:1352   */\n  tag_44\n    /* \"#utility.yul\":1344:1351   */\n  dup6\n    /* \"#utility.yul\":1335:1341   */\n  dup3\n    /* \"#utility.yul\":1324:1333   */\n  dup7\n    /* \"#utility.yul\":1320:1342   */\n  add\n    /* \"#utility.yul\":1278:1352   */\n  tag_36\n  jump\t// in\ntag_44:\n    /* \"#utility.yul\":1268:1352   */\n  swap2\n  pop\n    /* \"#utility.yul\":1137:1362   */\n  pop\n    /* \"#utility.yul\":927:1369   */\n  swap3\n  pop\n  swap3\n  swap1\n  pop\n  jump\t// out\n    /* \"#utility.yul\":1375:1658   */\ntag_28:\n  0x00\n    /* \"#utility.yul\":1441:1443   */\n  0x40\n    /* \"#utility.yul\":1435:1444   */\n  mload\n    /* \"#utility.yul\":1425:1444   */\n  swap1\n  pop\n    /* \"#utility.yul\":1483:1487   */\n  dup2\n    /* \"#utility.yul\":1475:1481   */\n  dup2\n    /* \"#utility.yul\":1471:1488   */\n  add\n    /* \"#utility.yul\":1590:1596   */\n  dup2\n    /* \"#utility.yul\":1578:1588   */\n  dup2\n    /* \"#utility.yul\":1575:1597   */\n  lt\n    /* \"#utility.yul\":1554:1572   */\n  0xffffffffffffffff\n    /* \"#utility.yul\":1542:1552   */\n  dup3\n    /* \"#utility.yul\":1539:1573   */\n  gt\n    /* \"#utility.yul\":1536:1598   */\n  or\n    /* \"#utility.yul\":1533:1535   */\n  iszero\n  tag_46\n  jumpi\n    /* \"#utility.yul\":1601:1619   */\n  tag_47\n  tag_48\n  jump\t// in\ntag_47:\n    /* \"#utility.yul\":1533:1535   */\ntag_46:\n    /* \"#utility.yul\":1641:1651   */\n  dup1\n    /* \"#utility.yul\":1637:1639   */\n  0x40\n    /* \"#utility.yul\":1630:1652   */\n  mstore\n    /* \"#utility.yul\":1415:1658   */\n  pop\n  swap2\n  swap1\n  pop\n  jump\t// out\n    /* \"#utility.yul\":1664:1996   */\ntag_27:\n  0x00\n    /* \"#utility.yul\":1816:1834   */\n  0xffffffffffffffff\n    /* \"#utility.yul\":1808:1814   */\n  dup3\n    /* \"#utility.yul\":1805:1835   */\n  gt\n    /* \"#utility.yul\":1802:1804   */\n  iszero\n  tag_50\n  jumpi\n    /* \"#utility.yul\":1838:1856   */\n  tag_51\n  tag_48\n  jump\t// in\ntag_51:\n    /* \"#utility.yul\":1802:1804   */\ntag_50:\n    /* \"#utility.yul\":1923:1927   */\n  0x1f\n    /* \"#utility.yul\":1919:1928   */\n  not\n    /* \"#utility.yul\":1912:1916   */\n  0x1f\n    /* \"#utility.yul\":1904:1910   */\n  dup4\n    /* \"#utility.yul\":1900:1917   */\n  add\n    /* \"#utility.yul\":1896:1929   */\n  and\n    /* \"#utility.yul\":1888:1929   */\n  swap1\n  pop\n    /* \"#utility.yul\":1984:1988   */\n  0x20\n    /* \"#utility.yul\":1978:1982   */\n  dup2\n    /* \"#utility.yul\":1974:1989   */\n  add\n    /* \"#utility.yul\":1966:1989   */\n  swap1\n  pop\n    /* \"#utility.yul\":1731:1996   */\n  swap2\n  swap1\n  pop\n  jump\t// out\n    /* \"#utility.yul\":2002:2098   */\ntag_52:\n  0x00\n    /* \"#utility.yul\":2068:2092   */\n  tag_54\n    /* \"#utility.yul\":2086:2091   */\n  dup3\n    /* \"#utility.yul\":2068:2092   */\n  tag_55\n  jump\t// in\ntag_54:\n    /* \"#utility.yul\":2057:2092   */\n  swap1\n  pop\n    /* \"#utility.yul\":2047:2098   */\n  swap2\n  swap1\n  pop\n  jump\t// out\n    /* \"#utility.yul\":2104:2230   */\ntag_55:\n  0x00\n    /* \"#utility.yul\":2181:2223   */\n  0xffffffffffffffffffffffffffffffffffffffff\n    /* \"#utility.yul\":2174:2179   */\n  dup3\n    /* \"#utility.yul\":2170:2224   */\n  and\n    /* \"#utility.yul\":2159:2224   */\n  swap1\n  pop\n    /* \"#utility.yul\":2149:2230   */\n  swap2\n  swap1\n  pop\n  jump\t// out\n    /* \"#utility.yul\":2236:2543   */\ntag_31:\n    /* \"#utility.yul\":2304:2305   */\n  0x00\n    /* \"#utility.yul\":2314:2427   */\ntag_58:\n    /* \"#utility.yul\":2328:2334   */\n  dup4\n    /* \"#utility.yul\":2325:2326   */\n  dup2\n    /* \"#utility.yul\":2322:2335   */\n  lt\n    /* \"#utility.yul\":2314:2427   */\n  iszero\n  tag_60\n  jumpi\n    /* \"#utility.yul\":2413:2414   */\n  dup1\n    /* \"#utility.yul\":2408:2411   */\n  dup3\n    /* \"#utility.yul\":2404:2415   */\n  add\n    /* \"#utility.yul\":2398:2416   */\n  mload\n    /* \"#utility.yul\":2394:2395   */\n  dup2\n    /* \"#utility.yul\":2389:2392   */\n  dup5\n    /* \"#utility.yul\":2385:2396   */\n  add\n    /* \"#utility.yul\":2378:2417   */\n  mstore\n    /* \"#utility.yul\":2350:2352   */\n  0x20\n    /* \"#utility.yul\":2347:2348   */\n  dup2\n    /* \"#utility.yul\":2343:2353   */\n  add\n    /* \"#utility.yul\":2338:2353   */\n  swap1\n  pop\n    /* \"#utility.yul\":2314:2427   */\n  jump(tag_58)\ntag_60:\n    /* \"#utility.yul\":2445:2451   */\n  dup4\n    /* \"#utility.yul\":2442:2443   */\n  dup2\n    /* \"#utility.yul\":2439:2452   */\n  gt\n    /* \"#utility.yul\":2436:2438   */\n  iszero\n  tag_61\n  jumpi\n    /* \"#utility.yul\":2525:2526   */\n  0x00\n    /* \"#utility.yul\":2516:2522   */\n  dup5\n    /* \"#utility.yul\":2511:2514   */\n  dup5\n    /* \"#utility.yul\":2507:2523   */\n  add\n    /* \"#utility.yul\":2500:2527   */\n  mstore\n    /* \"#utility.yul\":2436:2438   */\ntag_61:\n    /* \"#utility.yul\":2285:2543   */\n  pop\n  pop\n  pop\n  pop\n  jump\t// out\n    /* \"#utility.yul\":2549:2869   */\ntag_12:\n  0x00\n    /* \"#utility.yul\":2630:2631   */\n  0x02\n    /* \"#utility.yul\":2624:2628   */\n  dup3\n    /* \"#utility.yul\":2620:2632   */\n  div\n    /* \"#utility.yul\":2610:2632   */\n  swap1\n  pop\n    /* \"#utility.yul\":2677:2678   */\n  0x01\n    /* \"#utility.yul\":2671:2675   */\n  dup3\n    /* \"#utility.yul\":2667:2679   */\n  and\n    /* \"#utility.yul\":2698:2716   */\n  dup1\n    /* \"#utility.yul\":2688:2690   */\n  tag_63\n  jumpi\n    /* \"#utility.yul\":2754:2758   */\n  0x7f\n    /* \"#utility.yul\":2746:2752   */\n  dup3\n    /* \"#utility.yul\":2742:2759   */\n  and\n    /* \"#utility.yul\":2732:2759   */\n  swap2\n  pop\n    /* \"#utility.yul\":2688:2690   */\ntag_63:\n    /* \"#utility.yul\":2816:2818   */\n  0x20\n    /* \"#utility.yul\":2808:2814   */\n  dup3\n    /* \"#utility.yul\":2805:2819   */\n  lt\n    /* \"#utility.yul\":2785:2803   */\n  dup2\n    /* \"#utility.yul\":2782:2820   */\n  eq\n    /* \"#utility.yul\":2779:2781   */\n  iszero\n  tag_64\n  jumpi\n    /* \"#utility.yul\":2835:2853   */\n  tag_65\n  tag_66\n  jump\t// in\ntag_65:\n    /* \"#utility.yul\":2779:2781   */\ntag_64:\n    /* \"#utility.yul\":2600:2869   */\n  pop\n  swap2\n  swap1\n  pop\n  jump\t// out\n    /* \"#utility.yul\":2875:3055   */\ntag_66:\n    /* \"#utility.yul\":2923:3000   */\n  0x4e487b7100000000000000000000000000000000000000000000000000000000\n    /* \"#utility.yul\":2920:2921   */\n  0x00\n    /* \"#utility.yul\":2913:3001   */\n  mstore\n    /* \"#utility.yul\":3020:3024   */\n  0x22\n    /* \"#utility.yul\":3017:3018   */\n  0x04\n    /* \"#utility.yul\":3010:3025   */\n  mstore\n    /* \"#utility.yul\":3044:3048   */\n  0x24\n    /* \"#utility.yul\":3041:3042   */\n  0x00\n    /* \"#utility.yul\":3034:3049   */\n  revert\n    /* \"#utility.yul\":3061:3241   */\ntag_48:\n    /* \"#utility.yul\":3109:3186   */\n  0x4e487b7100000000000000000000000000000000000000000000000000000000\n    /* \"#utility.yul\":3106:3107   */\n  0x00\n    /* \"#utility.yul\":3099:3187   */\n  mstore\n    /* \"#utility.yul\":3206:3210   */\n  0x41\n    /* \"#utility.yul\":3203:3204   */\n  0x04\n    /* \"#utility.yul\":3196:3211   */\n  mstore\n    /* \"#utility.yul\":3230:3234   */\n  0x24\n    /* \"#utility.yul\":3227:3228   */\n  0x00\n    /* \"#utility.yul\":3220:3235   */\n  revert\n    /* \"#utility.yul\":3247:3369   */\ntag_35:\n    /* \"#utility.yul\":3320:3344   */\n  tag_70\n    /* \"#utility.yul\":3338:3343   */\n  dup2\n    /* \"#utility.yul\":3320:3344   */\n  tag_52\n  jump\t// in\ntag_70:\n    /* \"#utility.yul\":3313:3318   */\n  dup2\n    /* \"#utility.yul\":3310:3345   */\n  eq\n    /* \"#utility.yul\":3300:3302   */\n  tag_71\n  jumpi\n    /* \"#utility.yul\":3359:3360   */\n  0x00\n    /* \"#utility.yul\":3356:3357   */\n  dup1\n    /* \"#utility.yul\":3349:3361   */\n  revert\n    /* \"#utility.yul\":3300:3302   */\ntag_71:\n    /* \"#utility.yul\":3290:3369   */\n  pop\n  jump\t// out\n    /* \"contracts/newBuilding.sol\":229:10619  contract newBuilding {\r... */\ntag_10:\n  dataSize(sub_0)\n  dup1\n  dataOffset(sub_0)\n  0x00\n  codecopy\n  0x00\n  return\nstop\n\nsub_0: assembly {\n        /* \"contracts/newBuilding.sol\":229:10619  contract newBuilding {\r... */\n      mstore(0x40, 0x80)\n      callvalue\n      dup1\n      iszero\n      tag_1\n      jumpi\n      0x00\n      dup1\n      revert\n    tag_1:\n      pop\n      jumpi(tag_2, lt(calldatasize, 0x04))\n      shr(0xe0, calldataload(0x00))\n      dup1\n      0x64fbc026\n      gt\n      tag_12\n      jumpi\n      dup1\n      0x64fbc026\n      eq\n      tag_7\n      jumpi\n      dup1\n      0x784b5031\n      eq\n      tag_8\n      jumpi\n      dup1\n      0x909fc14a\n      eq\n      tag_9\n      jumpi\n      dup1\n      0xbd8976c4\n      eq\n      tag_10\n      jumpi\n      dup1\n      0xee452194\n      eq\n      tag_11\n      jumpi\n      jump(tag_2)\n    tag_12:\n      dup1\n      0x0eccf4f0\n      eq\n      tag_3\n      jumpi\n      dup1\n      0x25a6c545\n      eq\n      tag_4\n      jumpi\n      dup1\n      0x27dd978f\n      eq\n      tag_5\n      jumpi\n      dup1\n      0x2968a545\n      eq\n      tag_6\n      jumpi\n    tag_2:\n      0x00\n      dup1\n      revert\n        /* \"contracts/newBuilding.sol\":5492:6364  function showSupplyChain (uint assignId) public view returns (string memory chainOfSupply) {\r... */\n    tag_3:\n      tag_13\n      0x04\n      dup1\n      calldatasize\n      sub\n      dup2\n      add\n      swap1\n      tag_14\n      swap2\n      swap1\n      tag_15\n      jump\t// in\n    tag_14:\n      tag_16\n      jump\t// in\n    tag_13:\n      mload(0x40)\n      tag_17\n      swap2\n      swap1\n      tag_18\n      jump\t// in\n    tag_17:\n      mload(0x40)\n      dup1\n      swap2\n      sub\n      swap1\n      return\n        /* \"contracts/newBuilding.sol\":3555:3884  function generalInfo () public view returns (string memory Building_Name, address Building_Address, address Developer_Address) {\r... */\n    tag_4:\n      tag_19\n      tag_20\n      jump\t// in\n    tag_19:\n      mload(0x40)\n      tag_21\n      swap4\n      swap3\n      swap2\n      swap1\n      tag_22\n      jump\t// in\n    tag_21:\n      mload(0x40)\n      dup1\n      swap2\n      sub\n      swap1\n      return\n        /* \"contracts/newBuilding.sol\":6468:6981  function showAllRegisteredContractors() public view returns (tempContractor[] memory) {\r... */\n    tag_5:\n      tag_23\n      tag_24\n      jump\t// in\n    tag_23:\n      mload(0x40)\n      tag_25\n      swap2\n      swap1\n      tag_26\n      jump\t// in\n    tag_25:\n      mload(0x40)\n      dup1\n      swap2\n      sub\n      swap1\n      return\n        /* \"contracts/newBuilding.sol\":4473:5366  function showOverviewOfMaterial (string memory material) public view returns  (Batch[] memory) { \r... */\n    tag_6:\n      tag_27\n      0x04\n      dup1\n      calldatasize\n      sub\n      dup2\n      add\n      swap1\n      tag_28\n      swap2\n      swap1\n      tag_29\n      jump\t// in\n    tag_28:\n      tag_30\n      jump\t// in\n    tag_27:\n      mload(0x40)\n      tag_31\n      swap2\n      swap1\n      tag_32\n      jump\t// in\n    tag_31:\n      mload(0x40)\n      dup1\n      swap2\n      sub\n      swap1\n      return\n        /* \"contracts/newBuilding.sol\":4169:4291  function showListOfMaterials () public view returns (string[] memory ) {\r... */\n    tag_7:\n      tag_33\n      tag_34\n      jump\t// in\n    tag_33:\n      mload(0x40)\n      tag_35\n      swap2\n      swap1\n      tag_36\n      jump\t// in\n    tag_35:\n      mload(0x40)\n      dup1\n      swap2\n      sub\n      swap1\n      return\n        /* \"contracts/newBuilding.sol\":10268:10476  function disableOrEnableContract () external {\r... */\n    tag_8:\n      tag_37\n      tag_38\n      jump\t// in\n    tag_37:\n      stop\n        /* \"contracts/newBuilding.sol\":3902:3953  mapping (address => string) public BatchCertificate */\n    tag_9:\n      tag_39\n      0x04\n      dup1\n      calldatasize\n      sub\n      dup2\n      add\n      swap1\n      tag_40\n      swap2\n      swap1\n      tag_41\n      jump\t// in\n    tag_40:\n      tag_42\n      jump\t// in\n    tag_39:\n      mload(0x40)\n      tag_43\n      swap2\n      swap1\n      tag_18\n      jump\t// in\n    tag_43:\n      mload(0x40)\n      dup1\n      swap2\n      sub\n      swap1\n      return\n        /* \"contracts/newBuilding.sol\":7407:7769  function addContractor ( address contractor_Address, string memory name_ ) public onlyByDeveloper disabledContract {\r... */\n    tag_10:\n      tag_44\n      0x04\n      dup1\n      calldatasize\n      sub\n      dup2\n      add\n      swap1\n      tag_45\n      swap2\n      swap1\n      tag_46\n      jump\t// in\n    tag_45:\n      tag_47\n      jump\t// in\n    tag_44:\n      stop\n        /* \"contracts/newBuilding.sol\":8302:9725  function assignMaterial (string memory material, uint quantity, string memory unit, address[] memory supplAddresses, string[] memory supplNames, address batchAddress) external onlyByRegisteredContractor disabledContract {  // , \r... */\n    tag_11:\n      tag_48\n      0x04\n      dup1\n      calldatasize\n      sub\n      dup2\n      add\n      swap1\n      tag_49\n      swap2\n      swap1\n      tag_50\n      jump\t// in\n    tag_49:\n      tag_51\n      jump\t// in\n    tag_48:\n      stop\n        /* \"contracts/newBuilding.sol\":5492:6364  function showSupplyChain (uint assignId) public view returns (string memory chainOfSupply) {\r... */\n    tag_16:\n        /* \"contracts/newBuilding.sol\":5554:5581  string memory chainOfSupply */\n      0x60\n        /* \"contracts/newBuilding.sol\":5640:5644  true */\n      0x01\n        /* \"contracts/newBuilding.sol\":5602:5644  (supplyChain[assignId].length > 0) == true */\n      iszero\n      iszero\n        /* \"contracts/newBuilding.sol\":5634:5635  0 */\n      0x00\n        /* \"contracts/newBuilding.sol\":5603:5614  supplyChain */\n      0x04\n        /* \"contracts/newBuilding.sol\":5603:5624  supplyChain[assignId] */\n      0x00\n        /* \"contracts/newBuilding.sol\":5615:5623  assignId */\n      dup6\n        /* \"contracts/newBuilding.sol\":5603:5624  supplyChain[assignId] */\n      dup2\n      mstore\n      0x20\n      add\n      swap1\n      dup2\n      mstore\n      0x20\n      add\n      0x00\n      keccak256\n        /* \"contracts/newBuilding.sol\":5603:5631  supplyChain[assignId].length */\n      dup1\n      sload\n      swap1\n      pop\n        /* \"contracts/newBuilding.sol\":5603:5635  supplyChain[assignId].length > 0 */\n      gt\n        /* \"contracts/newBuilding.sol\":5602:5644  (supplyChain[assignId].length > 0) == true */\n      iszero\n      iszero\n      eq\n        /* \"contracts/newBuilding.sol\":5594:5712  require((supplyChain[assignId].length > 0) == true, \"Please try again as requested supply chain number was not found\") */\n      tag_53\n      jumpi\n      mload(0x40)\n      0x08c379a000000000000000000000000000000000000000000000000000000000\n      dup2\n      mstore\n      0x04\n      add\n      tag_54\n      swap1\n      tag_55\n      jump\t// in\n    tag_54:\n      mload(0x40)\n      dup1\n      swap2\n      sub\n      swap1\n      revert\n    tag_53:\n        /* \"contracts/newBuilding.sol\":5723:5743  chainOfSupply = \"\\n\" */\n      mload(0x40)\n      dup1\n      0x40\n      add\n      0x40\n      mstore\n      dup1\n      0x01\n      dup2\n      mstore\n      0x20\n      add\n      0x0a00000000000000000000000000000000000000000000000000000000000000\n      dup2\n      mstore\n      pop\n      swap1\n      pop\n        /* \"contracts/newBuilding.sol\":5754:5789  string memory  supplier_address_str */\n      0x60\n        /* \"contracts/newBuilding.sol\":5800:5827  string memory supplier_name */\n      dup1\n        /* \"contracts/newBuilding.sol\":5853:5859  uint i */\n      0x00\n        /* \"contracts/newBuilding.sol\":5848:6316  for (uint i=0; i<supplyChain[assignId].length; i++) {\r... */\n    tag_56:\n        /* \"contracts/newBuilding.sol\":5865:5876  supplyChain */\n      0x04\n        /* \"contracts/newBuilding.sol\":5865:5886  supplyChain[assignId] */\n      0x00\n        /* \"contracts/newBuilding.sol\":5877:5885  assignId */\n      dup7\n        /* \"contracts/newBuilding.sol\":5865:5886  supplyChain[assignId] */\n      dup2\n      mstore\n      0x20\n      add\n      swap1\n      dup2\n      mstore\n      0x20\n      add\n      0x00\n      keccak256\n        /* \"contracts/newBuilding.sol\":5865:5893  supplyChain[assignId].length */\n      dup1\n      sload\n      swap1\n      pop\n        /* \"contracts/newBuilding.sol\":5863:5864  i */\n      dup2\n        /* \"contracts/newBuilding.sol\":5863:5893  i<supplyChain[assignId].length */\n      lt\n        /* \"contracts/newBuilding.sol\":5848:6316  for (uint i=0; i<supplyChain[assignId].length; i++) {\r... */\n      iszero\n      tag_57\n      jumpi\n        /* \"contracts/newBuilding.sol\":5938:5999  Strings.toHexString(supplyChain[assignId][i].supplierAddress) */\n      tag_59\n        /* \"contracts/newBuilding.sol\":5958:5969  supplyChain */\n      0x04\n        /* \"contracts/newBuilding.sol\":5958:5979  supplyChain[assignId] */\n      0x00\n        /* \"contracts/newBuilding.sol\":5970:5978  assignId */\n      dup8\n        /* \"contracts/newBuilding.sol\":5958:5979  supplyChain[assignId] */\n      dup2\n      mstore\n      0x20\n      add\n      swap1\n      dup2\n      mstore\n      0x20\n      add\n      0x00\n      keccak256\n        /* \"contracts/newBuilding.sol\":5980:5981  i */\n      dup3\n        /* \"contracts/newBuilding.sol\":5958:5982  supplyChain[assignId][i] */\n      dup2\n      sload\n      dup2\n      lt\n      tag_60\n      jumpi\n      mstore(0x00, 0x4e487b7100000000000000000000000000000000000000000000000000000000)\n      mstore(0x04, 0x32)\n      revert(0x00, 0x24)\n    tag_60:\n      swap1\n      0x00\n      mstore\n      keccak256(0x00, 0x20)\n      swap1\n      0x02\n      mul\n      add\n        /* \"contracts/newBuilding.sol\":5958:5998  supplyChain[assignId][i].supplierAddress */\n      0x00\n      add\n      0x00\n      swap1\n      sload\n      swap1\n      0x0100\n      exp\n      swap1\n      div\n      0xffffffffffffffffffffffffffffffffffffffff\n      and\n        /* \"contracts/newBuilding.sol\":5938:5957  Strings.toHexString */\n      tag_62\n        /* \"contracts/newBuilding.sol\":5938:5999  Strings.toHexString(supplyChain[assignId][i].supplierAddress) */\n      jump\t// in\n    tag_59:\n        /* \"contracts/newBuilding.sol\":5915:5999  supplier_address_str = Strings.toHexString(supplyChain[assignId][i].supplierAddress) */\n      swap3\n      pop\n        /* \"contracts/newBuilding.sol\":6030:6041  supplyChain */\n      0x04\n        /* \"contracts/newBuilding.sol\":6030:6051  supplyChain[assignId] */\n      0x00\n        /* \"contracts/newBuilding.sol\":6042:6050  assignId */\n      dup7\n        /* \"contracts/newBuilding.sol\":6030:6051  supplyChain[assignId] */\n      dup2\n      mstore\n      0x20\n      add\n      swap1\n      dup2\n      mstore\n      0x20\n      add\n      0x00\n      keccak256\n        /* \"contracts/newBuilding.sol\":6052:6053  i */\n      dup2\n        /* \"contracts/newBuilding.sol\":6030:6054  supplyChain[assignId][i] */\n      dup2\n      sload\n      dup2\n      lt\n      tag_63\n      jumpi\n      mstore(0x00, 0x4e487b7100000000000000000000000000000000000000000000000000000000)\n      mstore(0x04, 0x32)\n      revert(0x00, 0x24)\n    tag_63:\n      swap1\n      0x00\n      mstore\n      keccak256(0x00, 0x20)\n      swap1\n      0x02\n      mul\n      add\n        /* \"contracts/newBuilding.sol\":6030:6067  supplyChain[assignId][i].supplierName */\n      0x01\n      add\n        /* \"contracts/newBuilding.sol\":6014:6067  supplier_name = supplyChain[assignId][i].supplierName */\n      dup1\n      sload\n      tag_65\n      swap1\n      tag_66\n      jump\t// in\n    tag_65:\n      dup1\n      0x1f\n      add\n      0x20\n      dup1\n      swap2\n      div\n      mul\n      0x20\n      add\n      mload(0x40)\n      swap1\n      dup2\n      add\n      0x40\n      mstore\n      dup1\n      swap3\n      swap2\n      swap1\n      dup2\n      dup2\n      mstore\n      0x20\n      add\n      dup3\n      dup1\n      sload\n      tag_67\n      swap1\n      tag_66\n      jump\t// in\n    tag_67:\n      dup1\n      iszero\n      tag_68\n      jumpi\n      dup1\n      0x1f\n      lt\n      tag_69\n      jumpi\n      0x0100\n      dup1\n      dup4\n      sload\n      div\n      mul\n      dup4\n      mstore\n      swap2\n      0x20\n      add\n      swap2\n      jump(tag_68)\n    tag_69:\n      dup3\n      add\n      swap2\n      swap1\n      0x00\n      mstore\n      keccak256(0x00, 0x20)\n      swap1\n    tag_70:\n      dup2\n      sload\n      dup2\n      mstore\n      swap1\n      0x01\n      add\n      swap1\n      0x20\n      add\n      dup1\n      dup4\n      gt\n      tag_70\n      jumpi\n      dup3\n      swap1\n      sub\n      0x1f\n      and\n      dup3\n      add\n      swap2\n    tag_68:\n      pop\n      pop\n      pop\n      pop\n      pop\n      swap2\n      pop\n        /* \"contracts/newBuilding.sol\":6137:6150  chainOfSupply */\n      dup4\n        /* \"contracts/newBuilding.sol\":6159:6179  supplier_address_str */\n      dup4\n        /* \"contracts/newBuilding.sol\":6188:6201  supplier_name */\n      dup4\n        /* \"contracts/newBuilding.sol\":6119:6213  abi.encodePacked( chainOfSupply, \" ( \", supplier_address_str, \" : \", supplier_name , \" ) \\n\" ) */\n      add(0x20, mload(0x40))\n      tag_71\n      swap4\n      swap3\n      swap2\n      swap1\n      tag_72\n      jump\t// in\n    tag_71:\n      mload(0x40)\n      0x20\n      dup2\n      dup4\n      sub\n      sub\n      dup2\n      mstore\n      swap1\n      0x40\n      mstore\n        /* \"contracts/newBuilding.sol\":6096:6214  chainOfSupply = string(abi.encodePacked( chainOfSupply, \" ( \", supplier_address_str, \" : \", supplier_name , \" ) \\n\" )) */\n      swap4\n      pop\n        /* \"contracts/newBuilding.sol\":5895:5898  i++ */\n      dup1\n      dup1\n      tag_73\n      swap1\n      tag_74\n      jump\t// in\n    tag_73:\n      swap2\n      pop\n      pop\n        /* \"contracts/newBuilding.sol\":5848:6316  for (uint i=0; i<supplyChain[assignId].length; i++) {\r... */\n      jump(tag_56)\n    tag_57:\n      pop\n        /* \"contracts/newBuilding.sol\":6336:6356  return chainOfSupply */\n      pop\n      pop\n        /* \"contracts/newBuilding.sol\":5492:6364  function showSupplyChain (uint assignId) public view returns (string memory chainOfSupply) {\r... */\n      swap2\n      swap1\n      pop\n      jump\t// out\n        /* \"contracts/newBuilding.sol\":3555:3884  function generalInfo () public view returns (string memory Building_Name, address Building_Address, address Developer_Address) {\r... */\n    tag_20:\n        /* \"contracts/newBuilding.sol\":3600:3627  string memory Building_Name */\n      0x60\n        /* \"contracts/newBuilding.sol\":3629:3653  address Building_Address */\n      0x00\n        /* \"contracts/newBuilding.sol\":3655:3680  address Developer_Address */\n      dup1\n        /* \"contracts/newBuilding.sol\":3709:3721  BuildingName */\n      0x09\n        /* \"contracts/newBuilding.sol\":3693:3721  Building_Name = BuildingName */\n      dup1\n      sload\n      tag_76\n      swap1\n      tag_66\n      jump\t// in\n    tag_76:\n      dup1\n      0x1f\n      add\n      0x20\n      dup1\n      swap2\n      div\n      mul\n      0x20\n      add\n      mload(0x40)\n      swap1\n      dup2\n      add\n      0x40\n      mstore\n      dup1\n      swap3\n      swap2\n      swap1\n      dup2\n      dup2\n      mstore\n      0x20\n      add\n      dup3\n      dup1\n      sload\n      tag_77\n      swap1\n      tag_66\n      jump\t// in\n    tag_77:\n      dup1\n      iszero\n      tag_78\n      jumpi\n      dup1\n      0x1f\n      lt\n      tag_79\n      jumpi\n      0x0100\n      dup1\n      dup4\n      sload\n      div\n      mul\n      dup4\n      mstore\n      swap2\n      0x20\n      add\n      swap2\n      jump(tag_78)\n    tag_79:\n      dup3\n      add\n      swap2\n      swap1\n      0x00\n      mstore\n      keccak256(0x00, 0x20)\n      swap1\n    tag_80:\n      dup2\n      sload\n      dup2\n      mstore\n      swap1\n      0x01\n      add\n      swap1\n      0x20\n      add\n      dup1\n      dup4\n      gt\n      tag_80\n      jumpi\n      dup3\n      swap1\n      sub\n      0x1f\n      and\n      dup3\n      add\n      swap2\n    tag_78:\n      pop\n      pop\n      pop\n      pop\n      pop\n      swap3\n      pop\n        /* \"contracts/newBuilding.sol\":3751:3766  BuildingAddress */\n      0x08\n      0x00\n      swap1\n      sload\n      swap1\n      0x0100\n      exp\n      swap1\n      div\n      0xffffffffffffffffffffffffffffffffffffffff\n      and\n        /* \"contracts/newBuilding.sol\":3732:3766  Building_Address = BuildingAddress */\n      swap2\n      pop\n        /* \"contracts/newBuilding.sol\":3797:3806  Developer */\n      0x07\n      0x00\n      swap1\n      sload\n      swap1\n      0x0100\n      exp\n      swap1\n      div\n      0xffffffffffffffffffffffffffffffffffffffff\n      and\n        /* \"contracts/newBuilding.sol\":3777:3806  Developer_Address = Developer */\n      swap1\n      pop\n        /* \"contracts/newBuilding.sol\":3555:3884  function generalInfo () public view returns (string memory Building_Name, address Building_Address, address Developer_Address) {\r... */\n      swap1\n      swap2\n      swap3\n      jump\t// out\n        /* \"contracts/newBuilding.sol\":6468:6981  function showAllRegisteredContractors() public view returns (tempContractor[] memory) {\r... */\n    tag_24:\n        /* \"contracts/newBuilding.sol\":6529:6552  tempContractor[] memory */\n      0x60\n        /* \"contracts/newBuilding.sol\":6565:6603  tempContractor[] memory allContractors */\n      0x00\n        /* \"contracts/newBuilding.sol\":6627:6650  allContractorsAddresses */\n      0x05\n        /* \"contracts/newBuilding.sol\":6627:6657  allContractorsAddresses.length */\n      dup1\n      sload\n      swap1\n      pop\n        /* \"contracts/newBuilding.sol\":6606:6658  new tempContractor[](allContractorsAddresses.length) */\n      0xffffffffffffffff\n      dup2\n      gt\n      iszero\n      tag_82\n      jumpi\n      mstore(0x00, 0x4e487b7100000000000000000000000000000000000000000000000000000000)\n      mstore(0x04, 0x41)\n      revert(0x00, 0x24)\n    tag_82:\n      mload(0x40)\n      swap1\n      dup1\n      dup3\n      mstore\n      dup1\n      0x20\n      mul\n      0x20\n      add\n      dup3\n      add\n      0x40\n      mstore\n      dup1\n      iszero\n      tag_83\n      jumpi\n      dup2\n      0x20\n      add\n    tag_84:\n      tag_85\n      tag_86\n      jump\t// in\n    tag_85:\n      dup2\n      mstore\n      0x20\n      add\n      swap1\n      0x01\n      swap1\n      sub\n      swap1\n      dup2\n      tag_84\n      jumpi\n      swap1\n      pop\n    tag_83:\n      pop\n        /* \"contracts/newBuilding.sol\":6565:6658  tempContractor[] memory allContractors = new tempContractor[](allContractorsAddresses.length) */\n      swap1\n      pop\n        /* \"contracts/newBuilding.sol\":6684:6690  uint i */\n      0x00\n        /* \"contracts/newBuilding.sol\":6679:6942  for (uint i=0; i<allContractorsAddresses.length; i++) {\r... */\n    tag_87:\n        /* \"contracts/newBuilding.sol\":6696:6719  allContractorsAddresses */\n      0x05\n        /* \"contracts/newBuilding.sol\":6696:6726  allContractorsAddresses.length */\n      dup1\n      sload\n      swap1\n      pop\n        /* \"contracts/newBuilding.sol\":6694:6695  i */\n      dup2\n        /* \"contracts/newBuilding.sol\":6694:6726  i<allContractorsAddresses.length */\n      lt\n        /* \"contracts/newBuilding.sol\":6679:6942  for (uint i=0; i<allContractorsAddresses.length; i++) {\r... */\n      iszero\n      tag_88\n      jumpi\n        /* \"contracts/newBuilding.sol\":6748:6772  tempContractor memory tc */\n      tag_90\n      tag_86\n      jump\t// in\n    tag_90:\n        /* \"contracts/newBuilding.sol\":6797:6814  listOfContractors */\n      0x06\n        /* \"contracts/newBuilding.sol\":6797:6842  listOfContractors[allContractorsAddresses[i]] */\n      0x00\n        /* \"contracts/newBuilding.sol\":6815:6838  allContractorsAddresses */\n      0x05\n        /* \"contracts/newBuilding.sol\":6839:6840  i */\n      dup5\n        /* \"contracts/newBuilding.sol\":6815:6841  allContractorsAddresses[i] */\n      dup2\n      sload\n      dup2\n      lt\n      tag_91\n      jumpi\n      mstore(0x00, 0x4e487b7100000000000000000000000000000000000000000000000000000000)\n      mstore(0x04, 0x32)\n      revert(0x00, 0x24)\n    tag_91:\n      swap1\n      0x00\n      mstore\n      keccak256(0x00, 0x20)\n      add\n      0x00\n      swap1\n      sload\n      swap1\n      0x0100\n      exp\n      swap1\n      div\n      0xffffffffffffffffffffffffffffffffffffffff\n      and\n        /* \"contracts/newBuilding.sol\":6797:6842  listOfContractors[allContractorsAddresses[i]] */\n      0xffffffffffffffffffffffffffffffffffffffff\n      and\n      0xffffffffffffffffffffffffffffffffffffffff\n      and\n      dup2\n      mstore\n      0x20\n      add\n      swap1\n      dup2\n      mstore\n      0x20\n      add\n      0x00\n      keccak256\n        /* \"contracts/newBuilding.sol\":6787:6842  tc.name = listOfContractors[allContractorsAddresses[i]] */\n      dup1\n      sload\n      tag_93\n      swap1\n      tag_66\n      jump\t// in\n    tag_93:\n      dup1\n      0x1f\n      add\n      0x20\n      dup1\n      swap2\n      div\n      mul\n      0x20\n      add\n      mload(0x40)\n      swap1\n      dup2\n      add\n      0x40\n      mstore\n      dup1\n      swap3\n      swap2\n      swap1\n      dup2\n      dup2\n      mstore\n      0x20\n      add\n      dup3\n      dup1\n      sload\n      tag_94\n      swap1\n      tag_66\n      jump\t// in\n    tag_94:\n      dup1\n      iszero\n      tag_95\n      jumpi\n      dup1\n      0x1f\n      lt\n      tag_96\n      jumpi\n      0x0100\n      dup1\n      dup4\n      sload\n      div\n      mul\n      dup4\n      mstore\n      swap2\n      0x20\n      add\n      swap2\n      jump(tag_95)\n    tag_96:\n      dup3\n      add\n      swap2\n      swap1\n      0x00\n      mstore\n      keccak256(0x00, 0x20)\n      swap1\n    tag_97:\n      dup2\n      sload\n      dup2\n      mstore\n      swap1\n      0x01\n      add\n      swap1\n      0x20\n      add\n      dup1\n      dup4\n      gt\n      tag_97\n      jumpi\n      dup3\n      swap1\n      sub\n      0x1f\n      and\n      dup3\n      add\n      swap2\n    tag_95:\n      pop\n      pop\n      pop\n      pop\n      pop\n        /* \"contracts/newBuilding.sol\":6787:6789  tc */\n      dup2\n        /* \"contracts/newBuilding.sol\":6787:6794  tc.name */\n      0x00\n      add\n        /* \"contracts/newBuilding.sol\":6787:6842  tc.name = listOfContractors[allContractorsAddresses[i]] */\n      dup2\n      swap1\n      mstore\n      pop\n        /* \"contracts/newBuilding.sol\":6867:6890  allContractorsAddresses */\n      0x05\n        /* \"contracts/newBuilding.sol\":6891:6892  i */\n      dup3\n        /* \"contracts/newBuilding.sol\":6867:6893  allContractorsAddresses[i] */\n      dup2\n      sload\n      dup2\n      lt\n      tag_98\n      jumpi\n      mstore(0x00, 0x4e487b7100000000000000000000000000000000000000000000000000000000)\n      mstore(0x04, 0x32)\n      revert(0x00, 0x24)\n    tag_98:\n      swap1\n      0x00\n      mstore\n      keccak256(0x00, 0x20)\n      add\n      0x00\n      swap1\n      sload\n      swap1\n      0x0100\n      exp\n      swap1\n      div\n      0xffffffffffffffffffffffffffffffffffffffff\n      and\n        /* \"contracts/newBuilding.sol\":6857:6859  tc */\n      dup2\n        /* \"contracts/newBuilding.sol\":6857:6864  tc.addr */\n      0x20\n      add\n        /* \"contracts/newBuilding.sol\":6857:6893  tc.addr = allContractorsAddresses[i] */\n      swap1\n      0xffffffffffffffffffffffffffffffffffffffff\n      and\n      swap1\n      dup2\n      0xffffffffffffffffffffffffffffffffffffffff\n      and\n      dup2\n      mstore\n      pop\n      pop\n        /* \"contracts/newBuilding.sol\":6928:6930  tc */\n      dup1\n        /* \"contracts/newBuilding.sol\":6908:6922  allContractors */\n      dup4\n        /* \"contracts/newBuilding.sol\":6923:6924  i */\n      dup4\n        /* \"contracts/newBuilding.sol\":6908:6925  allContractors[i] */\n      dup2\n      mload\n      dup2\n      lt\n      tag_100\n      jumpi\n      mstore(0x00, 0x4e487b7100000000000000000000000000000000000000000000000000000000)\n      mstore(0x04, 0x32)\n      revert(0x00, 0x24)\n    tag_100:\n      0x20\n      mul\n      0x20\n      add\n      add\n        /* \"contracts/newBuilding.sol\":6908:6930  allContractors[i] = tc */\n      dup2\n      swap1\n      mstore\n      pop\n        /* \"contracts/newBuilding.sol\":6679:6942  for (uint i=0; i<allContractorsAddresses.length; i++) {\r... */\n      pop\n        /* \"contracts/newBuilding.sol\":6728:6731  i++ */\n      dup1\n      dup1\n      tag_101\n      swap1\n      tag_74\n      jump\t// in\n    tag_101:\n      swap2\n      pop\n      pop\n        /* \"contracts/newBuilding.sol\":6679:6942  for (uint i=0; i<allContractorsAddresses.length; i++) {\r... */\n      jump(tag_87)\n    tag_88:\n      pop\n        /* \"contracts/newBuilding.sol\":6959:6973  allContractors */\n      dup1\n        /* \"contracts/newBuilding.sol\":6952:6973  return allContractors */\n      swap2\n      pop\n      pop\n        /* \"contracts/newBuilding.sol\":6468:6981  function showAllRegisteredContractors() public view returns (tempContractor[] memory) {\r... */\n      swap1\n      jump\t// out\n        /* \"contracts/newBuilding.sol\":4473:5366  function showOverviewOfMaterial (string memory material) public view returns  (Batch[] memory) { \r... */\n    tag_30:\n        /* \"contracts/newBuilding.sol\":4552:4566  Batch[] memory */\n      0x60\n        /* \"contracts/newBuilding.sol\":4706:4710  true */\n      0x01\n        /* \"contracts/newBuilding.sol\":4666:4710  (listOfBatches[material].length > 0) == true */\n      iszero\n      iszero\n        /* \"contracts/newBuilding.sol\":4700:4701  0 */\n      0x00\n        /* \"contracts/newBuilding.sol\":4667:4680  listOfBatches */\n      0x03\n        /* \"contracts/newBuilding.sol\":4681:4689  material */\n      dup5\n        /* \"contracts/newBuilding.sol\":4667:4690  listOfBatches[material] */\n      mload(0x40)\n      tag_103\n      swap2\n      swap1\n      tag_104\n      jump\t// in\n    tag_103:\n      swap1\n      dup2\n      mstore\n      0x20\n      add\n      mload(0x40)\n      dup1\n      swap2\n      sub\n      swap1\n      keccak256\n        /* \"contracts/newBuilding.sol\":4667:4697  listOfBatches[material].length */\n      dup1\n      sload\n      swap1\n      pop\n        /* \"contracts/newBuilding.sol\":4667:4701  listOfBatches[material].length > 0 */\n      gt\n        /* \"contracts/newBuilding.sol\":4666:4710  (listOfBatches[material].length > 0) == true */\n      iszero\n      iszero\n      eq\n        /* \"contracts/newBuilding.sol\":4658:4767  require((listOfBatches[material].length > 0) == true, \"Please try again as requested material was not found\") */\n      tag_105\n      jumpi\n      mload(0x40)\n      0x08c379a000000000000000000000000000000000000000000000000000000000\n      dup2\n      mstore\n      0x04\n      add\n      tag_106\n      swap1\n      tag_107\n      jump\t// in\n    tag_106:\n      mload(0x40)\n      dup1\n      swap2\n      sub\n      swap1\n      revert\n    tag_105:\n        /* \"contracts/newBuilding.sol\":4787:4813  Batch[] memory batchesList */\n      0x00\n        /* \"contracts/newBuilding.sol\":4828:4841  listOfBatches */\n      0x03\n        /* \"contracts/newBuilding.sol\":4842:4850  material */\n      dup4\n        /* \"contracts/newBuilding.sol\":4828:4851  listOfBatches[material] */\n      mload(0x40)\n      tag_108\n      swap2\n      swap1\n      tag_104\n      jump\t// in\n    tag_108:\n      swap1\n      dup2\n      mstore\n      0x20\n      add\n      mload(0x40)\n      dup1\n      swap2\n      sub\n      swap1\n      keccak256\n        /* \"contracts/newBuilding.sol\":4828:4858  listOfBatches[material].length */\n      dup1\n      sload\n      swap1\n      pop\n        /* \"contracts/newBuilding.sol\":4816:4859  new Batch[](listOfBatches[material].length) */\n      0xffffffffffffffff\n      dup2\n      gt\n      iszero\n      tag_109\n      jumpi\n      mstore(0x00, 0x4e487b7100000000000000000000000000000000000000000000000000000000)\n      mstore(0x04, 0x41)\n      revert(0x00, 0x24)\n    tag_109:\n      mload(0x40)\n      swap1\n      dup1\n      dup3\n      mstore\n      dup1\n      0x20\n      mul\n      0x20\n      add\n      dup3\n      add\n      0x40\n      mstore\n      dup1\n      iszero\n      tag_110\n      jumpi\n      dup2\n      0x20\n      add\n    tag_111:\n      tag_112\n      tag_113\n      jump\t// in\n    tag_112:\n      dup2\n      mstore\n      0x20\n      add\n      swap1\n      0x01\n      swap1\n      sub\n      swap1\n      dup2\n      tag_111\n      jumpi\n      swap1\n      pop\n    tag_110:\n      pop\n        /* \"contracts/newBuilding.sol\":4787:4859  Batch[] memory batchesList = new Batch[](listOfBatches[material].length) */\n      swap1\n      pop\n        /* \"contracts/newBuilding.sol\":4879:4885  uint i */\n      0x00\n        /* \"contracts/newBuilding.sol\":4874:5320  for (uint i=0; i<listOfBatches[material].length; i++) {\r... */\n    tag_114:\n        /* \"contracts/newBuilding.sol\":4891:4904  listOfBatches */\n      0x03\n        /* \"contracts/newBuilding.sol\":4905:4913  material */\n      dup5\n        /* \"contracts/newBuilding.sol\":4891:4914  listOfBatches[material] */\n      mload(0x40)\n      tag_117\n      swap2\n      swap1\n      tag_104\n      jump\t// in\n    tag_117:\n      swap1\n      dup2\n      mstore\n      0x20\n      add\n      mload(0x40)\n      dup1\n      swap2\n      sub\n      swap1\n      keccak256\n        /* \"contracts/newBuilding.sol\":4891:4921  listOfBatches[material].length */\n      dup1\n      sload\n      swap1\n      pop\n        /* \"contracts/newBuilding.sol\":4889:4890  i */\n      dup2\n        /* \"contracts/newBuilding.sol\":4889:4921  i<listOfBatches[material].length */\n      lt\n        /* \"contracts/newBuilding.sol\":4874:5320  for (uint i=0; i<listOfBatches[material].length; i++) {\r... */\n      iszero\n      tag_115\n      jumpi\n        /* \"contracts/newBuilding.sol\":4943:4958  Batch memory ba */\n      tag_118\n      tag_113\n      jump\t// in\n    tag_118:\n        /* \"contracts/newBuilding.sol\":4992:5005  listOfBatches */\n      0x03\n        /* \"contracts/newBuilding.sol\":5006:5014  material */\n      dup6\n        /* \"contracts/newBuilding.sol\":4992:5015  listOfBatches[material] */\n      mload(0x40)\n      tag_119\n      swap2\n      swap1\n      tag_104\n      jump\t// in\n    tag_119:\n      swap1\n      dup2\n      mstore\n      0x20\n      add\n      mload(0x40)\n      dup1\n      swap2\n      sub\n      swap1\n      keccak256\n        /* \"contracts/newBuilding.sol\":5016:5017  i */\n      dup3\n        /* \"contracts/newBuilding.sol\":4992:5018  listOfBatches[material][i] */\n      dup2\n      sload\n      dup2\n      lt\n      tag_120\n      jumpi\n      mstore(0x00, 0x4e487b7100000000000000000000000000000000000000000000000000000000)\n      mstore(0x04, 0x32)\n      revert(0x00, 0x24)\n    tag_120:\n      swap1\n      0x00\n      mstore\n      keccak256(0x00, 0x20)\n      swap1\n      0x04\n      mul\n      add\n        /* \"contracts/newBuilding.sol\":4992:5032  listOfBatches[material][i].assignementId */\n      0x00\n      add\n      sload\n        /* \"contracts/newBuilding.sol\":4973:4975  ba */\n      dup2\n        /* \"contracts/newBuilding.sol\":4973:4989  ba.assignementId */\n      0x00\n      add\n        /* \"contracts/newBuilding.sol\":4973:5032  ba.assignementId = listOfBatches[material][i].assignementId */\n      dup2\n      dup2\n      mstore\n      pop\n      pop\n        /* \"contracts/newBuilding.sol\":5073:5086  listOfBatches */\n      0x03\n        /* \"contracts/newBuilding.sol\":5087:5095  material */\n      dup6\n        /* \"contracts/newBuilding.sol\":5073:5096  listOfBatches[material] */\n      mload(0x40)\n      tag_122\n      swap2\n      swap1\n      tag_104\n      jump\t// in\n    tag_122:\n      swap1\n      dup2\n      mstore\n      0x20\n      add\n      mload(0x40)\n      dup1\n      swap2\n      sub\n      swap1\n      keccak256\n        /* \"contracts/newBuilding.sol\":5097:5098  i */\n      dup3\n        /* \"contracts/newBuilding.sol\":5073:5099  listOfBatches[material][i] */\n      dup2\n      sload\n      dup2\n      lt\n      tag_123\n      jumpi\n      mstore(0x00, 0x4e487b7100000000000000000000000000000000000000000000000000000000)\n      mstore(0x04, 0x32)\n      revert(0x00, 0x24)\n    tag_123:\n      swap1\n      0x00\n      mstore\n      keccak256(0x00, 0x20)\n      swap1\n      0x04\n      mul\n      add\n        /* \"contracts/newBuilding.sol\":5073:5120  listOfBatches[material][i].batchContractAddress */\n      0x01\n      add\n      0x00\n      swap1\n      sload\n      swap1\n      0x0100\n      exp\n      swap1\n      div\n      0xffffffffffffffffffffffffffffffffffffffff\n      and\n        /* \"contracts/newBuilding.sol\":5047:5049  ba */\n      dup2\n        /* \"contracts/newBuilding.sol\":5047:5070  ba.batchContractAddress */\n      0x20\n      add\n        /* \"contracts/newBuilding.sol\":5047:5120  ba.batchContractAddress = listOfBatches[material][i].batchContractAddress */\n      swap1\n      0xffffffffffffffffffffffffffffffffffffffff\n      and\n      swap1\n      dup2\n      0xffffffffffffffffffffffffffffffffffffffff\n      and\n      dup2\n      mstore\n      pop\n      pop\n        /* \"contracts/newBuilding.sol\":5157:5170  listOfBatches */\n      0x03\n        /* \"contracts/newBuilding.sol\":5171:5179  material */\n      dup6\n        /* \"contracts/newBuilding.sol\":5157:5180  listOfBatches[material] */\n      mload(0x40)\n      tag_125\n      swap2\n      swap1\n      tag_104\n      jump\t// in\n    tag_125:\n      swap1\n      dup2\n      mstore\n      0x20\n      add\n      mload(0x40)\n      dup1\n      swap2\n      sub\n      swap1\n      keccak256\n        /* \"contracts/newBuilding.sol\":5181:5182  i */\n      dup3\n        /* \"contracts/newBuilding.sol\":5157:5183  listOfBatches[material][i] */\n      dup2\n      sload\n      dup2\n      lt\n      tag_126\n      jumpi\n      mstore(0x00, 0x4e487b7100000000000000000000000000000000000000000000000000000000)\n      mstore(0x04, 0x32)\n      revert(0x00, 0x24)\n    tag_126:\n      swap1\n      0x00\n      mstore\n      keccak256(0x00, 0x20)\n      swap1\n      0x04\n      mul\n      add\n        /* \"contracts/newBuilding.sol\":5157:5200  listOfBatches[material][i].quantityAssigned */\n      0x02\n      add\n      sload\n        /* \"contracts/newBuilding.sol\":5135:5137  ba */\n      dup2\n        /* \"contracts/newBuilding.sol\":5135:5154  ba.quantityAssigned */\n      0x40\n      add\n        /* \"contracts/newBuilding.sol\":5135:5200  ba.quantityAssigned = listOfBatches[material][i].quantityAssigned */\n      dup2\n      dup2\n      mstore\n      pop\n      pop\n        /* \"contracts/newBuilding.sol\":5233:5246  listOfBatches */\n      0x03\n        /* \"contracts/newBuilding.sol\":5247:5255  material */\n      dup6\n        /* \"contracts/newBuilding.sol\":5233:5256  listOfBatches[material] */\n      mload(0x40)\n      tag_128\n      swap2\n      swap1\n      tag_104\n      jump\t// in\n    tag_128:\n      swap1\n      dup2\n      mstore\n      0x20\n      add\n      mload(0x40)\n      dup1\n      swap2\n      sub\n      swap1\n      keccak256\n        /* \"contracts/newBuilding.sol\":5257:5258  i */\n      dup3\n        /* \"contracts/newBuilding.sol\":5233:5259  listOfBatches[material][i] */\n      dup2\n      sload\n      dup2\n      lt\n      tag_129\n      jumpi\n      mstore(0x00, 0x4e487b7100000000000000000000000000000000000000000000000000000000)\n      mstore(0x04, 0x32)\n      revert(0x00, 0x24)\n    tag_129:\n      swap1\n      0x00\n      mstore\n      keccak256(0x00, 0x20)\n      swap1\n      0x04\n      mul\n      add\n        /* \"contracts/newBuilding.sol\":5233:5272  listOfBatches[material][i].quantityUnit */\n      0x03\n      add\n        /* \"contracts/newBuilding.sol\":5215:5272  ba.quantityUnit = listOfBatches[material][i].quantityUnit */\n      dup1\n      sload\n      tag_131\n      swap1\n      tag_66\n      jump\t// in\n    tag_131:\n      dup1\n      0x1f\n      add\n      0x20\n      dup1\n      swap2\n      div\n      mul\n      0x20\n      add\n      mload(0x40)\n      swap1\n      dup2\n      add\n      0x40\n      mstore\n      dup1\n      swap3\n      swap2\n      swap1\n      dup2\n      dup2\n      mstore\n      0x20\n      add\n      dup3\n      dup1\n      sload\n      tag_132\n      swap1\n      tag_66\n      jump\t// in\n    tag_132:\n      dup1\n      iszero\n      tag_133\n      jumpi\n      dup1\n      0x1f\n      lt\n      tag_134\n      jumpi\n      0x0100\n      dup1\n      dup4\n      sload\n      div\n      mul\n      dup4\n      mstore\n      swap2\n      0x20\n      add\n      swap2\n      jump(tag_133)\n    tag_134:\n      dup3\n      add\n      swap2\n      swap1\n      0x00\n      mstore\n      keccak256(0x00, 0x20)\n      swap1\n    tag_135:\n      dup2\n      sload\n      dup2\n      mstore\n      swap1\n      0x01\n      add\n      swap1\n      0x20\n      add\n      dup1\n      dup4\n      gt\n      tag_135\n      jumpi\n      dup3\n      swap1\n      sub\n      0x1f\n      and\n      dup3\n      add\n      swap2\n    tag_133:\n      pop\n      pop\n      pop\n      pop\n      pop\n        /* \"contracts/newBuilding.sol\":5215:5217  ba */\n      dup2\n        /* \"contracts/newBuilding.sol\":5215:5230  ba.quantityUnit */\n      0x60\n      add\n        /* \"contracts/newBuilding.sol\":5215:5272  ba.quantityUnit = listOfBatches[material][i].quantityUnit */\n      dup2\n      swap1\n      mstore\n      pop\n        /* \"contracts/newBuilding.sol\":5304:5306  ba */\n      dup1\n        /* \"contracts/newBuilding.sol\":5287:5298  batchesList */\n      dup4\n        /* \"contracts/newBuilding.sol\":5299:5300  i */\n      dup4\n        /* \"contracts/newBuilding.sol\":5287:5301  batchesList[i] */\n      dup2\n      mload\n      dup2\n      lt\n      tag_136\n      jumpi\n      mstore(0x00, 0x4e487b7100000000000000000000000000000000000000000000000000000000)\n      mstore(0x04, 0x32)\n      revert(0x00, 0x24)\n    tag_136:\n      0x20\n      mul\n      0x20\n      add\n      add\n        /* \"contracts/newBuilding.sol\":5287:5306  batchesList[i] = ba */\n      dup2\n      swap1\n      mstore\n      pop\n        /* \"contracts/newBuilding.sol\":4874:5320  for (uint i=0; i<listOfBatches[material].length; i++) {\r... */\n      pop\n        /* \"contracts/newBuilding.sol\":4923:4926  i++ */\n      dup1\n      dup1\n      tag_137\n      swap1\n      tag_74\n      jump\t// in\n    tag_137:\n      swap2\n      pop\n      pop\n        /* \"contracts/newBuilding.sol\":4874:5320  for (uint i=0; i<listOfBatches[material].length; i++) {\r... */\n      jump(tag_114)\n    tag_115:\n      pop\n        /* \"contracts/newBuilding.sol\":5337:5348  batchesList */\n      dup1\n        /* \"contracts/newBuilding.sol\":5330:5348  return batchesList */\n      swap2\n      pop\n      pop\n        /* \"contracts/newBuilding.sol\":4473:5366  function showOverviewOfMaterial (string memory material) public view returns  (Batch[] memory) { \r... */\n      swap2\n      swap1\n      pop\n      jump\t// out\n        /* \"contracts/newBuilding.sol\":4169:4291  function showListOfMaterials () public view returns (string[] memory ) {\r... */\n    tag_34:\n        /* \"contracts/newBuilding.sol\":4222:4237  string[] memory */\n      0x60\n        /* \"contracts/newBuilding.sol\":4268:4283  listOfMaterials */\n      0x02\n        /* \"contracts/newBuilding.sol\":4261:4283  return listOfMaterials */\n      dup1\n      sload\n      dup1\n      0x20\n      mul\n      0x20\n      add\n      mload(0x40)\n      swap1\n      dup2\n      add\n      0x40\n      mstore\n      dup1\n      swap3\n      swap2\n      swap1\n      dup2\n      dup2\n      mstore\n      0x20\n      add\n      0x00\n      swap1\n    tag_139:\n      dup3\n      dup3\n      lt\n      iszero\n      tag_140\n      jumpi\n      dup4\n      dup3\n      swap1\n      0x00\n      mstore\n      keccak256(0x00, 0x20)\n      add\n      dup1\n      sload\n      tag_142\n      swap1\n      tag_66\n      jump\t// in\n    tag_142:\n      dup1\n      0x1f\n      add\n      0x20\n      dup1\n      swap2\n      div\n      mul\n      0x20\n      add\n      mload(0x40)\n      swap1\n      dup2\n      add\n      0x40\n      mstore\n      dup1\n      swap3\n      swap2\n      swap1\n      dup2\n      dup2\n      mstore\n      0x20\n      add\n      dup3\n      dup1\n      sload\n      tag_143\n      swap1\n      tag_66\n      jump\t// in\n    tag_143:\n      dup1\n      iszero\n      tag_144\n      jumpi\n      dup1\n      0x1f\n      lt\n      tag_145\n      jumpi\n      0x0100\n      dup1\n      dup4\n      sload\n      div\n      mul\n      dup4\n      mstore\n      swap2\n      0x20\n      add\n      swap2\n      jump(tag_144)\n    tag_145:\n      dup3\n      add\n      swap2\n      swap1\n      0x00\n      mstore\n      keccak256(0x00, 0x20)\n      swap1\n    tag_146:\n      dup2\n      sload\n      dup2\n      mstore\n      swap1\n      0x01\n      add\n      swap1\n      0x20\n      add\n      dup1\n      dup4\n      gt\n      tag_146\n      jumpi\n      dup3\n      swap1\n      sub\n      0x1f\n      and\n      dup3\n      add\n      swap2\n    tag_144:\n      pop\n      pop\n      pop\n      pop\n      pop\n      dup2\n      mstore\n      0x20\n      add\n      swap1\n      0x01\n      add\n      swap1\n      jump(tag_139)\n    tag_140:\n      pop\n      pop\n      pop\n      pop\n      swap1\n      pop\n        /* \"contracts/newBuilding.sol\":4169:4291  function showListOfMaterials () public view returns (string[] memory ) {\r... */\n      swap1\n      jump\t// out\n        /* \"contracts/newBuilding.sol\":10268:10476  function disableOrEnableContract () external {\r... */\n    tag_38:\n        /* \"contracts/newBuilding.sol\":10346:10368  factoryContractAddress */\n      0x00\n      0x01\n      swap1\n      sload\n      swap1\n      0x0100\n      exp\n      swap1\n      div\n      0xffffffffffffffffffffffffffffffffffffffff\n      and\n        /* \"contracts/newBuilding.sol\":10332:10368  msg.sender == factoryContractAddress */\n      0xffffffffffffffffffffffffffffffffffffffff\n      and\n        /* \"contracts/newBuilding.sol\":10332:10342  msg.sender */\n      caller\n        /* \"contracts/newBuilding.sol\":10332:10368  msg.sender == factoryContractAddress */\n      0xffffffffffffffffffffffffffffffffffffffff\n      and\n      eq\n        /* \"contracts/newBuilding.sol\":10324:10417  require(msg.sender == factoryContractAddress, \"Only factory contract can call this function\") */\n      tag_148\n      jumpi\n      mload(0x40)\n      0x08c379a000000000000000000000000000000000000000000000000000000000\n      dup2\n      mstore\n      0x04\n      add\n      tag_149\n      swap1\n      tag_150\n      jump\t// in\n    tag_149:\n      mload(0x40)\n      dup1\n      swap2\n      sub\n      swap1\n      revert\n    tag_148:\n        /* \"contracts/newBuilding.sol\":10450:10468  contractIsDisabled */\n      0x00\n      dup1\n      sload\n      swap1\n      0x0100\n      exp\n      swap1\n      div\n      0xff\n      and\n        /* \"contracts/newBuilding.sol\":10449:10468  !contractIsDisabled */\n      iszero\n        /* \"contracts/newBuilding.sol\":10428:10446  contractIsDisabled */\n      0x00\n      dup1\n        /* \"contracts/newBuilding.sol\":10428:10468  contractIsDisabled = !contractIsDisabled */\n      0x0100\n      exp\n      dup2\n      sload\n      dup2\n      0xff\n      mul\n      not\n      and\n      swap1\n      dup4\n      iszero\n      iszero\n      mul\n      or\n      swap1\n      sstore\n      pop\n        /* \"contracts/newBuilding.sol\":10268:10476  function disableOrEnableContract () external {\r... */\n      jump\t// out\n        /* \"contracts/newBuilding.sol\":3902:3953  mapping (address => string) public BatchCertificate */\n    tag_42:\n      mstore(0x20, 0x0a)\n      dup1\n      0x00\n      mstore\n      keccak256(0x00, 0x40)\n      0x00\n      swap2\n      pop\n      swap1\n      pop\n      dup1\n      sload\n      tag_151\n      swap1\n      tag_66\n      jump\t// in\n    tag_151:\n      dup1\n      0x1f\n      add\n      0x20\n      dup1\n      swap2\n      div\n      mul\n      0x20\n      add\n      mload(0x40)\n      swap1\n      dup2\n      add\n      0x40\n      mstore\n      dup1\n      swap3\n      swap2\n      swap1\n      dup2\n      dup2\n      mstore\n      0x20\n      add\n      dup3\n      dup1\n      sload\n      tag_152\n      swap1\n      tag_66\n      jump\t// in\n    tag_152:\n      dup1\n      iszero\n      tag_153\n      jumpi\n      dup1\n      0x1f\n      lt\n      tag_154\n      jumpi\n      0x0100\n      dup1\n      dup4\n      sload\n      div\n      mul\n      dup4\n      mstore\n      swap2\n      0x20\n      add\n      swap2\n      jump(tag_153)\n    tag_154:\n      dup3\n      add\n      swap2\n      swap1\n      0x00\n      mstore\n      keccak256(0x00, 0x20)\n      swap1\n    tag_155:\n      dup2\n      sload\n      dup2\n      mstore\n      swap1\n      0x01\n      add\n      swap1\n      0x20\n      add\n      dup1\n      dup4\n      gt\n      tag_155\n      jumpi\n      dup3\n      swap1\n      sub\n      0x1f\n      and\n      dup3\n      add\n      swap2\n    tag_153:\n      pop\n      pop\n      pop\n      pop\n      pop\n      dup2\n      jump\t// out\n        /* \"contracts/newBuilding.sol\":7407:7769  function addContractor ( address contractor_Address, string memory name_ ) public onlyByDeveloper disabledContract {\r... */\n    tag_47:\n        /* \"contracts/newBuilding.sol\":7836:7845  Developer */\n      0x07\n      0x00\n      swap1\n      sload\n      swap1\n      0x0100\n      exp\n      swap1\n      div\n      0xffffffffffffffffffffffffffffffffffffffff\n      and\n        /* \"contracts/newBuilding.sol\":7823:7845  tx.origin == Developer */\n      0xffffffffffffffffffffffffffffffffffffffff\n      and\n        /* \"contracts/newBuilding.sol\":7823:7832  tx.origin */\n      origin\n        /* \"contracts/newBuilding.sol\":7823:7845  tx.origin == Developer */\n      0xffffffffffffffffffffffffffffffffffffffff\n      and\n      eq\n        /* \"contracts/newBuilding.sol\":7815:7887  require(tx.origin == Developer, \"Can only be executed by the Developer\") */\n      tag_157\n      jumpi\n      mload(0x40)\n      0x08c379a000000000000000000000000000000000000000000000000000000000\n      dup2\n      mstore\n      0x04\n      add\n      tag_158\n      swap1\n      tag_159\n      jump\t// in\n    tag_158:\n      mload(0x40)\n      dup1\n      swap2\n      sub\n      swap1\n      revert\n    tag_157:\n        /* \"contracts/newBuilding.sol\":10558:10563  false */\n      0x00\n        /* \"contracts/newBuilding.sol\":10536:10563  contractIsDisabled == false */\n      iszero\n      iszero\n        /* \"contracts/newBuilding.sol\":10536:10554  contractIsDisabled */\n      0x00\n      dup1\n      sload\n      swap1\n      0x0100\n      exp\n      swap1\n      div\n      0xff\n      and\n        /* \"contracts/newBuilding.sol\":10536:10563  contractIsDisabled == false */\n      iszero\n      iszero\n      eq\n        /* \"contracts/newBuilding.sol\":10528:10594  require(contractIsDisabled == false, \"Contract has been disabled\") */\n      tag_161\n      jumpi\n      mload(0x40)\n      0x08c379a000000000000000000000000000000000000000000000000000000000\n      dup2\n      mstore\n      0x04\n      add\n      tag_162\n      swap1\n      tag_163\n      jump\t// in\n    tag_162:\n      mload(0x40)\n      dup1\n      swap2\n      sub\n      swap1\n      revert\n    tag_161:\n        /* \"contracts/newBuilding.sol\":7596:7597  0 */\n      0x00\n        /* \"contracts/newBuilding.sol\":7547:7564  listOfContractors */\n      0x06\n        /* \"contracts/newBuilding.sol\":7547:7584  listOfContractors[contractor_Address] */\n      0x00\n        /* \"contracts/newBuilding.sol\":7565:7583  contractor_Address */\n      dup5\n        /* \"contracts/newBuilding.sol\":7547:7584  listOfContractors[contractor_Address] */\n      0xffffffffffffffffffffffffffffffffffffffff\n      and\n      0xffffffffffffffffffffffffffffffffffffffff\n      and\n      dup2\n      mstore\n      0x20\n      add\n      swap1\n      dup2\n      mstore\n      0x20\n      add\n      0x00\n      keccak256\n        /* \"contracts/newBuilding.sol\":7541:7592  bytes(listOfContractors[contractor_Address]).length */\n      dup1\n      sload\n      tag_165\n      swap1\n      tag_66\n      jump\t// in\n    tag_165:\n      swap1\n      pop\n        /* \"contracts/newBuilding.sol\":7541:7597  bytes(listOfContractors[contractor_Address]).length == 0 */\n      eq\n        /* \"contracts/newBuilding.sol\":7533:7635  require(bytes(listOfContractors[contractor_Address]).length == 0, \"Contractor is already registered\" ) */\n      tag_166\n      jumpi\n      mload(0x40)\n      0x08c379a000000000000000000000000000000000000000000000000000000000\n      dup2\n      mstore\n      0x04\n      add\n      tag_167\n      swap1\n      tag_168\n      jump\t// in\n    tag_167:\n      mload(0x40)\n      dup1\n      swap2\n      sub\n      swap1\n      revert\n    tag_166:\n        /* \"contracts/newBuilding.sol\":7686:7691  name_ */\n      dup1\n        /* \"contracts/newBuilding.sol\":7646:7663  listOfContractors */\n      0x06\n        /* \"contracts/newBuilding.sol\":7646:7683  listOfContractors[contractor_Address] */\n      0x00\n        /* \"contracts/newBuilding.sol\":7664:7682  contractor_Address */\n      dup5\n        /* \"contracts/newBuilding.sol\":7646:7683  listOfContractors[contractor_Address] */\n      0xffffffffffffffffffffffffffffffffffffffff\n      and\n      0xffffffffffffffffffffffffffffffffffffffff\n      and\n      dup2\n      mstore\n      0x20\n      add\n      swap1\n      dup2\n      mstore\n      0x20\n      add\n      0x00\n      keccak256\n        /* \"contracts/newBuilding.sol\":7646:7691  listOfContractors[contractor_Address] = name_ */\n      swap1\n      dup1\n      mload\n      swap1\n      0x20\n      add\n      swap1\n      tag_169\n      swap3\n      swap2\n      swap1\n      tag_170\n      jump\t// in\n    tag_169:\n      pop\n        /* \"contracts/newBuilding.sol\":7703:7726  allContractorsAddresses */\n      0x05\n        /* \"contracts/newBuilding.sol\":7732:7750  contractor_Address */\n      dup3\n        /* \"contracts/newBuilding.sol\":7703:7751  allContractorsAddresses.push(contractor_Address) */\n      swap1\n      dup1\n      0x01\n      dup2\n      sload\n      add\n      dup1\n      dup3\n      sstore\n      dup1\n      swap2\n      pop\n      pop\n      0x01\n      swap1\n      sub\n      swap1\n      0x00\n      mstore\n      keccak256(0x00, 0x20)\n      add\n      0x00\n      swap1\n      swap2\n      swap1\n      swap2\n      swap1\n      swap2\n      0x0100\n      exp\n      dup2\n      sload\n      dup2\n      0xffffffffffffffffffffffffffffffffffffffff\n      mul\n      not\n      and\n      swap1\n      dup4\n      0xffffffffffffffffffffffffffffffffffffffff\n      and\n      mul\n      or\n      swap1\n      sstore\n      pop\n        /* \"contracts/newBuilding.sol\":7407:7769  function addContractor ( address contractor_Address, string memory name_ ) public onlyByDeveloper disabledContract {\r... */\n      pop\n      pop\n      jump\t// out\n        /* \"contracts/newBuilding.sol\":8302:9725  function assignMaterial (string memory material, uint quantity, string memory unit, address[] memory supplAddresses, string[] memory supplNames, address batchAddress) external onlyByRegisteredContractor disabledContract {  // , \r... */\n    tag_51:\n        /* \"contracts/newBuilding.sol\":9838:9839  0 */\n      0x00\n        /* \"contracts/newBuilding.sol\":9798:9815  listOfContractors */\n      0x06\n        /* \"contracts/newBuilding.sol\":9798:9826  listOfContractors[tx.origin] */\n      0x00\n        /* \"contracts/newBuilding.sol\":9816:9825  tx.origin */\n      origin\n        /* \"contracts/newBuilding.sol\":9798:9826  listOfContractors[tx.origin] */\n      0xffffffffffffffffffffffffffffffffffffffff\n      and\n      0xffffffffffffffffffffffffffffffffffffffff\n      and\n      dup2\n      mstore\n      0x20\n      add\n      swap1\n      dup2\n      mstore\n      0x20\n      add\n      0x00\n      keccak256\n        /* \"contracts/newBuilding.sol\":9792:9834  bytes(listOfContractors[tx.origin]).length */\n      dup1\n      sload\n      tag_173\n      swap1\n      tag_66\n      jump\t// in\n    tag_173:\n      swap1\n      pop\n        /* \"contracts/newBuilding.sol\":9792:9839  bytes(listOfContractors[tx.origin]).length != 0 */\n      eq\n      iszero\n        /* \"contracts/newBuilding.sol\":9784:9894  require(bytes(listOfContractors[tx.origin]).length != 0, \"Can only be executed by the registered Contractor\" ) */\n      tag_174\n      jumpi\n      mload(0x40)\n      0x08c379a000000000000000000000000000000000000000000000000000000000\n      dup2\n      mstore\n      0x04\n      add\n      tag_175\n      swap1\n      tag_176\n      jump\t// in\n    tag_175:\n      mload(0x40)\n      dup1\n      swap2\n      sub\n      swap1\n      revert\n    tag_174:\n        /* \"contracts/newBuilding.sol\":10558:10563  false */\n      0x00\n        /* \"contracts/newBuilding.sol\":10536:10563  contractIsDisabled == false */\n      iszero\n      iszero\n        /* \"contracts/newBuilding.sol\":10536:10554  contractIsDisabled */\n      0x00\n      dup1\n      sload\n      swap1\n      0x0100\n      exp\n      swap1\n      div\n      0xff\n      and\n        /* \"contracts/newBuilding.sol\":10536:10563  contractIsDisabled == false */\n      iszero\n      iszero\n      eq\n        /* \"contracts/newBuilding.sol\":10528:10594  require(contractIsDisabled == false, \"Contract has been disabled\") */\n      tag_178\n      jumpi\n      mload(0x40)\n      0x08c379a000000000000000000000000000000000000000000000000000000000\n      dup2\n      mstore\n      0x04\n      add\n      tag_179\n      swap1\n      tag_163\n      jump\t// in\n    tag_179:\n      mload(0x40)\n      dup1\n      swap2\n      sub\n      swap1\n      revert\n    tag_178:\n        /* \"contracts/newBuilding.sol\":8595:8596  0 */\n      0x00\n        /* \"contracts/newBuilding.sol\":8561:8574  listOfBatches */\n      0x03\n        /* \"contracts/newBuilding.sol\":8575:8583  material */\n      dup8\n        /* \"contracts/newBuilding.sol\":8561:8584  listOfBatches[material] */\n      mload(0x40)\n      tag_181\n      swap2\n      swap1\n      tag_104\n      jump\t// in\n    tag_181:\n      swap1\n      dup2\n      mstore\n      0x20\n      add\n      mload(0x40)\n      dup1\n      swap2\n      sub\n      swap1\n      keccak256\n        /* \"contracts/newBuilding.sol\":8561:8591  listOfBatches[material].length */\n      dup1\n      sload\n      swap1\n      pop\n        /* \"contracts/newBuilding.sol\":8561:8596  listOfBatches[material].length == 0 */\n      eq\n        /* \"contracts/newBuilding.sol\":8557:8700  if (listOfBatches[material].length == 0) { //check whether material name already exists\r... */\n      iszero\n      tag_182\n      jumpi\n        /* \"contracts/newBuilding.sol\":8658:8673  listOfMaterials */\n      0x02\n        /* \"contracts/newBuilding.sol\":8679:8687  material */\n      dup7\n        /* \"contracts/newBuilding.sol\":8658:8688  listOfMaterials.push(material) */\n      swap1\n      dup1\n      0x01\n      dup2\n      sload\n      add\n      dup1\n      dup3\n      sstore\n      dup1\n      swap2\n      pop\n      pop\n      0x01\n      swap1\n      sub\n      swap1\n      0x00\n      mstore\n      keccak256(0x00, 0x20)\n      add\n      0x00\n      swap1\n      swap2\n      swap1\n      swap2\n      swap1\n      swap2\n      pop\n      swap1\n      dup1\n      mload\n      swap1\n      0x20\n      add\n      swap1\n      tag_184\n      swap3\n      swap2\n      swap1\n      tag_170\n      jump\t// in\n    tag_184:\n      pop\n        /* \"contracts/newBuilding.sol\":8557:8700  if (listOfBatches[material].length == 0) { //check whether material name already exists\r... */\n    tag_182:\n        /* \"contracts/newBuilding.sol\":8720:8734  Batch memory b */\n      tag_185\n      tag_113\n      jump\t// in\n    tag_185:\n        /* \"contracts/newBuilding.sol\":8763:8781  assignement_number */\n      sload(0x01)\n        /* \"contracts/newBuilding.sol\":8745:8746  b */\n      dup2\n        /* \"contracts/newBuilding.sol\":8745:8760  b.assignementId */\n      0x00\n      add\n        /* \"contracts/newBuilding.sol\":8745:8781  b.assignementId = assignement_number */\n      dup2\n      dup2\n      mstore\n      pop\n      pop\n        /* \"contracts/newBuilding.sol\":8817:8829  batchAddress */\n      dup2\n        /* \"contracts/newBuilding.sol\":8792:8793  b */\n      dup2\n        /* \"contracts/newBuilding.sol\":8792:8814  b.batchContractAddress */\n      0x20\n      add\n        /* \"contracts/newBuilding.sol\":8792:8829  b.batchContractAddress = batchAddress */\n      swap1\n      0xffffffffffffffffffffffffffffffffffffffff\n      and\n      swap1\n      dup2\n      0xffffffffffffffffffffffffffffffffffffffff\n      and\n      dup2\n      mstore\n      pop\n      pop\n        /* \"contracts/newBuilding.sol\":8861:8869  quantity */\n      dup6\n        /* \"contracts/newBuilding.sol\":8840:8841  b */\n      dup2\n        /* \"contracts/newBuilding.sol\":8840:8858  b.quantityAssigned */\n      0x40\n      add\n        /* \"contracts/newBuilding.sol\":8840:8869  b.quantityAssigned = quantity */\n      dup2\n      dup2\n      mstore\n      pop\n      pop\n        /* \"contracts/newBuilding.sol\":8897:8901  unit */\n      dup5\n        /* \"contracts/newBuilding.sol\":8880:8881  b */\n      dup2\n        /* \"contracts/newBuilding.sol\":8880:8894  b.quantityUnit */\n      0x60\n      add\n        /* \"contracts/newBuilding.sol\":8880:8901  b.quantityUnit = unit */\n      dup2\n      swap1\n      mstore\n      pop\n        /* \"contracts/newBuilding.sol\":8912:8925  listOfBatches */\n      0x03\n        /* \"contracts/newBuilding.sol\":8926:8934  material */\n      dup8\n        /* \"contracts/newBuilding.sol\":8912:8935  listOfBatches[material] */\n      mload(0x40)\n      tag_186\n      swap2\n      swap1\n      tag_104\n      jump\t// in\n    tag_186:\n      swap1\n      dup2\n      mstore\n      0x20\n      add\n      mload(0x40)\n      dup1\n      swap2\n      sub\n      swap1\n      keccak256\n        /* \"contracts/newBuilding.sol\":8941:8942  b */\n      dup2\n        /* \"contracts/newBuilding.sol\":8912:8943  listOfBatches[material].push(b) */\n      swap1\n      dup1\n      0x01\n      dup2\n      sload\n      add\n      dup1\n      dup3\n      sstore\n      dup1\n      swap2\n      pop\n      pop\n      0x01\n      swap1\n      sub\n      swap1\n      0x00\n      mstore\n      keccak256(0x00, 0x20)\n      swap1\n      0x04\n      mul\n      add\n      0x00\n      swap1\n      swap2\n      swap1\n      swap2\n      swap1\n      swap2\n      pop\n      0x00\n      dup3\n      add\n      mload\n      dup2\n      0x00\n      add\n      sstore\n      0x20\n      dup3\n      add\n      mload\n      dup2\n      0x01\n      add\n      exp(0x0100, 0x00)\n      dup2\n      sload\n      dup2\n      0xffffffffffffffffffffffffffffffffffffffff\n      mul\n      not\n      and\n      swap1\n      dup4\n      0xffffffffffffffffffffffffffffffffffffffff\n      and\n      mul\n      or\n      swap1\n      sstore\n      pop\n      0x40\n      dup3\n      add\n      mload\n      dup2\n      0x02\n      add\n      sstore\n      0x60\n      dup3\n      add\n      mload\n      dup2\n      0x03\n      add\n      swap1\n      dup1\n      mload\n      swap1\n      0x20\n      add\n      swap1\n      tag_188\n      swap3\n      swap2\n      swap1\n      tag_170\n      jump\t// in\n    tag_188:\n      pop\n      pop\n      pop\n        /* \"contracts/newBuilding.sol\":8964:8983  supplier memory sup */\n      tag_189\n      tag_190\n      jump\t// in\n    tag_189:\n        /* \"contracts/newBuilding.sol\":9001:9007  uint i */\n      0x00\n        /* \"contracts/newBuilding.sol\":8996:9210  for (uint i=0; i<supplAddresses.length; i++) {\r... */\n    tag_191:\n        /* \"contracts/newBuilding.sol\":9013:9027  supplAddresses */\n      dup6\n        /* \"contracts/newBuilding.sol\":9013:9034  supplAddresses.length */\n      mload\n        /* \"contracts/newBuilding.sol\":9011:9012  i */\n      dup2\n        /* \"contracts/newBuilding.sol\":9011:9034  i<supplAddresses.length */\n      lt\n        /* \"contracts/newBuilding.sol\":8996:9210  for (uint i=0; i<supplAddresses.length; i++) {\r... */\n      iszero\n      tag_192\n      jumpi\n        /* \"contracts/newBuilding.sol\":9078:9092  supplAddresses */\n      dup6\n        /* \"contracts/newBuilding.sol\":9093:9094  i */\n      dup2\n        /* \"contracts/newBuilding.sol\":9078:9095  supplAddresses[i] */\n      dup2\n      mload\n      dup2\n      lt\n      tag_194\n      jumpi\n      mstore(0x00, 0x4e487b7100000000000000000000000000000000000000000000000000000000)\n      mstore(0x04, 0x32)\n      revert(0x00, 0x24)\n    tag_194:\n      0x20\n      mul\n      0x20\n      add\n      add\n      mload\n        /* \"contracts/newBuilding.sol\":9056:9059  sup */\n      dup3\n        /* \"contracts/newBuilding.sol\":9056:9075  sup.supplierAddress */\n      0x00\n      add\n        /* \"contracts/newBuilding.sol\":9056:9095  sup.supplierAddress = supplAddresses[i] */\n      swap1\n      0xffffffffffffffffffffffffffffffffffffffff\n      and\n      swap1\n      dup2\n      0xffffffffffffffffffffffffffffffffffffffff\n      and\n      dup2\n      mstore\n      pop\n      pop\n        /* \"contracts/newBuilding.sol\":9129:9139  supplNames */\n      dup5\n        /* \"contracts/newBuilding.sol\":9140:9141  i */\n      dup2\n        /* \"contracts/newBuilding.sol\":9129:9142  supplNames[i] */\n      dup2\n      mload\n      dup2\n      lt\n      tag_195\n      jumpi\n      mstore(0x00, 0x4e487b7100000000000000000000000000000000000000000000000000000000)\n      mstore(0x04, 0x32)\n      revert(0x00, 0x24)\n    tag_195:\n      0x20\n      mul\n      0x20\n      add\n      add\n      mload\n        /* \"contracts/newBuilding.sol\":9110:9113  sup */\n      dup3\n        /* \"contracts/newBuilding.sol\":9110:9126  sup.supplierName */\n      0x20\n      add\n        /* \"contracts/newBuilding.sol\":9110:9142  sup.supplierName = supplNames[i] */\n      dup2\n      swap1\n      mstore\n      pop\n        /* \"contracts/newBuilding.sol\":9157:9168  supplyChain */\n      0x04\n        /* \"contracts/newBuilding.sol\":9157:9188  supplyChain[assignement_number] */\n      0x00\n        /* \"contracts/newBuilding.sol\":9169:9187  assignement_number */\n      sload(0x01)\n        /* \"contracts/newBuilding.sol\":9157:9188  supplyChain[assignement_number] */\n      dup2\n      mstore\n      0x20\n      add\n      swap1\n      dup2\n      mstore\n      0x20\n      add\n      0x00\n      keccak256\n        /* \"contracts/newBuilding.sol\":9194:9197  sup */\n      dup3\n        /* \"contracts/newBuilding.sol\":9157:9198  supplyChain[assignement_number].push(sup) */\n      swap1\n      dup1\n      0x01\n      dup2\n      sload\n      add\n      dup1\n      dup3\n      sstore\n      dup1\n      swap2\n      pop\n      pop\n      0x01\n      swap1\n      sub\n      swap1\n      0x00\n      mstore\n      keccak256(0x00, 0x20)\n      swap1\n      0x02\n      mul\n      add\n      0x00\n      swap1\n      swap2\n      swap1\n      swap2\n      swap1\n      swap2\n      pop\n      0x00\n      dup3\n      add\n      mload\n      dup2\n      0x00\n      add\n      exp(0x0100, 0x00)\n      dup2\n      sload\n      dup2\n      0xffffffffffffffffffffffffffffffffffffffff\n      mul\n      not\n      and\n      swap1\n      dup4\n      0xffffffffffffffffffffffffffffffffffffffff\n      and\n      mul\n      or\n      swap1\n      sstore\n      pop\n      0x20\n      dup3\n      add\n      mload\n      dup2\n      0x01\n      add\n      swap1\n      dup1\n      mload\n      swap1\n      0x20\n      add\n      swap1\n      tag_197\n      swap3\n      swap2\n      swap1\n      tag_170\n      jump\t// in\n    tag_197:\n      pop\n      pop\n      pop\n        /* \"contracts/newBuilding.sol\":9036:9039  i++ */\n      dup1\n      dup1\n      tag_198\n      swap1\n      tag_74\n      jump\t// in\n    tag_198:\n      swap2\n      pop\n      pop\n        /* \"contracts/newBuilding.sol\":8996:9210  for (uint i=0; i<supplAddresses.length; i++) {\r... */\n      jump(tag_191)\n    tag_192:\n      pop\n        /* \"contracts/newBuilding.sol\":9648:9665  listOfContractors */\n      0x06\n        /* \"contracts/newBuilding.sol\":9648:9676  listOfContractors[tx.origin] */\n      0x00\n        /* \"contracts/newBuilding.sol\":9666:9675  tx.origin */\n      origin\n        /* \"contracts/newBuilding.sol\":9648:9676  listOfContractors[tx.origin] */\n      0xffffffffffffffffffffffffffffffffffffffff\n      and\n      0xffffffffffffffffffffffffffffffffffffffff\n      and\n      dup2\n      mstore\n      0x20\n      add\n      swap1\n      dup2\n      mstore\n      0x20\n      add\n      0x00\n      keccak256\n        /* \"contracts/newBuilding.sol\":9557:9568  supplyChain */\n      0x04\n        /* \"contracts/newBuilding.sol\":9557:9588  supplyChain[assignement_number] */\n      0x00\n        /* \"contracts/newBuilding.sol\":9569:9587  assignement_number */\n      sload(0x01)\n        /* \"contracts/newBuilding.sol\":9557:9588  supplyChain[assignement_number] */\n      dup2\n      mstore\n      0x20\n      add\n      swap1\n      dup2\n      mstore\n      0x20\n      add\n      0x00\n      keccak256\n        /* \"contracts/newBuilding.sol\":9630:9631  1 */\n      0x01\n        /* \"contracts/newBuilding.sol\":9589:9600  supplyChain */\n      0x04\n        /* \"contracts/newBuilding.sol\":9589:9620  supplyChain[assignement_number] */\n      0x00\n        /* \"contracts/newBuilding.sol\":9601:9619  assignement_number */\n      sload(0x01)\n        /* \"contracts/newBuilding.sol\":9589:9620  supplyChain[assignement_number] */\n      dup2\n      mstore\n      0x20\n      add\n      swap1\n      dup2\n      mstore\n      0x20\n      add\n      0x00\n      keccak256\n        /* \"contracts/newBuilding.sol\":9589:9627  supplyChain[assignement_number].length */\n      dup1\n      sload\n      swap1\n      pop\n        /* \"contracts/newBuilding.sol\":9589:9631  supplyChain[assignement_number].length - 1 */\n      tag_199\n      swap2\n      swap1\n      tag_200\n      jump\t// in\n    tag_199:\n        /* \"contracts/newBuilding.sol\":9557:9632  supplyChain[assignement_number][supplyChain[assignement_number].length - 1] */\n      dup2\n      sload\n      dup2\n      lt\n      tag_201\n      jumpi\n      mstore(0x00, 0x4e487b7100000000000000000000000000000000000000000000000000000000)\n      mstore(0x04, 0x32)\n      revert(0x00, 0x24)\n    tag_201:\n      swap1\n      0x00\n      mstore\n      keccak256(0x00, 0x20)\n      swap1\n      0x02\n      mul\n      add\n        /* \"contracts/newBuilding.sol\":9557:9645  supplyChain[assignement_number][supplyChain[assignement_number].length - 1].supplierName */\n      0x01\n      add\n        /* \"contracts/newBuilding.sol\":9557:9676  supplyChain[assignement_number][supplyChain[assignement_number].length - 1].supplierName = listOfContractors[tx.origin] */\n      swap1\n      dup1\n      sload\n      tag_203\n      swap1\n      tag_66\n      jump\t// in\n    tag_203:\n      tag_204\n      swap3\n      swap2\n      swap1\n      tag_205\n      jump\t// in\n    tag_204:\n      pop\n        /* \"contracts/newBuilding.sol\":9697:9715  assignement_number */\n      0x01\n      0x00\n        /* \"contracts/newBuilding.sol\":9697:9717  assignement_number++ */\n      dup2\n      sload\n      dup1\n      swap3\n      swap2\n      swap1\n      tag_206\n      swap1\n      tag_74\n      jump\t// in\n    tag_206:\n      swap2\n      swap1\n      pop\n      sstore\n      pop\n        /* \"contracts/newBuilding.sol\":10605:10606  _ */\n      pop\n      pop\n        /* \"contracts/newBuilding.sol\":8302:9725  function assignMaterial (string memory material, uint quantity, string memory unit, address[] memory supplAddresses, string[] memory supplNames, address batchAddress) external onlyByRegisteredContractor disabledContract {  // , \r... */\n      pop\n      pop\n      pop\n      pop\n      pop\n      pop\n      jump\t// out\n        /* \"@openzeppelin/contracts/utils/Strings.sol\":2245:2394  function toHexString(address addr) internal pure returns (string memory) {... */\n    tag_62:\n        /* \"@openzeppelin/contracts/utils/Strings.sol\":2303:2316  string memory */\n      0x60\n        /* \"@openzeppelin/contracts/utils/Strings.sol\":2335:2387  toHexString(uint256(uint160(addr)), _ADDRESS_LENGTH) */\n      tag_208\n        /* \"@openzeppelin/contracts/utils/Strings.sol\":2363:2367  addr */\n      dup3\n        /* \"@openzeppelin/contracts/utils/Strings.sol\":2347:2369  uint256(uint160(addr)) */\n      0xffffffffffffffffffffffffffffffffffffffff\n      and\n        /* \"@openzeppelin/contracts/utils/Strings.sol\":288:290  20 */\n      0x14\n        /* \"@openzeppelin/contracts/utils/Strings.sol\":2335:2387  toHexString(uint256(uint160(addr)), _ADDRESS_LENGTH) */\n      0xff\n      and\n        /* \"@openzeppelin/contracts/utils/Strings.sol\":2335:2346  toHexString */\n      tag_209\n        /* \"@openzeppelin/contracts/utils/Strings.sol\":2335:2387  toHexString(uint256(uint160(addr)), _ADDRESS_LENGTH) */\n      jump\t// in\n    tag_208:\n        /* \"@openzeppelin/contracts/utils/Strings.sol\":2328:2387  return toHexString(uint256(uint160(addr)), _ADDRESS_LENGTH) */\n      swap1\n      pop\n        /* \"@openzeppelin/contracts/utils/Strings.sol\":2245:2394  function toHexString(address addr) internal pure returns (string memory) {... */\n      swap2\n      swap1\n      pop\n      jump\t// out\n        /* \"@openzeppelin/contracts/utils/Strings.sol\":1652:2093  function toHexString(uint256 value, uint256 length) internal pure returns (string memory) {... */\n    tag_209:\n        /* \"@openzeppelin/contracts/utils/Strings.sol\":1727:1740  string memory */\n      0x60\n        /* \"@openzeppelin/contracts/utils/Strings.sol\":1752:1771  bytes memory buffer */\n      0x00\n        /* \"@openzeppelin/contracts/utils/Strings.sol\":1797:1798  2 */\n      0x02\n        /* \"@openzeppelin/contracts/utils/Strings.sol\":1788:1794  length */\n      dup4\n        /* \"@openzeppelin/contracts/utils/Strings.sol\":1784:1785  2 */\n      0x02\n        /* \"@openzeppelin/contracts/utils/Strings.sol\":1784:1794  2 * length */\n      tag_211\n      swap2\n      swap1\n      tag_212\n      jump\t// in\n    tag_211:\n        /* \"@openzeppelin/contracts/utils/Strings.sol\":1784:1798  2 * length + 2 */\n      tag_213\n      swap2\n      swap1\n      tag_214\n      jump\t// in\n    tag_213:\n        /* \"@openzeppelin/contracts/utils/Strings.sol\":1774:1799  new bytes(2 * length + 2) */\n      0xffffffffffffffff\n      dup2\n      gt\n      iszero\n      tag_215\n      jumpi\n      mstore(0x00, 0x4e487b7100000000000000000000000000000000000000000000000000000000)\n      mstore(0x04, 0x41)\n      revert(0x00, 0x24)\n    tag_215:\n      mload(0x40)\n      swap1\n      dup1\n      dup3\n      mstore\n      dup1\n      0x1f\n      add\n      not(0x1f)\n      and\n      0x20\n      add\n      dup3\n      add\n      0x40\n      mstore\n      dup1\n      iszero\n      tag_216\n      jumpi\n      dup2\n      0x20\n      add\n      0x01\n      dup3\n      mul\n      dup1\n      calldatasize\n      dup4\n      calldatacopy\n      dup1\n      dup3\n      add\n      swap2\n      pop\n      pop\n      swap1\n      pop\n    tag_216:\n      pop\n        /* \"@openzeppelin/contracts/utils/Strings.sol\":1752:1799  bytes memory buffer = new bytes(2 * length + 2) */\n      swap1\n      pop\n        /* \"@openzeppelin/contracts/utils/Strings.sol\":1809:1824  buffer[0] = \"0\" */\n      0x3000000000000000000000000000000000000000000000000000000000000000\n        /* \"@openzeppelin/contracts/utils/Strings.sol\":1809:1815  buffer */\n      dup2\n        /* \"@openzeppelin/contracts/utils/Strings.sol\":1816:1817  0 */\n      0x00\n        /* \"@openzeppelin/contracts/utils/Strings.sol\":1809:1818  buffer[0] */\n      dup2\n      mload\n      dup2\n      lt\n      tag_217\n      jumpi\n      mstore(0x00, 0x4e487b7100000000000000000000000000000000000000000000000000000000)\n      mstore(0x04, 0x32)\n      revert(0x00, 0x24)\n    tag_217:\n      0x20\n      add\n      add\n        /* \"@openzeppelin/contracts/utils/Strings.sol\":1809:1824  buffer[0] = \"0\" */\n      swap1\n      not(0xffffffffffffffffffffffffffffffffffffffffffffffffffffffffffffff)\n      and\n      swap1\n      dup2\n      0x00\n      byte\n      swap1\n      mstore8\n      pop\n        /* \"@openzeppelin/contracts/utils/Strings.sol\":1834:1849  buffer[1] = \"x\" */\n      0x7800000000000000000000000000000000000000000000000000000000000000\n        /* \"@openzeppelin/contracts/utils/Strings.sol\":1834:1840  buffer */\n      dup2\n        /* \"@openzeppelin/contracts/utils/Strings.sol\":1841:1842  1 */\n      0x01\n        /* \"@openzeppelin/contracts/utils/Strings.sol\":1834:1843  buffer[1] */\n      dup2\n      mload\n      dup2\n      lt\n      tag_218\n      jumpi\n      mstore(0x00, 0x4e487b7100000000000000000000000000000000000000000000000000000000)\n      mstore(0x04, 0x32)\n      revert(0x00, 0x24)\n    tag_218:\n      0x20\n      add\n      add\n        /* \"@openzeppelin/contracts/utils/Strings.sol\":1834:1849  buffer[1] = \"x\" */\n      swap1\n      not(0xffffffffffffffffffffffffffffffffffffffffffffffffffffffffffffff)\n      and\n      swap1\n      dup2\n      0x00\n      byte\n      swap1\n      mstore8\n      pop\n        /* \"@openzeppelin/contracts/utils/Strings.sol\":1864:1873  uint256 i */\n      0x00\n        /* \"@openzeppelin/contracts/utils/Strings.sol\":1889:1890  1 */\n      0x01\n        /* \"@openzeppelin/contracts/utils/Strings.sol\":1880:1886  length */\n      dup5\n        /* \"@openzeppelin/contracts/utils/Strings.sol\":1876:1877  2 */\n      0x02\n        /* \"@openzeppelin/contracts/utils/Strings.sol\":1876:1886  2 * length */\n      tag_222\n      swap2\n      swap1\n      tag_212\n      jump\t// in\n    tag_222:\n        /* \"@openzeppelin/contracts/utils/Strings.sol\":1876:1890  2 * length + 1 */\n      tag_223\n      swap2\n      swap1\n      tag_214\n      jump\t// in\n    tag_223:\n        /* \"@openzeppelin/contracts/utils/Strings.sol\":1864:1890  uint256 i = 2 * length + 1 */\n      swap1\n      pop\n        /* \"@openzeppelin/contracts/utils/Strings.sol\":1859:1991  for (uint256 i = 2 * length + 1; i > 1; --i) {... */\n    tag_219:\n        /* \"@openzeppelin/contracts/utils/Strings.sol\":1896:1897  1 */\n      0x01\n        /* \"@openzeppelin/contracts/utils/Strings.sol\":1892:1893  i */\n      dup2\n        /* \"@openzeppelin/contracts/utils/Strings.sol\":1892:1897  i > 1 */\n      gt\n        /* \"@openzeppelin/contracts/utils/Strings.sol\":1859:1991  for (uint256 i = 2 * length + 1; i > 1; --i) {... */\n      iszero\n      tag_220\n      jumpi\n        /* \"@openzeppelin/contracts/utils/Strings.sol\":1930:1942  _HEX_SYMBOLS */\n      0x3031323334353637383961626364656600000000000000000000000000000000\n        /* \"@openzeppelin/contracts/utils/Strings.sol\":1951:1954  0xf */\n      0x0f\n        /* \"@openzeppelin/contracts/utils/Strings.sol\":1943:1948  value */\n      dup7\n        /* \"@openzeppelin/contracts/utils/Strings.sol\":1943:1954  value & 0xf */\n      and\n        /* \"@openzeppelin/contracts/utils/Strings.sol\":1930:1955  _HEX_SYMBOLS[value & 0xf] */\n      0x10\n      dup2\n      lt\n      tag_224\n      jumpi\n      mstore(0x00, 0x4e487b7100000000000000000000000000000000000000000000000000000000)\n      mstore(0x04, 0x32)\n      revert(0x00, 0x24)\n    tag_224:\n      byte\n      0xf8\n      shl\n        /* \"@openzeppelin/contracts/utils/Strings.sol\":1918:1924  buffer */\n      dup3\n        /* \"@openzeppelin/contracts/utils/Strings.sol\":1925:1926  i */\n      dup3\n        /* \"@openzeppelin/contracts/utils/Strings.sol\":1918:1927  buffer[i] */\n      dup2\n      mload\n      dup2\n      lt\n      tag_225\n      jumpi\n      mstore(0x00, 0x4e487b7100000000000000000000000000000000000000000000000000000000)\n      mstore(0x04, 0x32)\n      revert(0x00, 0x24)\n    tag_225:\n      0x20\n      add\n      add\n        /* \"@openzeppelin/contracts/utils/Strings.sol\":1918:1955  buffer[i] = _HEX_SYMBOLS[value & 0xf] */\n      swap1\n      not(0xffffffffffffffffffffffffffffffffffffffffffffffffffffffffffffff)\n      and\n      swap1\n      dup2\n      0x00\n      byte\n      swap1\n      mstore8\n      pop\n        /* \"@openzeppelin/contracts/utils/Strings.sol\":1979:1980  4 */\n      0x04\n        /* \"@openzeppelin/contracts/utils/Strings.sol\":1969:1980  value >>= 4 */\n      dup6\n      swap1\n      shr\n      swap5\n      pop\n        /* \"@openzeppelin/contracts/utils/Strings.sol\":1899:1902  --i */\n      dup1\n      tag_226\n      swap1\n      tag_227\n      jump\t// in\n    tag_226:\n      swap1\n      pop\n        /* \"@openzeppelin/contracts/utils/Strings.sol\":1859:1991  for (uint256 i = 2 * length + 1; i > 1; --i) {... */\n      jump(tag_219)\n    tag_220:\n      pop\n        /* \"@openzeppelin/contracts/utils/Strings.sol\":2017:2018  0 */\n      0x00\n        /* \"@openzeppelin/contracts/utils/Strings.sol\":2008:2013  value */\n      dup5\n        /* \"@openzeppelin/contracts/utils/Strings.sol\":2008:2018  value == 0 */\n      eq\n        /* \"@openzeppelin/contracts/utils/Strings.sol\":2000:2055  require(value == 0, \"Strings: hex length insufficient\") */\n      tag_228\n      jumpi\n      mload(0x40)\n      0x08c379a000000000000000000000000000000000000000000000000000000000\n      dup2\n      mstore\n      0x04\n      add\n      tag_229\n      swap1\n      tag_230\n      jump\t// in\n    tag_229:\n      mload(0x40)\n      dup1\n      swap2\n      sub\n      swap1\n      revert\n    tag_228:\n        /* \"@openzeppelin/contracts/utils/Strings.sol\":2079:2085  buffer */\n      dup1\n        /* \"@openzeppelin/contracts/utils/Strings.sol\":2065:2086  return string(buffer) */\n      swap2\n      pop\n      pop\n        /* \"@openzeppelin/contracts/utils/Strings.sol\":1652:2093  function toHexString(uint256 value, uint256 length) internal pure returns (string memory) {... */\n      swap3\n      swap2\n      pop\n      pop\n      jump\t// out\n    tag_86:\n      mload(0x40)\n      dup1\n      0x40\n      add\n      0x40\n      mstore\n      dup1\n      0x60\n      dup2\n      mstore\n      0x20\n      add\n      and(0xffffffffffffffffffffffffffffffffffffffff, 0x00)\n      dup2\n      mstore\n      pop\n      swap1\n      jump\t// out\n    tag_113:\n      mload(0x40)\n      dup1\n      0x80\n      add\n      0x40\n      mstore\n      dup1\n      0x00\n      dup2\n      mstore\n      0x20\n      add\n      and(0xffffffffffffffffffffffffffffffffffffffff, 0x00)\n      dup2\n      mstore\n      0x20\n      add\n      0x00\n      dup2\n      mstore\n      0x20\n      add\n      0x60\n      dup2\n      mstore\n      pop\n      swap1\n      jump\t// out\n    tag_170:\n      dup3\n      dup1\n      sload\n      tag_231\n      swap1\n      tag_66\n      jump\t// in\n    tag_231:\n      swap1\n      0x00\n      mstore\n      keccak256(0x00, 0x20)\n      swap1\n      0x1f\n      add\n      0x20\n      swap1\n      div\n      dup2\n      add\n      swap3\n      dup3\n      tag_233\n      jumpi\n      0x00\n      dup6\n      sstore\n      jump(tag_232)\n    tag_233:\n      dup3\n      0x1f\n      lt\n      tag_234\n      jumpi\n      dup1\n      mload\n      not(0xff)\n      and\n      dup4\n      dup1\n      add\n      or\n      dup6\n      sstore\n      jump(tag_232)\n    tag_234:\n      dup3\n      dup1\n      add\n      0x01\n      add\n      dup6\n      sstore\n      dup3\n      iszero\n      tag_232\n      jumpi\n      swap2\n      dup3\n      add\n    tag_235:\n      dup3\n      dup2\n      gt\n      iszero\n      tag_236\n      jumpi\n      dup3\n      mload\n      dup3\n      sstore\n      swap2\n      0x20\n      add\n      swap2\n      swap1\n      0x01\n      add\n      swap1\n      jump(tag_235)\n    tag_236:\n    tag_232:\n      pop\n      swap1\n      pop\n      tag_237\n      swap2\n      swap1\n      tag_238\n      jump\t// in\n    tag_237:\n      pop\n      swap1\n      jump\t// out\n    tag_190:\n      mload(0x40)\n      dup1\n      0x40\n      add\n      0x40\n      mstore\n      dup1\n      and(0xffffffffffffffffffffffffffffffffffffffff, 0x00)\n      dup2\n      mstore\n      0x20\n      add\n      0x60\n      dup2\n      mstore\n      pop\n      swap1\n      jump\t// out\n    tag_205:\n      dup3\n      dup1\n      sload\n      tag_239\n      swap1\n      tag_66\n      jump\t// in\n    tag_239:\n      swap1\n      0x00\n      mstore\n      keccak256(0x00, 0x20)\n      swap1\n      0x1f\n      add\n      0x20\n      swap1\n      div\n      dup2\n      add\n      swap3\n      dup3\n      tag_241\n      jumpi\n      0x00\n      dup6\n      sstore\n      jump(tag_240)\n    tag_241:\n      dup3\n      0x1f\n      lt\n      tag_242\n      jumpi\n      dup1\n      sload\n      dup6\n      sstore\n      jump(tag_240)\n    tag_242:\n      dup3\n      dup1\n      add\n      0x01\n      add\n      dup6\n      sstore\n      dup3\n      iszero\n      tag_240\n      jumpi\n      0x00\n      mstore\n      keccak256(0x00, 0x20)\n      swap2\n      0x1f\n      add\n      0x20\n      swap1\n      div\n      dup3\n      add\n    tag_243:\n      dup3\n      dup2\n      gt\n      iszero\n      tag_244\n      jumpi\n      dup3\n      sload\n      dup3\n      sstore\n      swap2\n      0x01\n      add\n      swap2\n      swap1\n      0x01\n      add\n      swap1\n      jump(tag_243)\n    tag_244:\n    tag_240:\n      pop\n      swap1\n      pop\n      tag_245\n      swap2\n      swap1\n      tag_238\n      jump\t// in\n    tag_245:\n      pop\n      swap1\n      jump\t// out\n    tag_238:\n    tag_246:\n      dup1\n      dup3\n      gt\n      iszero\n      tag_247\n      jumpi\n      0x00\n      dup2\n      0x00\n      swap1\n      sstore\n      pop\n      0x01\n      add\n      jump(tag_246)\n    tag_247:\n      pop\n      swap1\n      jump\t// out\n        /* \"#utility.yul\":24:646   */\n    tag_249:\n      0x00\n        /* \"#utility.yul\":145:225   */\n      tag_251\n        /* \"#utility.yul\":160:224   */\n      tag_252\n        /* \"#utility.yul\":217:223   */\n      dup5\n        /* \"#utility.yul\":160:224   */\n      tag_253\n      jump\t// in\n    tag_252:\n        /* \"#utility.yul\":145:225   */\n      tag_254\n      jump\t// in\n    tag_251:\n        /* \"#utility.yul\":136:225   */\n      swap1\n      pop\n        /* \"#utility.yul\":245:250   */\n      dup1\n        /* \"#utility.yul\":273:279   */\n      dup4\n        /* \"#utility.yul\":266:271   */\n      dup3\n        /* \"#utility.yul\":259:280   */\n      mstore\n        /* \"#utility.yul\":299:303   */\n      0x20\n        /* \"#utility.yul\":292:297   */\n      dup3\n        /* \"#utility.yul\":288:304   */\n      add\n        /* \"#utility.yul\":281:304   */\n      swap1\n      pop\n        /* \"#utility.yul\":324:330   */\n      dup3\n        /* \"#utility.yul\":374:377   */\n      dup6\n        /* \"#utility.yul\":366:370   */\n      0x20\n        /* \"#utility.yul\":358:364   */\n      dup7\n        /* \"#utility.yul\":354:371   */\n      mul\n        /* \"#utility.yul\":349:352   */\n      dup3\n        /* \"#utility.yul\":345:372   */\n      add\n        /* \"#utility.yul\":342:378   */\n      gt\n        /* \"#utility.yul\":339:341   */\n      iszero\n      tag_255\n      jumpi\n        /* \"#utility.yul\":391:392   */\n      0x00\n        /* \"#utility.yul\":388:389   */\n      dup1\n        /* \"#utility.yul\":381:393   */\n      revert\n        /* \"#utility.yul\":339:341   */\n    tag_255:\n        /* \"#utility.yul\":419:420   */\n      0x00\n        /* \"#utility.yul\":404:640   */\n    tag_256:\n        /* \"#utility.yul\":429:435   */\n      dup6\n        /* \"#utility.yul\":426:427   */\n      dup2\n        /* \"#utility.yul\":423:436   */\n      lt\n        /* \"#utility.yul\":404:640   */\n      iszero\n      tag_258\n      jumpi\n        /* \"#utility.yul\":496:499   */\n      dup2\n        /* \"#utility.yul\":524:561   */\n      tag_259\n        /* \"#utility.yul\":557:560   */\n      dup9\n        /* \"#utility.yul\":545:555   */\n      dup3\n        /* \"#utility.yul\":524:561   */\n      tag_260\n      jump\t// in\n    tag_259:\n        /* \"#utility.yul\":519:522   */\n      dup5\n        /* \"#utility.yul\":512:562   */\n      mstore\n        /* \"#utility.yul\":591:595   */\n      0x20\n        /* \"#utility.yul\":586:589   */\n      dup5\n        /* \"#utility.yul\":582:596   */\n      add\n        /* \"#utility.yul\":575:596   */\n      swap4\n      pop\n        /* \"#utility.yul\":625:629   */\n      0x20\n        /* \"#utility.yul\":620:623   */\n      dup4\n        /* \"#utility.yul\":616:630   */\n      add\n        /* \"#utility.yul\":609:630   */\n      swap3\n      pop\n        /* \"#utility.yul\":464:640   */\n      pop\n        /* \"#utility.yul\":451:452   */\n      0x01\n        /* \"#utility.yul\":448:449   */\n      dup2\n        /* \"#utility.yul\":444:453   */\n      add\n        /* \"#utility.yul\":439:453   */\n      swap1\n      pop\n        /* \"#utility.yul\":404:640   */\n      jump(tag_256)\n    tag_258:\n        /* \"#utility.yul\":408:422   */\n      pop\n        /* \"#utility.yul\":126:646   */\n      pop\n      pop\n      swap4\n      swap3\n      pop\n      pop\n      pop\n      jump\t// out\n        /* \"#utility.yul\":668:1283   */\n    tag_261:\n      0x00\n        /* \"#utility.yul\":799:889   */\n      tag_263\n        /* \"#utility.yul\":814:888   */\n      tag_264\n        /* \"#utility.yul\":881:887   */\n      dup5\n        /* \"#utility.yul\":814:888   */\n      tag_265\n      jump\t// in\n    tag_264:\n        /* \"#utility.yul\":799:889   */\n      tag_254\n      jump\t// in\n    tag_263:\n        /* \"#utility.yul\":790:889   */\n      swap1\n      pop\n        /* \"#utility.yul\":909:914   */\n      dup1\n        /* \"#utility.yul\":937:943   */\n      dup4\n        /* \"#utility.yul\":930:935   */\n      dup3\n        /* \"#utility.yul\":923:944   */\n      mstore\n        /* \"#utility.yul\":963:967   */\n      0x20\n        /* \"#utility.yul\":956:961   */\n      dup3\n        /* \"#utility.yul\":952:968   */\n      add\n        /* \"#utility.yul\":945:968   */\n      swap1\n      pop\n        /* \"#utility.yul\":988:994   */\n      dup3\n        /* \"#utility.yul\":1019:1020   */\n      0x00\n        /* \"#utility.yul\":1004:1277   */\n    tag_266:\n        /* \"#utility.yul\":1029:1035   */\n      dup6\n        /* \"#utility.yul\":1026:1027   */\n      dup2\n        /* \"#utility.yul\":1023:1036   */\n      lt\n        /* \"#utility.yul\":1004:1277   */\n      iszero\n      tag_268\n      jumpi\n        /* \"#utility.yul\":1121:1124   */\n      dup2\n        /* \"#utility.yul\":1108:1125   */\n      calldataload\n        /* \"#utility.yul\":1100:1106   */\n      dup6\n        /* \"#utility.yul\":1096:1126   */\n      add\n        /* \"#utility.yul\":1151:1198   */\n      tag_269\n        /* \"#utility.yul\":1194:1197   */\n      dup9\n        /* \"#utility.yul\":1182:1192   */\n      dup3\n        /* \"#utility.yul\":1151:1198   */\n      tag_270\n      jump\t// in\n    tag_269:\n        /* \"#utility.yul\":1146:1149   */\n      dup5\n        /* \"#utility.yul\":1139:1199   */\n      mstore\n        /* \"#utility.yul\":1228:1232   */\n      0x20\n        /* \"#utility.yul\":1223:1226   */\n      dup5\n        /* \"#utility.yul\":1219:1233   */\n      add\n        /* \"#utility.yul\":1212:1233   */\n      swap4\n      pop\n        /* \"#utility.yul\":1262:1266   */\n      0x20\n        /* \"#utility.yul\":1257:1260   */\n      dup4\n        /* \"#utility.yul\":1253:1267   */\n      add\n        /* \"#utility.yul\":1246:1267   */\n      swap3\n      pop\n        /* \"#utility.yul\":1064:1277   */\n      pop\n        /* \"#utility.yul\":1051:1052   */\n      0x01\n        /* \"#utility.yul\":1048:1049   */\n      dup2\n        /* \"#utility.yul\":1044:1053   */\n      add\n        /* \"#utility.yul\":1039:1053   */\n      swap1\n      pop\n        /* \"#utility.yul\":1004:1277   */\n      jump(tag_266)\n    tag_268:\n        /* \"#utility.yul\":1008:1022   */\n      pop\n        /* \"#utility.yul\":780:1283   */\n      pop\n      pop\n      swap4\n      swap3\n      pop\n      pop\n      pop\n      jump\t// out\n        /* \"#utility.yul\":1289:1633   */\n    tag_271:\n      0x00\n        /* \"#utility.yul\":1392:1457   */\n      tag_273\n        /* \"#utility.yul\":1407:1456   */\n      tag_274\n        /* \"#utility.yul\":1449:1455   */\n      dup5\n        /* \"#utility.yul\":1407:1456   */\n      tag_275\n      jump\t// in\n    tag_274:\n        /* \"#utility.yul\":1392:1457   */\n      tag_254\n      jump\t// in\n    tag_273:\n        /* \"#utility.yul\":1383:1457   */\n      swap1\n      pop\n        /* \"#utility.yul\":1480:1486   */\n      dup3\n        /* \"#utility.yul\":1473:1478   */\n      dup2\n        /* \"#utility.yul\":1466:1487   */\n      mstore\n        /* \"#utility.yul\":1518:1522   */\n      0x20\n        /* \"#utility.yul\":1511:1516   */\n      dup2\n        /* \"#utility.yul\":1507:1523   */\n      add\n        /* \"#utility.yul\":1556:1559   */\n      dup5\n        /* \"#utility.yul\":1547:1553   */\n      dup5\n        /* \"#utility.yul\":1542:1545   */\n      dup5\n        /* \"#utility.yul\":1538:1554   */\n      add\n        /* \"#utility.yul\":1535:1560   */\n      gt\n        /* \"#utility.yul\":1532:1534   */\n      iszero\n      tag_276\n      jumpi\n        /* \"#utility.yul\":1573:1574   */\n      0x00\n        /* \"#utility.yul\":1570:1571   */\n      dup1\n        /* \"#utility.yul\":1563:1575   */\n      revert\n        /* \"#utility.yul\":1532:1534   */\n    tag_276:\n        /* \"#utility.yul\":1586:1627   */\n      tag_277\n        /* \"#utility.yul\":1620:1626   */\n      dup5\n        /* \"#utility.yul\":1615:1618   */\n      dup3\n        /* \"#utility.yul\":1610:1613   */\n      dup6\n        /* \"#utility.yul\":1586:1627   */\n      tag_278\n      jump\t// in\n    tag_277:\n        /* \"#utility.yul\":1373:1633   */\n      pop\n      swap4\n      swap3\n      pop\n      pop\n      pop\n      jump\t// out\n        /* \"#utility.yul\":1639:1778   */\n    tag_260:\n      0x00\n        /* \"#utility.yul\":1723:1729   */\n      dup2\n        /* \"#utility.yul\":1710:1730   */\n      calldataload\n        /* \"#utility.yul\":1701:1730   */\n      swap1\n      pop\n        /* \"#utility.yul\":1739:1772   */\n      tag_280\n        /* \"#utility.yul\":1766:1771   */\n      dup2\n        /* \"#utility.yul\":1739:1772   */\n      tag_281\n      jump\t// in\n    tag_280:\n        /* \"#utility.yul\":1691:1778   */\n      swap3\n      swap2\n      pop\n      pop\n      jump\t// out\n        /* \"#utility.yul\":1801:2104   */\n    tag_282:\n      0x00\n        /* \"#utility.yul\":1921:1924   */\n      dup3\n        /* \"#utility.yul\":1914:1918   */\n      0x1f\n        /* \"#utility.yul\":1906:1912   */\n      dup4\n        /* \"#utility.yul\":1902:1919   */\n      add\n        /* \"#utility.yul\":1898:1925   */\n      slt\n        /* \"#utility.yul\":1888:1890   */\n      tag_284\n      jumpi\n        /* \"#utility.yul\":1939:1940   */\n      0x00\n        /* \"#utility.yul\":1936:1937   */\n      dup1\n        /* \"#utility.yul\":1929:1941   */\n      revert\n        /* \"#utility.yul\":1888:1890   */\n    tag_284:\n        /* \"#utility.yul\":1979:1985   */\n      dup2\n        /* \"#utility.yul\":1966:1986   */\n      calldataload\n        /* \"#utility.yul\":2004:2098   */\n      tag_285\n        /* \"#utility.yul\":2094:2097   */\n      dup5\n        /* \"#utility.yul\":2086:2092   */\n      dup3\n        /* \"#utility.yul\":2079:2083   */\n      0x20\n        /* \"#utility.yul\":2071:2077   */\n      dup7\n        /* \"#utility.yul\":2067:2084   */\n      add\n        /* \"#utility.yul\":2004:2098   */\n      tag_249\n      jump\t// in\n    tag_285:\n        /* \"#utility.yul\":1995:2098   */\n      swap2\n      pop\n        /* \"#utility.yul\":1878:2104   */\n      pop\n      swap3\n      swap2\n      pop\n      pop\n      jump\t// out\n        /* \"#utility.yul\":2126:2449   */\n    tag_286:\n      0x00\n        /* \"#utility.yul\":2256:2259   */\n      dup3\n        /* \"#utility.yul\":2249:2253   */\n      0x1f\n        /* \"#utility.yul\":2241:2247   */\n      dup4\n        /* \"#utility.yul\":2237:2254   */\n      add\n        /* \"#utility.yul\":2233:2260   */\n      slt\n        /* \"#utility.yul\":2223:2225   */\n      tag_288\n      jumpi\n        /* \"#utility.yul\":2274:2275   */\n      0x00\n        /* \"#utility.yul\":2271:2272   */\n      dup1\n        /* \"#utility.yul\":2264:2276   */\n      revert\n        /* \"#utility.yul\":2223:2225   */\n    tag_288:\n        /* \"#utility.yul\":2314:2320   */\n      dup2\n        /* \"#utility.yul\":2301:2321   */\n      calldataload\n        /* \"#utility.yul\":2339:2443   */\n      tag_289\n        /* \"#utility.yul\":2439:2442   */\n      dup5\n        /* \"#utility.yul\":2431:2437   */\n      dup3\n        /* \"#utility.yul\":2424:2428   */\n      0x20\n        /* \"#utility.yul\":2416:2422   */\n      dup7\n        /* \"#utility.yul\":2412:2429   */\n      add\n        /* \"#utility.yul\":2339:2443   */\n      tag_261\n      jump\t// in\n    tag_289:\n        /* \"#utility.yul\":2330:2443   */\n      swap2\n      pop\n        /* \"#utility.yul\":2213:2449   */\n      pop\n      swap3\n      swap2\n      pop\n      pop\n      jump\t// out\n        /* \"#utility.yul\":2469:2742   */\n    tag_270:\n      0x00\n        /* \"#utility.yul\":2574:2577   */\n      dup3\n        /* \"#utility.yul\":2567:2571   */\n      0x1f\n        /* \"#utility.yul\":2559:2565   */\n      dup4\n        /* \"#utility.yul\":2555:2572   */\n      add\n        /* \"#utility.yul\":2551:2578   */\n      slt\n        /* \"#utility.yul\":2541:2543   */\n      tag_291\n      jumpi\n        /* \"#utility.yul\":2592:2593   */\n      0x00\n        /* \"#utility.yul\":2589:2590   */\n      dup1\n        /* \"#utility.yul\":2582:2594   */\n      revert\n        /* \"#utility.yul\":2541:2543   */\n    tag_291:\n        /* \"#utility.yul\":2632:2638   */\n      dup2\n        /* \"#utility.yul\":2619:2639   */\n      calldataload\n        /* \"#utility.yul\":2657:2736   */\n      tag_292\n        /* \"#utility.yul\":2732:2735   */\n      dup5\n        /* \"#utility.yul\":2724:2730   */\n      dup3\n        /* \"#utility.yul\":2717:2721   */\n      0x20\n        /* \"#utility.yul\":2709:2715   */\n      dup7\n        /* \"#utility.yul\":2705:2722   */\n      add\n        /* \"#utility.yul\":2657:2736   */\n      tag_271\n      jump\t// in\n    tag_292:\n        /* \"#utility.yul\":2648:2736   */\n      swap2\n      pop\n        /* \"#utility.yul\":2531:2742   */\n      pop\n      swap3\n      swap2\n      pop\n      pop\n      jump\t// out\n        /* \"#utility.yul\":2748:2887   */\n    tag_293:\n      0x00\n        /* \"#utility.yul\":2832:2838   */\n      dup2\n        /* \"#utility.yul\":2819:2839   */\n      calldataload\n        /* \"#utility.yul\":2810:2839   */\n      swap1\n      pop\n        /* \"#utility.yul\":2848:2881   */\n      tag_295\n        /* \"#utility.yul\":2875:2880   */\n      dup2\n        /* \"#utility.yul\":2848:2881   */\n      tag_296\n      jump\t// in\n    tag_295:\n        /* \"#utility.yul\":2800:2887   */\n      swap3\n      swap2\n      pop\n      pop\n      jump\t// out\n        /* \"#utility.yul\":2893:3155   */\n    tag_41:\n      0x00\n        /* \"#utility.yul\":3001:3003   */\n      0x20\n        /* \"#utility.yul\":2989:2998   */\n      dup3\n        /* \"#utility.yul\":2980:2987   */\n      dup5\n        /* \"#utility.yul\":2976:2999   */\n      sub\n        /* \"#utility.yul\":2972:3004   */\n      slt\n        /* \"#utility.yul\":2969:2971   */\n      iszero\n      tag_298\n      jumpi\n        /* \"#utility.yul\":3017:3018   */\n      0x00\n        /* \"#utility.yul\":3014:3015   */\n      dup1\n        /* \"#utility.yul\":3007:3019   */\n      revert\n        /* \"#utility.yul\":2969:2971   */\n    tag_298:\n        /* \"#utility.yul\":3060:3061   */\n      0x00\n        /* \"#utility.yul\":3085:3138   */\n      tag_299\n        /* \"#utility.yul\":3130:3137   */\n      dup5\n        /* \"#utility.yul\":3121:3127   */\n      dup3\n        /* \"#utility.yul\":3110:3119   */\n      dup6\n        /* \"#utility.yul\":3106:3128   */\n      add\n        /* \"#utility.yul\":3085:3138   */\n      tag_260\n      jump\t// in\n    tag_299:\n        /* \"#utility.yul\":3075:3138   */\n      swap2\n      pop\n        /* \"#utility.yul\":3031:3148   */\n      pop\n        /* \"#utility.yul\":2959:3155   */\n      swap3\n      swap2\n      pop\n      pop\n      jump\t// out\n        /* \"#utility.yul\":3161:3681   */\n    tag_46:\n      0x00\n      dup1\n        /* \"#utility.yul\":3296:3298   */\n      0x40\n        /* \"#utility.yul\":3284:3293   */\n      dup4\n        /* \"#utility.yul\":3275:3282   */\n      dup6\n        /* \"#utility.yul\":3271:3294   */\n      sub\n        /* \"#utility.yul\":3267:3299   */\n      slt\n        /* \"#utility.yul\":3264:3266   */\n      iszero\n      tag_301\n      jumpi\n        /* \"#utility.yul\":3312:3313   */\n      0x00\n        /* \"#utility.yul\":3309:3310   */\n      dup1\n        /* \"#utility.yul\":3302:3314   */\n      revert\n        /* \"#utility.yul\":3264:3266   */\n    tag_301:\n        /* \"#utility.yul\":3355:3356   */\n      0x00\n        /* \"#utility.yul\":3380:3433   */\n      tag_302\n        /* \"#utility.yul\":3425:3432   */\n      dup6\n        /* \"#utility.yul\":3416:3422   */\n      dup3\n        /* \"#utility.yul\":3405:3414   */\n      dup7\n        /* \"#utility.yul\":3401:3423   */\n      add\n        /* \"#utility.yul\":3380:3433   */\n      tag_260\n      jump\t// in\n    tag_302:\n        /* \"#utility.yul\":3370:3433   */\n      swap3\n      pop\n        /* \"#utility.yul\":3326:3443   */\n      pop\n        /* \"#utility.yul\":3510:3512   */\n      0x20\n        /* \"#utility.yul\":3499:3508   */\n      dup4\n        /* \"#utility.yul\":3495:3513   */\n      add\n        /* \"#utility.yul\":3482:3514   */\n      calldataload\n        /* \"#utility.yul\":3541:3559   */\n      0xffffffffffffffff\n        /* \"#utility.yul\":3533:3539   */\n      dup2\n        /* \"#utility.yul\":3530:3560   */\n      gt\n        /* \"#utility.yul\":3527:3529   */\n      iszero\n      tag_303\n      jumpi\n        /* \"#utility.yul\":3573:3574   */\n      0x00\n        /* \"#utility.yul\":3570:3571   */\n      dup1\n        /* \"#utility.yul\":3563:3575   */\n      revert\n        /* \"#utility.yul\":3527:3529   */\n    tag_303:\n        /* \"#utility.yul\":3601:3664   */\n      tag_304\n        /* \"#utility.yul\":3656:3663   */\n      dup6\n        /* \"#utility.yul\":3647:3653   */\n      dup3\n        /* \"#utility.yul\":3636:3645   */\n      dup7\n        /* \"#utility.yul\":3632:3654   */\n      add\n        /* \"#utility.yul\":3601:3664   */\n      tag_270\n      jump\t// in\n    tag_304:\n        /* \"#utility.yul\":3591:3664   */\n      swap2\n      pop\n        /* \"#utility.yul\":3453:3674   */\n      pop\n        /* \"#utility.yul\":3254:3681   */\n      swap3\n      pop\n      swap3\n      swap1\n      pop\n      jump\t// out\n        /* \"#utility.yul\":3687:4062   */\n    tag_29:\n      0x00\n        /* \"#utility.yul\":3805:3807   */\n      0x20\n        /* \"#utility.yul\":3793:3802   */\n      dup3\n        /* \"#utility.yul\":3784:3791   */\n      dup5\n        /* \"#utility.yul\":3780:3803   */\n      sub\n        /* \"#utility.yul\":3776:3808   */\n      slt\n        /* \"#utility.yul\":3773:3775   */\n      iszero\n      tag_306\n      jumpi\n        /* \"#utility.yul\":3821:3822   */\n      0x00\n        /* \"#utility.yul\":3818:3819   */\n      dup1\n        /* \"#utility.yul\":3811:3823   */\n      revert\n        /* \"#utility.yul\":3773:3775   */\n    tag_306:\n        /* \"#utility.yul\":3892:3893   */\n      0x00\n        /* \"#utility.yul\":3881:3890   */\n      dup3\n        /* \"#utility.yul\":3877:3894   */\n      add\n        /* \"#utility.yul\":3864:3895   */\n      calldataload\n        /* \"#utility.yul\":3922:3940   */\n      0xffffffffffffffff\n        /* \"#utility.yul\":3914:3920   */\n      dup2\n        /* \"#utility.yul\":3911:3941   */\n      gt\n        /* \"#utility.yul\":3908:3910   */\n      iszero\n      tag_307\n      jumpi\n        /* \"#utility.yul\":3954:3955   */\n      0x00\n        /* \"#utility.yul\":3951:3952   */\n      dup1\n        /* \"#utility.yul\":3944:3956   */\n      revert\n        /* \"#utility.yul\":3908:3910   */\n    tag_307:\n        /* \"#utility.yul\":3982:4045   */\n      tag_308\n        /* \"#utility.yul\":4037:4044   */\n      dup5\n        /* \"#utility.yul\":4028:4034   */\n      dup3\n        /* \"#utility.yul\":4017:4026   */\n      dup6\n        /* \"#utility.yul\":4013:4035   */\n      add\n        /* \"#utility.yul\":3982:4045   */\n      tag_270\n      jump\t// in\n    tag_308:\n        /* \"#utility.yul\":3972:4045   */\n      swap2\n      pop\n        /* \"#utility.yul\":3835:4055   */\n      pop\n        /* \"#utility.yul\":3763:4062   */\n      swap3\n      swap2\n      pop\n      pop\n      jump\t// out\n        /* \"#utility.yul\":4068:5590   */\n    tag_50:\n      0x00\n      dup1\n      0x00\n      dup1\n      0x00\n      dup1\n        /* \"#utility.yul\":4341:4344   */\n      0xc0\n        /* \"#utility.yul\":4329:4338   */\n      dup8\n        /* \"#utility.yul\":4320:4327   */\n      dup10\n        /* \"#utility.yul\":4316:4339   */\n      sub\n        /* \"#utility.yul\":4312:4345   */\n      slt\n        /* \"#utility.yul\":4309:4311   */\n      iszero\n      tag_310\n      jumpi\n        /* \"#utility.yul\":4358:4359   */\n      0x00\n        /* \"#utility.yul\":4355:4356   */\n      dup1\n        /* \"#utility.yul\":4348:4360   */\n      revert\n        /* \"#utility.yul\":4309:4311   */\n    tag_310:\n        /* \"#utility.yul\":4429:4430   */\n      0x00\n        /* \"#utility.yul\":4418:4427   */\n      dup8\n        /* \"#utility.yul\":4414:4431   */\n      add\n        /* \"#utility.yul\":4401:4432   */\n      calldataload\n        /* \"#utility.yul\":4459:4477   */\n      0xffffffffffffffff\n        /* \"#utility.yul\":4451:4457   */\n      dup2\n        /* \"#utility.yul\":4448:4478   */\n      gt\n        /* \"#utility.yul\":4445:4447   */\n      iszero\n      tag_311\n      jumpi\n        /* \"#utility.yul\":4491:4492   */\n      0x00\n        /* \"#utility.yul\":4488:4489   */\n      dup1\n        /* \"#utility.yul\":4481:4493   */\n      revert\n        /* \"#utility.yul\":4445:4447   */\n    tag_311:\n        /* \"#utility.yul\":4519:4582   */\n      tag_312\n        /* \"#utility.yul\":4574:4581   */\n      dup10\n        /* \"#utility.yul\":4565:4571   */\n      dup3\n        /* \"#utility.yul\":4554:4563   */\n      dup11\n        /* \"#utility.yul\":4550:4572   */\n      add\n        /* \"#utility.yul\":4519:4582   */\n      tag_270\n      jump\t// in\n    tag_312:\n        /* \"#utility.yul\":4509:4582   */\n      swap7\n      pop\n        /* \"#utility.yul\":4372:4592   */\n      pop\n        /* \"#utility.yul\":4631:4633   */\n      0x20\n        /* \"#utility.yul\":4657:4710   */\n      tag_313\n        /* \"#utility.yul\":4702:4709   */\n      dup10\n        /* \"#utility.yul\":4693:4699   */\n      dup3\n        /* \"#utility.yul\":4682:4691   */\n      dup11\n        /* \"#utility.yul\":4678:4700   */\n      add\n        /* \"#utility.yul\":4657:4710   */\n      tag_293\n      jump\t// in\n    tag_313:\n        /* \"#utility.yul\":4647:4710   */\n      swap6\n      pop\n        /* \"#utility.yul\":4602:4720   */\n      pop\n        /* \"#utility.yul\":4787:4789   */\n      0x40\n        /* \"#utility.yul\":4776:4785   */\n      dup8\n        /* \"#utility.yul\":4772:4790   */\n      add\n        /* \"#utility.yul\":4759:4791   */\n      calldataload\n        /* \"#utility.yul\":4818:4836   */\n      0xffffffffffffffff\n        /* \"#utility.yul\":4810:4816   */\n      dup2\n        /* \"#utility.yul\":4807:4837   */\n      gt\n        /* \"#utility.yul\":4804:4806   */\n      iszero\n      tag_314\n      jumpi\n        /* \"#utility.yul\":4850:4851   */\n      0x00\n        /* \"#utility.yul\":4847:4848   */\n      dup1\n        /* \"#utility.yul\":4840:4852   */\n      revert\n        /* \"#utility.yul\":4804:4806   */\n    tag_314:\n        /* \"#utility.yul\":4878:4941   */\n      tag_315\n        /* \"#utility.yul\":4933:4940   */\n      dup10\n        /* \"#utility.yul\":4924:4930   */\n      dup3\n        /* \"#utility.yul\":4913:4922   */\n      dup11\n        /* \"#utility.yul\":4909:4931   */\n      add\n        /* \"#utility.yul\":4878:4941   */\n      tag_270\n      jump\t// in\n    tag_315:\n        /* \"#utility.yul\":4868:4941   */\n      swap5\n      pop\n        /* \"#utility.yul\":4730:4951   */\n      pop\n        /* \"#utility.yul\":5018:5020   */\n      0x60\n        /* \"#utility.yul\":5007:5016   */\n      dup8\n        /* \"#utility.yul\":5003:5021   */\n      add\n        /* \"#utility.yul\":4990:5022   */\n      calldataload\n        /* \"#utility.yul\":5049:5067   */\n      0xffffffffffffffff\n        /* \"#utility.yul\":5041:5047   */\n      dup2\n        /* \"#utility.yul\":5038:5068   */\n      gt\n        /* \"#utility.yul\":5035:5037   */\n      iszero\n      tag_316\n      jumpi\n        /* \"#utility.yul\":5081:5082   */\n      0x00\n        /* \"#utility.yul\":5078:5079   */\n      dup1\n        /* \"#utility.yul\":5071:5083   */\n      revert\n        /* \"#utility.yul\":5035:5037   */\n    tag_316:\n        /* \"#utility.yul\":5109:5187   */\n      tag_317\n        /* \"#utility.yul\":5179:5186   */\n      dup10\n        /* \"#utility.yul\":5170:5176   */\n      dup3\n        /* \"#utility.yul\":5159:5168   */\n      dup11\n        /* \"#utility.yul\":5155:5177   */\n      add\n        /* \"#utility.yul\":5109:5187   */\n      tag_282\n      jump\t// in\n    tag_317:\n        /* \"#utility.yul\":5099:5187   */\n      swap4\n      pop\n        /* \"#utility.yul\":4961:5197   */\n      pop\n        /* \"#utility.yul\":5264:5267   */\n      0x80\n        /* \"#utility.yul\":5253:5262   */\n      dup8\n        /* \"#utility.yul\":5249:5268   */\n      add\n        /* \"#utility.yul\":5236:5269   */\n      calldataload\n        /* \"#utility.yul\":5296:5314   */\n      0xffffffffffffffff\n        /* \"#utility.yul\":5288:5294   */\n      dup2\n        /* \"#utility.yul\":5285:5315   */\n      gt\n        /* \"#utility.yul\":5282:5284   */\n      iszero\n      tag_318\n      jumpi\n        /* \"#utility.yul\":5328:5329   */\n      0x00\n        /* \"#utility.yul\":5325:5326   */\n      dup1\n        /* \"#utility.yul\":5318:5330   */\n      revert\n        /* \"#utility.yul\":5282:5284   */\n    tag_318:\n        /* \"#utility.yul\":5356:5444   */\n      tag_319\n        /* \"#utility.yul\":5436:5443   */\n      dup10\n        /* \"#utility.yul\":5427:5433   */\n      dup3\n        /* \"#utility.yul\":5416:5425   */\n      dup11\n        /* \"#utility.yul\":5412:5434   */\n      add\n        /* \"#utility.yul\":5356:5444   */\n      tag_286\n      jump\t// in\n    tag_319:\n        /* \"#utility.yul\":5346:5444   */\n      swap3\n      pop\n        /* \"#utility.yul\":5207:5454   */\n      pop\n        /* \"#utility.yul\":5493:5496   */\n      0xa0\n        /* \"#utility.yul\":5520:5573   */\n      tag_320\n        /* \"#utility.yul\":5565:5572   */\n      dup10\n        /* \"#utility.yul\":5556:5562   */\n      dup3\n        /* \"#utility.yul\":5545:5554   */\n      dup11\n        /* \"#utility.yul\":5541:5563   */\n      add\n        /* \"#utility.yul\":5520:5573   */\n      tag_260\n      jump\t// in\n    tag_320:\n        /* \"#utility.yul\":5510:5573   */\n      swap2\n      pop\n        /* \"#utility.yul\":5464:5583   */\n      pop\n        /* \"#utility.yul\":4299:5590   */\n      swap3\n      swap6\n      pop\n      swap3\n      swap6\n      pop\n      swap3\n      swap6\n      jump\t// out\n        /* \"#utility.yul\":5596:5858   */\n    tag_15:\n      0x00\n        /* \"#utility.yul\":5704:5706   */\n      0x20\n        /* \"#utility.yul\":5692:5701   */\n      dup3\n        /* \"#utility.yul\":5683:5690   */\n      dup5\n        /* \"#utility.yul\":5679:5702   */\n      sub\n        /* \"#utility.yul\":5675:5707   */\n      slt\n        /* \"#utility.yul\":5672:5674   */\n      iszero\n      tag_322\n      jumpi\n        /* \"#utility.yul\":5720:5721   */\n      0x00\n        /* \"#utility.yul\":5717:5718   */\n      dup1\n        /* \"#utility.yul\":5710:5722   */\n      revert\n        /* \"#utility.yul\":5672:5674   */\n    tag_322:\n        /* \"#utility.yul\":5763:5764   */\n      0x00\n        /* \"#utility.yul\":5788:5841   */\n      tag_323\n        /* \"#utility.yul\":5833:5840   */\n      dup5\n        /* \"#utility.yul\":5824:5830   */\n      dup3\n        /* \"#utility.yul\":5813:5822   */\n      dup6\n        /* \"#utility.yul\":5809:5831   */\n      add\n        /* \"#utility.yul\":5788:5841   */\n      tag_293\n      jump\t// in\n    tag_323:\n        /* \"#utility.yul\":5778:5841   */\n      swap2\n      pop\n        /* \"#utility.yul\":5734:5851   */\n      pop\n        /* \"#utility.yul\":5662:5858   */\n      swap3\n      swap2\n      pop\n      pop\n      jump\t// out\n        /* \"#utility.yul\":5864:6060   */\n    tag_324:\n      0x00\n        /* \"#utility.yul\":5988:6054   */\n      tag_326\n        /* \"#utility.yul\":6050:6053   */\n      dup4\n        /* \"#utility.yul\":6042:6048   */\n      dup4\n        /* \"#utility.yul\":5988:6054   */\n      tag_327\n      jump\t// in\n    tag_326:\n        /* \"#utility.yul\":5974:6054   */\n      swap1\n      pop\n        /* \"#utility.yul\":5964:6060   */\n      swap3\n      swap2\n      pop\n      pop\n      jump\t// out\n        /* \"#utility.yul\":6066:6310   */\n    tag_328:\n      0x00\n        /* \"#utility.yul\":6214:6304   */\n      tag_330\n        /* \"#utility.yul\":6300:6303   */\n      dup4\n        /* \"#utility.yul\":6292:6298   */\n      dup4\n        /* \"#utility.yul\":6214:6304   */\n      tag_331\n      jump\t// in\n    tag_330:\n        /* \"#utility.yul\":6200:6304   */\n      swap1\n      pop\n        /* \"#utility.yul\":6190:6310   */\n      swap3\n      swap2\n      pop\n      pop\n      jump\t// out\n        /* \"#utility.yul\":6316:6596   */\n    tag_332:\n      0x00\n        /* \"#utility.yul\":6482:6590   */\n      tag_334\n        /* \"#utility.yul\":6586:6589   */\n      dup4\n        /* \"#utility.yul\":6578:6584   */\n      dup4\n        /* \"#utility.yul\":6482:6590   */\n      tag_335\n      jump\t// in\n    tag_334:\n        /* \"#utility.yul\":6468:6590   */\n      swap1\n      pop\n        /* \"#utility.yul\":6458:6596   */\n      swap3\n      swap2\n      pop\n      pop\n      jump\t// out\n        /* \"#utility.yul\":6602:6710   */\n    tag_336:\n        /* \"#utility.yul\":6679:6703   */\n      tag_338\n        /* \"#utility.yul\":6697:6702   */\n      dup2\n        /* \"#utility.yul\":6679:6703   */\n      tag_339\n      jump\t// in\n    tag_338:\n        /* \"#utility.yul\":6674:6677   */\n      dup3\n        /* \"#utility.yul\":6667:6704   */\n      mstore\n        /* \"#utility.yul\":6657:6710   */\n      pop\n      pop\n      jump\t// out\n        /* \"#utility.yul\":6716:6834   */\n    tag_340:\n        /* \"#utility.yul\":6803:6827   */\n      tag_342\n        /* \"#utility.yul\":6821:6826   */\n      dup2\n        /* \"#utility.yul\":6803:6827   */\n      tag_339\n      jump\t// in\n    tag_342:\n        /* \"#utility.yul\":6798:6801   */\n      dup3\n        /* \"#utility.yul\":6791:6828   */\n      mstore\n        /* \"#utility.yul\":6781:6834   */\n      pop\n      pop\n      jump\t// out\n        /* \"#utility.yul\":6868:7859   */\n    tag_343:\n      0x00\n        /* \"#utility.yul\":7036:7100   */\n      tag_345\n        /* \"#utility.yul\":7094:7099   */\n      dup3\n        /* \"#utility.yul\":7036:7100   */\n      tag_346\n      jump\t// in\n    tag_345:\n        /* \"#utility.yul\":7116:7212   */\n      tag_347\n        /* \"#utility.yul\":7205:7211   */\n      dup2\n        /* \"#utility.yul\":7200:7203   */\n      dup6\n        /* \"#utility.yul\":7116:7212   */\n      tag_348\n      jump\t// in\n    tag_347:\n        /* \"#utility.yul\":7109:7212   */\n      swap4\n      pop\n        /* \"#utility.yul\":7238:7241   */\n      dup4\n        /* \"#utility.yul\":7283:7287   */\n      0x20\n        /* \"#utility.yul\":7275:7281   */\n      dup3\n        /* \"#utility.yul\":7271:7288   */\n      mul\n        /* \"#utility.yul\":7266:7269   */\n      dup6\n        /* \"#utility.yul\":7262:7289   */\n      add\n        /* \"#utility.yul\":7313:7379   */\n      tag_349\n        /* \"#utility.yul\":7373:7378   */\n      dup6\n        /* \"#utility.yul\":7313:7379   */\n      tag_350\n      jump\t// in\n    tag_349:\n        /* \"#utility.yul\":7402:7409   */\n      dup1\n        /* \"#utility.yul\":7433:7434   */\n      0x00\n        /* \"#utility.yul\":7418:7814   */\n    tag_351:\n        /* \"#utility.yul\":7443:7449   */\n      dup6\n        /* \"#utility.yul\":7440:7441   */\n      dup2\n        /* \"#utility.yul\":7437:7450   */\n      lt\n        /* \"#utility.yul\":7418:7814   */\n      iszero\n      tag_353\n      jumpi\n        /* \"#utility.yul\":7514:7523   */\n      dup5\n        /* \"#utility.yul\":7508:7512   */\n      dup5\n        /* \"#utility.yul\":7504:7524   */\n      sub\n        /* \"#utility.yul\":7499:7502   */\n      dup10\n        /* \"#utility.yul\":7492:7525   */\n      mstore\n        /* \"#utility.yul\":7565:7571   */\n      dup2\n        /* \"#utility.yul\":7559:7572   */\n      mload\n        /* \"#utility.yul\":7593:7677   */\n      tag_354\n        /* \"#utility.yul\":7672:7676   */\n      dup6\n        /* \"#utility.yul\":7657:7670   */\n      dup3\n        /* \"#utility.yul\":7593:7677   */\n      tag_324\n      jump\t// in\n    tag_354:\n        /* \"#utility.yul\":7585:7677   */\n      swap5\n      pop\n        /* \"#utility.yul\":7700:7770   */\n      tag_355\n        /* \"#utility.yul\":7763:7769   */\n      dup4\n        /* \"#utility.yul\":7700:7770   */\n      tag_356\n      jump\t// in\n    tag_355:\n        /* \"#utility.yul\":7690:7770   */\n      swap3\n      pop\n        /* \"#utility.yul\":7799:7803   */\n      0x20\n        /* \"#utility.yul\":7794:7797   */\n      dup11\n        /* \"#utility.yul\":7790:7804   */\n      add\n        /* \"#utility.yul\":7783:7804   */\n      swap10\n      pop\n        /* \"#utility.yul\":7478:7814   */\n      pop\n        /* \"#utility.yul\":7465:7466   */\n      0x01\n        /* \"#utility.yul\":7462:7463   */\n      dup2\n        /* \"#utility.yul\":7458:7467   */\n      add\n        /* \"#utility.yul\":7453:7467   */\n      swap1\n      pop\n        /* \"#utility.yul\":7418:7814   */\n      jump(tag_351)\n    tag_353:\n        /* \"#utility.yul\":7422:7436   */\n      pop\n        /* \"#utility.yul\":7830:7834   */\n      dup3\n        /* \"#utility.yul\":7823:7834   */\n      swap8\n      pop\n        /* \"#utility.yul\":7850:7853   */\n      dup8\n        /* \"#utility.yul\":7843:7853   */\n      swap6\n      pop\n        /* \"#utility.yul\":7012:7859   */\n      pop\n      pop\n      pop\n      pop\n      pop\n      swap3\n      swap2\n      pop\n      pop\n      jump\t// out\n        /* \"#utility.yul\":7929:9016   */\n    tag_357:\n      0x00\n        /* \"#utility.yul\":8121:8197   */\n      tag_359\n        /* \"#utility.yul\":8191:8196   */\n      dup3\n        /* \"#utility.yul\":8121:8197   */\n      tag_360\n      jump\t// in\n    tag_359:\n        /* \"#utility.yul\":8213:8321   */\n      tag_361\n        /* \"#utility.yul\":8314:8320   */\n      dup2\n        /* \"#utility.yul\":8309:8312   */\n      dup6\n        /* \"#utility.yul\":8213:8321   */\n      tag_362\n      jump\t// in\n    tag_361:\n        /* \"#utility.yul\":8206:8321   */\n      swap4\n      pop\n        /* \"#utility.yul\":8347:8350   */\n      dup4\n        /* \"#utility.yul\":8392:8396   */\n      0x20\n        /* \"#utility.yul\":8384:8390   */\n      dup3\n        /* \"#utility.yul\":8380:8397   */\n      mul\n        /* \"#utility.yul\":8375:8378   */\n      dup6\n        /* \"#utility.yul\":8371:8398   */\n      add\n        /* \"#utility.yul\":8422:8500   */\n      tag_363\n        /* \"#utility.yul\":8494:8499   */\n      dup6\n        /* \"#utility.yul\":8422:8500   */\n      tag_364\n      jump\t// in\n    tag_363:\n        /* \"#utility.yul\":8523:8530   */\n      dup1\n        /* \"#utility.yul\":8554:8555   */\n      0x00\n        /* \"#utility.yul\":8539:8971   */\n    tag_365:\n        /* \"#utility.yul\":8564:8570   */\n      dup6\n        /* \"#utility.yul\":8561:8562   */\n      dup2\n        /* \"#utility.yul\":8558:8571   */\n      lt\n        /* \"#utility.yul\":8539:8971   */\n      iszero\n      tag_367\n      jumpi\n        /* \"#utility.yul\":8635:8644   */\n      dup5\n        /* \"#utility.yul\":8629:8633   */\n      dup5\n        /* \"#utility.yul\":8625:8645   */\n      sub\n        /* \"#utility.yul\":8620:8623   */\n      dup10\n        /* \"#utility.yul\":8613:8646   */\n      mstore\n        /* \"#utility.yul\":8686:8692   */\n      dup2\n        /* \"#utility.yul\":8680:8693   */\n      mload\n        /* \"#utility.yul\":8714:8822   */\n      tag_368\n        /* \"#utility.yul\":8817:8821   */\n      dup6\n        /* \"#utility.yul\":8802:8815   */\n      dup3\n        /* \"#utility.yul\":8714:8822   */\n      tag_328\n      jump\t// in\n    tag_368:\n        /* \"#utility.yul\":8706:8822   */\n      swap5\n      pop\n        /* \"#utility.yul\":8845:8927   */\n      tag_369\n        /* \"#utility.yul\":8920:8926   */\n      dup4\n        /* \"#utility.yul\":8845:8927   */\n      tag_370\n      jump\t// in\n    tag_369:\n        /* \"#utility.yul\":8835:8927   */\n      swap3\n      pop\n        /* \"#utility.yul\":8956:8960   */\n      0x20\n        /* \"#utility.yul\":8951:8954   */\n      dup11\n        /* \"#utility.yul\":8947:8961   */\n      add\n        /* \"#utility.yul\":8940:8961   */\n      swap10\n      pop\n        /* \"#utility.yul\":8599:8971   */\n      pop\n        /* \"#utility.yul\":8586:8587   */\n      0x01\n        /* \"#utility.yul\":8583:8584   */\n      dup2\n        /* \"#utility.yul\":8579:8588   */\n      add\n        /* \"#utility.yul\":8574:8588   */\n      swap1\n      pop\n        /* \"#utility.yul\":8539:8971   */\n      jump(tag_365)\n    tag_367:\n        /* \"#utility.yul\":8543:8557   */\n      pop\n        /* \"#utility.yul\":8987:8991   */\n      dup3\n        /* \"#utility.yul\":8980:8991   */\n      swap8\n      pop\n        /* \"#utility.yul\":9007:9010   */\n      dup8\n        /* \"#utility.yul\":9000:9010   */\n      swap6\n      pop\n        /* \"#utility.yul\":8097:9016   */\n      pop\n      pop\n      pop\n      pop\n      pop\n      swap3\n      swap2\n      pop\n      pop\n      jump\t// out\n        /* \"#utility.yul\":9104:10263   */\n    tag_371:\n      0x00\n        /* \"#utility.yul\":9314:9399   */\n      tag_373\n        /* \"#utility.yul\":9393:9398   */\n      dup3\n        /* \"#utility.yul\":9314:9399   */\n      tag_374\n      jump\t// in\n    tag_373:\n        /* \"#utility.yul\":9415:9532   */\n      tag_375\n        /* \"#utility.yul\":9525:9531   */\n      dup2\n        /* \"#utility.yul\":9520:9523   */\n      dup6\n        /* \"#utility.yul\":9415:9532   */\n      tag_376\n      jump\t// in\n    tag_375:\n        /* \"#utility.yul\":9408:9532   */\n      swap4\n      pop\n        /* \"#utility.yul\":9558:9561   */\n      dup4\n        /* \"#utility.yul\":9603:9607   */\n      0x20\n        /* \"#utility.yul\":9595:9601   */\n      dup3\n        /* \"#utility.yul\":9591:9608   */\n      mul\n        /* \"#utility.yul\":9586:9589   */\n      dup6\n        /* \"#utility.yul\":9582:9609   */\n      add\n        /* \"#utility.yul\":9633:9720   */\n      tag_377\n        /* \"#utility.yul\":9714:9719   */\n      dup6\n        /* \"#utility.yul\":9633:9720   */\n      tag_378\n      jump\t// in\n    tag_377:\n        /* \"#utility.yul\":9743:9750   */\n      dup1\n        /* \"#utility.yul\":9774:9775   */\n      0x00\n        /* \"#utility.yul\":9759:10218   */\n    tag_379:\n        /* \"#utility.yul\":9784:9790   */\n      dup6\n        /* \"#utility.yul\":9781:9782   */\n      dup2\n        /* \"#utility.yul\":9778:9791   */\n      lt\n        /* \"#utility.yul\":9759:10218   */\n      iszero\n      tag_381\n      jumpi\n        /* \"#utility.yul\":9855:9864   */\n      dup5\n        /* \"#utility.yul\":9849:9853   */\n      dup5\n        /* \"#utility.yul\":9845:9865   */\n      sub\n        /* \"#utility.yul\":9840:9843   */\n      dup10\n        /* \"#utility.yul\":9833:9866   */\n      mstore\n        /* \"#utility.yul\":9906:9912   */\n      dup2\n        /* \"#utility.yul\":9900:9913   */\n      mload\n        /* \"#utility.yul\":9934:10060   */\n      tag_382\n        /* \"#utility.yul\":10055:10059   */\n      dup6\n        /* \"#utility.yul\":10040:10053   */\n      dup3\n        /* \"#utility.yul\":9934:10060   */\n      tag_332\n      jump\t// in\n    tag_382:\n        /* \"#utility.yul\":9926:10060   */\n      swap5\n      pop\n        /* \"#utility.yul\":10083:10174   */\n      tag_383\n        /* \"#utility.yul\":10167:10173   */\n      dup4\n        /* \"#utility.yul\":10083:10174   */\n      tag_384\n      jump\t// in\n    tag_383:\n        /* \"#utility.yul\":10073:10174   */\n      swap3\n      pop\n        /* \"#utility.yul\":10203:10207   */\n      0x20\n        /* \"#utility.yul\":10198:10201   */\n      dup11\n        /* \"#utility.yul\":10194:10208   */\n      add\n        /* \"#utility.yul\":10187:10208   */\n      swap10\n      pop\n        /* \"#utility.yul\":9819:10218   */\n      pop\n        /* \"#utility.yul\":9806:9807   */\n      0x01\n        /* \"#utility.yul\":9803:9804   */\n      dup2\n        /* \"#utility.yul\":9799:9808   */\n      add\n        /* \"#utility.yul\":9794:9808   */\n      swap1\n      pop\n        /* \"#utility.yul\":9759:10218   */\n      jump(tag_379)\n    tag_381:\n        /* \"#utility.yul\":9763:9777   */\n      pop\n        /* \"#utility.yul\":10234:10238   */\n      dup3\n        /* \"#utility.yul\":10227:10238   */\n      swap8\n      pop\n        /* \"#utility.yul\":10254:10257   */\n      dup8\n        /* \"#utility.yul\":10247:10257   */\n      swap6\n      pop\n        /* \"#utility.yul\":9290:10263   */\n      pop\n      pop\n      pop\n      pop\n      pop\n      swap3\n      swap2\n      pop\n      pop\n      jump\t// out\n        /* \"#utility.yul\":10269:10613   */\n    tag_327:\n      0x00\n        /* \"#utility.yul\":10375:10414   */\n      tag_386\n        /* \"#utility.yul\":10408:10413   */\n      dup3\n        /* \"#utility.yul\":10375:10414   */\n      tag_387\n      jump\t// in\n    tag_386:\n        /* \"#utility.yul\":10430:10491   */\n      tag_388\n        /* \"#utility.yul\":10484:10490   */\n      dup2\n        /* \"#utility.yul\":10479:10482   */\n      dup6\n        /* \"#utility.yul\":10430:10491   */\n      tag_389\n      jump\t// in\n    tag_388:\n        /* \"#utility.yul\":10423:10491   */\n      swap4\n      pop\n        /* \"#utility.yul\":10500:10552   */\n      tag_390\n        /* \"#utility.yul\":10545:10551   */\n      dup2\n        /* \"#utility.yul\":10540:10543   */\n      dup6\n        /* \"#utility.yul\":10533:10537   */\n      0x20\n        /* \"#utility.yul\":10526:10531   */\n      dup7\n        /* \"#utility.yul\":10522:10538   */\n      add\n        /* \"#utility.yul\":10500:10552   */\n      tag_391\n      jump\t// in\n    tag_390:\n        /* \"#utility.yul\":10577:10606   */\n      tag_392\n        /* \"#utility.yul\":10599:10605   */\n      dup2\n        /* \"#utility.yul\":10577:10606   */\n      tag_393\n      jump\t// in\n    tag_392:\n        /* \"#utility.yul\":10572:10575   */\n      dup5\n        /* \"#utility.yul\":10568:10607   */\n      add\n        /* \"#utility.yul\":10561:10607   */\n      swap2\n      pop\n        /* \"#utility.yul\":10351:10613   */\n      pop\n      swap3\n      swap2\n      pop\n      pop\n      jump\t// out\n        /* \"#utility.yul\":10619:10983   */\n    tag_394:\n      0x00\n        /* \"#utility.yul\":10735:10774   */\n      tag_396\n        /* \"#utility.yul\":10768:10773   */\n      dup3\n        /* \"#utility.yul\":10735:10774   */\n      tag_387\n      jump\t// in\n    tag_396:\n        /* \"#utility.yul\":10790:10861   */\n      tag_397\n        /* \"#utility.yul\":10854:10860   */\n      dup2\n        /* \"#utility.yul\":10849:10852   */\n      dup6\n        /* \"#utility.yul\":10790:10861   */\n      tag_398\n      jump\t// in\n    tag_397:\n        /* \"#utility.yul\":10783:10861   */\n      swap4\n      pop\n        /* \"#utility.yul\":10870:10922   */\n      tag_399\n        /* \"#utility.yul\":10915:10921   */\n      dup2\n        /* \"#utility.yul\":10910:10913   */\n      dup6\n        /* \"#utility.yul\":10903:10907   */\n      0x20\n        /* \"#utility.yul\":10896:10901   */\n      dup7\n        /* \"#utility.yul\":10892:10908   */\n      add\n        /* \"#utility.yul\":10870:10922   */\n      tag_391\n      jump\t// in\n    tag_399:\n        /* \"#utility.yul\":10947:10976   */\n      tag_400\n        /* \"#utility.yul\":10969:10975   */\n      dup2\n        /* \"#utility.yul\":10947:10976   */\n      tag_393\n      jump\t// in\n    tag_400:\n        /* \"#utility.yul\":10942:10945   */\n      dup5\n        /* \"#utility.yul\":10938:10977   */\n      add\n        /* \"#utility.yul\":10931:10977   */\n      swap2\n      pop\n        /* \"#utility.yul\":10711:10983   */\n      pop\n      swap3\n      swap2\n      pop\n      pop\n      jump\t// out\n        /* \"#utility.yul\":10989:11366   */\n    tag_401:\n      0x00\n        /* \"#utility.yul\":11123:11162   */\n      tag_403\n        /* \"#utility.yul\":11156:11161   */\n      dup3\n        /* \"#utility.yul\":11123:11162   */\n      tag_387\n      jump\t// in\n    tag_403:\n        /* \"#utility.yul\":11178:11267   */\n      tag_404\n        /* \"#utility.yul\":11260:11266   */\n      dup2\n        /* \"#utility.yul\":11255:11258   */\n      dup6\n        /* \"#utility.yul\":11178:11267   */\n      tag_405\n      jump\t// in\n    tag_404:\n        /* \"#utility.yul\":11171:11267   */\n      swap4\n      pop\n        /* \"#utility.yul\":11276:11328   */\n      tag_406\n        /* \"#utility.yul\":11321:11327   */\n      dup2\n        /* \"#utility.yul\":11316:11319   */\n      dup6\n        /* \"#utility.yul\":11309:11313   */\n      0x20\n        /* \"#utility.yul\":11302:11307   */\n      dup7\n        /* \"#utility.yul\":11298:11314   */\n      add\n        /* \"#utility.yul\":11276:11328   */\n      tag_391\n      jump\t// in\n    tag_406:\n        /* \"#utility.yul\":11353:11359   */\n      dup1\n        /* \"#utility.yul\":11348:11351   */\n      dup5\n        /* \"#utility.yul\":11344:11360   */\n      add\n        /* \"#utility.yul\":11337:11360   */\n      swap2\n      pop\n        /* \"#utility.yul\":11099:11366   */\n      pop\n      swap3\n      swap2\n      pop\n      pop\n      jump\t// out\n        /* \"#utility.yul\":11372:11702   */\n    tag_407:\n      0x00\n        /* \"#utility.yul\":11535:11602   */\n      tag_409\n        /* \"#utility.yul\":11599:11601   */\n      0x20\n        /* \"#utility.yul\":11594:11597   */\n      dup4\n        /* \"#utility.yul\":11535:11602   */\n      tag_398\n      jump\t// in\n    tag_409:\n        /* \"#utility.yul\":11528:11602   */\n      swap2\n      pop\n        /* \"#utility.yul\":11632:11666   */\n      0x537472696e67733a20686578206c656e67746820696e73756666696369656e74\n        /* \"#utility.yul\":11628:11629   */\n      0x00\n        /* \"#utility.yul\":11623:11626   */\n      dup4\n        /* \"#utility.yul\":11619:11630   */\n      add\n        /* \"#utility.yul\":11612:11667   */\n      mstore\n        /* \"#utility.yul\":11693:11695   */\n      0x20\n        /* \"#utility.yul\":11688:11691   */\n      dup3\n        /* \"#utility.yul\":11684:11696   */\n      add\n        /* \"#utility.yul\":11677:11696   */\n      swap1\n      pop\n        /* \"#utility.yul\":11518:11702   */\n      swap2\n      swap1\n      pop\n      jump\t// out\n        /* \"#utility.yul\":11708:12084   */\n    tag_410:\n      0x00\n        /* \"#utility.yul\":11871:11938   */\n      tag_412\n        /* \"#utility.yul\":11935:11937   */\n      0x2c\n        /* \"#utility.yul\":11930:11933   */\n      dup4\n        /* \"#utility.yul\":11871:11938   */\n      tag_398\n      jump\t// in\n    tag_412:\n        /* \"#utility.yul\":11864:11938   */\n      swap2\n      pop\n        /* \"#utility.yul\":11968:12002   */\n      0x4f6e6c7920666163746f727920636f6e74726163742063616e2063616c6c2074\n        /* \"#utility.yul\":11964:11965   */\n      0x00\n        /* \"#utility.yul\":11959:11962   */\n      dup4\n        /* \"#utility.yul\":11955:11966   */\n      add\n        /* \"#utility.yul\":11948:12003   */\n      mstore\n        /* \"#utility.yul\":12034:12048   */\n      0x6869732066756e6374696f6e0000000000000000000000000000000000000000\n        /* \"#utility.yul\":12029:12031   */\n      0x20\n        /* \"#utility.yul\":12024:12027   */\n      dup4\n        /* \"#utility.yul\":12020:12032   */\n      add\n        /* \"#utility.yul\":12013:12049   */\n      mstore\n        /* \"#utility.yul\":12075:12077   */\n      0x40\n        /* \"#utility.yul\":12070:12073   */\n      dup3\n        /* \"#utility.yul\":12066:12078   */\n      add\n        /* \"#utility.yul\":12059:12078   */\n      swap1\n      pop\n        /* \"#utility.yul\":11854:12084   */\n      swap2\n      swap1\n      pop\n      jump\t// out\n        /* \"#utility.yul\":12090:12420   */\n    tag_413:\n      0x00\n        /* \"#utility.yul\":12253:12320   */\n      tag_415\n        /* \"#utility.yul\":12317:12319   */\n      0x20\n        /* \"#utility.yul\":12312:12315   */\n      dup4\n        /* \"#utility.yul\":12253:12320   */\n      tag_398\n      jump\t// in\n    tag_415:\n        /* \"#utility.yul\":12246:12320   */\n      swap2\n      pop\n        /* \"#utility.yul\":12350:12384   */\n      0x436f6e74726163746f7220697320616c72656164792072656769737465726564\n        /* \"#utility.yul\":12346:12347   */\n      0x00\n        /* \"#utility.yul\":12341:12344   */\n      dup4\n        /* \"#utility.yul\":12337:12348   */\n      add\n        /* \"#utility.yul\":12330:12385   */\n      mstore\n        /* \"#utility.yul\":12411:12413   */\n      0x20\n        /* \"#utility.yul\":12406:12409   */\n      dup3\n        /* \"#utility.yul\":12402:12414   */\n      add\n        /* \"#utility.yul\":12395:12414   */\n      swap1\n      pop\n        /* \"#utility.yul\":12236:12420   */\n      swap2\n      swap1\n      pop\n      jump\t// out\n        /* \"#utility.yul\":12426:12821   */\n    tag_416:\n      0x00\n        /* \"#utility.yul\":12589:12656   */\n      tag_418\n        /* \"#utility.yul\":12653:12655   */\n      0x3f\n        /* \"#utility.yul\":12648:12651   */\n      dup4\n        /* \"#utility.yul\":12589:12656   */\n      tag_398\n      jump\t// in\n    tag_418:\n        /* \"#utility.yul\":12582:12656   */\n      swap2\n      pop\n        /* \"#utility.yul\":12686:12720   */\n      0x506c656173652074727920616761696e20617320726571756573746564207375\n        /* \"#utility.yul\":12682:12683   */\n      0x00\n        /* \"#utility.yul\":12677:12680   */\n      dup4\n        /* \"#utility.yul\":12673:12684   */\n      add\n        /* \"#utility.yul\":12666:12721   */\n      mstore\n        /* \"#utility.yul\":12752:12785   */\n      0x70706c7920636861696e206e756d62657220776173206e6f7420666f756e6400\n        /* \"#utility.yul\":12747:12749   */\n      0x20\n        /* \"#utility.yul\":12742:12745   */\n      dup4\n        /* \"#utility.yul\":12738:12750   */\n      add\n        /* \"#utility.yul\":12731:12786   */\n      mstore\n        /* \"#utility.yul\":12812:12814   */\n      0x40\n        /* \"#utility.yul\":12807:12810   */\n      dup3\n        /* \"#utility.yul\":12803:12815   */\n      add\n        /* \"#utility.yul\":12796:12815   */\n      swap1\n      pop\n        /* \"#utility.yul\":12572:12821   */\n      swap2\n      swap1\n      pop\n      jump\t// out\n        /* \"#utility.yul\":12827:13151   */\n    tag_419:\n      0x00\n        /* \"#utility.yul\":12990:13057   */\n      tag_421\n        /* \"#utility.yul\":13054:13056   */\n      0x1a\n        /* \"#utility.yul\":13049:13052   */\n      dup4\n        /* \"#utility.yul\":12990:13057   */\n      tag_398\n      jump\t// in\n    tag_421:\n        /* \"#utility.yul\":12983:13057   */\n      swap2\n      pop\n        /* \"#utility.yul\":13087:13115   */\n      0x436f6e747261637420686173206265656e2064697361626c6564000000000000\n        /* \"#utility.yul\":13083:13084   */\n      0x00\n        /* \"#utility.yul\":13078:13081   */\n      dup4\n        /* \"#utility.yul\":13074:13085   */\n      add\n        /* \"#utility.yul\":13067:13116   */\n      mstore\n        /* \"#utility.yul\":13142:13144   */\n      0x20\n        /* \"#utility.yul\":13137:13140   */\n      dup3\n        /* \"#utility.yul\":13133:13145   */\n      add\n        /* \"#utility.yul\":13126:13145   */\n      swap1\n      pop\n        /* \"#utility.yul\":12973:13151   */\n      swap2\n      swap1\n      pop\n      jump\t// out\n        /* \"#utility.yul\":13157:13526   */\n    tag_422:\n      0x00\n        /* \"#utility.yul\":13320:13387   */\n      tag_424\n        /* \"#utility.yul\":13384:13386   */\n      0x25\n        /* \"#utility.yul\":13379:13382   */\n      dup4\n        /* \"#utility.yul\":13320:13387   */\n      tag_398\n      jump\t// in\n    tag_424:\n        /* \"#utility.yul\":13313:13387   */\n      swap2\n      pop\n        /* \"#utility.yul\":13417:13451   */\n      0x43616e206f6e6c79206265206578656375746564206279207468652044657665\n        /* \"#utility.yul\":13413:13414   */\n      0x00\n        /* \"#utility.yul\":13408:13411   */\n      dup4\n        /* \"#utility.yul\":13404:13415   */\n      add\n        /* \"#utility.yul\":13397:13452   */\n      mstore\n        /* \"#utility.yul\":13483:13490   */\n      0x6c6f706572000000000000000000000000000000000000000000000000000000\n        /* \"#utility.yul\":13478:13480   */\n      0x20\n        /* \"#utility.yul\":13473:13476   */\n      dup4\n        /* \"#utility.yul\":13469:13481   */\n      add\n        /* \"#utility.yul\":13462:13491   */\n      mstore\n        /* \"#utility.yul\":13517:13519   */\n      0x40\n        /* \"#utility.yul\":13512:13515   */\n      dup3\n        /* \"#utility.yul\":13508:13520   */\n      add\n        /* \"#utility.yul\":13501:13520   */\n      swap1\n      pop\n        /* \"#utility.yul\":13303:13526   */\n      swap2\n      swap1\n      pop\n      jump\t// out\n        /* \"#utility.yul\":13532:13913   */\n    tag_425:\n      0x00\n        /* \"#utility.yul\":13695:13762   */\n      tag_427\n        /* \"#utility.yul\":13759:13761   */\n      0x31\n        /* \"#utility.yul\":13754:13757   */\n      dup4\n        /* \"#utility.yul\":13695:13762   */\n      tag_398\n      jump\t// in\n    tag_427:\n        /* \"#utility.yul\":13688:13762   */\n      swap2\n      pop\n        /* \"#utility.yul\":13792:13826   */\n      0x43616e206f6e6c79206265206578656375746564206279207468652072656769\n        /* \"#utility.yul\":13788:13789   */\n      0x00\n        /* \"#utility.yul\":13783:13786   */\n      dup4\n        /* \"#utility.yul\":13779:13790   */\n      add\n        /* \"#utility.yul\":13772:13827   */\n      mstore\n        /* \"#utility.yul\":13858:13877   */\n      0x73746572656420436f6e74726163746f72000000000000000000000000000000\n        /* \"#utility.yul\":13853:13855   */\n      0x20\n        /* \"#utility.yul\":13848:13851   */\n      dup4\n        /* \"#utility.yul\":13844:13856   */\n      add\n        /* \"#utility.yul\":13837:13878   */\n      mstore\n        /* \"#utility.yul\":13904:13906   */\n      0x40\n        /* \"#utility.yul\":13899:13902   */\n      dup3\n        /* \"#utility.yul\":13895:13907   */\n      add\n        /* \"#utility.yul\":13888:13907   */\n      swap1\n      pop\n        /* \"#utility.yul\":13678:13913   */\n      swap2\n      swap1\n      pop\n      jump\t// out\n        /* \"#utility.yul\":13919:14303   */\n    tag_428:\n      0x00\n        /* \"#utility.yul\":14082:14149   */\n      tag_430\n        /* \"#utility.yul\":14146:14148   */\n      0x34\n        /* \"#utility.yul\":14141:14144   */\n      dup4\n        /* \"#utility.yul\":14082:14149   */\n      tag_398\n      jump\t// in\n    tag_430:\n        /* \"#utility.yul\":14075:14149   */\n      swap2\n      pop\n        /* \"#utility.yul\":14179:14213   */\n      0x506c656173652074727920616761696e20617320726571756573746564206d61\n        /* \"#utility.yul\":14175:14176   */\n      0x00\n        /* \"#utility.yul\":14170:14173   */\n      dup4\n        /* \"#utility.yul\":14166:14177   */\n      add\n        /* \"#utility.yul\":14159:14214   */\n      mstore\n        /* \"#utility.yul\":14245:14267   */\n      0x74657269616c20776173206e6f7420666f756e64000000000000000000000000\n        /* \"#utility.yul\":14240:14242   */\n      0x20\n        /* \"#utility.yul\":14235:14238   */\n      dup4\n        /* \"#utility.yul\":14231:14243   */\n      add\n        /* \"#utility.yul\":14224:14268   */\n      mstore\n        /* \"#utility.yul\":14294:14296   */\n      0x40\n        /* \"#utility.yul\":14289:14292   */\n      dup3\n        /* \"#utility.yul\":14285:14297   */\n      add\n        /* \"#utility.yul\":14278:14297   */\n      swap1\n      pop\n        /* \"#utility.yul\":14065:14303   */\n      swap2\n      swap1\n      pop\n      jump\t// out\n        /* \"#utility.yul\":14309:14652   */\n    tag_431:\n      0x00\n        /* \"#utility.yul\":14490:14574   */\n      tag_433\n        /* \"#utility.yul\":14572:14573   */\n      0x03\n        /* \"#utility.yul\":14567:14570   */\n      dup4\n        /* \"#utility.yul\":14490:14574   */\n      tag_405\n      jump\t// in\n    tag_433:\n        /* \"#utility.yul\":14483:14574   */\n      swap2\n      pop\n        /* \"#utility.yul\":14604:14609   */\n      0x2028200000000000000000000000000000000000000000000000000000000000\n        /* \"#utility.yul\":14600:14601   */\n      0x00\n        /* \"#utility.yul\":14595:14598   */\n      dup4\n        /* \"#utility.yul\":14591:14602   */\n      add\n        /* \"#utility.yul\":14584:14610   */\n      mstore\n        /* \"#utility.yul\":14640:14641   */\n      0x03\n        /* \"#utility.yul\":14635:14638   */\n      dup3\n        /* \"#utility.yul\":14631:14642   */\n      add\n        /* \"#utility.yul\":14624:14642   */\n      swap1\n      pop\n        /* \"#utility.yul\":14473:14652   */\n      swap2\n      swap1\n      pop\n      jump\t// out\n        /* \"#utility.yul\":14662:15013   */\n    tag_434:\n      0x00\n        /* \"#utility.yul\":14847:14931   */\n      tag_436\n        /* \"#utility.yul\":14929:14930   */\n      0x03\n        /* \"#utility.yul\":14924:14927   */\n      dup4\n        /* \"#utility.yul\":14847:14931   */\n      tag_405\n      jump\t// in\n    tag_436:\n        /* \"#utility.yul\":14840:14931   */\n      swap2\n      pop\n        /* \"#utility.yul\":14965:14970   */\n      0x203a200000000000000000000000000000000000000000000000000000000000\n        /* \"#utility.yul\":14961:14962   */\n      0x00\n        /* \"#utility.yul\":14956:14959   */\n      dup4\n        /* \"#utility.yul\":14952:14963   */\n      add\n        /* \"#utility.yul\":14945:14971   */\n      mstore\n        /* \"#utility.yul\":15001:15002   */\n      0x03\n        /* \"#utility.yul\":14996:14999   */\n      dup3\n        /* \"#utility.yul\":14992:15003   */\n      add\n        /* \"#utility.yul\":14985:15003   */\n      swap1\n      pop\n        /* \"#utility.yul\":14826:15013   */\n      swap2\n      swap1\n      pop\n      jump\t// out\n        /* \"#utility.yul\":15023:15435   */\n    tag_437:\n      0x00\n        /* \"#utility.yul\":15208:15292   */\n      tag_439\n        /* \"#utility.yul\":15290:15291   */\n      0x04\n        /* \"#utility.yul\":15285:15288   */\n      dup4\n        /* \"#utility.yul\":15208:15292   */\n      tag_405\n      jump\t// in\n    tag_439:\n        /* \"#utility.yul\":15201:15292   */\n      swap2\n      pop\n        /* \"#utility.yul\":15326:15392   */\n      0x2029200a00000000000000000000000000000000000000000000000000000000\n        /* \"#utility.yul\":15322:15323   */\n      0x00\n        /* \"#utility.yul\":15317:15320   */\n      dup4\n        /* \"#utility.yul\":15313:15324   */\n      add\n        /* \"#utility.yul\":15306:15393   */\n      mstore\n        /* \"#utility.yul\":15423:15424   */\n      0x04\n        /* \"#utility.yul\":15418:15421   */\n      dup3\n        /* \"#utility.yul\":15414:15425   */\n      add\n        /* \"#utility.yul\":15407:15425   */\n      swap1\n      pop\n        /* \"#utility.yul\":15187:15435   */\n      swap2\n      swap1\n      pop\n      jump\t// out\n        /* \"#utility.yul\":15509:16588   */\n    tag_331:\n      0x00\n        /* \"#utility.yul\":15652:15656   */\n      0x80\n        /* \"#utility.yul\":15647:15650   */\n      dup4\n        /* \"#utility.yul\":15643:15657   */\n      add\n        /* \"#utility.yul\":15760:15764   */\n      0x00\n        /* \"#utility.yul\":15753:15758   */\n      dup4\n        /* \"#utility.yul\":15749:15765   */\n      add\n        /* \"#utility.yul\":15743:15766   */\n      mload\n        /* \"#utility.yul\":15783:15846   */\n      tag_441\n        /* \"#utility.yul\":15840:15844   */\n      0x00\n        /* \"#utility.yul\":15835:15838   */\n      dup7\n        /* \"#utility.yul\":15831:15845   */\n      add\n        /* \"#utility.yul\":15817:15829   */\n      dup3\n        /* \"#utility.yul\":15783:15846   */\n      tag_442\n      jump\t// in\n    tag_441:\n        /* \"#utility.yul\":15671:15860   */\n      pop\n        /* \"#utility.yul\":15970:15974   */\n      0x20\n        /* \"#utility.yul\":15963:15968   */\n      dup4\n        /* \"#utility.yul\":15959:15975   */\n      add\n        /* \"#utility.yul\":15953:15976   */\n      mload\n        /* \"#utility.yul\":15993:16056   */\n      tag_443\n        /* \"#utility.yul\":16050:16054   */\n      0x20\n        /* \"#utility.yul\":16045:16048   */\n      dup7\n        /* \"#utility.yul\":16041:16055   */\n      add\n        /* \"#utility.yul\":16027:16039   */\n      dup3\n        /* \"#utility.yul\":15993:16056   */\n      tag_336\n      jump\t// in\n    tag_443:\n        /* \"#utility.yul\":15874:16070   */\n      pop\n        /* \"#utility.yul\":16176:16180   */\n      0x40\n        /* \"#utility.yul\":16169:16174   */\n      dup4\n        /* \"#utility.yul\":16165:16181   */\n      add\n        /* \"#utility.yul\":16159:16182   */\n      mload\n        /* \"#utility.yul\":16199:16262   */\n      tag_444\n        /* \"#utility.yul\":16256:16260   */\n      0x40\n        /* \"#utility.yul\":16251:16254   */\n      dup7\n        /* \"#utility.yul\":16247:16261   */\n      add\n        /* \"#utility.yul\":16233:16245   */\n      dup3\n        /* \"#utility.yul\":16199:16262   */\n      tag_442\n      jump\t// in\n    tag_444:\n        /* \"#utility.yul\":16084:16276   */\n      pop\n        /* \"#utility.yul\":16378:16382   */\n      0x60\n        /* \"#utility.yul\":16371:16376   */\n      dup4\n        /* \"#utility.yul\":16367:16383   */\n      add\n        /* \"#utility.yul\":16361:16384   */\n      mload\n        /* \"#utility.yul\":16435:16438   */\n      dup5\n        /* \"#utility.yul\":16429:16433   */\n      dup3\n        /* \"#utility.yul\":16425:16439   */\n      sub\n        /* \"#utility.yul\":16418:16422   */\n      0x60\n        /* \"#utility.yul\":16413:16416   */\n      dup7\n        /* \"#utility.yul\":16409:16423   */\n      add\n        /* \"#utility.yul\":16402:16440   */\n      mstore\n        /* \"#utility.yul\":16465:16538   */\n      tag_445\n        /* \"#utility.yul\":16533:16537   */\n      dup3\n        /* \"#utility.yul\":16519:16531   */\n      dup3\n        /* \"#utility.yul\":16465:16538   */\n      tag_327\n      jump\t// in\n    tag_445:\n        /* \"#utility.yul\":16457:16538   */\n      swap2\n      pop\n        /* \"#utility.yul\":16290:16553   */\n      pop\n        /* \"#utility.yul\":16574:16578   */\n      dup1\n        /* \"#utility.yul\":16567:16578   */\n      swap2\n      pop\n        /* \"#utility.yul\":15617:16588   */\n      pop\n      swap3\n      swap2\n      pop\n      pop\n      jump\t// out\n        /* \"#utility.yul\":16680:17344   */\n    tag_335:\n      0x00\n        /* \"#utility.yul\":16841:16845   */\n      0x40\n        /* \"#utility.yul\":16836:16839   */\n      dup4\n        /* \"#utility.yul\":16832:16846   */\n      add\n        /* \"#utility.yul\":16940:16944   */\n      0x00\n        /* \"#utility.yul\":16933:16938   */\n      dup4\n        /* \"#utility.yul\":16929:16945   */\n      add\n        /* \"#utility.yul\":16923:16946   */\n      mload\n        /* \"#utility.yul\":16997:17000   */\n      dup5\n        /* \"#utility.yul\":16991:16995   */\n      dup3\n        /* \"#utility.yul\":16987:17001   */\n      sub\n        /* \"#utility.yul\":16980:16984   */\n      0x00\n        /* \"#utility.yul\":16975:16978   */\n      dup7\n        /* \"#utility.yul\":16971:16985   */\n      add\n        /* \"#utility.yul\":16964:17002   */\n      mstore\n        /* \"#utility.yul\":17027:17100   */\n      tag_447\n        /* \"#utility.yul\":17095:17099   */\n      dup3\n        /* \"#utility.yul\":17081:17093   */\n      dup3\n        /* \"#utility.yul\":17027:17100   */\n      tag_327\n      jump\t// in\n    tag_447:\n        /* \"#utility.yul\":17019:17100   */\n      swap2\n      pop\n        /* \"#utility.yul\":16860:17115   */\n      pop\n        /* \"#utility.yul\":17209:17213   */\n      0x20\n        /* \"#utility.yul\":17202:17207   */\n      dup4\n        /* \"#utility.yul\":17198:17214   */\n      add\n        /* \"#utility.yul\":17192:17215   */\n      mload\n        /* \"#utility.yul\":17232:17295   */\n      tag_448\n        /* \"#utility.yul\":17289:17293   */\n      0x20\n        /* \"#utility.yul\":17284:17287   */\n      dup7\n        /* \"#utility.yul\":17280:17294   */\n      add\n        /* \"#utility.yul\":17266:17278   */\n      dup3\n        /* \"#utility.yul\":17232:17295   */\n      tag_336\n      jump\t// in\n    tag_448:\n        /* \"#utility.yul\":17129:17309   */\n      pop\n        /* \"#utility.yul\":17330:17334   */\n      dup1\n        /* \"#utility.yul\":17323:17334   */\n      swap2\n      pop\n        /* \"#utility.yul\":16806:17344   */\n      pop\n      swap3\n      swap2\n      pop\n      pop\n      jump\t// out\n        /* \"#utility.yul\":17354:17470   */\n    tag_442:\n        /* \"#utility.yul\":17435:17459   */\n      tag_450\n        /* \"#utility.yul\":17453:17458   */\n      dup2\n        /* \"#utility.yul\":17435:17459   */\n      tag_451\n      jump\t// in\n    tag_450:\n        /* \"#utility.yul\":17430:17433   */\n      dup3\n        /* \"#utility.yul\":17423:17460   */\n      mstore\n        /* \"#utility.yul\":17409:17470   */\n      pop\n      pop\n      jump\t// out\n        /* \"#utility.yul\":17480:17767   */\n    tag_104:\n      0x00\n        /* \"#utility.yul\":17638:17733   */\n      tag_453\n        /* \"#utility.yul\":17729:17732   */\n      dup3\n        /* \"#utility.yul\":17720:17726   */\n      dup5\n        /* \"#utility.yul\":17638:17733   */\n      tag_401\n      jump\t// in\n    tag_453:\n        /* \"#utility.yul\":17631:17733   */\n      swap2\n      pop\n        /* \"#utility.yul\":17754:17757   */\n      dup2\n        /* \"#utility.yul\":17747:17757   */\n      swap1\n      pop\n        /* \"#utility.yul\":17616:17767   */\n      swap3\n      swap2\n      pop\n      pop\n      jump\t// out\n        /* \"#utility.yul\":17777:19202   */\n    tag_72:\n      0x00\n        /* \"#utility.yul\":18334:18429   */\n      tag_455\n        /* \"#utility.yul\":18425:18428   */\n      dup3\n        /* \"#utility.yul\":18416:18422   */\n      dup7\n        /* \"#utility.yul\":18334:18429   */\n      tag_401\n      jump\t// in\n    tag_455:\n        /* \"#utility.yul\":18327:18429   */\n      swap2\n      pop\n        /* \"#utility.yul\":18450:18598   */\n      tag_456\n        /* \"#utility.yul\":18594:18597   */\n      dup3\n        /* \"#utility.yul\":18450:18598   */\n      tag_431\n      jump\t// in\n    tag_456:\n        /* \"#utility.yul\":18443:18598   */\n      swap2\n      pop\n        /* \"#utility.yul\":18619:18714   */\n      tag_457\n        /* \"#utility.yul\":18710:18713   */\n      dup3\n        /* \"#utility.yul\":18701:18707   */\n      dup6\n        /* \"#utility.yul\":18619:18714   */\n      tag_401\n      jump\t// in\n    tag_457:\n        /* \"#utility.yul\":18612:18714   */\n      swap2\n      pop\n        /* \"#utility.yul\":18735:18883   */\n      tag_458\n        /* \"#utility.yul\":18879:18882   */\n      dup3\n        /* \"#utility.yul\":18735:18883   */\n      tag_434\n      jump\t// in\n    tag_458:\n        /* \"#utility.yul\":18728:18883   */\n      swap2\n      pop\n        /* \"#utility.yul\":18904:18999   */\n      tag_459\n        /* \"#utility.yul\":18995:18998   */\n      dup3\n        /* \"#utility.yul\":18986:18992   */\n      dup5\n        /* \"#utility.yul\":18904:18999   */\n      tag_401\n      jump\t// in\n    tag_459:\n        /* \"#utility.yul\":18897:18999   */\n      swap2\n      pop\n        /* \"#utility.yul\":19020:19168   */\n      tag_460\n        /* \"#utility.yul\":19164:19167   */\n      dup3\n        /* \"#utility.yul\":19020:19168   */\n      tag_437\n      jump\t// in\n    tag_460:\n        /* \"#utility.yul\":19013:19168   */\n      swap2\n      pop\n        /* \"#utility.yul\":19189:19192   */\n      dup2\n        /* \"#utility.yul\":19182:19192   */\n      swap1\n      pop\n        /* \"#utility.yul\":18312:19202   */\n      swap5\n      swap4\n      pop\n      pop\n      pop\n      pop\n      jump\t// out\n        /* \"#utility.yul\":19212:19641   */\n    tag_36:\n      0x00\n        /* \"#utility.yul\":19417:19419   */\n      0x20\n        /* \"#utility.yul\":19406:19415   */\n      dup3\n        /* \"#utility.yul\":19402:19420   */\n      add\n        /* \"#utility.yul\":19394:19420   */\n      swap1\n      pop\n        /* \"#utility.yul\":19470:19479   */\n      dup2\n        /* \"#utility.yul\":19464:19468   */\n      dup2\n        /* \"#utility.yul\":19460:19480   */\n      sub\n        /* \"#utility.yul\":19456:19457   */\n      0x00\n        /* \"#utility.yul\":19445:19454   */\n      dup4\n        /* \"#utility.yul\":19441:19458   */\n      add\n        /* \"#utility.yul\":19434:19481   */\n      mstore\n        /* \"#utility.yul\":19502:19630   */\n      tag_462\n        /* \"#utility.yul\":19625:19629   */\n      dup2\n        /* \"#utility.yul\":19616:19622   */\n      dup5\n        /* \"#utility.yul\":19502:19630   */\n      tag_343\n      jump\t// in\n    tag_462:\n        /* \"#utility.yul\":19494:19630   */\n      swap1\n      pop\n        /* \"#utility.yul\":19380:19641   */\n      swap3\n      swap2\n      pop\n      pop\n      jump\t// out\n        /* \"#utility.yul\":19651:20128   */\n    tag_32:\n      0x00\n        /* \"#utility.yul\":19880:19882   */\n      0x20\n        /* \"#utility.yul\":19869:19878   */\n      dup3\n        /* \"#utility.yul\":19865:19883   */\n      add\n        /* \"#utility.yul\":19857:19883   */\n      swap1\n      pop\n        /* \"#utility.yul\":19933:19942   */\n      dup2\n        /* \"#utility.yul\":19927:19931   */\n      dup2\n        /* \"#utility.yul\":19923:19943   */\n      sub\n        /* \"#utility.yul\":19919:19920   */\n      0x00\n        /* \"#utility.yul\":19908:19917   */\n      dup4\n        /* \"#utility.yul\":19904:19921   */\n      add\n        /* \"#utility.yul\":19897:19944   */\n      mstore\n        /* \"#utility.yul\":19965:20117   */\n      tag_464\n        /* \"#utility.yul\":20112:20116   */\n      dup2\n        /* \"#utility.yul\":20103:20109   */\n      dup5\n        /* \"#utility.yul\":19965:20117   */\n      tag_357\n      jump\t// in\n    tag_464:\n        /* \"#utility.yul\":19957:20117   */\n      swap1\n      pop\n        /* \"#utility.yul\":19843:20128   */\n      swap3\n      swap2\n      pop\n      pop\n      jump\t// out\n        /* \"#utility.yul\":20138:20651   */\n    tag_26:\n      0x00\n        /* \"#utility.yul\":20385:20387   */\n      0x20\n        /* \"#utility.yul\":20374:20383   */\n      dup3\n        /* \"#utility.yul\":20370:20388   */\n      add\n        /* \"#utility.yul\":20362:20388   */\n      swap1\n      pop\n        /* \"#utility.yul\":20438:20447   */\n      dup2\n        /* \"#utility.yul\":20432:20436   */\n      dup2\n        /* \"#utility.yul\":20428:20448   */\n      sub\n        /* \"#utility.yul\":20424:20425   */\n      0x00\n        /* \"#utility.yul\":20413:20422   */\n      dup4\n        /* \"#utility.yul\":20409:20426   */\n      add\n        /* \"#utility.yul\":20402:20449   */\n      mstore\n        /* \"#utility.yul\":20470:20640   */\n      tag_466\n        /* \"#utility.yul\":20635:20639   */\n      dup2\n        /* \"#utility.yul\":20626:20632   */\n      dup5\n        /* \"#utility.yul\":20470:20640   */\n      tag_371\n      jump\t// in\n    tag_466:\n        /* \"#utility.yul\":20462:20640   */\n      swap1\n      pop\n        /* \"#utility.yul\":20348:20651   */\n      swap3\n      swap2\n      pop\n      pop\n      jump\t// out\n        /* \"#utility.yul\":20661:20990   */\n    tag_18:\n      0x00\n        /* \"#utility.yul\":20816:20818   */\n      0x20\n        /* \"#utility.yul\":20805:20814   */\n      dup3\n        /* \"#utility.yul\":20801:20819   */\n      add\n        /* \"#utility.yul\":20793:20819   */\n      swap1\n      pop\n        /* \"#utility.yul\":20869:20878   */\n      dup2\n        /* \"#utility.yul\":20863:20867   */\n      dup2\n        /* \"#utility.yul\":20859:20879   */\n      sub\n        /* \"#utility.yul\":20855:20856   */\n      0x00\n        /* \"#utility.yul\":20844:20853   */\n      dup4\n        /* \"#utility.yul\":20840:20857   */\n      add\n        /* \"#utility.yul\":20833:20880   */\n      mstore\n        /* \"#utility.yul\":20901:20979   */\n      tag_468\n        /* \"#utility.yul\":20974:20978   */\n      dup2\n        /* \"#utility.yul\":20965:20971   */\n      dup5\n        /* \"#utility.yul\":20901:20979   */\n      tag_394\n      jump\t// in\n    tag_468:\n        /* \"#utility.yul\":20893:20979   */\n      swap1\n      pop\n        /* \"#utility.yul\":20779:20990   */\n      swap3\n      swap2\n      pop\n      pop\n      jump\t// out\n        /* \"#utility.yul\":21000:21557   */\n    tag_22:\n      0x00\n        /* \"#utility.yul\":21211:21213   */\n      0x60\n        /* \"#utility.yul\":21200:21209   */\n      dup3\n        /* \"#utility.yul\":21196:21214   */\n      add\n        /* \"#utility.yul\":21188:21214   */\n      swap1\n      pop\n        /* \"#utility.yul\":21264:21273   */\n      dup2\n        /* \"#utility.yul\":21258:21262   */\n      dup2\n        /* \"#utility.yul\":21254:21274   */\n      sub\n        /* \"#utility.yul\":21250:21251   */\n      0x00\n        /* \"#utility.yul\":21239:21248   */\n      dup4\n        /* \"#utility.yul\":21235:21252   */\n      add\n        /* \"#utility.yul\":21228:21275   */\n      mstore\n        /* \"#utility.yul\":21296:21374   */\n      tag_470\n        /* \"#utility.yul\":21369:21373   */\n      dup2\n        /* \"#utility.yul\":21360:21366   */\n      dup7\n        /* \"#utility.yul\":21296:21374   */\n      tag_394\n      jump\t// in\n    tag_470:\n        /* \"#utility.yul\":21288:21374   */\n      swap1\n      pop\n        /* \"#utility.yul\":21388:21460   */\n      tag_471\n        /* \"#utility.yul\":21456:21458   */\n      0x20\n        /* \"#utility.yul\":21445:21454   */\n      dup4\n        /* \"#utility.yul\":21441:21459   */\n      add\n        /* \"#utility.yul\":21432:21438   */\n      dup6\n        /* \"#utility.yul\":21388:21460   */\n      tag_340\n      jump\t// in\n    tag_471:\n        /* \"#utility.yul\":21474:21546   */\n      tag_472\n        /* \"#utility.yul\":21542:21544   */\n      0x40\n        /* \"#utility.yul\":21531:21540   */\n      dup4\n        /* \"#utility.yul\":21527:21545   */\n      add\n        /* \"#utility.yul\":21518:21524   */\n      dup5\n        /* \"#utility.yul\":21474:21546   */\n      tag_340\n      jump\t// in\n    tag_472:\n        /* \"#utility.yul\":21174:21557   */\n      swap5\n      swap4\n      pop\n      pop\n      pop\n      pop\n      jump\t// out\n        /* \"#utility.yul\":21567:22002   */\n    tag_230:\n      0x00\n        /* \"#utility.yul\":21775:21777   */\n      0x20\n        /* \"#utility.yul\":21764:21773   */\n      dup3\n        /* \"#utility.yul\":21760:21778   */\n      add\n        /* \"#utility.yul\":21752:21778   */\n      swap1\n      pop\n        /* \"#utility.yul\":21828:21837   */\n      dup2\n        /* \"#utility.yul\":21822:21826   */\n      dup2\n        /* \"#utility.yul\":21818:21838   */\n      sub\n        /* \"#utility.yul\":21814:21815   */\n      0x00\n        /* \"#utility.yul\":21803:21812   */\n      dup4\n        /* \"#utility.yul\":21799:21816   */\n      add\n        /* \"#utility.yul\":21792:21839   */\n      mstore\n        /* \"#utility.yul\":21860:21991   */\n      tag_474\n        /* \"#utility.yul\":21986:21990   */\n      dup2\n        /* \"#utility.yul\":21860:21991   */\n      tag_407\n      jump\t// in\n    tag_474:\n        /* \"#utility.yul\":21852:21991   */\n      swap1\n      pop\n        /* \"#utility.yul\":21738:22002   */\n      swap2\n      swap1\n      pop\n      jump\t// out\n        /* \"#utility.yul\":22012:22447   */\n    tag_150:\n      0x00\n        /* \"#utility.yul\":22220:22222   */\n      0x20\n        /* \"#utility.yul\":22209:22218   */\n      dup3\n        /* \"#utility.yul\":22205:22223   */\n      add\n        /* \"#utility.yul\":22197:22223   */\n      swap1\n      pop\n        /* \"#utility.yul\":22273:22282   */\n      dup2\n        /* \"#utility.yul\":22267:22271   */\n      dup2\n        /* \"#utility.yul\":22263:22283   */\n      sub\n        /* \"#utility.yul\":22259:22260   */\n      0x00\n        /* \"#utility.yul\":22248:22257   */\n      dup4\n        /* \"#utility.yul\":22244:22261   */\n      add\n        /* \"#utility.yul\":22237:22284   */\n      mstore\n        /* \"#utility.yul\":22305:22436   */\n      tag_476\n        /* \"#utility.yul\":22431:22435   */\n      dup2\n        /* \"#utility.yul\":22305:22436   */\n      tag_410\n      jump\t// in\n    tag_476:\n        /* \"#utility.yul\":22297:22436   */\n      swap1\n      pop\n        /* \"#utility.yul\":22183:22447   */\n      swap2\n      swap1\n      pop\n      jump\t// out\n        /* \"#utility.yul\":22457:22892   */\n    tag_168:\n      0x00\n        /* \"#utility.yul\":22665:22667   */\n      0x20\n        /* \"#utility.yul\":22654:22663   */\n      dup3\n        /* \"#utility.yul\":22650:22668   */\n      add\n        /* \"#utility.yul\":22642:22668   */\n      swap1\n      pop\n        /* \"#utility.yul\":22718:22727   */\n      dup2\n        /* \"#utility.yul\":22712:22716   */\n      dup2\n        /* \"#utility.yul\":22708:22728   */\n      sub\n        /* \"#utility.yul\":22704:22705   */\n      0x00\n        /* \"#utility.yul\":22693:22702   */\n      dup4\n        /* \"#utility.yul\":22689:22706   */\n      add\n        /* \"#utility.yul\":22682:22729   */\n      mstore\n        /* \"#utility.yul\":22750:22881   */\n      tag_478\n        /* \"#utility.yul\":22876:22880   */\n      dup2\n        /* \"#utility.yul\":22750:22881   */\n      tag_413\n      jump\t// in\n    tag_478:\n        /* \"#utility.yul\":22742:22881   */\n      swap1\n      pop\n        /* \"#utility.yul\":22628:22892   */\n      swap2\n      swap1\n      pop\n      jump\t// out\n        /* \"#utility.yul\":22902:23337   */\n    tag_55:\n      0x00\n        /* \"#utility.yul\":23110:23112   */\n      0x20\n        /* \"#utility.yul\":23099:23108   */\n      dup3\n        /* \"#utility.yul\":23095:23113   */\n      add\n        /* \"#utility.yul\":23087:23113   */\n      swap1\n      pop\n        /* \"#utility.yul\":23163:23172   */\n      dup2\n        /* \"#utility.yul\":23157:23161   */\n      dup2\n        /* \"#utility.yul\":23153:23173   */\n      sub\n        /* \"#utility.yul\":23149:23150   */\n      0x00\n        /* \"#utility.yul\":23138:23147   */\n      dup4\n        /* \"#utility.yul\":23134:23151   */\n      add\n        /* \"#utility.yul\":23127:23174   */\n      mstore\n        /* \"#utility.yul\":23195:23326   */\n      tag_480\n        /* \"#utility.yul\":23321:23325   */\n      dup2\n        /* \"#utility.yul\":23195:23326   */\n      tag_416\n      jump\t// in\n    tag_480:\n        /* \"#utility.yul\":23187:23326   */\n      swap1\n      pop\n        /* \"#utility.yul\":23073:23337   */\n      swap2\n      swap1\n      pop\n      jump\t// out\n        /* \"#utility.yul\":23347:23782   */\n    tag_163:\n      0x00\n        /* \"#utility.yul\":23555:23557   */\n      0x20\n        /* \"#utility.yul\":23544:23553   */\n      dup3\n        /* \"#utility.yul\":23540:23558   */\n      add\n        /* \"#utility.yul\":23532:23558   */\n      swap1\n      pop\n        /* \"#utility.yul\":23608:23617   */\n      dup2\n        /* \"#utility.yul\":23602:23606   */\n      dup2\n        /* \"#utility.yul\":23598:23618   */\n      sub\n        /* \"#utility.yul\":23594:23595   */\n      0x00\n        /* \"#utility.yul\":23583:23592   */\n      dup4\n        /* \"#utility.yul\":23579:23596   */\n      add\n        /* \"#utility.yul\":23572:23619   */\n      mstore\n        /* \"#utility.yul\":23640:23771   */\n      tag_482\n        /* \"#utility.yul\":23766:23770   */\n      dup2\n        /* \"#utility.yul\":23640:23771   */\n      tag_419\n      jump\t// in\n    tag_482:\n        /* \"#utility.yul\":23632:23771   */\n      swap1\n      pop\n        /* \"#utility.yul\":23518:23782   */\n      swap2\n      swap1\n      pop\n      jump\t// out\n        /* \"#utility.yul\":23792:24227   */\n    tag_159:\n      0x00\n        /* \"#utility.yul\":24000:24002   */\n      0x20\n        /* \"#utility.yul\":23989:23998   */\n      dup3\n        /* \"#utility.yul\":23985:24003   */\n      add\n        /* \"#utility.yul\":23977:24003   */\n      swap1\n      pop\n        /* \"#utility.yul\":24053:24062   */\n      dup2\n        /* \"#utility.yul\":24047:24051   */\n      dup2\n        /* \"#utility.yul\":24043:24063   */\n      sub\n        /* \"#utility.yul\":24039:24040   */\n      0x00\n        /* \"#utility.yul\":24028:24037   */\n      dup4\n        /* \"#utility.yul\":24024:24041   */\n      add\n        /* \"#utility.yul\":24017:24064   */\n      mstore\n        /* \"#utility.yul\":24085:24216   */\n      tag_484\n        /* \"#utility.yul\":24211:24215   */\n      dup2\n        /* \"#utility.yul\":24085:24216   */\n      tag_422\n      jump\t// in\n    tag_484:\n        /* \"#utility.yul\":24077:24216   */\n      swap1\n      pop\n        /* \"#utility.yul\":23963:24227   */\n      swap2\n      swap1\n      pop\n      jump\t// out\n        /* \"#utility.yul\":24237:24672   */\n    tag_176:\n      0x00\n        /* \"#utility.yul\":24445:24447   */\n      0x20\n        /* \"#utility.yul\":24434:24443   */\n      dup3\n        /* \"#utility.yul\":24430:24448   */\n      add\n        /* \"#utility.yul\":24422:24448   */\n      swap1\n      pop\n        /* \"#utility.yul\":24498:24507   */\n      dup2\n        /* \"#utility.yul\":24492:24496   */\n      dup2\n        /* \"#utility.yul\":24488:24508   */\n      sub\n        /* \"#utility.yul\":24484:24485   */\n      0x00\n        /* \"#utility.yul\":24473:24482   */\n      dup4\n        /* \"#utility.yul\":24469:24486   */\n      add\n        /* \"#utility.yul\":24462:24509   */\n      mstore\n        /* \"#utility.yul\":24530:24661   */\n      tag_486\n        /* \"#utility.yul\":24656:24660   */\n      dup2\n        /* \"#utility.yul\":24530:24661   */\n      tag_425\n      jump\t// in\n    tag_486:\n        /* \"#utility.yul\":24522:24661   */\n      swap1\n      pop\n        /* \"#utility.yul\":24408:24672   */\n      swap2\n      swap1\n      pop\n      jump\t// out\n        /* \"#utility.yul\":24682:25117   */\n    tag_107:\n      0x00\n        /* \"#utility.yul\":24890:24892   */\n      0x20\n        /* \"#utility.yul\":24879:24888   */\n      dup3\n        /* \"#utility.yul\":24875:24893   */\n      add\n        /* \"#utility.yul\":24867:24893   */\n      swap1\n      pop\n        /* \"#utility.yul\":24943:24952   */\n      dup2\n        /* \"#utility.yul\":24937:24941   */\n      dup2\n        /* \"#utility.yul\":24933:24953   */\n      sub\n        /* \"#utility.yul\":24929:24930   */\n      0x00\n        /* \"#utility.yul\":24918:24927   */\n      dup4\n        /* \"#utility.yul\":24914:24931   */\n      add\n        /* \"#utility.yul\":24907:24954   */\n      mstore\n        /* \"#utility.yul\":24975:25106   */\n      tag_488\n        /* \"#utility.yul\":25101:25105   */\n      dup2\n        /* \"#utility.yul\":24975:25106   */\n      tag_428\n      jump\t// in\n    tag_488:\n        /* \"#utility.yul\":24967:25106   */\n      swap1\n      pop\n        /* \"#utility.yul\":24853:25117   */\n      swap2\n      swap1\n      pop\n      jump\t// out\n        /* \"#utility.yul\":25127:25434   */\n    tag_254:\n      0x00\n        /* \"#utility.yul\":25197:25199   */\n      0x40\n        /* \"#utility.yul\":25191:25200   */\n      mload\n        /* \"#utility.yul\":25181:25200   */\n      swap1\n      pop\n        /* \"#utility.yul\":25243:25247   */\n      dup2\n        /* \"#utility.yul\":25235:25241   */\n      dup2\n        /* \"#utility.yul\":25231:25248   */\n      add\n        /* \"#utility.yul\":25358:25364   */\n      dup2\n        /* \"#utility.yul\":25346:25356   */\n      dup2\n        /* \"#utility.yul\":25343:25365   */\n      lt\n        /* \"#utility.yul\":25322:25340   */\n      0xffffffffffffffff\n        /* \"#utility.yul\":25310:25320   */\n      dup3\n        /* \"#utility.yul\":25307:25341   */\n      gt\n        /* \"#utility.yul\":25304:25366   */\n      or\n        /* \"#utility.yul\":25301:25303   */\n      iszero\n      tag_490\n      jumpi\n        /* \"#utility.yul\":25369:25387   */\n      tag_491\n      tag_492\n      jump\t// in\n    tag_491:\n        /* \"#utility.yul\":25301:25303   */\n    tag_490:\n        /* \"#utility.yul\":25413:25423   */\n      dup1\n        /* \"#utility.yul\":25409:25411   */\n      0x40\n        /* \"#utility.yul\":25402:25424   */\n      mstore\n        /* \"#utility.yul\":25167:25434   */\n      pop\n      swap2\n      swap1\n      pop\n      jump\t// out\n        /* \"#utility.yul\":25444:25779   */\n    tag_253:\n      0x00\n        /* \"#utility.yul\":25619:25637   */\n      0xffffffffffffffff\n        /* \"#utility.yul\":25611:25617   */\n      dup3\n        /* \"#utility.yul\":25608:25638   */\n      gt\n        /* \"#utility.yul\":25605:25607   */\n      iszero\n      tag_494\n      jumpi\n        /* \"#utility.yul\":25641:25659   */\n      tag_495\n      tag_492\n      jump\t// in\n    tag_495:\n        /* \"#utility.yul\":25605:25607   */\n    tag_494:\n        /* \"#utility.yul\":25695:25699   */\n      0x20\n        /* \"#utility.yul\":25687:25693   */\n      dup3\n        /* \"#utility.yul\":25683:25700   */\n      mul\n        /* \"#utility.yul\":25675:25700   */\n      swap1\n      pop\n        /* \"#utility.yul\":25763:25767   */\n      0x20\n        /* \"#utility.yul\":25757:25761   */\n      dup2\n        /* \"#utility.yul\":25753:25768   */\n      add\n        /* \"#utility.yul\":25745:25768   */\n      swap1\n      pop\n        /* \"#utility.yul\":25526:25779   */\n      swap2\n      swap1\n      pop\n      jump\t// out\n        /* \"#utility.yul\":25789:26134   */\n    tag_265:\n      0x00\n        /* \"#utility.yul\":25974:25992   */\n      0xffffffffffffffff\n        /* \"#utility.yul\":25966:25972   */\n      dup3\n        /* \"#utility.yul\":25963:25993   */\n      gt\n        /* \"#utility.yul\":25960:25962   */\n      iszero\n      tag_497\n      jumpi\n        /* \"#utility.yul\":25996:26014   */\n      tag_498\n      tag_492\n      jump\t// in\n    tag_498:\n        /* \"#utility.yul\":25960:25962   */\n    tag_497:\n        /* \"#utility.yul\":26050:26054   */\n      0x20\n        /* \"#utility.yul\":26042:26048   */\n      dup3\n        /* \"#utility.yul\":26038:26055   */\n      mul\n        /* \"#utility.yul\":26030:26055   */\n      swap1\n      pop\n        /* \"#utility.yul\":26118:26122   */\n      0x20\n        /* \"#utility.yul\":26112:26116   */\n      dup2\n        /* \"#utility.yul\":26108:26123   */\n      add\n        /* \"#utility.yul\":26100:26123   */\n      swap1\n      pop\n        /* \"#utility.yul\":25881:26134   */\n      swap2\n      swap1\n      pop\n      jump\t// out\n        /* \"#utility.yul\":26144:26504   */\n    tag_275:\n      0x00\n        /* \"#utility.yul\":26304:26322   */\n      0xffffffffffffffff\n        /* \"#utility.yul\":26296:26302   */\n      dup3\n        /* \"#utility.yul\":26293:26323   */\n      gt\n        /* \"#utility.yul\":26290:26292   */\n      iszero\n      tag_500\n      jumpi\n        /* \"#utility.yul\":26326:26344   */\n      tag_501\n      tag_492\n      jump\t// in\n    tag_501:\n        /* \"#utility.yul\":26290:26292   */\n    tag_500:\n        /* \"#utility.yul\":26419:26423   */\n      0x1f\n        /* \"#utility.yul\":26415:26424   */\n      not\n        /* \"#utility.yul\":26408:26412   */\n      0x1f\n        /* \"#utility.yul\":26400:26406   */\n      dup4\n        /* \"#utility.yul\":26396:26413   */\n      add\n        /* \"#utility.yul\":26392:26425   */\n      and\n        /* \"#utility.yul\":26384:26425   */\n      swap1\n      pop\n        /* \"#utility.yul\":26488:26492   */\n      0x20\n        /* \"#utility.yul\":26482:26486   */\n      dup2\n        /* \"#utility.yul\":26478:26493   */\n      add\n        /* \"#utility.yul\":26470:26493   */\n      swap1\n      pop\n        /* \"#utility.yul\":26211:26504   */\n      swap2\n      swap1\n      pop\n      jump\t// out\n        /* \"#utility.yul\":26514:26668   */\n    tag_350:\n      0x00\n        /* \"#utility.yul\":26618:26621   */\n      dup2\n        /* \"#utility.yul\":26610:26621   */\n      swap1\n      pop\n        /* \"#utility.yul\":26652:26656   */\n      0x20\n        /* \"#utility.yul\":26647:26650   */\n      dup3\n        /* \"#utility.yul\":26643:26657   */\n      add\n        /* \"#utility.yul\":26635:26657   */\n      swap1\n      pop\n        /* \"#utility.yul\":26596:26668   */\n      swap2\n      swap1\n      pop\n      jump\t// out\n        /* \"#utility.yul\":26678:26844   */\n    tag_364:\n      0x00\n        /* \"#utility.yul\":26794:26797   */\n      dup2\n        /* \"#utility.yul\":26786:26797   */\n      swap1\n      pop\n        /* \"#utility.yul\":26828:26832   */\n      0x20\n        /* \"#utility.yul\":26823:26826   */\n      dup3\n        /* \"#utility.yul\":26819:26833   */\n      add\n        /* \"#utility.yul\":26811:26833   */\n      swap1\n      pop\n        /* \"#utility.yul\":26772:26844   */\n      swap2\n      swap1\n      pop\n      jump\t// out\n        /* \"#utility.yul\":26854:27029   */\n    tag_378:\n      0x00\n        /* \"#utility.yul\":26979:26982   */\n      dup2\n        /* \"#utility.yul\":26971:26982   */\n      swap1\n      pop\n        /* \"#utility.yul\":27013:27017   */\n      0x20\n        /* \"#utility.yul\":27008:27011   */\n      dup3\n        /* \"#utility.yul\":27004:27018   */\n      add\n        /* \"#utility.yul\":26996:27018   */\n      swap1\n      pop\n        /* \"#utility.yul\":26957:27029   */\n      swap2\n      swap1\n      pop\n      jump\t// out\n        /* \"#utility.yul\":27039:27171   */\n    tag_346:\n      0x00\n        /* \"#utility.yul\":27154:27159   */\n      dup2\n        /* \"#utility.yul\":27148:27160   */\n      mload\n        /* \"#utility.yul\":27138:27160   */\n      swap1\n      pop\n        /* \"#utility.yul\":27123:27171   */\n      swap2\n      swap1\n      pop\n      jump\t// out\n        /* \"#utility.yul\":27181:27325   */\n    tag_360:\n      0x00\n        /* \"#utility.yul\":27308:27313   */\n      dup2\n        /* \"#utility.yul\":27302:27314   */\n      mload\n        /* \"#utility.yul\":27292:27314   */\n      swap1\n      pop\n        /* \"#utility.yul\":27277:27325   */\n      swap2\n      swap1\n      pop\n      jump\t// out\n        /* \"#utility.yul\":27335:27488   */\n    tag_374:\n      0x00\n        /* \"#utility.yul\":27471:27476   */\n      dup2\n        /* \"#utility.yul\":27465:27477   */\n      mload\n        /* \"#utility.yul\":27455:27477   */\n      swap1\n      pop\n        /* \"#utility.yul\":27440:27488   */\n      swap2\n      swap1\n      pop\n      jump\t// out\n        /* \"#utility.yul\":27498:27605   */\n    tag_387:\n      0x00\n        /* \"#utility.yul\":27588:27593   */\n      dup2\n        /* \"#utility.yul\":27582:27594   */\n      mload\n        /* \"#utility.yul\":27572:27594   */\n      swap1\n      pop\n        /* \"#utility.yul\":27557:27605   */\n      swap2\n      swap1\n      pop\n      jump\t// out\n        /* \"#utility.yul\":27615:27746   */\n    tag_356:\n      0x00\n        /* \"#utility.yul\":27731:27735   */\n      0x20\n        /* \"#utility.yul\":27726:27729   */\n      dup3\n        /* \"#utility.yul\":27722:27736   */\n      add\n        /* \"#utility.yul\":27714:27736   */\n      swap1\n      pop\n        /* \"#utility.yul\":27700:27746   */\n      swap2\n      swap1\n      pop\n      jump\t// out\n        /* \"#utility.yul\":27756:27899   */\n    tag_370:\n      0x00\n        /* \"#utility.yul\":27884:27888   */\n      0x20\n        /* \"#utility.yul\":27879:27882   */\n      dup3\n        /* \"#utility.yul\":27875:27889   */\n      add\n        /* \"#utility.yul\":27867:27889   */\n      swap1\n      pop\n        /* \"#utility.yul\":27853:27899   */\n      swap2\n      swap1\n      pop\n      jump\t// out\n        /* \"#utility.yul\":27909:28061   */\n    tag_384:\n      0x00\n        /* \"#utility.yul\":28046:28050   */\n      0x20\n        /* \"#utility.yul\":28041:28044   */\n      dup3\n        /* \"#utility.yul\":28037:28051   */\n      add\n        /* \"#utility.yul\":28029:28051   */\n      swap1\n      pop\n        /* \"#utility.yul\":28015:28061   */\n      swap2\n      swap1\n      pop\n      jump\t// out\n        /* \"#utility.yul\":28071:28277   */\n    tag_348:\n      0x00\n        /* \"#utility.yul\":28218:28224   */\n      dup3\n        /* \"#utility.yul\":28213:28216   */\n      dup3\n        /* \"#utility.yul\":28206:28225   */\n      mstore\n        /* \"#utility.yul\":28262:28266   */\n      0x20\n        /* \"#utility.yul\":28257:28260   */\n      dup3\n        /* \"#utility.yul\":28253:28267   */\n      add\n        /* \"#utility.yul\":28238:28267   */\n      swap1\n      pop\n        /* \"#utility.yul\":28192:28277   */\n      swap3\n      swap2\n      pop\n      pop\n      jump\t// out\n        /* \"#utility.yul\":28287:28505   */\n    tag_362:\n      0x00\n        /* \"#utility.yul\":28446:28452   */\n      dup3\n        /* \"#utility.yul\":28441:28444   */\n      dup3\n        /* \"#utility.yul\":28434:28453   */\n      mstore\n        /* \"#utility.yul\":28490:28494   */\n      0x20\n        /* \"#utility.yul\":28485:28488   */\n      dup3\n        /* \"#utility.yul\":28481:28495   */\n      add\n        /* \"#utility.yul\":28466:28495   */\n      swap1\n      pop\n        /* \"#utility.yul\":28420:28505   */\n      swap3\n      swap2\n      pop\n      pop\n      jump\t// out\n        /* \"#utility.yul\":28515:28742   */\n    tag_376:\n      0x00\n        /* \"#utility.yul\":28683:28689   */\n      dup3\n        /* \"#utility.yul\":28678:28681   */\n      dup3\n        /* \"#utility.yul\":28671:28690   */\n      mstore\n        /* \"#utility.yul\":28727:28731   */\n      0x20\n        /* \"#utility.yul\":28722:28725   */\n      dup3\n        /* \"#utility.yul\":28718:28732   */\n      add\n        /* \"#utility.yul\":28703:28732   */\n      swap1\n      pop\n        /* \"#utility.yul\":28657:28742   */\n      swap3\n      swap2\n      pop\n      pop\n      jump\t// out\n        /* \"#utility.yul\":28752:28923   */\n    tag_389:\n      0x00\n        /* \"#utility.yul\":28864:28870   */\n      dup3\n        /* \"#utility.yul\":28859:28862   */\n      dup3\n        /* \"#utility.yul\":28852:28871   */\n      mstore\n        /* \"#utility.yul\":28908:28912   */\n      0x20\n        /* \"#utility.yul\":28903:28906   */\n      dup3\n        /* \"#utility.yul\":28899:28913   */\n      add\n        /* \"#utility.yul\":28884:28913   */\n      swap1\n      pop\n        /* \"#utility.yul\":28838:28923   */\n      swap3\n      swap2\n      pop\n      pop\n      jump\t// out\n        /* \"#utility.yul\":28933:29114   */\n    tag_398:\n      0x00\n        /* \"#utility.yul\":29055:29061   */\n      dup3\n        /* \"#utility.yul\":29050:29053   */\n      dup3\n        /* \"#utility.yul\":29043:29062   */\n      mstore\n        /* \"#utility.yul\":29099:29103   */\n      0x20\n        /* \"#utility.yul\":29094:29097   */\n      dup3\n        /* \"#utility.yul\":29090:29104   */\n      add\n        /* \"#utility.yul\":29075:29104   */\n      swap1\n      pop\n        /* \"#utility.yul\":29029:29114   */\n      swap3\n      swap2\n      pop\n      pop\n      jump\t// out\n        /* \"#utility.yul\":29124:29280   */\n    tag_405:\n      0x00\n        /* \"#utility.yul\":29267:29270   */\n      dup2\n        /* \"#utility.yul\":29252:29270   */\n      swap1\n      pop\n        /* \"#utility.yul\":29238:29280   */\n      swap3\n      swap2\n      pop\n      pop\n      jump\t// out\n        /* \"#utility.yul\":29290:29619   */\n    tag_214:\n      0x00\n        /* \"#utility.yul\":29353:29373   */\n      tag_519\n        /* \"#utility.yul\":29371:29372   */\n      dup3\n        /* \"#utility.yul\":29353:29373   */\n      tag_451\n      jump\t// in\n    tag_519:\n        /* \"#utility.yul\":29348:29373   */\n      swap2\n      pop\n        /* \"#utility.yul\":29391:29411   */\n      tag_520\n        /* \"#utility.yul\":29409:29410   */\n      dup4\n        /* \"#utility.yul\":29391:29411   */\n      tag_451\n      jump\t// in\n    tag_520:\n        /* \"#utility.yul\":29386:29411   */\n      swap3\n      pop\n        /* \"#utility.yul\":29553:29554   */\n      dup3\n        /* \"#utility.yul\":29485:29551   */\n      0xffffffffffffffffffffffffffffffffffffffffffffffffffffffffffffffff\n        /* \"#utility.yul\":29481:29555   */\n      sub\n        /* \"#utility.yul\":29478:29479   */\n      dup3\n        /* \"#utility.yul\":29475:29556   */\n      gt\n        /* \"#utility.yul\":29472:29474   */\n      iszero\n      tag_521\n      jumpi\n        /* \"#utility.yul\":29559:29577   */\n      tag_522\n      tag_523\n      jump\t// in\n    tag_522:\n        /* \"#utility.yul\":29472:29474   */\n    tag_521:\n        /* \"#utility.yul\":29607:29608   */\n      dup3\n        /* \"#utility.yul\":29604:29605   */\n      dup3\n        /* \"#utility.yul\":29600:29609   */\n      add\n        /* \"#utility.yul\":29593:29609   */\n      swap1\n      pop\n        /* \"#utility.yul\":29334:29619   */\n      swap3\n      swap2\n      pop\n      pop\n      jump\t// out\n        /* \"#utility.yul\":29629:30001   */\n    tag_212:\n      0x00\n        /* \"#utility.yul\":29696:29716   */\n      tag_525\n        /* \"#utility.yul\":29714:29715   */\n      dup3\n        /* \"#utility.yul\":29696:29716   */\n      tag_451\n      jump\t// in\n    tag_525:\n        /* \"#utility.yul\":29691:29716   */\n      swap2\n      pop\n        /* \"#utility.yul\":29734:29754   */\n      tag_526\n        /* \"#utility.yul\":29752:29753   */\n      dup4\n        /* \"#utility.yul\":29734:29754   */\n      tag_451\n      jump\t// in\n    tag_526:\n        /* \"#utility.yul\":29729:29754   */\n      swap3\n      pop\n        /* \"#utility.yul\":29930:29931   */\n      dup2\n        /* \"#utility.yul\":29862:29928   */\n      0xffffffffffffffffffffffffffffffffffffffffffffffffffffffffffffffff\n        /* \"#utility.yul\":29858:29932   */\n      div\n        /* \"#utility.yul\":29855:29856   */\n      dup4\n        /* \"#utility.yul\":29852:29933   */\n      gt\n        /* \"#utility.yul\":29847:29848   */\n      dup3\n        /* \"#utility.yul\":29840:29849   */\n      iszero\n        /* \"#utility.yul\":29833:29850   */\n      iszero\n        /* \"#utility.yul\":29829:29934   */\n      and\n        /* \"#utility.yul\":29826:29828   */\n      iszero\n      tag_527\n      jumpi\n        /* \"#utility.yul\":29937:29955   */\n      tag_528\n      tag_523\n      jump\t// in\n    tag_528:\n        /* \"#utility.yul\":29826:29828   */\n    tag_527:\n        /* \"#utility.yul\":29989:29990   */\n      dup3\n        /* \"#utility.yul\":29986:29987   */\n      dup3\n        /* \"#utility.yul\":29982:29991   */\n      mul\n        /* \"#utility.yul\":29971:29991   */\n      swap1\n      pop\n        /* \"#utility.yul\":29677:30001   */\n      swap3\n      swap2\n      pop\n      pop\n      jump\t// out\n        /* \"#utility.yul\":30011:30222   */\n    tag_200:\n      0x00\n        /* \"#utility.yul\":30075:30095   */\n      tag_530\n        /* \"#utility.yul\":30093:30094   */\n      dup3\n        /* \"#utility.yul\":30075:30095   */\n      tag_451\n      jump\t// in\n    tag_530:\n        /* \"#utility.yul\":30070:30095   */\n      swap2\n      pop\n        /* \"#utility.yul\":30113:30133   */\n      tag_531\n        /* \"#utility.yul\":30131:30132   */\n      dup4\n        /* \"#utility.yul\":30113:30133   */\n      tag_451\n      jump\t// in\n    tag_531:\n        /* \"#utility.yul\":30108:30133   */\n      swap3\n      pop\n        /* \"#utility.yul\":30156:30157   */\n      dup3\n        /* \"#utility.yul\":30153:30154   */\n      dup3\n        /* \"#utility.yul\":30150:30158   */\n      lt\n        /* \"#utility.yul\":30147:30149   */\n      iszero\n      tag_532\n      jumpi\n        /* \"#utility.yul\":30161:30179   */\n      tag_533\n      tag_523\n      jump\t// in\n    tag_533:\n        /* \"#utility.yul\":30147:30149   */\n    tag_532:\n        /* \"#utility.yul\":30210:30211   */\n      dup3\n        /* \"#utility.yul\":30207:30208   */\n      dup3\n        /* \"#utility.yul\":30203:30212   */\n      sub\n        /* \"#utility.yul\":30195:30212   */\n      swap1\n      pop\n        /* \"#utility.yul\":30056:30222   */\n      swap3\n      swap2\n      pop\n      pop\n      jump\t// out\n        /* \"#utility.yul\":30232:30336   */\n    tag_339:\n      0x00\n        /* \"#utility.yul\":30302:30326   */\n      tag_535\n        /* \"#utility.yul\":30320:30325   */\n      dup3\n        /* \"#utility.yul\":30302:30326   */\n      tag_536\n      jump\t// in\n    tag_535:\n        /* \"#utility.yul\":30291:30326   */\n      swap1\n      pop\n        /* \"#utility.yul\":30277:30336   */\n      swap2\n      swap1\n      pop\n      jump\t// out\n        /* \"#utility.yul\":30346:30480   */\n    tag_536:\n      0x00\n        /* \"#utility.yul\":30427:30469   */\n      0xffffffffffffffffffffffffffffffffffffffff\n        /* \"#utility.yul\":30420:30425   */\n      dup3\n        /* \"#utility.yul\":30416:30470   */\n      and\n        /* \"#utility.yul\":30405:30470   */\n      swap1\n      pop\n        /* \"#utility.yul\":30391:30480   */\n      swap2\n      swap1\n      pop\n      jump\t// out\n        /* \"#utility.yul\":30490:30575   */\n    tag_451:\n      0x00\n        /* \"#utility.yul\":30560:30565   */\n      dup2\n        /* \"#utility.yul\":30549:30565   */\n      swap1\n      pop\n        /* \"#utility.yul\":30535:30575   */\n      swap2\n      swap1\n      pop\n      jump\t// out\n        /* \"#utility.yul\":30585:30755   */\n    tag_278:\n        /* \"#utility.yul\":30673:30679   */\n      dup3\n        /* \"#utility.yul\":30668:30671   */\n      dup2\n        /* \"#utility.yul\":30663:30666   */\n      dup4\n        /* \"#utility.yul\":30650:30680   */\n      calldatacopy\n        /* \"#utility.yul\":30743:30744   */\n      0x00\n        /* \"#utility.yul\":30734:30740   */\n      dup4\n        /* \"#utility.yul\":30729:30732   */\n      dup4\n        /* \"#utility.yul\":30725:30741   */\n      add\n        /* \"#utility.yul\":30718:30745   */\n      mstore\n        /* \"#utility.yul\":30636:30755   */\n      pop\n      pop\n      pop\n      jump\t// out\n        /* \"#utility.yul\":30765:31116   */\n    tag_391:\n        /* \"#utility.yul\":30837:30838   */\n      0x00\n        /* \"#utility.yul\":30851:30976   */\n    tag_541:\n        /* \"#utility.yul\":30865:30871   */\n      dup4\n        /* \"#utility.yul\":30862:30863   */\n      dup2\n        /* \"#utility.yul\":30859:30872   */\n      lt\n        /* \"#utility.yul\":30851:30976   */\n      iszero\n      tag_543\n      jumpi\n        /* \"#utility.yul\":30958:30959   */\n      dup1\n        /* \"#utility.yul\":30953:30956   */\n      dup3\n        /* \"#utility.yul\":30949:30960   */\n      add\n        /* \"#utility.yul\":30943:30961   */\n      mload\n        /* \"#utility.yul\":30939:30940   */\n      dup2\n        /* \"#utility.yul\":30934:30937   */\n      dup5\n        /* \"#utility.yul\":30930:30941   */\n      add\n        /* \"#utility.yul\":30923:30962   */\n      mstore\n        /* \"#utility.yul\":30887:30889   */\n      0x20\n        /* \"#utility.yul\":30884:30885   */\n      dup2\n        /* \"#utility.yul\":30880:30890   */\n      add\n        /* \"#utility.yul\":30875:30890   */\n      swap1\n      pop\n        /* \"#utility.yul\":30851:30976   */\n      jump(tag_541)\n    tag_543:\n        /* \"#utility.yul\":30998:31004   */\n      dup4\n        /* \"#utility.yul\":30995:30996   */\n      dup2\n        /* \"#utility.yul\":30992:31005   */\n      gt\n        /* \"#utility.yul\":30989:30991   */\n      iszero\n      tag_544\n      jumpi\n        /* \"#utility.yul\":31090:31091   */\n      0x00\n        /* \"#utility.yul\":31081:31087   */\n      dup5\n        /* \"#utility.yul\":31076:31079   */\n      dup5\n        /* \"#utility.yul\":31072:31088   */\n      add\n        /* \"#utility.yul\":31065:31092   */\n      mstore\n        /* \"#utility.yul\":30989:30991   */\n    tag_544:\n        /* \"#utility.yul\":30814:31116   */\n      pop\n      pop\n      pop\n      pop\n      jump\t// out\n        /* \"#utility.yul\":31126:31313   */\n    tag_227:\n      0x00\n        /* \"#utility.yul\":31192:31216   */\n      tag_546\n        /* \"#utility.yul\":31210:31215   */\n      dup3\n        /* \"#utility.yul\":31192:31216   */\n      tag_451\n      jump\t// in\n    tag_546:\n        /* \"#utility.yul\":31183:31216   */\n      swap2\n      pop\n        /* \"#utility.yul\":31242:31246   */\n      0x00\n        /* \"#utility.yul\":31235:31240   */\n      dup3\n        /* \"#utility.yul\":31232:31247   */\n      eq\n        /* \"#utility.yul\":31229:31231   */\n      iszero\n      tag_547\n      jumpi\n        /* \"#utility.yul\":31250:31268   */\n      tag_548\n      tag_523\n      jump\t// in\n    tag_548:\n        /* \"#utility.yul\":31229:31231   */\n    tag_547:\n        /* \"#utility.yul\":31301:31302   */\n      0x01\n        /* \"#utility.yul\":31294:31299   */\n      dup3\n        /* \"#utility.yul\":31290:31303   */\n      sub\n        /* \"#utility.yul\":31283:31303   */\n      swap1\n      pop\n        /* \"#utility.yul\":31169:31313   */\n      swap2\n      swap1\n      pop\n      jump\t// out\n        /* \"#utility.yul\":31323:31679   */\n    tag_66:\n      0x00\n        /* \"#utility.yul\":31408:31409   */\n      0x02\n        /* \"#utility.yul\":31402:31406   */\n      dup3\n        /* \"#utility.yul\":31398:31410   */\n      div\n        /* \"#utility.yul\":31388:31410   */\n      swap1\n      pop\n        /* \"#utility.yul\":31459:31460   */\n      0x01\n        /* \"#utility.yul\":31453:31457   */\n      dup3\n        /* \"#utility.yul\":31449:31461   */\n      and\n        /* \"#utility.yul\":31484:31502   */\n      dup1\n        /* \"#utility.yul\":31474:31476   */\n      tag_550\n      jumpi\n        /* \"#utility.yul\":31544:31548   */\n      0x7f\n        /* \"#utility.yul\":31536:31542   */\n      dup3\n        /* \"#utility.yul\":31532:31549   */\n      and\n        /* \"#utility.yul\":31522:31549   */\n      swap2\n      pop\n        /* \"#utility.yul\":31474:31476   */\n    tag_550:\n        /* \"#utility.yul\":31614:31616   */\n      0x20\n        /* \"#utility.yul\":31606:31612   */\n      dup3\n        /* \"#utility.yul\":31603:31617   */\n      lt\n        /* \"#utility.yul\":31583:31601   */\n      dup2\n        /* \"#utility.yul\":31580:31618   */\n      eq\n        /* \"#utility.yul\":31577:31579   */\n      iszero\n      tag_551\n      jumpi\n        /* \"#utility.yul\":31637:31655   */\n      tag_552\n      tag_553\n      jump\t// in\n    tag_552:\n        /* \"#utility.yul\":31577:31579   */\n    tag_551:\n        /* \"#utility.yul\":31374:31679   */\n      pop\n      swap2\n      swap1\n      pop\n      jump\t// out\n        /* \"#utility.yul\":31689:31938   */\n    tag_74:\n      0x00\n        /* \"#utility.yul\":31755:31779   */\n      tag_555\n        /* \"#utility.yul\":31773:31778   */\n      dup3\n        /* \"#utility.yul\":31755:31779   */\n      tag_451\n      jump\t// in\n    tag_555:\n        /* \"#utility.yul\":31746:31779   */\n      swap2\n      pop\n        /* \"#utility.yul\":31805:31871   */\n      0xffffffffffffffffffffffffffffffffffffffffffffffffffffffffffffffff\n        /* \"#utility.yul\":31798:31803   */\n      dup3\n        /* \"#utility.yul\":31795:31872   */\n      eq\n        /* \"#utility.yul\":31792:31794   */\n      iszero\n      tag_556\n      jumpi\n        /* \"#utility.yul\":31875:31893   */\n      tag_557\n      tag_523\n      jump\t// in\n    tag_557:\n        /* \"#utility.yul\":31792:31794   */\n    tag_556:\n        /* \"#utility.yul\":31926:31927   */\n      0x01\n        /* \"#utility.yul\":31919:31924   */\n      dup3\n        /* \"#utility.yul\":31915:31928   */\n      add\n        /* \"#utility.yul\":31908:31928   */\n      swap1\n      pop\n        /* \"#utility.yul\":31732:31938   */\n      swap2\n      swap1\n      pop\n      jump\t// out\n        /* \"#utility.yul\":31948:32144   */\n    tag_523:\n        /* \"#utility.yul\":32000:32077   */\n      0x4e487b7100000000000000000000000000000000000000000000000000000000\n        /* \"#utility.yul\":31997:31998   */\n      0x00\n        /* \"#utility.yul\":31990:32078   */\n      mstore\n        /* \"#utility.yul\":32101:32105   */\n      0x11\n        /* \"#utility.yul\":32098:32099   */\n      0x04\n        /* \"#utility.yul\":32091:32106   */\n      mstore\n        /* \"#utility.yul\":32129:32133   */\n      0x24\n        /* \"#utility.yul\":32126:32127   */\n      0x00\n        /* \"#utility.yul\":32119:32134   */\n      revert\n        /* \"#utility.yul\":32154:32350   */\n    tag_553:\n        /* \"#utility.yul\":32206:32283   */\n      0x4e487b7100000000000000000000000000000000000000000000000000000000\n        /* \"#utility.yul\":32203:32204   */\n      0x00\n        /* \"#utility.yul\":32196:32284   */\n      mstore\n        /* \"#utility.yul\":32307:32311   */\n      0x22\n        /* \"#utility.yul\":32304:32305   */\n      0x04\n        /* \"#utility.yul\":32297:32312   */\n      mstore\n        /* \"#utility.yul\":32335:32339   */\n      0x24\n        /* \"#utility.yul\":32332:32333   */\n      0x00\n        /* \"#utility.yul\":32325:32340   */\n      revert\n        /* \"#utility.yul\":32360:32556   */\n    tag_492:\n        /* \"#utility.yul\":32412:32489   */\n      0x4e487b7100000000000000000000000000000000000000000000000000000000\n        /* \"#utility.yul\":32409:32410   */\n      0x00\n        /* \"#utility.yul\":32402:32490   */\n      mstore\n        /* \"#utility.yul\":32513:32517   */\n      0x41\n        /* \"#utility.yul\":32510:32511   */\n      0x04\n        /* \"#utility.yul\":32503:32518   */\n      mstore\n        /* \"#utility.yul\":32541:32545   */\n      0x24\n        /* \"#utility.yul\":32538:32539   */\n      0x00\n        /* \"#utility.yul\":32531:32546   */\n      revert\n        /* \"#utility.yul\":32566:32676   */\n    tag_393:\n      0x00\n        /* \"#utility.yul\":32662:32664   */\n      0x1f\n        /* \"#utility.yul\":32658:32665   */\n      not\n        /* \"#utility.yul\":32653:32655   */\n      0x1f\n        /* \"#utility.yul\":32646:32651   */\n      dup4\n        /* \"#utility.yul\":32642:32656   */\n      add\n        /* \"#utility.yul\":32638:32666   */\n      and\n        /* \"#utility.yul\":32628:32666   */\n      swap1\n      pop\n        /* \"#utility.yul\":32614:32676   */\n      swap2\n      swap1\n      pop\n      jump\t// out\n        /* \"#utility.yul\":32686:32816   */\n    tag_281:\n        /* \"#utility.yul\":32763:32787   */\n      tag_563\n        /* \"#utility.yul\":32781:32786   */\n      dup2\n        /* \"#utility.yul\":32763:32787   */\n      tag_339\n      jump\t// in\n    tag_563:\n        /* \"#utility.yul\":32756:32761   */\n      dup2\n        /* \"#utility.yul\":32753:32788   */\n      eq\n        /* \"#utility.yul\":32743:32745   */\n      tag_564\n      jumpi\n        /* \"#utility.yul\":32802:32803   */\n      0x00\n        /* \"#utility.yul\":32799:32800   */\n      dup1\n        /* \"#utility.yul\":32792:32804   */\n      revert\n        /* \"#utility.yul\":32743:32745   */\n    tag_564:\n        /* \"#utility.yul\":32729:32816   */\n      pop\n      jump\t// out\n        /* \"#utility.yul\":32826:32956   */\n    tag_296:\n        /* \"#utility.yul\":32903:32927   */\n      tag_566\n        /* \"#utility.yul\":32921:32926   */\n      dup2\n        /* \"#utility.yul\":32903:32927   */\n      tag_451\n      jump\t// in\n    tag_566:\n        /* \"#utility.yul\":32896:32901   */\n      dup2\n        /* \"#utility.yul\":32893:32928   */\n      eq\n        /* \"#utility.yul\":32883:32885   */\n      tag_567\n      jumpi\n        /* \"#utility.yul\":32942:32943   */\n      0x00\n        /* \"#utility.yul\":32939:32940   */\n      dup1\n        /* \"#utility.yul\":32932:32944   */\n      revert\n        /* \"#utility.yul\":32883:32885   */\n    tag_567:\n        /* \"#utility.yul\":32869:32956   */\n      pop\n      jump\t// out\n\n    auxdata: 0xa2646970667358221220386ab7dadb020736ae70c0b96a3e9cfde02fe9285068fa607ecbd61a7c7cef5e64736f6c63430008000033\n}\n",
				"bytecode": {
					"linkReferences": {},
					"object": "608060405260008060006101000a81548160ff021916908315150217905550600180553480156200002f57600080fd5b50604051620030cf380380620030cf8339818101604052810190620000559190620003a4565b80600990805190602001906200006d9291906200026b565b5081600760006101000a81548173ffffffffffffffffffffffffffffffffffffffff021916908373ffffffffffffffffffffffffffffffffffffffff1602179055506040518060400160405280600981526020017f446576656c6f706572000000000000000000000000000000000000000000000081525060066000600760009054906101000a900473ffffffffffffffffffffffffffffffffffffffff1673ffffffffffffffffffffffffffffffffffffffff1673ffffffffffffffffffffffffffffffffffffffff16815260200190815260200160002090805190602001906200015b9291906200026b565b506005600760009054906101000a900473ffffffffffffffffffffffffffffffffffffffff169080600181540180825580915050600190039060005260206000200160009091909190916101000a81548173ffffffffffffffffffffffffffffffffffffffff021916908373ffffffffffffffffffffffffffffffffffffffff16021790555030600860006101000a81548173ffffffffffffffffffffffffffffffffffffffff021916908373ffffffffffffffffffffffffffffffffffffffff16021790555033600060016101000a81548173ffffffffffffffffffffffffffffffffffffffff021916908373ffffffffffffffffffffffffffffffffffffffff16021790555050506200057d565b8280546200027990620004cf565b90600052602060002090601f0160209004810192826200029d5760008555620002e9565b82601f10620002b857805160ff1916838001178555620002e9565b82800160010185558215620002e9579182015b82811115620002e8578251825591602001919060010190620002cb565b5b509050620002f89190620002fc565b5090565b5b8082111562000317576000816000905550600101620002fd565b5090565b6000620003326200032c8462000432565b620003fe565b9050828152602081018484840111156200034b57600080fd5b6200035884828562000499565b509392505050565b600081519050620003718162000563565b92915050565b600082601f8301126200038957600080fd5b81516200039b8482602086016200031b565b91505092915050565b60008060408385031215620003b857600080fd5b6000620003c88582860162000360565b925050602083015167ffffffffffffffff811115620003e657600080fd5b620003f48582860162000377565b9150509250929050565b6000604051905081810181811067ffffffffffffffff8211171562000428576200042762000534565b5b8060405250919050565b600067ffffffffffffffff82111562000450576200044f62000534565b5b601f19601f8301169050602081019050919050565b6000620004728262000479565b9050919050565b600073ffffffffffffffffffffffffffffffffffffffff82169050919050565b60005b83811015620004b95780820151818401526020810190506200049c565b83811115620004c9576000848401525b50505050565b60006002820490506001821680620004e857607f821691505b60208210811415620004ff57620004fe62000505565b5b50919050565b7f4e487b7100000000000000000000000000000000000000000000000000000000600052602260045260246000fd5b7f4e487b7100000000000000000000000000000000000000000000000000000000600052604160045260246000fd5b6200056e8162000465565b81146200057a57600080fd5b50565b612b42806200058d6000396000f3fe608060405234801561001057600080fd5b50600436106100935760003560e01c806364fbc0261161006657806364fbc02614610136578063784b503114610154578063909fc14a1461015e578063bd8976c41461018e578063ee452194146101aa57610093565b80630eccf4f01461009857806325a6c545146100c857806327dd978f146100e85780632968a54514610106575b600080fd5b6100b260048036038101906100ad9190611dbc565b6101c6565b6040516100bf919061253d565b60405180910390f35b6100d0610433565b6040516100df9392919061255f565b60405180910390f35b6100f0610514565b6040516100fd919061251b565b60405180910390f35b610120600480360381019061011b9190611c92565b6107e2565b60405161012d91906124f9565b60405180910390f35b61013e610c1e565b60405161014b91906124d7565b60405180910390f35b61015c610cf7565b005b61017860048036038101906101739190611c15565b610db0565b604051610185919061253d565b60405180910390f35b6101a860048036038101906101a39190611c3e565b610e50565b005b6101c460048036038101906101bf9190611cd3565b61107d565b005b6060600115156000600460008581526020019081526020016000208054905011151514610228576040517f08c379a000000000000000000000000000000000000000000000000000000000815260040161021f906125fd565b60405180910390fd5b6040518060400160405280600181526020017f0a00000000000000000000000000000000000000000000000000000000000000815250905060608060005b600460008681526020019081526020016000208054905081101561042b576103096004600087815260200190815260200160002082815481106102d2577f4e487b7100000000000000000000000000000000000000000000000000000000600052603260045260246000fd5b906000526020600020906002020160000160009054906101000a900473ffffffffffffffffffffffffffffffffffffffff16611571565b9250600460008681526020019081526020016000208181548110610356577f4e487b7100000000000000000000000000000000000000000000000000000000600052603260045260246000fd5b90600052602060002090600202016001018054610372906129c5565b80601f016020809104026020016040519081016040528092919081815260200182805461039e906129c5565b80156103eb5780601f106103c0576101008083540402835291602001916103eb565b820191906000526020600020905b8154815290600101906020018083116103ce57829003601f168201915b5050505050915083838360405160200161040793929190612485565b60405160208183030381529060405293508080610423906129f7565b915050610266565b505050919050565b606060008060098054610445906129c5565b80601f0160208091040260200160405190810160405280929190818152602001828054610471906129c5565b80156104be5780601f10610493576101008083540402835291602001916104be565b820191906000526020600020905b8154815290600101906020018083116104a157829003601f168201915b50505050509250600860009054906101000a900473ffffffffffffffffffffffffffffffffffffffff169150600760009054906101000a900473ffffffffffffffffffffffffffffffffffffffff169050909192565b6060600060058054905067ffffffffffffffff81111561055d577f4e487b7100000000000000000000000000000000000000000000000000000000600052604160045260246000fd5b60405190808252806020026020018201604052801561059657816020015b610583611898565b81526020019060019003908161057b5790505b50905060005b6005805490508110156107da576105b1611898565b60066000600584815481106105ef577f4e487b7100000000000000000000000000000000000000000000000000000000600052603260045260246000fd5b9060005260206000200160009054906101000a900473ffffffffffffffffffffffffffffffffffffffff1673ffffffffffffffffffffffffffffffffffffffff1673ffffffffffffffffffffffffffffffffffffffff168152602001908152602001600020805461065f906129c5565b80601f016020809104026020016040519081016040528092919081815260200182805461068b906129c5565b80156106d85780601f106106ad576101008083540402835291602001916106d8565b820191906000526020600020905b8154815290600101906020018083116106bb57829003601f168201915b505050505081600001819052506005828154811061071f577f4e487b7100000000000000000000000000000000000000000000000000000000600052603260045260246000fd5b9060005260206000200160009054906101000a900473ffffffffffffffffffffffffffffffffffffffff16816020019073ffffffffffffffffffffffffffffffffffffffff16908173ffffffffffffffffffffffffffffffffffffffff1681525050808383815181106107bb577f4e487b7100000000000000000000000000000000000000000000000000000000600052603260045260246000fd5b60200260200101819052505080806107d2906129f7565b91505061059c565b508091505090565b60606001151560006003846040516107fa919061246e565b9081526020016040518091039020805490501115151461084f576040517f08c379a00000000000000000000000000000000000000000000000000000000081526004016108469061267d565b60405180910390fd5b6000600383604051610861919061246e565b90815260200160405180910390208054905067ffffffffffffffff8111156108b2577f4e487b7100000000000000000000000000000000000000000000000000000000600052604160045260246000fd5b6040519080825280602002602001820160405280156108eb57816020015b6108d86118c8565b8152602001906001900390816108d05790505b50905060005b600384604051610901919061246e565b908152602001604051809103902080549050811015610c14576109226118c8565b600385604051610932919061246e565b90815260200160405180910390208281548110610978577f4e487b7100000000000000000000000000000000000000000000000000000000600052603260045260246000fd5b9060005260206000209060040201600001548160000181815250506003856040516109a3919061246e565b908152602001604051809103902082815481106109e9577f4e487b7100000000000000000000000000000000000000000000000000000000600052603260045260246000fd5b906000526020600020906004020160010160009054906101000a900473ffffffffffffffffffffffffffffffffffffffff16816020019073ffffffffffffffffffffffffffffffffffffffff16908173ffffffffffffffffffffffffffffffffffffffff1681525050600385604051610a62919061246e565b90815260200160405180910390208281548110610aa8577f4e487b7100000000000000000000000000000000000000000000000000000000600052603260045260246000fd5b906000526020600020906004020160020154816040018181525050600385604051610ad3919061246e565b90815260200160405180910390208281548110610b19577f4e487b7100000000000000000000000000000000000000000000000000000000600052603260045260246000fd5b90600052602060002090600402016003018054610b35906129c5565b80601f0160208091040260200160405190810160405280929190818152602001828054610b61906129c5565b8015610bae5780601f10610b8357610100808354040283529160200191610bae565b820191906000526020600020905b815481529060010190602001808311610b9157829003601f168201915b5050505050816060018190525080838381518110610bf5577f4e487b7100000000000000000000000000000000000000000000000000000000600052603260045260246000fd5b6020026020010181905250508080610c0c906129f7565b9150506108f1565b5080915050919050565b60606002805480602002602001604051908101604052809291908181526020016000905b82821015610cee578382906000526020600020018054610c61906129c5565b80601f0160208091040260200160405190810160405280929190818152602001828054610c8d906129c5565b8015610cda5780601f10610caf57610100808354040283529160200191610cda565b820191906000526020600020905b815481529060010190602001808311610cbd57829003601f168201915b505050505081526020019060010190610c42565b50505050905090565b600060019054906101000a900473ffffffffffffffffffffffffffffffffffffffff1673ffffffffffffffffffffffffffffffffffffffff163373ffffffffffffffffffffffffffffffffffffffff1614610d87576040517f08c379a0000000000000000000000000000000000000000000000000000000008152600401610d7e906125bd565b60405180910390fd5b60008054906101000a900460ff16156000806101000a81548160ff021916908315150217905550565b600a6020528060005260406000206000915090508054610dcf906129c5565b80601f0160208091040260200160405190810160405280929190818152602001828054610dfb906129c5565b8015610e485780601f10610e1d57610100808354040283529160200191610e48565b820191906000526020600020905b815481529060010190602001808311610e2b57829003601f168201915b505050505081565b600760009054906101000a900473ffffffffffffffffffffffffffffffffffffffff1673ffffffffffffffffffffffffffffffffffffffff163273ffffffffffffffffffffffffffffffffffffffff1614610ee0576040517f08c379a0000000000000000000000000000000000000000000000000000000008152600401610ed79061263d565b60405180910390fd5b6000151560008054906101000a900460ff16151514610f34576040517f08c379a0000000000000000000000000000000000000000000000000000000008152600401610f2b9061261d565b60405180910390fd5b6000600660008473ffffffffffffffffffffffffffffffffffffffff1673ffffffffffffffffffffffffffffffffffffffff1681526020019081526020016000208054610f80906129c5565b905014610fc2576040517f08c379a0000000000000000000000000000000000000000000000000000000008152600401610fb9906125dd565b60405180910390fd5b80600660008473ffffffffffffffffffffffffffffffffffffffff1673ffffffffffffffffffffffffffffffffffffffff1681526020019081526020016000209080519060200190611015929190611906565b506005829080600181540180825580915050600190039060005260206000200160009091909190916101000a81548173ffffffffffffffffffffffffffffffffffffffff021916908373ffffffffffffffffffffffffffffffffffffffff1602179055505050565b6000600660003273ffffffffffffffffffffffffffffffffffffffff1673ffffffffffffffffffffffffffffffffffffffff16815260200190815260200160002080546110c9906129c5565b9050141561110c576040517f08c379a00000000000000000000000000000000000000000000000000000000081526004016111039061265d565b60405180910390fd5b6000151560008054906101000a900460ff16151514611160576040517f08c379a00000000000000000000000000000000000000000000000000000000081526004016111579061261d565b60405180910390fd5b6000600387604051611172919061246e565b90815260200160405180910390208054905014156111c7576002869080600181540180825580915050600190039060005260206000200160009091909190915090805190602001906111c5929190611906565b505b6111cf6118c8565b60015481600001818152505081816020019073ffffffffffffffffffffffffffffffffffffffff16908173ffffffffffffffffffffffffffffffffffffffff168152505085816040018181525050848160600181905250600387604051611236919061246e565b90815260200160405180910390208190806001815401808255809150506001900390600052602060002090600402016000909190919091506000820151816000015560208201518160010160006101000a81548173ffffffffffffffffffffffffffffffffffffffff021916908373ffffffffffffffffffffffffffffffffffffffff1602179055506040820151816002015560608201518160030190805190602001906112e5929190611906565b5050506112f061198c565b60005b855181101561147557858181518110611335577f4e487b7100000000000000000000000000000000000000000000000000000000600052603260045260246000fd5b6020026020010151826000019073ffffffffffffffffffffffffffffffffffffffff16908173ffffffffffffffffffffffffffffffffffffffff16815250508481815181106113ad577f4e487b7100000000000000000000000000000000000000000000000000000000600052603260045260246000fd5b6020026020010151826020018190525060046000600154815260200190815260200160002082908060018154018082558091505060019003906000526020600020906002020160009091909190915060008201518160000160006101000a81548173ffffffffffffffffffffffffffffffffffffffff021916908373ffffffffffffffffffffffffffffffffffffffff160217905550602082015181600101908051906020019061145f929190611906565b505050808061146d906129f7565b9150506112f3565b50600660003273ffffffffffffffffffffffffffffffffffffffff1673ffffffffffffffffffffffffffffffffffffffff1681526020019081526020016000206004600060015481526020019081526020016000206001600460006001548152602001908152602001600020805490506114ef91906128e9565b81548110611526577f4e487b7100000000000000000000000000000000000000000000000000000000600052603260045260246000fd5b9060005260206000209060020201600101908054611543906129c5565b61154e9291906119bc565b5060016000815480929190611562906129f7565b91905055505050505050505050565b60606115978273ffffffffffffffffffffffffffffffffffffffff16601460ff1661159e565b9050919050565b6060600060028360026115b1919061288f565b6115bb9190612839565b67ffffffffffffffff8111156115fa577f4e487b7100000000000000000000000000000000000000000000000000000000600052604160045260246000fd5b6040519080825280601f01601f19166020018201604052801561162c5781602001600182028036833780820191505090505b5090507f30000000000000000000000000000000000000000000000000000000000000008160008151811061168a577f4e487b7100000000000000000000000000000000000000000000000000000000600052603260045260246000fd5b60200101907effffffffffffffffffffffffffffffffffffffffffffffffffffffffffffff1916908160001a9053507f780000000000000000000000000000000000000000000000000000000000000081600181518110611714577f4e487b7100000000000000000000000000000000000000000000000000000000600052603260045260246000fd5b60200101907effffffffffffffffffffffffffffffffffffffffffffffffffffffffffffff1916908160001a90535060006001846002611754919061288f565b61175e9190612839565b90505b600181111561184a577f3031323334353637383961626364656600000000000000000000000000000000600f8616601081106117c6577f4e487b7100000000000000000000000000000000000000000000000000000000600052603260045260246000fd5b1a60f81b828281518110611803577f4e487b7100000000000000000000000000000000000000000000000000000000600052603260045260246000fd5b60200101907effffffffffffffffffffffffffffffffffffffffffffffffffffffffffffff1916908160001a905350600485901c9450806118439061299b565b9050611761565b506000841461188e576040517f08c379a00000000000000000000000000000000000000000000000000000000081526004016118859061259d565b60405180910390fd5b8091505092915050565b604051806040016040528060608152602001600073ffffffffffffffffffffffffffffffffffffffff1681525090565b604051806080016040528060008152602001600073ffffffffffffffffffffffffffffffffffffffff16815260200160008152602001606081525090565b828054611912906129c5565b90600052602060002090601f016020900481019282611934576000855561197b565b82601f1061194d57805160ff191683800117855561197b565b8280016001018555821561197b579182015b8281111561197a57825182559160200191906001019061195f565b5b5090506119889190611a49565b5090565b6040518060400160405280600073ffffffffffffffffffffffffffffffffffffffff168152602001606081525090565b8280546119c8906129c5565b90600052602060002090601f0160209004810192826119ea5760008555611a38565b82601f106119fb5780548555611a38565b82800160010185558215611a3857600052602060002091601f016020900482015b82811115611a37578254825591600101919060010190611a1c565b5b509050611a459190611a49565b5090565b5b80821115611a62576000816000905550600101611a4a565b5090565b6000611a79611a74846126ce565b61269d565b90508083825260208201905082856020860282011115611a9857600080fd5b60005b85811015611ac85781611aae8882611b6d565b845260208401935060208301925050600181019050611a9b565b5050509392505050565b6000611ae5611ae0846126fa565b61269d565b9050808382526020820190508260005b85811015611b255781358501611b0b8882611bd6565b845260208401935060208301925050600181019050611af5565b5050509392505050565b6000611b42611b3d84612726565b61269d565b905082815260208101848484011115611b5a57600080fd5b611b65848285612959565b509392505050565b600081359050611b7c81612ade565b92915050565b600082601f830112611b9357600080fd5b8135611ba3848260208601611a66565b91505092915050565b600082601f830112611bbd57600080fd5b8135611bcd848260208601611ad2565b91505092915050565b600082601f830112611be757600080fd5b8135611bf7848260208601611b2f565b91505092915050565b600081359050611c0f81612af5565b92915050565b600060208284031215611c2757600080fd5b6000611c3584828501611b6d565b91505092915050565b60008060408385031215611c5157600080fd5b6000611c5f85828601611b6d565b925050602083013567ffffffffffffffff811115611c7c57600080fd5b611c8885828601611bd6565b9150509250929050565b600060208284031215611ca457600080fd5b600082013567ffffffffffffffff811115611cbe57600080fd5b611cca84828501611bd6565b91505092915050565b60008060008060008060c08789031215611cec57600080fd5b600087013567ffffffffffffffff811115611d0657600080fd5b611d1289828a01611bd6565b9650506020611d2389828a01611c00565b955050604087013567ffffffffffffffff811115611d4057600080fd5b611d4c89828a01611bd6565b945050606087013567ffffffffffffffff811115611d6957600080fd5b611d7589828a01611b82565b935050608087013567ffffffffffffffff811115611d9257600080fd5b611d9e89828a01611bac565b92505060a0611daf89828a01611b6d565b9150509295509295509295565b600060208284031215611dce57600080fd5b6000611ddc84828501611c00565b91505092915050565b6000611df18383611f9e565b905092915050565b6000611e0583836123bf565b905092915050565b6000611e198383612422565b905092915050565b611e2a8161291d565b82525050565b611e398161291d565b82525050565b6000611e4a82612786565b611e5481856127d9565b935083602082028501611e6685612756565b8060005b85811015611ea25784840389528151611e838582611de5565b9450611e8e836127b2565b925060208a01995050600181019050611e6a565b50829750879550505050505092915050565b6000611ebf82612791565b611ec981856127ea565b935083602082028501611edb85612766565b8060005b85811015611f175784840389528151611ef88582611df9565b9450611f03836127bf565b925060208a01995050600181019050611edf565b50829750879550505050505092915050565b6000611f348261279c565b611f3e81856127fb565b935083602082028501611f5085612776565b8060005b85811015611f8c5784840389528151611f6d8582611e0d565b9450611f78836127cc565b925060208a01995050600181019050611f54565b50829750879550505050505092915050565b6000611fa9826127a7565b611fb3818561280c565b9350611fc3818560208601612968565b611fcc81612acd565b840191505092915050565b6000611fe2826127a7565b611fec818561281d565b9350611ffc818560208601612968565b61200581612acd565b840191505092915050565b600061201b826127a7565b612025818561282e565b9350612035818560208601612968565b80840191505092915050565b600061204e60208361281d565b91507f537472696e67733a20686578206c656e67746820696e73756666696369656e746000830152602082019050919050565b600061208e602c8361281d565b91507f4f6e6c7920666163746f727920636f6e74726163742063616e2063616c6c207460008301527f6869732066756e6374696f6e00000000000000000000000000000000000000006020830152604082019050919050565b60006120f460208361281d565b91507f436f6e74726163746f7220697320616c726561647920726567697374657265646000830152602082019050919050565b6000612134603f8361281d565b91507f506c656173652074727920616761696e2061732072657175657374656420737560008301527f70706c7920636861696e206e756d62657220776173206e6f7420666f756e64006020830152604082019050919050565b600061219a601a8361281d565b91507f436f6e747261637420686173206265656e2064697361626c65640000000000006000830152602082019050919050565b60006121da60258361281d565b91507f43616e206f6e6c7920626520657865637574656420627920746865204465766560008301527f6c6f7065720000000000000000000000000000000000000000000000000000006020830152604082019050919050565b600061224060318361281d565b91507f43616e206f6e6c7920626520657865637574656420627920746865207265676960008301527f73746572656420436f6e74726163746f720000000000000000000000000000006020830152604082019050919050565b60006122a660348361281d565b91507f506c656173652074727920616761696e20617320726571756573746564206d6160008301527f74657269616c20776173206e6f7420666f756e640000000000000000000000006020830152604082019050919050565b600061230c60038361282e565b91507f20282000000000000000000000000000000000000000000000000000000000006000830152600382019050919050565b600061234c60038361282e565b91507f203a2000000000000000000000000000000000000000000000000000000000006000830152600382019050919050565b600061238c60048361282e565b91507f2029200a000000000000000000000000000000000000000000000000000000006000830152600482019050919050565b60006080830160008301516123d7600086018261245f565b5060208301516123ea6020860182611e21565b5060408301516123fd604086018261245f565b50606083015184820360608601526124158282611f9e565b9150508091505092915050565b6000604083016000830151848203600086015261243f8282611f9e565b91505060208301516124546020860182611e21565b508091505092915050565b6124688161294f565b82525050565b600061247a8284612010565b915081905092915050565b60006124918286612010565b915061249c826122ff565b91506124a88285612010565b91506124b38261233f565b91506124bf8284612010565b91506124ca8261237f565b9150819050949350505050565b600060208201905081810360008301526124f18184611e3f565b905092915050565b600060208201905081810360008301526125138184611eb4565b905092915050565b600060208201905081810360008301526125358184611f29565b905092915050565b600060208201905081810360008301526125578184611fd7565b905092915050565b600060608201905081810360008301526125798186611fd7565b90506125886020830185611e30565b6125956040830184611e30565b949350505050565b600060208201905081810360008301526125b681612041565b9050919050565b600060208201905081810360008301526125d681612081565b9050919050565b600060208201905081810360008301526125f6816120e7565b9050919050565b6000602082019050818103600083015261261681612127565b9050919050565b600060208201905081810360008301526126368161218d565b9050919050565b60006020820190508181036000830152612656816121cd565b9050919050565b6000602082019050818103600083015261267681612233565b9050919050565b6000602082019050818103600083015261269681612299565b9050919050565b6000604051905081810181811067ffffffffffffffff821117156126c4576126c3612a9e565b5b8060405250919050565b600067ffffffffffffffff8211156126e9576126e8612a9e565b5b602082029050602081019050919050565b600067ffffffffffffffff82111561271557612714612a9e565b5b602082029050602081019050919050565b600067ffffffffffffffff82111561274157612740612a9e565b5b601f19601f8301169050602081019050919050565b6000819050602082019050919050565b6000819050602082019050919050565b6000819050602082019050919050565b600081519050919050565b600081519050919050565b600081519050919050565b600081519050919050565b6000602082019050919050565b6000602082019050919050565b6000602082019050919050565b600082825260208201905092915050565b600082825260208201905092915050565b600082825260208201905092915050565b600082825260208201905092915050565b600082825260208201905092915050565b600081905092915050565b60006128448261294f565b915061284f8361294f565b9250827fffffffffffffffffffffffffffffffffffffffffffffffffffffffffffffffff0382111561288457612883612a40565b5b828201905092915050565b600061289a8261294f565b91506128a58361294f565b9250817fffffffffffffffffffffffffffffffffffffffffffffffffffffffffffffffff04831182151516156128de576128dd612a40565b5b828202905092915050565b60006128f48261294f565b91506128ff8361294f565b92508282101561291257612911612a40565b5b828203905092915050565b60006129288261292f565b9050919050565b600073ffffffffffffffffffffffffffffffffffffffff82169050919050565b6000819050919050565b82818337600083830152505050565b60005b8381101561298657808201518184015260208101905061296b565b83811115612995576000848401525b50505050565b60006129a68261294f565b915060008214156129ba576129b9612a40565b5b600182039050919050565b600060028204905060018216806129dd57607f821691505b602082108114156129f1576129f0612a6f565b5b50919050565b6000612a028261294f565b91507fffffffffffffffffffffffffffffffffffffffffffffffffffffffffffffffff821415612a3557612a34612a40565b5b600182019050919050565b7f4e487b7100000000000000000000000000000000000000000000000000000000600052601160045260246000fd5b7f4e487b7100000000000000000000000000000000000000000000000000000000600052602260045260246000fd5b7f4e487b7100000000000000000000000000000000000000000000000000000000600052604160045260246000fd5b6000601f19601f8301169050919050565b612ae78161291d565b8114612af257600080fd5b50565b612afe8161294f565b8114612b0957600080fd5b5056fea2646970667358221220386ab7dadb020736ae70c0b96a3e9cfde02fe9285068fa607ecbd61a7c7cef5e64736f6c63430008000033",
					"opcodes": "PUSH1 0x80 PUSH1 0x40 MSTORE PUSH1 0x0 DUP1 PUSH1 0x0 PUSH2 0x100 EXP DUP2 SLOAD DUP2 PUSH1 0xFF MUL NOT AND SWAP1 DUP4 ISZERO ISZERO MUL OR SWAP1 SSTORE POP PUSH1 0x1 DUP1 SSTORE CALLVALUE DUP1 ISZERO PUSH3 0x2F JUMPI PUSH1 0x0 DUP1 REVERT JUMPDEST POP PUSH1 0x40 MLOAD PUSH3 0x30CF CODESIZE SUB DUP1 PUSH3 0x30CF DUP4 CODECOPY DUP2 DUP2 ADD PUSH1 0x40 MSTORE DUP2 ADD SWAP1 PUSH3 0x55 SWAP2 SWAP1 PUSH3 0x3A4 JUMP JUMPDEST DUP1 PUSH1 0x9 SWAP1 DUP1 MLOAD SWAP1 PUSH1 0x20 ADD SWAP1 PUSH3 0x6D SWAP3 SWAP2 SWAP1 PUSH3 0x26B JUMP JUMPDEST POP DUP2 PUSH1 0x7 PUSH1 0x0 PUSH2 0x100 EXP DUP2 SLOAD DUP2 PUSH20 0xFFFFFFFFFFFFFFFFFFFFFFFFFFFFFFFFFFFFFFFF MUL NOT AND SWAP1 DUP4 PUSH20 0xFFFFFFFFFFFFFFFFFFFFFFFFFFFFFFFFFFFFFFFF AND MUL OR SWAP1 SSTORE POP PUSH1 0x40 MLOAD DUP1 PUSH1 0x40 ADD PUSH1 0x40 MSTORE DUP1 PUSH1 0x9 DUP2 MSTORE PUSH1 0x20 ADD PUSH32 0x446576656C6F7065720000000000000000000000000000000000000000000000 DUP2 MSTORE POP PUSH1 0x6 PUSH1 0x0 PUSH1 0x7 PUSH1 0x0 SWAP1 SLOAD SWAP1 PUSH2 0x100 EXP SWAP1 DIV PUSH20 0xFFFFFFFFFFFFFFFFFFFFFFFFFFFFFFFFFFFFFFFF AND PUSH20 0xFFFFFFFFFFFFFFFFFFFFFFFFFFFFFFFFFFFFFFFF AND PUSH20 0xFFFFFFFFFFFFFFFFFFFFFFFFFFFFFFFFFFFFFFFF AND DUP2 MSTORE PUSH1 0x20 ADD SWAP1 DUP2 MSTORE PUSH1 0x20 ADD PUSH1 0x0 KECCAK256 SWAP1 DUP1 MLOAD SWAP1 PUSH1 0x20 ADD SWAP1 PUSH3 0x15B SWAP3 SWAP2 SWAP1 PUSH3 0x26B JUMP JUMPDEST POP PUSH1 0x5 PUSH1 0x7 PUSH1 0x0 SWAP1 SLOAD SWAP1 PUSH2 0x100 EXP SWAP1 DIV PUSH20 0xFFFFFFFFFFFFFFFFFFFFFFFFFFFFFFFFFFFFFFFF AND SWAP1 DUP1 PUSH1 0x1 DUP2 SLOAD ADD DUP1 DUP3 SSTORE DUP1 SWAP2 POP POP PUSH1 0x1 SWAP1 SUB SWAP1 PUSH1 0x0 MSTORE PUSH1 0x20 PUSH1 0x0 KECCAK256 ADD PUSH1 0x0 SWAP1 SWAP2 SWAP1 SWAP2 SWAP1 SWAP2 PUSH2 0x100 EXP DUP2 SLOAD DUP2 PUSH20 0xFFFFFFFFFFFFFFFFFFFFFFFFFFFFFFFFFFFFFFFF MUL NOT AND SWAP1 DUP4 PUSH20 0xFFFFFFFFFFFFFFFFFFFFFFFFFFFFFFFFFFFFFFFF AND MUL OR SWAP1 SSTORE POP ADDRESS PUSH1 0x8 PUSH1 0x0 PUSH2 0x100 EXP DUP2 SLOAD DUP2 PUSH20 0xFFFFFFFFFFFFFFFFFFFFFFFFFFFFFFFFFFFFFFFF MUL NOT AND SWAP1 DUP4 PUSH20 0xFFFFFFFFFFFFFFFFFFFFFFFFFFFFFFFFFFFFFFFF AND MUL OR SWAP1 SSTORE POP CALLER PUSH1 0x0 PUSH1 0x1 PUSH2 0x100 EXP DUP2 SLOAD DUP2 PUSH20 0xFFFFFFFFFFFFFFFFFFFFFFFFFFFFFFFFFFFFFFFF MUL NOT AND SWAP1 DUP4 PUSH20 0xFFFFFFFFFFFFFFFFFFFFFFFFFFFFFFFFFFFFFFFF AND MUL OR SWAP1 SSTORE POP POP POP PUSH3 0x57D JUMP JUMPDEST DUP3 DUP1 SLOAD PUSH3 0x279 SWAP1 PUSH3 0x4CF JUMP JUMPDEST SWAP1 PUSH1 0x0 MSTORE PUSH1 0x20 PUSH1 0x0 KECCAK256 SWAP1 PUSH1 0x1F ADD PUSH1 0x20 SWAP1 DIV DUP2 ADD SWAP3 DUP3 PUSH3 0x29D JUMPI PUSH1 0x0 DUP6 SSTORE PUSH3 0x2E9 JUMP JUMPDEST DUP3 PUSH1 0x1F LT PUSH3 0x2B8 JUMPI DUP1 MLOAD PUSH1 0xFF NOT AND DUP4 DUP1 ADD OR DUP6 SSTORE PUSH3 0x2E9 JUMP JUMPDEST DUP3 DUP1 ADD PUSH1 0x1 ADD DUP6 SSTORE DUP3 ISZERO PUSH3 0x2E9 JUMPI SWAP2 DUP3 ADD JUMPDEST DUP3 DUP2 GT ISZERO PUSH3 0x2E8 JUMPI DUP3 MLOAD DUP3 SSTORE SWAP2 PUSH1 0x20 ADD SWAP2 SWAP1 PUSH1 0x1 ADD SWAP1 PUSH3 0x2CB JUMP JUMPDEST JUMPDEST POP SWAP1 POP PUSH3 0x2F8 SWAP2 SWAP1 PUSH3 0x2FC JUMP JUMPDEST POP SWAP1 JUMP JUMPDEST JUMPDEST DUP1 DUP3 GT ISZERO PUSH3 0x317 JUMPI PUSH1 0x0 DUP2 PUSH1 0x0 SWAP1 SSTORE POP PUSH1 0x1 ADD PUSH3 0x2FD JUMP JUMPDEST POP SWAP1 JUMP JUMPDEST PUSH1 0x0 PUSH3 0x332 PUSH3 0x32C DUP5 PUSH3 0x432 JUMP JUMPDEST PUSH3 0x3FE JUMP JUMPDEST SWAP1 POP DUP3 DUP2 MSTORE PUSH1 0x20 DUP2 ADD DUP5 DUP5 DUP5 ADD GT ISZERO PUSH3 0x34B JUMPI PUSH1 0x0 DUP1 REVERT JUMPDEST PUSH3 0x358 DUP5 DUP3 DUP6 PUSH3 0x499 JUMP JUMPDEST POP SWAP4 SWAP3 POP POP POP JUMP JUMPDEST PUSH1 0x0 DUP2 MLOAD SWAP1 POP PUSH3 0x371 DUP2 PUSH3 0x563 JUMP JUMPDEST SWAP3 SWAP2 POP POP JUMP JUMPDEST PUSH1 0x0 DUP3 PUSH1 0x1F DUP4 ADD SLT PUSH3 0x389 JUMPI PUSH1 0x0 DUP1 REVERT JUMPDEST DUP2 MLOAD PUSH3 0x39B DUP5 DUP3 PUSH1 0x20 DUP7 ADD PUSH3 0x31B JUMP JUMPDEST SWAP2 POP POP SWAP3 SWAP2 POP POP JUMP JUMPDEST PUSH1 0x0 DUP1 PUSH1 0x40 DUP4 DUP6 SUB SLT ISZERO PUSH3 0x3B8 JUMPI PUSH1 0x0 DUP1 REVERT JUMPDEST PUSH1 0x0 PUSH3 0x3C8 DUP6 DUP3 DUP7 ADD PUSH3 0x360 JUMP JUMPDEST SWAP3 POP POP PUSH1 0x20 DUP4 ADD MLOAD PUSH8 0xFFFFFFFFFFFFFFFF DUP2 GT ISZERO PUSH3 0x3E6 JUMPI PUSH1 0x0 DUP1 REVERT JUMPDEST PUSH3 0x3F4 DUP6 DUP3 DUP7 ADD PUSH3 0x377 JUMP JUMPDEST SWAP2 POP POP SWAP3 POP SWAP3 SWAP1 POP JUMP JUMPDEST PUSH1 0x0 PUSH1 0x40 MLOAD SWAP1 POP DUP2 DUP2 ADD DUP2 DUP2 LT PUSH8 0xFFFFFFFFFFFFFFFF DUP3 GT OR ISZERO PUSH3 0x428 JUMPI PUSH3 0x427 PUSH3 0x534 JUMP JUMPDEST JUMPDEST DUP1 PUSH1 0x40 MSTORE POP SWAP2 SWAP1 POP JUMP JUMPDEST PUSH1 0x0 PUSH8 0xFFFFFFFFFFFFFFFF DUP3 GT ISZERO PUSH3 0x450 JUMPI PUSH3 0x44F PUSH3 0x534 JUMP JUMPDEST JUMPDEST PUSH1 0x1F NOT PUSH1 0x1F DUP4 ADD AND SWAP1 POP PUSH1 0x20 DUP2 ADD SWAP1 POP SWAP2 SWAP1 POP JUMP JUMPDEST PUSH1 0x0 PUSH3 0x472 DUP3 PUSH3 0x479 JUMP JUMPDEST SWAP1 POP SWAP2 SWAP1 POP JUMP JUMPDEST PUSH1 0x0 PUSH20 0xFFFFFFFFFFFFFFFFFFFFFFFFFFFFFFFFFFFFFFFF DUP3 AND SWAP1 POP SWAP2 SWAP1 POP JUMP JUMPDEST PUSH1 0x0 JUMPDEST DUP4 DUP2 LT ISZERO PUSH3 0x4B9 JUMPI DUP1 DUP3 ADD MLOAD DUP2 DUP5 ADD MSTORE PUSH1 0x20 DUP2 ADD SWAP1 POP PUSH3 0x49C JUMP JUMPDEST DUP4 DUP2 GT ISZERO PUSH3 0x4C9 JUMPI PUSH1 0x0 DUP5 DUP5 ADD MSTORE JUMPDEST POP POP POP POP JUMP JUMPDEST PUSH1 0x0 PUSH1 0x2 DUP3 DIV SWAP1 POP PUSH1 0x1 DUP3 AND DUP1 PUSH3 0x4E8 JUMPI PUSH1 0x7F DUP3 AND SWAP2 POP JUMPDEST PUSH1 0x20 DUP3 LT DUP2 EQ ISZERO PUSH3 0x4FF JUMPI PUSH3 0x4FE PUSH3 0x505 JUMP JUMPDEST JUMPDEST POP SWAP2 SWAP1 POP JUMP JUMPDEST PUSH32 0x4E487B7100000000000000000000000000000000000000000000000000000000 PUSH1 0x0 MSTORE PUSH1 0x22 PUSH1 0x4 MSTORE PUSH1 0x24 PUSH1 0x0 REVERT JUMPDEST PUSH32 0x4E487B7100000000000000000000000000000000000000000000000000000000 PUSH1 0x0 MSTORE PUSH1 0x41 PUSH1 0x4 MSTORE PUSH1 0x24 PUSH1 0x0 REVERT JUMPDEST PUSH3 0x56E DUP2 PUSH3 0x465 JUMP JUMPDEST DUP2 EQ PUSH3 0x57A JUMPI PUSH1 0x0 DUP1 REVERT JUMPDEST POP JUMP JUMPDEST PUSH2 0x2B42 DUP1 PUSH3 0x58D PUSH1 0x0 CODECOPY PUSH1 0x0 RETURN INVALID PUSH1 0x80 PUSH1 0x40 MSTORE CALLVALUE DUP1 ISZERO PUSH2 0x10 JUMPI PUSH1 0x0 DUP1 REVERT JUMPDEST POP PUSH1 0x4 CALLDATASIZE LT PUSH2 0x93 JUMPI PUSH1 0x0 CALLDATALOAD PUSH1 0xE0 SHR DUP1 PUSH4 0x64FBC026 GT PUSH2 0x66 JUMPI DUP1 PUSH4 0x64FBC026 EQ PUSH2 0x136 JUMPI DUP1 PUSH4 0x784B5031 EQ PUSH2 0x154 JUMPI DUP1 PUSH4 0x909FC14A EQ PUSH2 0x15E JUMPI DUP1 PUSH4 0xBD8976C4 EQ PUSH2 0x18E JUMPI DUP1 PUSH4 0xEE452194 EQ PUSH2 0x1AA JUMPI PUSH2 0x93 JUMP JUMPDEST DUP1 PUSH4 0xECCF4F0 EQ PUSH2 0x98 JUMPI DUP1 PUSH4 0x25A6C545 EQ PUSH2 0xC8 JUMPI DUP1 PUSH4 0x27DD978F EQ PUSH2 0xE8 JUMPI DUP1 PUSH4 0x2968A545 EQ PUSH2 0x106 JUMPI JUMPDEST PUSH1 0x0 DUP1 REVERT JUMPDEST PUSH2 0xB2 PUSH1 0x4 DUP1 CALLDATASIZE SUB DUP2 ADD SWAP1 PUSH2 0xAD SWAP2 SWAP1 PUSH2 0x1DBC JUMP JUMPDEST PUSH2 0x1C6 JUMP JUMPDEST PUSH1 0x40 MLOAD PUSH2 0xBF SWAP2 SWAP1 PUSH2 0x253D JUMP JUMPDEST PUSH1 0x40 MLOAD DUP1 SWAP2 SUB SWAP1 RETURN JUMPDEST PUSH2 0xD0 PUSH2 0x433 JUMP JUMPDEST PUSH1 0x40 MLOAD PUSH2 0xDF SWAP4 SWAP3 SWAP2 SWAP1 PUSH2 0x255F JUMP JUMPDEST PUSH1 0x40 MLOAD DUP1 SWAP2 SUB SWAP1 RETURN JUMPDEST PUSH2 0xF0 PUSH2 0x514 JUMP JUMPDEST PUSH1 0x40 MLOAD PUSH2 0xFD SWAP2 SWAP1 PUSH2 0x251B JUMP JUMPDEST PUSH1 0x40 MLOAD DUP1 SWAP2 SUB SWAP1 RETURN JUMPDEST PUSH2 0x120 PUSH1 0x4 DUP1 CALLDATASIZE SUB DUP2 ADD SWAP1 PUSH2 0x11B SWAP2 SWAP1 PUSH2 0x1C92 JUMP JUMPDEST PUSH2 0x7E2 JUMP JUMPDEST PUSH1 0x40 MLOAD PUSH2 0x12D SWAP2 SWAP1 PUSH2 0x24F9 JUMP JUMPDEST PUSH1 0x40 MLOAD DUP1 SWAP2 SUB SWAP1 RETURN JUMPDEST PUSH2 0x13E PUSH2 0xC1E JUMP JUMPDEST PUSH1 0x40 MLOAD PUSH2 0x14B SWAP2 SWAP1 PUSH2 0x24D7 JUMP JUMPDEST PUSH1 0x40 MLOAD DUP1 SWAP2 SUB SWAP1 RETURN JUMPDEST PUSH2 0x15C PUSH2 0xCF7 JUMP JUMPDEST STOP JUMPDEST PUSH2 0x178 PUSH1 0x4 DUP1 CALLDATASIZE SUB DUP2 ADD SWAP1 PUSH2 0x173 SWAP2 SWAP1 PUSH2 0x1C15 JUMP JUMPDEST PUSH2 0xDB0 JUMP JUMPDEST PUSH1 0x40 MLOAD PUSH2 0x185 SWAP2 SWAP1 PUSH2 0x253D JUMP JUMPDEST PUSH1 0x40 MLOAD DUP1 SWAP2 SUB SWAP1 RETURN JUMPDEST PUSH2 0x1A8 PUSH1 0x4 DUP1 CALLDATASIZE SUB DUP2 ADD SWAP1 PUSH2 0x1A3 SWAP2 SWAP1 PUSH2 0x1C3E JUMP JUMPDEST PUSH2 0xE50 JUMP JUMPDEST STOP JUMPDEST PUSH2 0x1C4 PUSH1 0x4 DUP1 CALLDATASIZE SUB DUP2 ADD SWAP1 PUSH2 0x1BF SWAP2 SWAP1 PUSH2 0x1CD3 JUMP JUMPDEST PUSH2 0x107D JUMP JUMPDEST STOP JUMPDEST PUSH1 0x60 PUSH1 0x1 ISZERO ISZERO PUSH1 0x0 PUSH1 0x4 PUSH1 0x0 DUP6 DUP2 MSTORE PUSH1 0x20 ADD SWAP1 DUP2 MSTORE PUSH1 0x20 ADD PUSH1 0x0 KECCAK256 DUP1 SLOAD SWAP1 POP GT ISZERO ISZERO EQ PUSH2 0x228 JUMPI PUSH1 0x40 MLOAD PUSH32 0x8C379A000000000000000000000000000000000000000000000000000000000 DUP2 MSTORE PUSH1 0x4 ADD PUSH2 0x21F SWAP1 PUSH2 0x25FD JUMP JUMPDEST PUSH1 0x40 MLOAD DUP1 SWAP2 SUB SWAP1 REVERT JUMPDEST PUSH1 0x40 MLOAD DUP1 PUSH1 0x40 ADD PUSH1 0x40 MSTORE DUP1 PUSH1 0x1 DUP2 MSTORE PUSH1 0x20 ADD PUSH32 0xA00000000000000000000000000000000000000000000000000000000000000 DUP2 MSTORE POP SWAP1 POP PUSH1 0x60 DUP1 PUSH1 0x0 JUMPDEST PUSH1 0x4 PUSH1 0x0 DUP7 DUP2 MSTORE PUSH1 0x20 ADD SWAP1 DUP2 MSTORE PUSH1 0x20 ADD PUSH1 0x0 KECCAK256 DUP1 SLOAD SWAP1 POP DUP2 LT ISZERO PUSH2 0x42B JUMPI PUSH2 0x309 PUSH1 0x4 PUSH1 0x0 DUP8 DUP2 MSTORE PUSH1 0x20 ADD SWAP1 DUP2 MSTORE PUSH1 0x20 ADD PUSH1 0x0 KECCAK256 DUP3 DUP2 SLOAD DUP2 LT PUSH2 0x2D2 JUMPI PUSH32 0x4E487B7100000000000000000000000000000000000000000000000000000000 PUSH1 0x0 MSTORE PUSH1 0x32 PUSH1 0x4 MSTORE PUSH1 0x24 PUSH1 0x0 REVERT JUMPDEST SWAP1 PUSH1 0x0 MSTORE PUSH1 0x20 PUSH1 0x0 KECCAK256 SWAP1 PUSH1 0x2 MUL ADD PUSH1 0x0 ADD PUSH1 0x0 SWAP1 SLOAD SWAP1 PUSH2 0x100 EXP SWAP1 DIV PUSH20 0xFFFFFFFFFFFFFFFFFFFFFFFFFFFFFFFFFFFFFFFF AND PUSH2 0x1571 JUMP JUMPDEST SWAP3 POP PUSH1 0x4 PUSH1 0x0 DUP7 DUP2 MSTORE PUSH1 0x20 ADD SWAP1 DUP2 MSTORE PUSH1 0x20 ADD PUSH1 0x0 KECCAK256 DUP2 DUP2 SLOAD DUP2 LT PUSH2 0x356 JUMPI PUSH32 0x4E487B7100000000000000000000000000000000000000000000000000000000 PUSH1 0x0 MSTORE PUSH1 0x32 PUSH1 0x4 MSTORE PUSH1 0x24 PUSH1 0x0 REVERT JUMPDEST SWAP1 PUSH1 0x0 MSTORE PUSH1 0x20 PUSH1 0x0 KECCAK256 SWAP1 PUSH1 0x2 MUL ADD PUSH1 0x1 ADD DUP1 SLOAD PUSH2 0x372 SWAP1 PUSH2 0x29C5 JUMP JUMPDEST DUP1 PUSH1 0x1F ADD PUSH1 0x20 DUP1 SWAP2 DIV MUL PUSH1 0x20 ADD PUSH1 0x40 MLOAD SWAP1 DUP2 ADD PUSH1 0x40 MSTORE DUP1 SWAP3 SWAP2 SWAP1 DUP2 DUP2 MSTORE PUSH1 0x20 ADD DUP3 DUP1 SLOAD PUSH2 0x39E SWAP1 PUSH2 0x29C5 JUMP JUMPDEST DUP1 ISZERO PUSH2 0x3EB JUMPI DUP1 PUSH1 0x1F LT PUSH2 0x3C0 JUMPI PUSH2 0x100 DUP1 DUP4 SLOAD DIV MUL DUP4 MSTORE SWAP2 PUSH1 0x20 ADD SWAP2 PUSH2 0x3EB JUMP JUMPDEST DUP3 ADD SWAP2 SWAP1 PUSH1 0x0 MSTORE PUSH1 0x20 PUSH1 0x0 KECCAK256 SWAP1 JUMPDEST DUP2 SLOAD DUP2 MSTORE SWAP1 PUSH1 0x1 ADD SWAP1 PUSH1 0x20 ADD DUP1 DUP4 GT PUSH2 0x3CE JUMPI DUP3 SWAP1 SUB PUSH1 0x1F AND DUP3 ADD SWAP2 JUMPDEST POP POP POP POP POP SWAP2 POP DUP4 DUP4 DUP4 PUSH1 0x40 MLOAD PUSH1 0x20 ADD PUSH2 0x407 SWAP4 SWAP3 SWAP2 SWAP1 PUSH2 0x2485 JUMP JUMPDEST PUSH1 0x40 MLOAD PUSH1 0x20 DUP2 DUP4 SUB SUB DUP2 MSTORE SWAP1 PUSH1 0x40 MSTORE SWAP4 POP DUP1 DUP1 PUSH2 0x423 SWAP1 PUSH2 0x29F7 JUMP JUMPDEST SWAP2 POP POP PUSH2 0x266 JUMP JUMPDEST POP POP POP SWAP2 SWAP1 POP JUMP JUMPDEST PUSH1 0x60 PUSH1 0x0 DUP1 PUSH1 0x9 DUP1 SLOAD PUSH2 0x445 SWAP1 PUSH2 0x29C5 JUMP JUMPDEST DUP1 PUSH1 0x1F ADD PUSH1 0x20 DUP1 SWAP2 DIV MUL PUSH1 0x20 ADD PUSH1 0x40 MLOAD SWAP1 DUP2 ADD PUSH1 0x40 MSTORE DUP1 SWAP3 SWAP2 SWAP1 DUP2 DUP2 MSTORE PUSH1 0x20 ADD DUP3 DUP1 SLOAD PUSH2 0x471 SWAP1 PUSH2 0x29C5 JUMP JUMPDEST DUP1 ISZERO PUSH2 0x4BE JUMPI DUP1 PUSH1 0x1F LT PUSH2 0x493 JUMPI PUSH2 0x100 DUP1 DUP4 SLOAD DIV MUL DUP4 MSTORE SWAP2 PUSH1 0x20 ADD SWAP2 PUSH2 0x4BE JUMP JUMPDEST DUP3 ADD SWAP2 SWAP1 PUSH1 0x0 MSTORE PUSH1 0x20 PUSH1 0x0 KECCAK256 SWAP1 JUMPDEST DUP2 SLOAD DUP2 MSTORE SWAP1 PUSH1 0x1 ADD SWAP1 PUSH1 0x20 ADD DUP1 DUP4 GT PUSH2 0x4A1 JUMPI DUP3 SWAP1 SUB PUSH1 0x1F AND DUP3 ADD SWAP2 JUMPDEST POP POP POP POP POP SWAP3 POP PUSH1 0x8 PUSH1 0x0 SWAP1 SLOAD SWAP1 PUSH2 0x100 EXP SWAP1 DIV PUSH20 0xFFFFFFFFFFFFFFFFFFFFFFFFFFFFFFFFFFFFFFFF AND SWAP2 POP PUSH1 0x7 PUSH1 0x0 SWAP1 SLOAD SWAP1 PUSH2 0x100 EXP SWAP1 DIV PUSH20 0xFFFFFFFFFFFFFFFFFFFFFFFFFFFFFFFFFFFFFFFF AND SWAP1 POP SWAP1 SWAP2 SWAP3 JUMP JUMPDEST PUSH1 0x60 PUSH1 0x0 PUSH1 0x5 DUP1 SLOAD SWAP1 POP PUSH8 0xFFFFFFFFFFFFFFFF DUP2 GT ISZERO PUSH2 0x55D JUMPI PUSH32 0x4E487B7100000000000000000000000000000000000000000000000000000000 PUSH1 0x0 MSTORE PUSH1 0x41 PUSH1 0x4 MSTORE PUSH1 0x24 PUSH1 0x0 REVERT JUMPDEST PUSH1 0x40 MLOAD SWAP1 DUP1 DUP3 MSTORE DUP1 PUSH1 0x20 MUL PUSH1 0x20 ADD DUP3 ADD PUSH1 0x40 MSTORE DUP1 ISZERO PUSH2 0x596 JUMPI DUP2 PUSH1 0x20 ADD JUMPDEST PUSH2 0x583 PUSH2 0x1898 JUMP JUMPDEST DUP2 MSTORE PUSH1 0x20 ADD SWAP1 PUSH1 0x1 SWAP1 SUB SWAP1 DUP2 PUSH2 0x57B JUMPI SWAP1 POP JUMPDEST POP SWAP1 POP PUSH1 0x0 JUMPDEST PUSH1 0x5 DUP1 SLOAD SWAP1 POP DUP2 LT ISZERO PUSH2 0x7DA JUMPI PUSH2 0x5B1 PUSH2 0x1898 JUMP JUMPDEST PUSH1 0x6 PUSH1 0x0 PUSH1 0x5 DUP5 DUP2 SLOAD DUP2 LT PUSH2 0x5EF JUMPI PUSH32 0x4E487B7100000000000000000000000000000000000000000000000000000000 PUSH1 0x0 MSTORE PUSH1 0x32 PUSH1 0x4 MSTORE PUSH1 0x24 PUSH1 0x0 REVERT JUMPDEST SWAP1 PUSH1 0x0 MSTORE PUSH1 0x20 PUSH1 0x0 KECCAK256 ADD PUSH1 0x0 SWAP1 SLOAD SWAP1 PUSH2 0x100 EXP SWAP1 DIV PUSH20 0xFFFFFFFFFFFFFFFFFFFFFFFFFFFFFFFFFFFFFFFF AND PUSH20 0xFFFFFFFFFFFFFFFFFFFFFFFFFFFFFFFFFFFFFFFF AND PUSH20 0xFFFFFFFFFFFFFFFFFFFFFFFFFFFFFFFFFFFFFFFF AND DUP2 MSTORE PUSH1 0x20 ADD SWAP1 DUP2 MSTORE PUSH1 0x20 ADD PUSH1 0x0 KECCAK256 DUP1 SLOAD PUSH2 0x65F SWAP1 PUSH2 0x29C5 JUMP JUMPDEST DUP1 PUSH1 0x1F ADD PUSH1 0x20 DUP1 SWAP2 DIV MUL PUSH1 0x20 ADD PUSH1 0x40 MLOAD SWAP1 DUP2 ADD PUSH1 0x40 MSTORE DUP1 SWAP3 SWAP2 SWAP1 DUP2 DUP2 MSTORE PUSH1 0x20 ADD DUP3 DUP1 SLOAD PUSH2 0x68B SWAP1 PUSH2 0x29C5 JUMP JUMPDEST DUP1 ISZERO PUSH2 0x6D8 JUMPI DUP1 PUSH1 0x1F LT PUSH2 0x6AD JUMPI PUSH2 0x100 DUP1 DUP4 SLOAD DIV MUL DUP4 MSTORE SWAP2 PUSH1 0x20 ADD SWAP2 PUSH2 0x6D8 JUMP JUMPDEST DUP3 ADD SWAP2 SWAP1 PUSH1 0x0 MSTORE PUSH1 0x20 PUSH1 0x0 KECCAK256 SWAP1 JUMPDEST DUP2 SLOAD DUP2 MSTORE SWAP1 PUSH1 0x1 ADD SWAP1 PUSH1 0x20 ADD DUP1 DUP4 GT PUSH2 0x6BB JUMPI DUP3 SWAP1 SUB PUSH1 0x1F AND DUP3 ADD SWAP2 JUMPDEST POP POP POP POP POP DUP2 PUSH1 0x0 ADD DUP2 SWAP1 MSTORE POP PUSH1 0x5 DUP3 DUP2 SLOAD DUP2 LT PUSH2 0x71F JUMPI PUSH32 0x4E487B7100000000000000000000000000000000000000000000000000000000 PUSH1 0x0 MSTORE PUSH1 0x32 PUSH1 0x4 MSTORE PUSH1 0x24 PUSH1 0x0 REVERT JUMPDEST SWAP1 PUSH1 0x0 MSTORE PUSH1 0x20 PUSH1 0x0 KECCAK256 ADD PUSH1 0x0 SWAP1 SLOAD SWAP1 PUSH2 0x100 EXP SWAP1 DIV PUSH20 0xFFFFFFFFFFFFFFFFFFFFFFFFFFFFFFFFFFFFFFFF AND DUP2 PUSH1 0x20 ADD SWAP1 PUSH20 0xFFFFFFFFFFFFFFFFFFFFFFFFFFFFFFFFFFFFFFFF AND SWAP1 DUP2 PUSH20 0xFFFFFFFFFFFFFFFFFFFFFFFFFFFFFFFFFFFFFFFF AND DUP2 MSTORE POP POP DUP1 DUP4 DUP4 DUP2 MLOAD DUP2 LT PUSH2 0x7BB JUMPI PUSH32 0x4E487B7100000000000000000000000000000000000000000000000000000000 PUSH1 0x0 MSTORE PUSH1 0x32 PUSH1 0x4 MSTORE PUSH1 0x24 PUSH1 0x0 REVERT JUMPDEST PUSH1 0x20 MUL PUSH1 0x20 ADD ADD DUP2 SWAP1 MSTORE POP POP DUP1 DUP1 PUSH2 0x7D2 SWAP1 PUSH2 0x29F7 JUMP JUMPDEST SWAP2 POP POP PUSH2 0x59C JUMP JUMPDEST POP DUP1 SWAP2 POP POP SWAP1 JUMP JUMPDEST PUSH1 0x60 PUSH1 0x1 ISZERO ISZERO PUSH1 0x0 PUSH1 0x3 DUP5 PUSH1 0x40 MLOAD PUSH2 0x7FA SWAP2 SWAP1 PUSH2 0x246E JUMP JUMPDEST SWAP1 DUP2 MSTORE PUSH1 0x20 ADD PUSH1 0x40 MLOAD DUP1 SWAP2 SUB SWAP1 KECCAK256 DUP1 SLOAD SWAP1 POP GT ISZERO ISZERO EQ PUSH2 0x84F JUMPI PUSH1 0x40 MLOAD PUSH32 0x8C379A000000000000000000000000000000000000000000000000000000000 DUP2 MSTORE PUSH1 0x4 ADD PUSH2 0x846 SWAP1 PUSH2 0x267D JUMP JUMPDEST PUSH1 0x40 MLOAD DUP1 SWAP2 SUB SWAP1 REVERT JUMPDEST PUSH1 0x0 PUSH1 0x3 DUP4 PUSH1 0x40 MLOAD PUSH2 0x861 SWAP2 SWAP1 PUSH2 0x246E JUMP JUMPDEST SWAP1 DUP2 MSTORE PUSH1 0x20 ADD PUSH1 0x40 MLOAD DUP1 SWAP2 SUB SWAP1 KECCAK256 DUP1 SLOAD SWAP1 POP PUSH8 0xFFFFFFFFFFFFFFFF DUP2 GT ISZERO PUSH2 0x8B2 JUMPI PUSH32 0x4E487B7100000000000000000000000000000000000000000000000000000000 PUSH1 0x0 MSTORE PUSH1 0x41 PUSH1 0x4 MSTORE PUSH1 0x24 PUSH1 0x0 REVERT JUMPDEST PUSH1 0x40 MLOAD SWAP1 DUP1 DUP3 MSTORE DUP1 PUSH1 0x20 MUL PUSH1 0x20 ADD DUP3 ADD PUSH1 0x40 MSTORE DUP1 ISZERO PUSH2 0x8EB JUMPI DUP2 PUSH1 0x20 ADD JUMPDEST PUSH2 0x8D8 PUSH2 0x18C8 JUMP JUMPDEST DUP2 MSTORE PUSH1 0x20 ADD SWAP1 PUSH1 0x1 SWAP1 SUB SWAP1 DUP2 PUSH2 0x8D0 JUMPI SWAP1 POP JUMPDEST POP SWAP1 POP PUSH1 0x0 JUMPDEST PUSH1 0x3 DUP5 PUSH1 0x40 MLOAD PUSH2 0x901 SWAP2 SWAP1 PUSH2 0x246E JUMP JUMPDEST SWAP1 DUP2 MSTORE PUSH1 0x20 ADD PUSH1 0x40 MLOAD DUP1 SWAP2 SUB SWAP1 KECCAK256 DUP1 SLOAD SWAP1 POP DUP2 LT ISZERO PUSH2 0xC14 JUMPI PUSH2 0x922 PUSH2 0x18C8 JUMP JUMPDEST PUSH1 0x3 DUP6 PUSH1 0x40 MLOAD PUSH2 0x932 SWAP2 SWAP1 PUSH2 0x246E JUMP JUMPDEST SWAP1 DUP2 MSTORE PUSH1 0x20 ADD PUSH1 0x40 MLOAD DUP1 SWAP2 SUB SWAP1 KECCAK256 DUP3 DUP2 SLOAD DUP2 LT PUSH2 0x978 JUMPI PUSH32 0x4E487B7100000000000000000000000000000000000000000000000000000000 PUSH1 0x0 MSTORE PUSH1 0x32 PUSH1 0x4 MSTORE PUSH1 0x24 PUSH1 0x0 REVERT JUMPDEST SWAP1 PUSH1 0x0 MSTORE PUSH1 0x20 PUSH1 0x0 KECCAK256 SWAP1 PUSH1 0x4 MUL ADD PUSH1 0x0 ADD SLOAD DUP2 PUSH1 0x0 ADD DUP2 DUP2 MSTORE POP POP PUSH1 0x3 DUP6 PUSH1 0x40 MLOAD PUSH2 0x9A3 SWAP2 SWAP1 PUSH2 0x246E JUMP JUMPDEST SWAP1 DUP2 MSTORE PUSH1 0x20 ADD PUSH1 0x40 MLOAD DUP1 SWAP2 SUB SWAP1 KECCAK256 DUP3 DUP2 SLOAD DUP2 LT PUSH2 0x9E9 JUMPI PUSH32 0x4E487B7100000000000000000000000000000000000000000000000000000000 PUSH1 0x0 MSTORE PUSH1 0x32 PUSH1 0x4 MSTORE PUSH1 0x24 PUSH1 0x0 REVERT JUMPDEST SWAP1 PUSH1 0x0 MSTORE PUSH1 0x20 PUSH1 0x0 KECCAK256 SWAP1 PUSH1 0x4 MUL ADD PUSH1 0x1 ADD PUSH1 0x0 SWAP1 SLOAD SWAP1 PUSH2 0x100 EXP SWAP1 DIV PUSH20 0xFFFFFFFFFFFFFFFFFFFFFFFFFFFFFFFFFFFFFFFF AND DUP2 PUSH1 0x20 ADD SWAP1 PUSH20 0xFFFFFFFFFFFFFFFFFFFFFFFFFFFFFFFFFFFFFFFF AND SWAP1 DUP2 PUSH20 0xFFFFFFFFFFFFFFFFFFFFFFFFFFFFFFFFFFFFFFFF AND DUP2 MSTORE POP POP PUSH1 0x3 DUP6 PUSH1 0x40 MLOAD PUSH2 0xA62 SWAP2 SWAP1 PUSH2 0x246E JUMP JUMPDEST SWAP1 DUP2 MSTORE PUSH1 0x20 ADD PUSH1 0x40 MLOAD DUP1 SWAP2 SUB SWAP1 KECCAK256 DUP3 DUP2 SLOAD DUP2 LT PUSH2 0xAA8 JUMPI PUSH32 0x4E487B7100000000000000000000000000000000000000000000000000000000 PUSH1 0x0 MSTORE PUSH1 0x32 PUSH1 0x4 MSTORE PUSH1 0x24 PUSH1 0x0 REVERT JUMPDEST SWAP1 PUSH1 0x0 MSTORE PUSH1 0x20 PUSH1 0x0 KECCAK256 SWAP1 PUSH1 0x4 MUL ADD PUSH1 0x2 ADD SLOAD DUP2 PUSH1 0x40 ADD DUP2 DUP2 MSTORE POP POP PUSH1 0x3 DUP6 PUSH1 0x40 MLOAD PUSH2 0xAD3 SWAP2 SWAP1 PUSH2 0x246E JUMP JUMPDEST SWAP1 DUP2 MSTORE PUSH1 0x20 ADD PUSH1 0x40 MLOAD DUP1 SWAP2 SUB SWAP1 KECCAK256 DUP3 DUP2 SLOAD DUP2 LT PUSH2 0xB19 JUMPI PUSH32 0x4E487B7100000000000000000000000000000000000000000000000000000000 PUSH1 0x0 MSTORE PUSH1 0x32 PUSH1 0x4 MSTORE PUSH1 0x24 PUSH1 0x0 REVERT JUMPDEST SWAP1 PUSH1 0x0 MSTORE PUSH1 0x20 PUSH1 0x0 KECCAK256 SWAP1 PUSH1 0x4 MUL ADD PUSH1 0x3 ADD DUP1 SLOAD PUSH2 0xB35 SWAP1 PUSH2 0x29C5 JUMP JUMPDEST DUP1 PUSH1 0x1F ADD PUSH1 0x20 DUP1 SWAP2 DIV MUL PUSH1 0x20 ADD PUSH1 0x40 MLOAD SWAP1 DUP2 ADD PUSH1 0x40 MSTORE DUP1 SWAP3 SWAP2 SWAP1 DUP2 DUP2 MSTORE PUSH1 0x20 ADD DUP3 DUP1 SLOAD PUSH2 0xB61 SWAP1 PUSH2 0x29C5 JUMP JUMPDEST DUP1 ISZERO PUSH2 0xBAE JUMPI DUP1 PUSH1 0x1F LT PUSH2 0xB83 JUMPI PUSH2 0x100 DUP1 DUP4 SLOAD DIV MUL DUP4 MSTORE SWAP2 PUSH1 0x20 ADD SWAP2 PUSH2 0xBAE JUMP JUMPDEST DUP3 ADD SWAP2 SWAP1 PUSH1 0x0 MSTORE PUSH1 0x20 PUSH1 0x0 KECCAK256 SWAP1 JUMPDEST DUP2 SLOAD DUP2 MSTORE SWAP1 PUSH1 0x1 ADD SWAP1 PUSH1 0x20 ADD DUP1 DUP4 GT PUSH2 0xB91 JUMPI DUP3 SWAP1 SUB PUSH1 0x1F AND DUP3 ADD SWAP2 JUMPDEST POP POP POP POP POP DUP2 PUSH1 0x60 ADD DUP2 SWAP1 MSTORE POP DUP1 DUP4 DUP4 DUP2 MLOAD DUP2 LT PUSH2 0xBF5 JUMPI PUSH32 0x4E487B7100000000000000000000000000000000000000000000000000000000 PUSH1 0x0 MSTORE PUSH1 0x32 PUSH1 0x4 MSTORE PUSH1 0x24 PUSH1 0x0 REVERT JUMPDEST PUSH1 0x20 MUL PUSH1 0x20 ADD ADD DUP2 SWAP1 MSTORE POP POP DUP1 DUP1 PUSH2 0xC0C SWAP1 PUSH2 0x29F7 JUMP JUMPDEST SWAP2 POP POP PUSH2 0x8F1 JUMP JUMPDEST POP DUP1 SWAP2 POP POP SWAP2 SWAP1 POP JUMP JUMPDEST PUSH1 0x60 PUSH1 0x2 DUP1 SLOAD DUP1 PUSH1 0x20 MUL PUSH1 0x20 ADD PUSH1 0x40 MLOAD SWAP1 DUP2 ADD PUSH1 0x40 MSTORE DUP1 SWAP3 SWAP2 SWAP1 DUP2 DUP2 MSTORE PUSH1 0x20 ADD PUSH1 0x0 SWAP1 JUMPDEST DUP3 DUP3 LT ISZERO PUSH2 0xCEE JUMPI DUP4 DUP3 SWAP1 PUSH1 0x0 MSTORE PUSH1 0x20 PUSH1 0x0 KECCAK256 ADD DUP1 SLOAD PUSH2 0xC61 SWAP1 PUSH2 0x29C5 JUMP JUMPDEST DUP1 PUSH1 0x1F ADD PUSH1 0x20 DUP1 SWAP2 DIV MUL PUSH1 0x20 ADD PUSH1 0x40 MLOAD SWAP1 DUP2 ADD PUSH1 0x40 MSTORE DUP1 SWAP3 SWAP2 SWAP1 DUP2 DUP2 MSTORE PUSH1 0x20 ADD DUP3 DUP1 SLOAD PUSH2 0xC8D SWAP1 PUSH2 0x29C5 JUMP JUMPDEST DUP1 ISZERO PUSH2 0xCDA JUMPI DUP1 PUSH1 0x1F LT PUSH2 0xCAF JUMPI PUSH2 0x100 DUP1 DUP4 SLOAD DIV MUL DUP4 MSTORE SWAP2 PUSH1 0x20 ADD SWAP2 PUSH2 0xCDA JUMP JUMPDEST DUP3 ADD SWAP2 SWAP1 PUSH1 0x0 MSTORE PUSH1 0x20 PUSH1 0x0 KECCAK256 SWAP1 JUMPDEST DUP2 SLOAD DUP2 MSTORE SWAP1 PUSH1 0x1 ADD SWAP1 PUSH1 0x20 ADD DUP1 DUP4 GT PUSH2 0xCBD JUMPI DUP3 SWAP1 SUB PUSH1 0x1F AND DUP3 ADD SWAP2 JUMPDEST POP POP POP POP POP DUP2 MSTORE PUSH1 0x20 ADD SWAP1 PUSH1 0x1 ADD SWAP1 PUSH2 0xC42 JUMP JUMPDEST POP POP POP POP SWAP1 POP SWAP1 JUMP JUMPDEST PUSH1 0x0 PUSH1 0x1 SWAP1 SLOAD SWAP1 PUSH2 0x100 EXP SWAP1 DIV PUSH20 0xFFFFFFFFFFFFFFFFFFFFFFFFFFFFFFFFFFFFFFFF AND PUSH20 0xFFFFFFFFFFFFFFFFFFFFFFFFFFFFFFFFFFFFFFFF AND CALLER PUSH20 0xFFFFFFFFFFFFFFFFFFFFFFFFFFFFFFFFFFFFFFFF AND EQ PUSH2 0xD87 JUMPI PUSH1 0x40 MLOAD PUSH32 0x8C379A000000000000000000000000000000000000000000000000000000000 DUP2 MSTORE PUSH1 0x4 ADD PUSH2 0xD7E SWAP1 PUSH2 0x25BD JUMP JUMPDEST PUSH1 0x40 MLOAD DUP1 SWAP2 SUB SWAP1 REVERT JUMPDEST PUSH1 0x0 DUP1 SLOAD SWAP1 PUSH2 0x100 EXP SWAP1 DIV PUSH1 0xFF AND ISZERO PUSH1 0x0 DUP1 PUSH2 0x100 EXP DUP2 SLOAD DUP2 PUSH1 0xFF MUL NOT AND SWAP1 DUP4 ISZERO ISZERO MUL OR SWAP1 SSTORE POP JUMP JUMPDEST PUSH1 0xA PUSH1 0x20 MSTORE DUP1 PUSH1 0x0 MSTORE PUSH1 0x40 PUSH1 0x0 KECCAK256 PUSH1 0x0 SWAP2 POP SWAP1 POP DUP1 SLOAD PUSH2 0xDCF SWAP1 PUSH2 0x29C5 JUMP JUMPDEST DUP1 PUSH1 0x1F ADD PUSH1 0x20 DUP1 SWAP2 DIV MUL PUSH1 0x20 ADD PUSH1 0x40 MLOAD SWAP1 DUP2 ADD PUSH1 0x40 MSTORE DUP1 SWAP3 SWAP2 SWAP1 DUP2 DUP2 MSTORE PUSH1 0x20 ADD DUP3 DUP1 SLOAD PUSH2 0xDFB SWAP1 PUSH2 0x29C5 JUMP JUMPDEST DUP1 ISZERO PUSH2 0xE48 JUMPI DUP1 PUSH1 0x1F LT PUSH2 0xE1D JUMPI PUSH2 0x100 DUP1 DUP4 SLOAD DIV MUL DUP4 MSTORE SWAP2 PUSH1 0x20 ADD SWAP2 PUSH2 0xE48 JUMP JUMPDEST DUP3 ADD SWAP2 SWAP1 PUSH1 0x0 MSTORE PUSH1 0x20 PUSH1 0x0 KECCAK256 SWAP1 JUMPDEST DUP2 SLOAD DUP2 MSTORE SWAP1 PUSH1 0x1 ADD SWAP1 PUSH1 0x20 ADD DUP1 DUP4 GT PUSH2 0xE2B JUMPI DUP3 SWAP1 SUB PUSH1 0x1F AND DUP3 ADD SWAP2 JUMPDEST POP POP POP POP POP DUP2 JUMP JUMPDEST PUSH1 0x7 PUSH1 0x0 SWAP1 SLOAD SWAP1 PUSH2 0x100 EXP SWAP1 DIV PUSH20 0xFFFFFFFFFFFFFFFFFFFFFFFFFFFFFFFFFFFFFFFF AND PUSH20 0xFFFFFFFFFFFFFFFFFFFFFFFFFFFFFFFFFFFFFFFF AND ORIGIN PUSH20 0xFFFFFFFFFFFFFFFFFFFFFFFFFFFFFFFFFFFFFFFF AND EQ PUSH2 0xEE0 JUMPI PUSH1 0x40 MLOAD PUSH32 0x8C379A000000000000000000000000000000000000000000000000000000000 DUP2 MSTORE PUSH1 0x4 ADD PUSH2 0xED7 SWAP1 PUSH2 0x263D JUMP JUMPDEST PUSH1 0x40 MLOAD DUP1 SWAP2 SUB SWAP1 REVERT JUMPDEST PUSH1 0x0 ISZERO ISZERO PUSH1 0x0 DUP1 SLOAD SWAP1 PUSH2 0x100 EXP SWAP1 DIV PUSH1 0xFF AND ISZERO ISZERO EQ PUSH2 0xF34 JUMPI PUSH1 0x40 MLOAD PUSH32 0x8C379A000000000000000000000000000000000000000000000000000000000 DUP2 MSTORE PUSH1 0x4 ADD PUSH2 0xF2B SWAP1 PUSH2 0x261D JUMP JUMPDEST PUSH1 0x40 MLOAD DUP1 SWAP2 SUB SWAP1 REVERT JUMPDEST PUSH1 0x0 PUSH1 0x6 PUSH1 0x0 DUP5 PUSH20 0xFFFFFFFFFFFFFFFFFFFFFFFFFFFFFFFFFFFFFFFF AND PUSH20 0xFFFFFFFFFFFFFFFFFFFFFFFFFFFFFFFFFFFFFFFF AND DUP2 MSTORE PUSH1 0x20 ADD SWAP1 DUP2 MSTORE PUSH1 0x20 ADD PUSH1 0x0 KECCAK256 DUP1 SLOAD PUSH2 0xF80 SWAP1 PUSH2 0x29C5 JUMP JUMPDEST SWAP1 POP EQ PUSH2 0xFC2 JUMPI PUSH1 0x40 MLOAD PUSH32 0x8C379A000000000000000000000000000000000000000000000000000000000 DUP2 MSTORE PUSH1 0x4 ADD PUSH2 0xFB9 SWAP1 PUSH2 0x25DD JUMP JUMPDEST PUSH1 0x40 MLOAD DUP1 SWAP2 SUB SWAP1 REVERT JUMPDEST DUP1 PUSH1 0x6 PUSH1 0x0 DUP5 PUSH20 0xFFFFFFFFFFFFFFFFFFFFFFFFFFFFFFFFFFFFFFFF AND PUSH20 0xFFFFFFFFFFFFFFFFFFFFFFFFFFFFFFFFFFFFFFFF AND DUP2 MSTORE PUSH1 0x20 ADD SWAP1 DUP2 MSTORE PUSH1 0x20 ADD PUSH1 0x0 KECCAK256 SWAP1 DUP1 MLOAD SWAP1 PUSH1 0x20 ADD SWAP1 PUSH2 0x1015 SWAP3 SWAP2 SWAP1 PUSH2 0x1906 JUMP JUMPDEST POP PUSH1 0x5 DUP3 SWAP1 DUP1 PUSH1 0x1 DUP2 SLOAD ADD DUP1 DUP3 SSTORE DUP1 SWAP2 POP POP PUSH1 0x1 SWAP1 SUB SWAP1 PUSH1 0x0 MSTORE PUSH1 0x20 PUSH1 0x0 KECCAK256 ADD PUSH1 0x0 SWAP1 SWAP2 SWAP1 SWAP2 SWAP1 SWAP2 PUSH2 0x100 EXP DUP2 SLOAD DUP2 PUSH20 0xFFFFFFFFFFFFFFFFFFFFFFFFFFFFFFFFFFFFFFFF MUL NOT AND SWAP1 DUP4 PUSH20 0xFFFFFFFFFFFFFFFFFFFFFFFFFFFFFFFFFFFFFFFF AND MUL OR SWAP1 SSTORE POP POP POP JUMP JUMPDEST PUSH1 0x0 PUSH1 0x6 PUSH1 0x0 ORIGIN PUSH20 0xFFFFFFFFFFFFFFFFFFFFFFFFFFFFFFFFFFFFFFFF AND PUSH20 0xFFFFFFFFFFFFFFFFFFFFFFFFFFFFFFFFFFFFFFFF AND DUP2 MSTORE PUSH1 0x20 ADD SWAP1 DUP2 MSTORE PUSH1 0x20 ADD PUSH1 0x0 KECCAK256 DUP1 SLOAD PUSH2 0x10C9 SWAP1 PUSH2 0x29C5 JUMP JUMPDEST SWAP1 POP EQ ISZERO PUSH2 0x110C JUMPI PUSH1 0x40 MLOAD PUSH32 0x8C379A000000000000000000000000000000000000000000000000000000000 DUP2 MSTORE PUSH1 0x4 ADD PUSH2 0x1103 SWAP1 PUSH2 0x265D JUMP JUMPDEST PUSH1 0x40 MLOAD DUP1 SWAP2 SUB SWAP1 REVERT JUMPDEST PUSH1 0x0 ISZERO ISZERO PUSH1 0x0 DUP1 SLOAD SWAP1 PUSH2 0x100 EXP SWAP1 DIV PUSH1 0xFF AND ISZERO ISZERO EQ PUSH2 0x1160 JUMPI PUSH1 0x40 MLOAD PUSH32 0x8C379A000000000000000000000000000000000000000000000000000000000 DUP2 MSTORE PUSH1 0x4 ADD PUSH2 0x1157 SWAP1 PUSH2 0x261D JUMP JUMPDEST PUSH1 0x40 MLOAD DUP1 SWAP2 SUB SWAP1 REVERT JUMPDEST PUSH1 0x0 PUSH1 0x3 DUP8 PUSH1 0x40 MLOAD PUSH2 0x1172 SWAP2 SWAP1 PUSH2 0x246E JUMP JUMPDEST SWAP1 DUP2 MSTORE PUSH1 0x20 ADD PUSH1 0x40 MLOAD DUP1 SWAP2 SUB SWAP1 KECCAK256 DUP1 SLOAD SWAP1 POP EQ ISZERO PUSH2 0x11C7 JUMPI PUSH1 0x2 DUP7 SWAP1 DUP1 PUSH1 0x1 DUP2 SLOAD ADD DUP1 DUP3 SSTORE DUP1 SWAP2 POP POP PUSH1 0x1 SWAP1 SUB SWAP1 PUSH1 0x0 MSTORE PUSH1 0x20 PUSH1 0x0 KECCAK256 ADD PUSH1 0x0 SWAP1 SWAP2 SWAP1 SWAP2 SWAP1 SWAP2 POP SWAP1 DUP1 MLOAD SWAP1 PUSH1 0x20 ADD SWAP1 PUSH2 0x11C5 SWAP3 SWAP2 SWAP1 PUSH2 0x1906 JUMP JUMPDEST POP JUMPDEST PUSH2 0x11CF PUSH2 0x18C8 JUMP JUMPDEST PUSH1 0x1 SLOAD DUP2 PUSH1 0x0 ADD DUP2 DUP2 MSTORE POP POP DUP2 DUP2 PUSH1 0x20 ADD SWAP1 PUSH20 0xFFFFFFFFFFFFFFFFFFFFFFFFFFFFFFFFFFFFFFFF AND SWAP1 DUP2 PUSH20 0xFFFFFFFFFFFFFFFFFFFFFFFFFFFFFFFFFFFFFFFF AND DUP2 MSTORE POP POP DUP6 DUP2 PUSH1 0x40 ADD DUP2 DUP2 MSTORE POP POP DUP5 DUP2 PUSH1 0x60 ADD DUP2 SWAP1 MSTORE POP PUSH1 0x3 DUP8 PUSH1 0x40 MLOAD PUSH2 0x1236 SWAP2 SWAP1 PUSH2 0x246E JUMP JUMPDEST SWAP1 DUP2 MSTORE PUSH1 0x20 ADD PUSH1 0x40 MLOAD DUP1 SWAP2 SUB SWAP1 KECCAK256 DUP2 SWAP1 DUP1 PUSH1 0x1 DUP2 SLOAD ADD DUP1 DUP3 SSTORE DUP1 SWAP2 POP POP PUSH1 0x1 SWAP1 SUB SWAP1 PUSH1 0x0 MSTORE PUSH1 0x20 PUSH1 0x0 KECCAK256 SWAP1 PUSH1 0x4 MUL ADD PUSH1 0x0 SWAP1 SWAP2 SWAP1 SWAP2 SWAP1 SWAP2 POP PUSH1 0x0 DUP3 ADD MLOAD DUP2 PUSH1 0x0 ADD SSTORE PUSH1 0x20 DUP3 ADD MLOAD DUP2 PUSH1 0x1 ADD PUSH1 0x0 PUSH2 0x100 EXP DUP2 SLOAD DUP2 PUSH20 0xFFFFFFFFFFFFFFFFFFFFFFFFFFFFFFFFFFFFFFFF MUL NOT AND SWAP1 DUP4 PUSH20 0xFFFFFFFFFFFFFFFFFFFFFFFFFFFFFFFFFFFFFFFF AND MUL OR SWAP1 SSTORE POP PUSH1 0x40 DUP3 ADD MLOAD DUP2 PUSH1 0x2 ADD SSTORE PUSH1 0x60 DUP3 ADD MLOAD DUP2 PUSH1 0x3 ADD SWAP1 DUP1 MLOAD SWAP1 PUSH1 0x20 ADD SWAP1 PUSH2 0x12E5 SWAP3 SWAP2 SWAP1 PUSH2 0x1906 JUMP JUMPDEST POP POP POP PUSH2 0x12F0 PUSH2 0x198C JUMP JUMPDEST PUSH1 0x0 JUMPDEST DUP6 MLOAD DUP2 LT ISZERO PUSH2 0x1475 JUMPI DUP6 DUP2 DUP2 MLOAD DUP2 LT PUSH2 0x1335 JUMPI PUSH32 0x4E487B7100000000000000000000000000000000000000000000000000000000 PUSH1 0x0 MSTORE PUSH1 0x32 PUSH1 0x4 MSTORE PUSH1 0x24 PUSH1 0x0 REVERT JUMPDEST PUSH1 0x20 MUL PUSH1 0x20 ADD ADD MLOAD DUP3 PUSH1 0x0 ADD SWAP1 PUSH20 0xFFFFFFFFFFFFFFFFFFFFFFFFFFFFFFFFFFFFFFFF AND SWAP1 DUP2 PUSH20 0xFFFFFFFFFFFFFFFFFFFFFFFFFFFFFFFFFFFFFFFF AND DUP2 MSTORE POP POP DUP5 DUP2 DUP2 MLOAD DUP2 LT PUSH2 0x13AD JUMPI PUSH32 0x4E487B7100000000000000000000000000000000000000000000000000000000 PUSH1 0x0 MSTORE PUSH1 0x32 PUSH1 0x4 MSTORE PUSH1 0x24 PUSH1 0x0 REVERT JUMPDEST PUSH1 0x20 MUL PUSH1 0x20 ADD ADD MLOAD DUP3 PUSH1 0x20 ADD DUP2 SWAP1 MSTORE POP PUSH1 0x4 PUSH1 0x0 PUSH1 0x1 SLOAD DUP2 MSTORE PUSH1 0x20 ADD SWAP1 DUP2 MSTORE PUSH1 0x20 ADD PUSH1 0x0 KECCAK256 DUP3 SWAP1 DUP1 PUSH1 0x1 DUP2 SLOAD ADD DUP1 DUP3 SSTORE DUP1 SWAP2 POP POP PUSH1 0x1 SWAP1 SUB SWAP1 PUSH1 0x0 MSTORE PUSH1 0x20 PUSH1 0x0 KECCAK256 SWAP1 PUSH1 0x2 MUL ADD PUSH1 0x0 SWAP1 SWAP2 SWAP1 SWAP2 SWAP1 SWAP2 POP PUSH1 0x0 DUP3 ADD MLOAD DUP2 PUSH1 0x0 ADD PUSH1 0x0 PUSH2 0x100 EXP DUP2 SLOAD DUP2 PUSH20 0xFFFFFFFFFFFFFFFFFFFFFFFFFFFFFFFFFFFFFFFF MUL NOT AND SWAP1 DUP4 PUSH20 0xFFFFFFFFFFFFFFFFFFFFFFFFFFFFFFFFFFFFFFFF AND MUL OR SWAP1 SSTORE POP PUSH1 0x20 DUP3 ADD MLOAD DUP2 PUSH1 0x1 ADD SWAP1 DUP1 MLOAD SWAP1 PUSH1 0x20 ADD SWAP1 PUSH2 0x145F SWAP3 SWAP2 SWAP1 PUSH2 0x1906 JUMP JUMPDEST POP POP POP DUP1 DUP1 PUSH2 0x146D SWAP1 PUSH2 0x29F7 JUMP JUMPDEST SWAP2 POP POP PUSH2 0x12F3 JUMP JUMPDEST POP PUSH1 0x6 PUSH1 0x0 ORIGIN PUSH20 0xFFFFFFFFFFFFFFFFFFFFFFFFFFFFFFFFFFFFFFFF AND PUSH20 0xFFFFFFFFFFFFFFFFFFFFFFFFFFFFFFFFFFFFFFFF AND DUP2 MSTORE PUSH1 0x20 ADD SWAP1 DUP2 MSTORE PUSH1 0x20 ADD PUSH1 0x0 KECCAK256 PUSH1 0x4 PUSH1 0x0 PUSH1 0x1 SLOAD DUP2 MSTORE PUSH1 0x20 ADD SWAP1 DUP2 MSTORE PUSH1 0x20 ADD PUSH1 0x0 KECCAK256 PUSH1 0x1 PUSH1 0x4 PUSH1 0x0 PUSH1 0x1 SLOAD DUP2 MSTORE PUSH1 0x20 ADD SWAP1 DUP2 MSTORE PUSH1 0x20 ADD PUSH1 0x0 KECCAK256 DUP1 SLOAD SWAP1 POP PUSH2 0x14EF SWAP2 SWAP1 PUSH2 0x28E9 JUMP JUMPDEST DUP2 SLOAD DUP2 LT PUSH2 0x1526 JUMPI PUSH32 0x4E487B7100000000000000000000000000000000000000000000000000000000 PUSH1 0x0 MSTORE PUSH1 0x32 PUSH1 0x4 MSTORE PUSH1 0x24 PUSH1 0x0 REVERT JUMPDEST SWAP1 PUSH1 0x0 MSTORE PUSH1 0x20 PUSH1 0x0 KECCAK256 SWAP1 PUSH1 0x2 MUL ADD PUSH1 0x1 ADD SWAP1 DUP1 SLOAD PUSH2 0x1543 SWAP1 PUSH2 0x29C5 JUMP JUMPDEST PUSH2 0x154E SWAP3 SWAP2 SWAP1 PUSH2 0x19BC JUMP JUMPDEST POP PUSH1 0x1 PUSH1 0x0 DUP2 SLOAD DUP1 SWAP3 SWAP2 SWAP1 PUSH2 0x1562 SWAP1 PUSH2 0x29F7 JUMP JUMPDEST SWAP2 SWAP1 POP SSTORE POP POP POP POP POP POP POP POP POP JUMP JUMPDEST PUSH1 0x60 PUSH2 0x1597 DUP3 PUSH20 0xFFFFFFFFFFFFFFFFFFFFFFFFFFFFFFFFFFFFFFFF AND PUSH1 0x14 PUSH1 0xFF AND PUSH2 0x159E JUMP JUMPDEST SWAP1 POP SWAP2 SWAP1 POP JUMP JUMPDEST PUSH1 0x60 PUSH1 0x0 PUSH1 0x2 DUP4 PUSH1 0x2 PUSH2 0x15B1 SWAP2 SWAP1 PUSH2 0x288F JUMP JUMPDEST PUSH2 0x15BB SWAP2 SWAP1 PUSH2 0x2839 JUMP JUMPDEST PUSH8 0xFFFFFFFFFFFFFFFF DUP2 GT ISZERO PUSH2 0x15FA JUMPI PUSH32 0x4E487B7100000000000000000000000000000000000000000000000000000000 PUSH1 0x0 MSTORE PUSH1 0x41 PUSH1 0x4 MSTORE PUSH1 0x24 PUSH1 0x0 REVERT JUMPDEST PUSH1 0x40 MLOAD SWAP1 DUP1 DUP3 MSTORE DUP1 PUSH1 0x1F ADD PUSH1 0x1F NOT AND PUSH1 0x20 ADD DUP3 ADD PUSH1 0x40 MSTORE DUP1 ISZERO PUSH2 0x162C JUMPI DUP2 PUSH1 0x20 ADD PUSH1 0x1 DUP3 MUL DUP1 CALLDATASIZE DUP4 CALLDATACOPY DUP1 DUP3 ADD SWAP2 POP POP SWAP1 POP JUMPDEST POP SWAP1 POP PUSH32 0x3000000000000000000000000000000000000000000000000000000000000000 DUP2 PUSH1 0x0 DUP2 MLOAD DUP2 LT PUSH2 0x168A JUMPI PUSH32 0x4E487B7100000000000000000000000000000000000000000000000000000000 PUSH1 0x0 MSTORE PUSH1 0x32 PUSH1 0x4 MSTORE PUSH1 0x24 PUSH1 0x0 REVERT JUMPDEST PUSH1 0x20 ADD ADD SWAP1 PUSH31 0xFFFFFFFFFFFFFFFFFFFFFFFFFFFFFFFFFFFFFFFFFFFFFFFFFFFFFFFFFFFFFF NOT AND SWAP1 DUP2 PUSH1 0x0 BYTE SWAP1 MSTORE8 POP PUSH32 0x7800000000000000000000000000000000000000000000000000000000000000 DUP2 PUSH1 0x1 DUP2 MLOAD DUP2 LT PUSH2 0x1714 JUMPI PUSH32 0x4E487B7100000000000000000000000000000000000000000000000000000000 PUSH1 0x0 MSTORE PUSH1 0x32 PUSH1 0x4 MSTORE PUSH1 0x24 PUSH1 0x0 REVERT JUMPDEST PUSH1 0x20 ADD ADD SWAP1 PUSH31 0xFFFFFFFFFFFFFFFFFFFFFFFFFFFFFFFFFFFFFFFFFFFFFFFFFFFFFFFFFFFFFF NOT AND SWAP1 DUP2 PUSH1 0x0 BYTE SWAP1 MSTORE8 POP PUSH1 0x0 PUSH1 0x1 DUP5 PUSH1 0x2 PUSH2 0x1754 SWAP2 SWAP1 PUSH2 0x288F JUMP JUMPDEST PUSH2 0x175E SWAP2 SWAP1 PUSH2 0x2839 JUMP JUMPDEST SWAP1 POP JUMPDEST PUSH1 0x1 DUP2 GT ISZERO PUSH2 0x184A JUMPI PUSH32 0x3031323334353637383961626364656600000000000000000000000000000000 PUSH1 0xF DUP7 AND PUSH1 0x10 DUP2 LT PUSH2 0x17C6 JUMPI PUSH32 0x4E487B7100000000000000000000000000000000000000000000000000000000 PUSH1 0x0 MSTORE PUSH1 0x32 PUSH1 0x4 MSTORE PUSH1 0x24 PUSH1 0x0 REVERT JUMPDEST BYTE PUSH1 0xF8 SHL DUP3 DUP3 DUP2 MLOAD DUP2 LT PUSH2 0x1803 JUMPI PUSH32 0x4E487B7100000000000000000000000000000000000000000000000000000000 PUSH1 0x0 MSTORE PUSH1 0x32 PUSH1 0x4 MSTORE PUSH1 0x24 PUSH1 0x0 REVERT JUMPDEST PUSH1 0x20 ADD ADD SWAP1 PUSH31 0xFFFFFFFFFFFFFFFFFFFFFFFFFFFFFFFFFFFFFFFFFFFFFFFFFFFFFFFFFFFFFF NOT AND SWAP1 DUP2 PUSH1 0x0 BYTE SWAP1 MSTORE8 POP PUSH1 0x4 DUP6 SWAP1 SHR SWAP5 POP DUP1 PUSH2 0x1843 SWAP1 PUSH2 0x299B JUMP JUMPDEST SWAP1 POP PUSH2 0x1761 JUMP JUMPDEST POP PUSH1 0x0 DUP5 EQ PUSH2 0x188E JUMPI PUSH1 0x40 MLOAD PUSH32 0x8C379A000000000000000000000000000000000000000000000000000000000 DUP2 MSTORE PUSH1 0x4 ADD PUSH2 0x1885 SWAP1 PUSH2 0x259D JUMP JUMPDEST PUSH1 0x40 MLOAD DUP1 SWAP2 SUB SWAP1 REVERT JUMPDEST DUP1 SWAP2 POP POP SWAP3 SWAP2 POP POP JUMP JUMPDEST PUSH1 0x40 MLOAD DUP1 PUSH1 0x40 ADD PUSH1 0x40 MSTORE DUP1 PUSH1 0x60 DUP2 MSTORE PUSH1 0x20 ADD PUSH1 0x0 PUSH20 0xFFFFFFFFFFFFFFFFFFFFFFFFFFFFFFFFFFFFFFFF AND DUP2 MSTORE POP SWAP1 JUMP JUMPDEST PUSH1 0x40 MLOAD DUP1 PUSH1 0x80 ADD PUSH1 0x40 MSTORE DUP1 PUSH1 0x0 DUP2 MSTORE PUSH1 0x20 ADD PUSH1 0x0 PUSH20 0xFFFFFFFFFFFFFFFFFFFFFFFFFFFFFFFFFFFFFFFF AND DUP2 MSTORE PUSH1 0x20 ADD PUSH1 0x0 DUP2 MSTORE PUSH1 0x20 ADD PUSH1 0x60 DUP2 MSTORE POP SWAP1 JUMP JUMPDEST DUP3 DUP1 SLOAD PUSH2 0x1912 SWAP1 PUSH2 0x29C5 JUMP JUMPDEST SWAP1 PUSH1 0x0 MSTORE PUSH1 0x20 PUSH1 0x0 KECCAK256 SWAP1 PUSH1 0x1F ADD PUSH1 0x20 SWAP1 DIV DUP2 ADD SWAP3 DUP3 PUSH2 0x1934 JUMPI PUSH1 0x0 DUP6 SSTORE PUSH2 0x197B JUMP JUMPDEST DUP3 PUSH1 0x1F LT PUSH2 0x194D JUMPI DUP1 MLOAD PUSH1 0xFF NOT AND DUP4 DUP1 ADD OR DUP6 SSTORE PUSH2 0x197B JUMP JUMPDEST DUP3 DUP1 ADD PUSH1 0x1 ADD DUP6 SSTORE DUP3 ISZERO PUSH2 0x197B JUMPI SWAP2 DUP3 ADD JUMPDEST DUP3 DUP2 GT ISZERO PUSH2 0x197A JUMPI DUP3 MLOAD DUP3 SSTORE SWAP2 PUSH1 0x20 ADD SWAP2 SWAP1 PUSH1 0x1 ADD SWAP1 PUSH2 0x195F JUMP JUMPDEST JUMPDEST POP SWAP1 POP PUSH2 0x1988 SWAP2 SWAP1 PUSH2 0x1A49 JUMP JUMPDEST POP SWAP1 JUMP JUMPDEST PUSH1 0x40 MLOAD DUP1 PUSH1 0x40 ADD PUSH1 0x40 MSTORE DUP1 PUSH1 0x0 PUSH20 0xFFFFFFFFFFFFFFFFFFFFFFFFFFFFFFFFFFFFFFFF AND DUP2 MSTORE PUSH1 0x20 ADD PUSH1 0x60 DUP2 MSTORE POP SWAP1 JUMP JUMPDEST DUP3 DUP1 SLOAD PUSH2 0x19C8 SWAP1 PUSH2 0x29C5 JUMP JUMPDEST SWAP1 PUSH1 0x0 MSTORE PUSH1 0x20 PUSH1 0x0 KECCAK256 SWAP1 PUSH1 0x1F ADD PUSH1 0x20 SWAP1 DIV DUP2 ADD SWAP3 DUP3 PUSH2 0x19EA JUMPI PUSH1 0x0 DUP6 SSTORE PUSH2 0x1A38 JUMP JUMPDEST DUP3 PUSH1 0x1F LT PUSH2 0x19FB JUMPI DUP1 SLOAD DUP6 SSTORE PUSH2 0x1A38 JUMP JUMPDEST DUP3 DUP1 ADD PUSH1 0x1 ADD DUP6 SSTORE DUP3 ISZERO PUSH2 0x1A38 JUMPI PUSH1 0x0 MSTORE PUSH1 0x20 PUSH1 0x0 KECCAK256 SWAP2 PUSH1 0x1F ADD PUSH1 0x20 SWAP1 DIV DUP3 ADD JUMPDEST DUP3 DUP2 GT ISZERO PUSH2 0x1A37 JUMPI DUP3 SLOAD DUP3 SSTORE SWAP2 PUSH1 0x1 ADD SWAP2 SWAP1 PUSH1 0x1 ADD SWAP1 PUSH2 0x1A1C JUMP JUMPDEST JUMPDEST POP SWAP1 POP PUSH2 0x1A45 SWAP2 SWAP1 PUSH2 0x1A49 JUMP JUMPDEST POP SWAP1 JUMP JUMPDEST JUMPDEST DUP1 DUP3 GT ISZERO PUSH2 0x1A62 JUMPI PUSH1 0x0 DUP2 PUSH1 0x0 SWAP1 SSTORE POP PUSH1 0x1 ADD PUSH2 0x1A4A JUMP JUMPDEST POP SWAP1 JUMP JUMPDEST PUSH1 0x0 PUSH2 0x1A79 PUSH2 0x1A74 DUP5 PUSH2 0x26CE JUMP JUMPDEST PUSH2 0x269D JUMP JUMPDEST SWAP1 POP DUP1 DUP4 DUP3 MSTORE PUSH1 0x20 DUP3 ADD SWAP1 POP DUP3 DUP6 PUSH1 0x20 DUP7 MUL DUP3 ADD GT ISZERO PUSH2 0x1A98 JUMPI PUSH1 0x0 DUP1 REVERT JUMPDEST PUSH1 0x0 JUMPDEST DUP6 DUP2 LT ISZERO PUSH2 0x1AC8 JUMPI DUP2 PUSH2 0x1AAE DUP9 DUP3 PUSH2 0x1B6D JUMP JUMPDEST DUP5 MSTORE PUSH1 0x20 DUP5 ADD SWAP4 POP PUSH1 0x20 DUP4 ADD SWAP3 POP POP PUSH1 0x1 DUP2 ADD SWAP1 POP PUSH2 0x1A9B JUMP JUMPDEST POP POP POP SWAP4 SWAP3 POP POP POP JUMP JUMPDEST PUSH1 0x0 PUSH2 0x1AE5 PUSH2 0x1AE0 DUP5 PUSH2 0x26FA JUMP JUMPDEST PUSH2 0x269D JUMP JUMPDEST SWAP1 POP DUP1 DUP4 DUP3 MSTORE PUSH1 0x20 DUP3 ADD SWAP1 POP DUP3 PUSH1 0x0 JUMPDEST DUP6 DUP2 LT ISZERO PUSH2 0x1B25 JUMPI DUP2 CALLDATALOAD DUP6 ADD PUSH2 0x1B0B DUP9 DUP3 PUSH2 0x1BD6 JUMP JUMPDEST DUP5 MSTORE PUSH1 0x20 DUP5 ADD SWAP4 POP PUSH1 0x20 DUP4 ADD SWAP3 POP POP PUSH1 0x1 DUP2 ADD SWAP1 POP PUSH2 0x1AF5 JUMP JUMPDEST POP POP POP SWAP4 SWAP3 POP POP POP JUMP JUMPDEST PUSH1 0x0 PUSH2 0x1B42 PUSH2 0x1B3D DUP5 PUSH2 0x2726 JUMP JUMPDEST PUSH2 0x269D JUMP JUMPDEST SWAP1 POP DUP3 DUP2 MSTORE PUSH1 0x20 DUP2 ADD DUP5 DUP5 DUP5 ADD GT ISZERO PUSH2 0x1B5A JUMPI PUSH1 0x0 DUP1 REVERT JUMPDEST PUSH2 0x1B65 DUP5 DUP3 DUP6 PUSH2 0x2959 JUMP JUMPDEST POP SWAP4 SWAP3 POP POP POP JUMP JUMPDEST PUSH1 0x0 DUP2 CALLDATALOAD SWAP1 POP PUSH2 0x1B7C DUP2 PUSH2 0x2ADE JUMP JUMPDEST SWAP3 SWAP2 POP POP JUMP JUMPDEST PUSH1 0x0 DUP3 PUSH1 0x1F DUP4 ADD SLT PUSH2 0x1B93 JUMPI PUSH1 0x0 DUP1 REVERT JUMPDEST DUP2 CALLDATALOAD PUSH2 0x1BA3 DUP5 DUP3 PUSH1 0x20 DUP7 ADD PUSH2 0x1A66 JUMP JUMPDEST SWAP2 POP POP SWAP3 SWAP2 POP POP JUMP JUMPDEST PUSH1 0x0 DUP3 PUSH1 0x1F DUP4 ADD SLT PUSH2 0x1BBD JUMPI PUSH1 0x0 DUP1 REVERT JUMPDEST DUP2 CALLDATALOAD PUSH2 0x1BCD DUP5 DUP3 PUSH1 0x20 DUP7 ADD PUSH2 0x1AD2 JUMP JUMPDEST SWAP2 POP POP SWAP3 SWAP2 POP POP JUMP JUMPDEST PUSH1 0x0 DUP3 PUSH1 0x1F DUP4 ADD SLT PUSH2 0x1BE7 JUMPI PUSH1 0x0 DUP1 REVERT JUMPDEST DUP2 CALLDATALOAD PUSH2 0x1BF7 DUP5 DUP3 PUSH1 0x20 DUP7 ADD PUSH2 0x1B2F JUMP JUMPDEST SWAP2 POP POP SWAP3 SWAP2 POP POP JUMP JUMPDEST PUSH1 0x0 DUP2 CALLDATALOAD SWAP1 POP PUSH2 0x1C0F DUP2 PUSH2 0x2AF5 JUMP JUMPDEST SWAP3 SWAP2 POP POP JUMP JUMPDEST PUSH1 0x0 PUSH1 0x20 DUP3 DUP5 SUB SLT ISZERO PUSH2 0x1C27 JUMPI PUSH1 0x0 DUP1 REVERT JUMPDEST PUSH1 0x0 PUSH2 0x1C35 DUP5 DUP3 DUP6 ADD PUSH2 0x1B6D JUMP JUMPDEST SWAP2 POP POP SWAP3 SWAP2 POP POP JUMP JUMPDEST PUSH1 0x0 DUP1 PUSH1 0x40 DUP4 DUP6 SUB SLT ISZERO PUSH2 0x1C51 JUMPI PUSH1 0x0 DUP1 REVERT JUMPDEST PUSH1 0x0 PUSH2 0x1C5F DUP6 DUP3 DUP7 ADD PUSH2 0x1B6D JUMP JUMPDEST SWAP3 POP POP PUSH1 0x20 DUP4 ADD CALLDATALOAD PUSH8 0xFFFFFFFFFFFFFFFF DUP2 GT ISZERO PUSH2 0x1C7C JUMPI PUSH1 0x0 DUP1 REVERT JUMPDEST PUSH2 0x1C88 DUP6 DUP3 DUP7 ADD PUSH2 0x1BD6 JUMP JUMPDEST SWAP2 POP POP SWAP3 POP SWAP3 SWAP1 POP JUMP JUMPDEST PUSH1 0x0 PUSH1 0x20 DUP3 DUP5 SUB SLT ISZERO PUSH2 0x1CA4 JUMPI PUSH1 0x0 DUP1 REVERT JUMPDEST PUSH1 0x0 DUP3 ADD CALLDATALOAD PUSH8 0xFFFFFFFFFFFFFFFF DUP2 GT ISZERO PUSH2 0x1CBE JUMPI PUSH1 0x0 DUP1 REVERT JUMPDEST PUSH2 0x1CCA DUP5 DUP3 DUP6 ADD PUSH2 0x1BD6 JUMP JUMPDEST SWAP2 POP POP SWAP3 SWAP2 POP POP JUMP JUMPDEST PUSH1 0x0 DUP1 PUSH1 0x0 DUP1 PUSH1 0x0 DUP1 PUSH1 0xC0 DUP8 DUP10 SUB SLT ISZERO PUSH2 0x1CEC JUMPI PUSH1 0x0 DUP1 REVERT JUMPDEST PUSH1 0x0 DUP8 ADD CALLDATALOAD PUSH8 0xFFFFFFFFFFFFFFFF DUP2 GT ISZERO PUSH2 0x1D06 JUMPI PUSH1 0x0 DUP1 REVERT JUMPDEST PUSH2 0x1D12 DUP10 DUP3 DUP11 ADD PUSH2 0x1BD6 JUMP JUMPDEST SWAP7 POP POP PUSH1 0x20 PUSH2 0x1D23 DUP10 DUP3 DUP11 ADD PUSH2 0x1C00 JUMP JUMPDEST SWAP6 POP POP PUSH1 0x40 DUP8 ADD CALLDATALOAD PUSH8 0xFFFFFFFFFFFFFFFF DUP2 GT ISZERO PUSH2 0x1D40 JUMPI PUSH1 0x0 DUP1 REVERT JUMPDEST PUSH2 0x1D4C DUP10 DUP3 DUP11 ADD PUSH2 0x1BD6 JUMP JUMPDEST SWAP5 POP POP PUSH1 0x60 DUP8 ADD CALLDATALOAD PUSH8 0xFFFFFFFFFFFFFFFF DUP2 GT ISZERO PUSH2 0x1D69 JUMPI PUSH1 0x0 DUP1 REVERT JUMPDEST PUSH2 0x1D75 DUP10 DUP3 DUP11 ADD PUSH2 0x1B82 JUMP JUMPDEST SWAP4 POP POP PUSH1 0x80 DUP8 ADD CALLDATALOAD PUSH8 0xFFFFFFFFFFFFFFFF DUP2 GT ISZERO PUSH2 0x1D92 JUMPI PUSH1 0x0 DUP1 REVERT JUMPDEST PUSH2 0x1D9E DUP10 DUP3 DUP11 ADD PUSH2 0x1BAC JUMP JUMPDEST SWAP3 POP POP PUSH1 0xA0 PUSH2 0x1DAF DUP10 DUP3 DUP11 ADD PUSH2 0x1B6D JUMP JUMPDEST SWAP2 POP POP SWAP3 SWAP6 POP SWAP3 SWAP6 POP SWAP3 SWAP6 JUMP JUMPDEST PUSH1 0x0 PUSH1 0x20 DUP3 DUP5 SUB SLT ISZERO PUSH2 0x1DCE JUMPI PUSH1 0x0 DUP1 REVERT JUMPDEST PUSH1 0x0 PUSH2 0x1DDC DUP5 DUP3 DUP6 ADD PUSH2 0x1C00 JUMP JUMPDEST SWAP2 POP POP SWAP3 SWAP2 POP POP JUMP JUMPDEST PUSH1 0x0 PUSH2 0x1DF1 DUP4 DUP4 PUSH2 0x1F9E JUMP JUMPDEST SWAP1 POP SWAP3 SWAP2 POP POP JUMP JUMPDEST PUSH1 0x0 PUSH2 0x1E05 DUP4 DUP4 PUSH2 0x23BF JUMP JUMPDEST SWAP1 POP SWAP3 SWAP2 POP POP JUMP JUMPDEST PUSH1 0x0 PUSH2 0x1E19 DUP4 DUP4 PUSH2 0x2422 JUMP JUMPDEST SWAP1 POP SWAP3 SWAP2 POP POP JUMP JUMPDEST PUSH2 0x1E2A DUP2 PUSH2 0x291D JUMP JUMPDEST DUP3 MSTORE POP POP JUMP JUMPDEST PUSH2 0x1E39 DUP2 PUSH2 0x291D JUMP JUMPDEST DUP3 MSTORE POP POP JUMP JUMPDEST PUSH1 0x0 PUSH2 0x1E4A DUP3 PUSH2 0x2786 JUMP JUMPDEST PUSH2 0x1E54 DUP2 DUP6 PUSH2 0x27D9 JUMP JUMPDEST SWAP4 POP DUP4 PUSH1 0x20 DUP3 MUL DUP6 ADD PUSH2 0x1E66 DUP6 PUSH2 0x2756 JUMP JUMPDEST DUP1 PUSH1 0x0 JUMPDEST DUP6 DUP2 LT ISZERO PUSH2 0x1EA2 JUMPI DUP5 DUP5 SUB DUP10 MSTORE DUP2 MLOAD PUSH2 0x1E83 DUP6 DUP3 PUSH2 0x1DE5 JUMP JUMPDEST SWAP5 POP PUSH2 0x1E8E DUP4 PUSH2 0x27B2 JUMP JUMPDEST SWAP3 POP PUSH1 0x20 DUP11 ADD SWAP10 POP POP PUSH1 0x1 DUP2 ADD SWAP1 POP PUSH2 0x1E6A JUMP JUMPDEST POP DUP3 SWAP8 POP DUP8 SWAP6 POP POP POP POP POP POP SWAP3 SWAP2 POP POP JUMP JUMPDEST PUSH1 0x0 PUSH2 0x1EBF DUP3 PUSH2 0x2791 JUMP JUMPDEST PUSH2 0x1EC9 DUP2 DUP6 PUSH2 0x27EA JUMP JUMPDEST SWAP4 POP DUP4 PUSH1 0x20 DUP3 MUL DUP6 ADD PUSH2 0x1EDB DUP6 PUSH2 0x2766 JUMP JUMPDEST DUP1 PUSH1 0x0 JUMPDEST DUP6 DUP2 LT ISZERO PUSH2 0x1F17 JUMPI DUP5 DUP5 SUB DUP10 MSTORE DUP2 MLOAD PUSH2 0x1EF8 DUP6 DUP3 PUSH2 0x1DF9 JUMP JUMPDEST SWAP5 POP PUSH2 0x1F03 DUP4 PUSH2 0x27BF JUMP JUMPDEST SWAP3 POP PUSH1 0x20 DUP11 ADD SWAP10 POP POP PUSH1 0x1 DUP2 ADD SWAP1 POP PUSH2 0x1EDF JUMP JUMPDEST POP DUP3 SWAP8 POP DUP8 SWAP6 POP POP POP POP POP POP SWAP3 SWAP2 POP POP JUMP JUMPDEST PUSH1 0x0 PUSH2 0x1F34 DUP3 PUSH2 0x279C JUMP JUMPDEST PUSH2 0x1F3E DUP2 DUP6 PUSH2 0x27FB JUMP JUMPDEST SWAP4 POP DUP4 PUSH1 0x20 DUP3 MUL DUP6 ADD PUSH2 0x1F50 DUP6 PUSH2 0x2776 JUMP JUMPDEST DUP1 PUSH1 0x0 JUMPDEST DUP6 DUP2 LT ISZERO PUSH2 0x1F8C JUMPI DUP5 DUP5 SUB DUP10 MSTORE DUP2 MLOAD PUSH2 0x1F6D DUP6 DUP3 PUSH2 0x1E0D JUMP JUMPDEST SWAP5 POP PUSH2 0x1F78 DUP4 PUSH2 0x27CC JUMP JUMPDEST SWAP3 POP PUSH1 0x20 DUP11 ADD SWAP10 POP POP PUSH1 0x1 DUP2 ADD SWAP1 POP PUSH2 0x1F54 JUMP JUMPDEST POP DUP3 SWAP8 POP DUP8 SWAP6 POP POP POP POP POP POP SWAP3 SWAP2 POP POP JUMP JUMPDEST PUSH1 0x0 PUSH2 0x1FA9 DUP3 PUSH2 0x27A7 JUMP JUMPDEST PUSH2 0x1FB3 DUP2 DUP6 PUSH2 0x280C JUMP JUMPDEST SWAP4 POP PUSH2 0x1FC3 DUP2 DUP6 PUSH1 0x20 DUP7 ADD PUSH2 0x2968 JUMP JUMPDEST PUSH2 0x1FCC DUP2 PUSH2 0x2ACD JUMP JUMPDEST DUP5 ADD SWAP2 POP POP SWAP3 SWAP2 POP POP JUMP JUMPDEST PUSH1 0x0 PUSH2 0x1FE2 DUP3 PUSH2 0x27A7 JUMP JUMPDEST PUSH2 0x1FEC DUP2 DUP6 PUSH2 0x281D JUMP JUMPDEST SWAP4 POP PUSH2 0x1FFC DUP2 DUP6 PUSH1 0x20 DUP7 ADD PUSH2 0x2968 JUMP JUMPDEST PUSH2 0x2005 DUP2 PUSH2 0x2ACD JUMP JUMPDEST DUP5 ADD SWAP2 POP POP SWAP3 SWAP2 POP POP JUMP JUMPDEST PUSH1 0x0 PUSH2 0x201B DUP3 PUSH2 0x27A7 JUMP JUMPDEST PUSH2 0x2025 DUP2 DUP6 PUSH2 0x282E JUMP JUMPDEST SWAP4 POP PUSH2 0x2035 DUP2 DUP6 PUSH1 0x20 DUP7 ADD PUSH2 0x2968 JUMP JUMPDEST DUP1 DUP5 ADD SWAP2 POP POP SWAP3 SWAP2 POP POP JUMP JUMPDEST PUSH1 0x0 PUSH2 0x204E PUSH1 0x20 DUP4 PUSH2 0x281D JUMP JUMPDEST SWAP2 POP PUSH32 0x537472696E67733A20686578206C656E67746820696E73756666696369656E74 PUSH1 0x0 DUP4 ADD MSTORE PUSH1 0x20 DUP3 ADD SWAP1 POP SWAP2 SWAP1 POP JUMP JUMPDEST PUSH1 0x0 PUSH2 0x208E PUSH1 0x2C DUP4 PUSH2 0x281D JUMP JUMPDEST SWAP2 POP PUSH32 0x4F6E6C7920666163746F727920636F6E74726163742063616E2063616C6C2074 PUSH1 0x0 DUP4 ADD MSTORE PUSH32 0x6869732066756E6374696F6E0000000000000000000000000000000000000000 PUSH1 0x20 DUP4 ADD MSTORE PUSH1 0x40 DUP3 ADD SWAP1 POP SWAP2 SWAP1 POP JUMP JUMPDEST PUSH1 0x0 PUSH2 0x20F4 PUSH1 0x20 DUP4 PUSH2 0x281D JUMP JUMPDEST SWAP2 POP PUSH32 0x436F6E74726163746F7220697320616C72656164792072656769737465726564 PUSH1 0x0 DUP4 ADD MSTORE PUSH1 0x20 DUP3 ADD SWAP1 POP SWAP2 SWAP1 POP JUMP JUMPDEST PUSH1 0x0 PUSH2 0x2134 PUSH1 0x3F DUP4 PUSH2 0x281D JUMP JUMPDEST SWAP2 POP PUSH32 0x506C656173652074727920616761696E20617320726571756573746564207375 PUSH1 0x0 DUP4 ADD MSTORE PUSH32 0x70706C7920636861696E206E756D62657220776173206E6F7420666F756E6400 PUSH1 0x20 DUP4 ADD MSTORE PUSH1 0x40 DUP3 ADD SWAP1 POP SWAP2 SWAP1 POP JUMP JUMPDEST PUSH1 0x0 PUSH2 0x219A PUSH1 0x1A DUP4 PUSH2 0x281D JUMP JUMPDEST SWAP2 POP PUSH32 0x436F6E747261637420686173206265656E2064697361626C6564000000000000 PUSH1 0x0 DUP4 ADD MSTORE PUSH1 0x20 DUP3 ADD SWAP1 POP SWAP2 SWAP1 POP JUMP JUMPDEST PUSH1 0x0 PUSH2 0x21DA PUSH1 0x25 DUP4 PUSH2 0x281D JUMP JUMPDEST SWAP2 POP PUSH32 0x43616E206F6E6C79206265206578656375746564206279207468652044657665 PUSH1 0x0 DUP4 ADD MSTORE PUSH32 0x6C6F706572000000000000000000000000000000000000000000000000000000 PUSH1 0x20 DUP4 ADD MSTORE PUSH1 0x40 DUP3 ADD SWAP1 POP SWAP2 SWAP1 POP JUMP JUMPDEST PUSH1 0x0 PUSH2 0x2240 PUSH1 0x31 DUP4 PUSH2 0x281D JUMP JUMPDEST SWAP2 POP PUSH32 0x43616E206F6E6C79206265206578656375746564206279207468652072656769 PUSH1 0x0 DUP4 ADD MSTORE PUSH32 0x73746572656420436F6E74726163746F72000000000000000000000000000000 PUSH1 0x20 DUP4 ADD MSTORE PUSH1 0x40 DUP3 ADD SWAP1 POP SWAP2 SWAP1 POP JUMP JUMPDEST PUSH1 0x0 PUSH2 0x22A6 PUSH1 0x34 DUP4 PUSH2 0x281D JUMP JUMPDEST SWAP2 POP PUSH32 0x506C656173652074727920616761696E20617320726571756573746564206D61 PUSH1 0x0 DUP4 ADD MSTORE PUSH32 0x74657269616C20776173206E6F7420666F756E64000000000000000000000000 PUSH1 0x20 DUP4 ADD MSTORE PUSH1 0x40 DUP3 ADD SWAP1 POP SWAP2 SWAP1 POP JUMP JUMPDEST PUSH1 0x0 PUSH2 0x230C PUSH1 0x3 DUP4 PUSH2 0x282E JUMP JUMPDEST SWAP2 POP PUSH32 0x2028200000000000000000000000000000000000000000000000000000000000 PUSH1 0x0 DUP4 ADD MSTORE PUSH1 0x3 DUP3 ADD SWAP1 POP SWAP2 SWAP1 POP JUMP JUMPDEST PUSH1 0x0 PUSH2 0x234C PUSH1 0x3 DUP4 PUSH2 0x282E JUMP JUMPDEST SWAP2 POP PUSH32 0x203A200000000000000000000000000000000000000000000000000000000000 PUSH1 0x0 DUP4 ADD MSTORE PUSH1 0x3 DUP3 ADD SWAP1 POP SWAP2 SWAP1 POP JUMP JUMPDEST PUSH1 0x0 PUSH2 0x238C PUSH1 0x4 DUP4 PUSH2 0x282E JUMP JUMPDEST SWAP2 POP PUSH32 0x2029200A00000000000000000000000000000000000000000000000000000000 PUSH1 0x0 DUP4 ADD MSTORE PUSH1 0x4 DUP3 ADD SWAP1 POP SWAP2 SWAP1 POP JUMP JUMPDEST PUSH1 0x0 PUSH1 0x80 DUP4 ADD PUSH1 0x0 DUP4 ADD MLOAD PUSH2 0x23D7 PUSH1 0x0 DUP7 ADD DUP3 PUSH2 0x245F JUMP JUMPDEST POP PUSH1 0x20 DUP4 ADD MLOAD PUSH2 0x23EA PUSH1 0x20 DUP7 ADD DUP3 PUSH2 0x1E21 JUMP JUMPDEST POP PUSH1 0x40 DUP4 ADD MLOAD PUSH2 0x23FD PUSH1 0x40 DUP7 ADD DUP3 PUSH2 0x245F JUMP JUMPDEST POP PUSH1 0x60 DUP4 ADD MLOAD DUP5 DUP3 SUB PUSH1 0x60 DUP7 ADD MSTORE PUSH2 0x2415 DUP3 DUP3 PUSH2 0x1F9E JUMP JUMPDEST SWAP2 POP POP DUP1 SWAP2 POP POP SWAP3 SWAP2 POP POP JUMP JUMPDEST PUSH1 0x0 PUSH1 0x40 DUP4 ADD PUSH1 0x0 DUP4 ADD MLOAD DUP5 DUP3 SUB PUSH1 0x0 DUP7 ADD MSTORE PUSH2 0x243F DUP3 DUP3 PUSH2 0x1F9E JUMP JUMPDEST SWAP2 POP POP PUSH1 0x20 DUP4 ADD MLOAD PUSH2 0x2454 PUSH1 0x20 DUP7 ADD DUP3 PUSH2 0x1E21 JUMP JUMPDEST POP DUP1 SWAP2 POP POP SWAP3 SWAP2 POP POP JUMP JUMPDEST PUSH2 0x2468 DUP2 PUSH2 0x294F JUMP JUMPDEST DUP3 MSTORE POP POP JUMP JUMPDEST PUSH1 0x0 PUSH2 0x247A DUP3 DUP5 PUSH2 0x2010 JUMP JUMPDEST SWAP2 POP DUP2 SWAP1 POP SWAP3 SWAP2 POP POP JUMP JUMPDEST PUSH1 0x0 PUSH2 0x2491 DUP3 DUP7 PUSH2 0x2010 JUMP JUMPDEST SWAP2 POP PUSH2 0x249C DUP3 PUSH2 0x22FF JUMP JUMPDEST SWAP2 POP PUSH2 0x24A8 DUP3 DUP6 PUSH2 0x2010 JUMP JUMPDEST SWAP2 POP PUSH2 0x24B3 DUP3 PUSH2 0x233F JUMP JUMPDEST SWAP2 POP PUSH2 0x24BF DUP3 DUP5 PUSH2 0x2010 JUMP JUMPDEST SWAP2 POP PUSH2 0x24CA DUP3 PUSH2 0x237F JUMP JUMPDEST SWAP2 POP DUP2 SWAP1 POP SWAP5 SWAP4 POP POP POP POP JUMP JUMPDEST PUSH1 0x0 PUSH1 0x20 DUP3 ADD SWAP1 POP DUP2 DUP2 SUB PUSH1 0x0 DUP4 ADD MSTORE PUSH2 0x24F1 DUP2 DUP5 PUSH2 0x1E3F JUMP JUMPDEST SWAP1 POP SWAP3 SWAP2 POP POP JUMP JUMPDEST PUSH1 0x0 PUSH1 0x20 DUP3 ADD SWAP1 POP DUP2 DUP2 SUB PUSH1 0x0 DUP4 ADD MSTORE PUSH2 0x2513 DUP2 DUP5 PUSH2 0x1EB4 JUMP JUMPDEST SWAP1 POP SWAP3 SWAP2 POP POP JUMP JUMPDEST PUSH1 0x0 PUSH1 0x20 DUP3 ADD SWAP1 POP DUP2 DUP2 SUB PUSH1 0x0 DUP4 ADD MSTORE PUSH2 0x2535 DUP2 DUP5 PUSH2 0x1F29 JUMP JUMPDEST SWAP1 POP SWAP3 SWAP2 POP POP JUMP JUMPDEST PUSH1 0x0 PUSH1 0x20 DUP3 ADD SWAP1 POP DUP2 DUP2 SUB PUSH1 0x0 DUP4 ADD MSTORE PUSH2 0x2557 DUP2 DUP5 PUSH2 0x1FD7 JUMP JUMPDEST SWAP1 POP SWAP3 SWAP2 POP POP JUMP JUMPDEST PUSH1 0x0 PUSH1 0x60 DUP3 ADD SWAP1 POP DUP2 DUP2 SUB PUSH1 0x0 DUP4 ADD MSTORE PUSH2 0x2579 DUP2 DUP7 PUSH2 0x1FD7 JUMP JUMPDEST SWAP1 POP PUSH2 0x2588 PUSH1 0x20 DUP4 ADD DUP6 PUSH2 0x1E30 JUMP JUMPDEST PUSH2 0x2595 PUSH1 0x40 DUP4 ADD DUP5 PUSH2 0x1E30 JUMP JUMPDEST SWAP5 SWAP4 POP POP POP POP JUMP JUMPDEST PUSH1 0x0 PUSH1 0x20 DUP3 ADD SWAP1 POP DUP2 DUP2 SUB PUSH1 0x0 DUP4 ADD MSTORE PUSH2 0x25B6 DUP2 PUSH2 0x2041 JUMP JUMPDEST SWAP1 POP SWAP2 SWAP1 POP JUMP JUMPDEST PUSH1 0x0 PUSH1 0x20 DUP3 ADD SWAP1 POP DUP2 DUP2 SUB PUSH1 0x0 DUP4 ADD MSTORE PUSH2 0x25D6 DUP2 PUSH2 0x2081 JUMP JUMPDEST SWAP1 POP SWAP2 SWAP1 POP JUMP JUMPDEST PUSH1 0x0 PUSH1 0x20 DUP3 ADD SWAP1 POP DUP2 DUP2 SUB PUSH1 0x0 DUP4 ADD MSTORE PUSH2 0x25F6 DUP2 PUSH2 0x20E7 JUMP JUMPDEST SWAP1 POP SWAP2 SWAP1 POP JUMP JUMPDEST PUSH1 0x0 PUSH1 0x20 DUP3 ADD SWAP1 POP DUP2 DUP2 SUB PUSH1 0x0 DUP4 ADD MSTORE PUSH2 0x2616 DUP2 PUSH2 0x2127 JUMP JUMPDEST SWAP1 POP SWAP2 SWAP1 POP JUMP JUMPDEST PUSH1 0x0 PUSH1 0x20 DUP3 ADD SWAP1 POP DUP2 DUP2 SUB PUSH1 0x0 DUP4 ADD MSTORE PUSH2 0x2636 DUP2 PUSH2 0x218D JUMP JUMPDEST SWAP1 POP SWAP2 SWAP1 POP JUMP JUMPDEST PUSH1 0x0 PUSH1 0x20 DUP3 ADD SWAP1 POP DUP2 DUP2 SUB PUSH1 0x0 DUP4 ADD MSTORE PUSH2 0x2656 DUP2 PUSH2 0x21CD JUMP JUMPDEST SWAP1 POP SWAP2 SWAP1 POP JUMP JUMPDEST PUSH1 0x0 PUSH1 0x20 DUP3 ADD SWAP1 POP DUP2 DUP2 SUB PUSH1 0x0 DUP4 ADD MSTORE PUSH2 0x2676 DUP2 PUSH2 0x2233 JUMP JUMPDEST SWAP1 POP SWAP2 SWAP1 POP JUMP JUMPDEST PUSH1 0x0 PUSH1 0x20 DUP3 ADD SWAP1 POP DUP2 DUP2 SUB PUSH1 0x0 DUP4 ADD MSTORE PUSH2 0x2696 DUP2 PUSH2 0x2299 JUMP JUMPDEST SWAP1 POP SWAP2 SWAP1 POP JUMP JUMPDEST PUSH1 0x0 PUSH1 0x40 MLOAD SWAP1 POP DUP2 DUP2 ADD DUP2 DUP2 LT PUSH8 0xFFFFFFFFFFFFFFFF DUP3 GT OR ISZERO PUSH2 0x26C4 JUMPI PUSH2 0x26C3 PUSH2 0x2A9E JUMP JUMPDEST JUMPDEST DUP1 PUSH1 0x40 MSTORE POP SWAP2 SWAP1 POP JUMP JUMPDEST PUSH1 0x0 PUSH8 0xFFFFFFFFFFFFFFFF DUP3 GT ISZERO PUSH2 0x26E9 JUMPI PUSH2 0x26E8 PUSH2 0x2A9E JUMP JUMPDEST JUMPDEST PUSH1 0x20 DUP3 MUL SWAP1 POP PUSH1 0x20 DUP2 ADD SWAP1 POP SWAP2 SWAP1 POP JUMP JUMPDEST PUSH1 0x0 PUSH8 0xFFFFFFFFFFFFFFFF DUP3 GT ISZERO PUSH2 0x2715 JUMPI PUSH2 0x2714 PUSH2 0x2A9E JUMP JUMPDEST JUMPDEST PUSH1 0x20 DUP3 MUL SWAP1 POP PUSH1 0x20 DUP2 ADD SWAP1 POP SWAP2 SWAP1 POP JUMP JUMPDEST PUSH1 0x0 PUSH8 0xFFFFFFFFFFFFFFFF DUP3 GT ISZERO PUSH2 0x2741 JUMPI PUSH2 0x2740 PUSH2 0x2A9E JUMP JUMPDEST JUMPDEST PUSH1 0x1F NOT PUSH1 0x1F DUP4 ADD AND SWAP1 POP PUSH1 0x20 DUP2 ADD SWAP1 POP SWAP2 SWAP1 POP JUMP JUMPDEST PUSH1 0x0 DUP2 SWAP1 POP PUSH1 0x20 DUP3 ADD SWAP1 POP SWAP2 SWAP1 POP JUMP JUMPDEST PUSH1 0x0 DUP2 SWAP1 POP PUSH1 0x20 DUP3 ADD SWAP1 POP SWAP2 SWAP1 POP JUMP JUMPDEST PUSH1 0x0 DUP2 SWAP1 POP PUSH1 0x20 DUP3 ADD SWAP1 POP SWAP2 SWAP1 POP JUMP JUMPDEST PUSH1 0x0 DUP2 MLOAD SWAP1 POP SWAP2 SWAP1 POP JUMP JUMPDEST PUSH1 0x0 DUP2 MLOAD SWAP1 POP SWAP2 SWAP1 POP JUMP JUMPDEST PUSH1 0x0 DUP2 MLOAD SWAP1 POP SWAP2 SWAP1 POP JUMP JUMPDEST PUSH1 0x0 DUP2 MLOAD SWAP1 POP SWAP2 SWAP1 POP JUMP JUMPDEST PUSH1 0x0 PUSH1 0x20 DUP3 ADD SWAP1 POP SWAP2 SWAP1 POP JUMP JUMPDEST PUSH1 0x0 PUSH1 0x20 DUP3 ADD SWAP1 POP SWAP2 SWAP1 POP JUMP JUMPDEST PUSH1 0x0 PUSH1 0x20 DUP3 ADD SWAP1 POP SWAP2 SWAP1 POP JUMP JUMPDEST PUSH1 0x0 DUP3 DUP3 MSTORE PUSH1 0x20 DUP3 ADD SWAP1 POP SWAP3 SWAP2 POP POP JUMP JUMPDEST PUSH1 0x0 DUP3 DUP3 MSTORE PUSH1 0x20 DUP3 ADD SWAP1 POP SWAP3 SWAP2 POP POP JUMP JUMPDEST PUSH1 0x0 DUP3 DUP3 MSTORE PUSH1 0x20 DUP3 ADD SWAP1 POP SWAP3 SWAP2 POP POP JUMP JUMPDEST PUSH1 0x0 DUP3 DUP3 MSTORE PUSH1 0x20 DUP3 ADD SWAP1 POP SWAP3 SWAP2 POP POP JUMP JUMPDEST PUSH1 0x0 DUP3 DUP3 MSTORE PUSH1 0x20 DUP3 ADD SWAP1 POP SWAP3 SWAP2 POP POP JUMP JUMPDEST PUSH1 0x0 DUP2 SWAP1 POP SWAP3 SWAP2 POP POP JUMP JUMPDEST PUSH1 0x0 PUSH2 0x2844 DUP3 PUSH2 0x294F JUMP JUMPDEST SWAP2 POP PUSH2 0x284F DUP4 PUSH2 0x294F JUMP JUMPDEST SWAP3 POP DUP3 PUSH32 0xFFFFFFFFFFFFFFFFFFFFFFFFFFFFFFFFFFFFFFFFFFFFFFFFFFFFFFFFFFFFFFFF SUB DUP3 GT ISZERO PUSH2 0x2884 JUMPI PUSH2 0x2883 PUSH2 0x2A40 JUMP JUMPDEST JUMPDEST DUP3 DUP3 ADD SWAP1 POP SWAP3 SWAP2 POP POP JUMP JUMPDEST PUSH1 0x0 PUSH2 0x289A DUP3 PUSH2 0x294F JUMP JUMPDEST SWAP2 POP PUSH2 0x28A5 DUP4 PUSH2 0x294F JUMP JUMPDEST SWAP3 POP DUP2 PUSH32 0xFFFFFFFFFFFFFFFFFFFFFFFFFFFFFFFFFFFFFFFFFFFFFFFFFFFFFFFFFFFFFFFF DIV DUP4 GT DUP3 ISZERO ISZERO AND ISZERO PUSH2 0x28DE JUMPI PUSH2 0x28DD PUSH2 0x2A40 JUMP JUMPDEST JUMPDEST DUP3 DUP3 MUL SWAP1 POP SWAP3 SWAP2 POP POP JUMP JUMPDEST PUSH1 0x0 PUSH2 0x28F4 DUP3 PUSH2 0x294F JUMP JUMPDEST SWAP2 POP PUSH2 0x28FF DUP4 PUSH2 0x294F JUMP JUMPDEST SWAP3 POP DUP3 DUP3 LT ISZERO PUSH2 0x2912 JUMPI PUSH2 0x2911 PUSH2 0x2A40 JUMP JUMPDEST JUMPDEST DUP3 DUP3 SUB SWAP1 POP SWAP3 SWAP2 POP POP JUMP JUMPDEST PUSH1 0x0 PUSH2 0x2928 DUP3 PUSH2 0x292F JUMP JUMPDEST SWAP1 POP SWAP2 SWAP1 POP JUMP JUMPDEST PUSH1 0x0 PUSH20 0xFFFFFFFFFFFFFFFFFFFFFFFFFFFFFFFFFFFFFFFF DUP3 AND SWAP1 POP SWAP2 SWAP1 POP JUMP JUMPDEST PUSH1 0x0 DUP2 SWAP1 POP SWAP2 SWAP1 POP JUMP JUMPDEST DUP3 DUP2 DUP4 CALLDATACOPY PUSH1 0x0 DUP4 DUP4 ADD MSTORE POP POP POP JUMP JUMPDEST PUSH1 0x0 JUMPDEST DUP4 DUP2 LT ISZERO PUSH2 0x2986 JUMPI DUP1 DUP3 ADD MLOAD DUP2 DUP5 ADD MSTORE PUSH1 0x20 DUP2 ADD SWAP1 POP PUSH2 0x296B JUMP JUMPDEST DUP4 DUP2 GT ISZERO PUSH2 0x2995 JUMPI PUSH1 0x0 DUP5 DUP5 ADD MSTORE JUMPDEST POP POP POP POP JUMP JUMPDEST PUSH1 0x0 PUSH2 0x29A6 DUP3 PUSH2 0x294F JUMP JUMPDEST SWAP2 POP PUSH1 0x0 DUP3 EQ ISZERO PUSH2 0x29BA JUMPI PUSH2 0x29B9 PUSH2 0x2A40 JUMP JUMPDEST JUMPDEST PUSH1 0x1 DUP3 SUB SWAP1 POP SWAP2 SWAP1 POP JUMP JUMPDEST PUSH1 0x0 PUSH1 0x2 DUP3 DIV SWAP1 POP PUSH1 0x1 DUP3 AND DUP1 PUSH2 0x29DD JUMPI PUSH1 0x7F DUP3 AND SWAP2 POP JUMPDEST PUSH1 0x20 DUP3 LT DUP2 EQ ISZERO PUSH2 0x29F1 JUMPI PUSH2 0x29F0 PUSH2 0x2A6F JUMP JUMPDEST JUMPDEST POP SWAP2 SWAP1 POP JUMP JUMPDEST PUSH1 0x0 PUSH2 0x2A02 DUP3 PUSH2 0x294F JUMP JUMPDEST SWAP2 POP PUSH32 0xFFFFFFFFFFFFFFFFFFFFFFFFFFFFFFFFFFFFFFFFFFFFFFFFFFFFFFFFFFFFFFFF DUP3 EQ ISZERO PUSH2 0x2A35 JUMPI PUSH2 0x2A34 PUSH2 0x2A40 JUMP JUMPDEST JUMPDEST PUSH1 0x1 DUP3 ADD SWAP1 POP SWAP2 SWAP1 POP JUMP JUMPDEST PUSH32 0x4E487B7100000000000000000000000000000000000000000000000000000000 PUSH1 0x0 MSTORE PUSH1 0x11 PUSH1 0x4 MSTORE PUSH1 0x24 PUSH1 0x0 REVERT JUMPDEST PUSH32 0x4E487B7100000000000000000000000000000000000000000000000000000000 PUSH1 0x0 MSTORE PUSH1 0x22 PUSH1 0x4 MSTORE PUSH1 0x24 PUSH1 0x0 REVERT JUMPDEST PUSH32 0x4E487B7100000000000000000000000000000000000000000000000000000000 PUSH1 0x0 MSTORE PUSH1 0x41 PUSH1 0x4 MSTORE PUSH1 0x24 PUSH1 0x0 REVERT JUMPDEST PUSH1 0x0 PUSH1 0x1F NOT PUSH1 0x1F DUP4 ADD AND SWAP1 POP SWAP2 SWAP1 POP JUMP JUMPDEST PUSH2 0x2AE7 DUP2 PUSH2 0x291D JUMP JUMPDEST DUP2 EQ PUSH2 0x2AF2 JUMPI PUSH1 0x0 DUP1 REVERT JUMPDEST POP JUMP JUMPDEST PUSH2 0x2AFE DUP2 PUSH2 0x294F JUMP JUMPDEST DUP2 EQ PUSH2 0x2B09 JUMPI PUSH1 0x0 DUP1 REVERT JUMPDEST POP JUMP INVALID LOG2 PUSH5 0x6970667358 0x22 SLT KECCAK256 CODESIZE PUSH11 0xB7DADB020736AE70C0B96A RETURNDATACOPY SWAP13 REVERT 0xE0 0x2F 0xE9 0x28 POP PUSH9 0xFA607ECBD61A7C7CEF 0x5E PUSH5 0x736F6C6343 STOP ADDMOD STOP STOP CALLER "
				},
				"gasEstimates": {
					"creation": {
						"codeDepositCost": "2214800",
						"executionCost": "infinite",
						"totalCost": "infinite"
					},
					"external": {
						"BatchCertificate(address)": "infinite",
						"addContractor(address,string)": "infinite",
						"assignMaterial(string,uint256,string,address[],string[],address)": "infinite",
						"disableOrEnableContract()": "22789",
						"generalInfo()": "infinite",
						"showAllRegisteredContractors()": "infinite",
						"showListOfMaterials()": "infinite",
						"showOverviewOfMaterial(string)": "infinite",
						"showSupplyChain(uint256)": "infinite"
					}
				},
				"methodIdentifiers": {
					"BatchCertificate(address)": "909fc14a",
					"addContractor(address,string)": "bd8976c4",
					"assignMaterial(string,uint256,string,address[],string[],address)": "ee452194",
					"disableOrEnableContract()": "784b5031",
					"generalInfo()": "25a6c545",
					"showAllRegisteredContractors()": "27dd978f",
					"showListOfMaterials()": "64fbc026",
					"showOverviewOfMaterial(string)": "2968a545",
					"showSupplyChain(uint256)": "0eccf4f0"
				}
			},
			"storageLayout": {
				"storage": [
					{
						"astId": 246,
						"contract": "contracts/newBuilding.sol:newBuilding",
						"label": "contractIsDisabled",
						"offset": 0,
						"slot": "0",
						"type": "t_bool"
					},
					{
						"astId": 248,
						"contract": "contracts/newBuilding.sol:newBuilding",
						"label": "factoryContractAddress",
						"offset": 1,
						"slot": "0",
						"type": "t_address"
					},
					{
						"astId": 251,
						"contract": "contracts/newBuilding.sol:newBuilding",
						"label": "assignement_number",
						"offset": 0,
						"slot": "1",
						"type": "t_uint256"
					},
					{
						"astId": 254,
						"contract": "contracts/newBuilding.sol:newBuilding",
						"label": "listOfMaterials",
						"offset": 0,
						"slot": "2",
						"type": "t_array(t_string_storage)dyn_storage"
					},
					{
						"astId": 260,
						"contract": "contracts/newBuilding.sol:newBuilding",
						"label": "listOfBatches",
						"offset": 0,
						"slot": "3",
						"type": "t_mapping(t_string_memory_ptr,t_array(t_struct(Batch)238_storage)dyn_storage)"
					},
					{
						"astId": 266,
						"contract": "contracts/newBuilding.sol:newBuilding",
						"label": "supplyChain",
						"offset": 0,
						"slot": "4",
						"type": "t_mapping(t_uint256,t_array(t_struct(supplier)243_storage)dyn_storage)"
					},
					{
						"astId": 269,
						"contract": "contracts/newBuilding.sol:newBuilding",
						"label": "allContractorsAddresses",
						"offset": 0,
						"slot": "5",
						"type": "t_array(t_address)dyn_storage"
					},
					{
						"astId": 273,
						"contract": "contracts/newBuilding.sol:newBuilding",
						"label": "listOfContractors",
						"offset": 0,
						"slot": "6",
						"type": "t_mapping(t_address,t_string_storage)"
					},
					{
						"astId": 280,
						"contract": "contracts/newBuilding.sol:newBuilding",
						"label": "Developer",
						"offset": 0,
						"slot": "7",
						"type": "t_address"
					},
					{
						"astId": 282,
						"contract": "contracts/newBuilding.sol:newBuilding",
						"label": "BuildingAddress",
						"offset": 0,
						"slot": "8",
						"type": "t_address"
					},
					{
						"astId": 284,
						"contract": "contracts/newBuilding.sol:newBuilding",
						"label": "BuildingName",
						"offset": 0,
						"slot": "9",
						"type": "t_string_storage"
					},
					{
						"astId": 355,
						"contract": "contracts/newBuilding.sol:newBuilding",
						"label": "BatchCertificate",
						"offset": 0,
						"slot": "10",
						"type": "t_mapping(t_address,t_string_storage)"
					}
				],
				"types": {
					"t_address": {
						"encoding": "inplace",
						"label": "address",
						"numberOfBytes": "20"
					},
					"t_array(t_address)dyn_storage": {
						"base": "t_address",
						"encoding": "dynamic_array",
						"label": "address[]",
						"numberOfBytes": "32"
					},
					"t_array(t_string_storage)dyn_storage": {
						"base": "t_string_storage",
						"encoding": "dynamic_array",
						"label": "string[]",
						"numberOfBytes": "32"
					},
					"t_array(t_struct(Batch)238_storage)dyn_storage": {
						"base": "t_struct(Batch)238_storage",
						"encoding": "dynamic_array",
						"label": "struct newBuilding.Batch[]",
						"numberOfBytes": "32"
					},
					"t_array(t_struct(supplier)243_storage)dyn_storage": {
						"base": "t_struct(supplier)243_storage",
						"encoding": "dynamic_array",
						"label": "struct newBuilding.supplier[]",
						"numberOfBytes": "32"
					},
					"t_bool": {
						"encoding": "inplace",
						"label": "bool",
						"numberOfBytes": "1"
					},
					"t_mapping(t_address,t_string_storage)": {
						"encoding": "mapping",
						"key": "t_address",
						"label": "mapping(address => string)",
						"numberOfBytes": "32",
						"value": "t_string_storage"
					},
					"t_mapping(t_string_memory_ptr,t_array(t_struct(Batch)238_storage)dyn_storage)": {
						"encoding": "mapping",
						"key": "t_string_memory_ptr",
						"label": "mapping(string => struct newBuilding.Batch[])",
						"numberOfBytes": "32",
						"value": "t_array(t_struct(Batch)238_storage)dyn_storage"
					},
					"t_mapping(t_uint256,t_array(t_struct(supplier)243_storage)dyn_storage)": {
						"encoding": "mapping",
						"key": "t_uint256",
						"label": "mapping(uint256 => struct newBuilding.supplier[])",
						"numberOfBytes": "32",
						"value": "t_array(t_struct(supplier)243_storage)dyn_storage"
					},
					"t_string_memory_ptr": {
						"encoding": "bytes",
						"label": "string",
						"numberOfBytes": "32"
					},
					"t_string_storage": {
						"encoding": "bytes",
						"label": "string",
						"numberOfBytes": "32"
					},
					"t_struct(Batch)238_storage": {
						"encoding": "inplace",
						"label": "struct newBuilding.Batch",
						"members": [
							{
								"astId": 231,
								"contract": "contracts/newBuilding.sol:newBuilding",
								"label": "assignementId",
								"offset": 0,
								"slot": "0",
								"type": "t_uint256"
							},
							{
								"astId": 233,
								"contract": "contracts/newBuilding.sol:newBuilding",
								"label": "batchContractAddress",
								"offset": 0,
								"slot": "1",
								"type": "t_address"
							},
							{
								"astId": 235,
								"contract": "contracts/newBuilding.sol:newBuilding",
								"label": "quantityAssigned",
								"offset": 0,
								"slot": "2",
								"type": "t_uint256"
							},
							{
								"astId": 237,
								"contract": "contracts/newBuilding.sol:newBuilding",
								"label": "quantityUnit",
								"offset": 0,
								"slot": "3",
								"type": "t_string_storage"
							}
						],
						"numberOfBytes": "128"
					},
					"t_struct(supplier)243_storage": {
						"encoding": "inplace",
						"label": "struct newBuilding.supplier",
						"members": [
							{
								"astId": 240,
								"contract": "contracts/newBuilding.sol:newBuilding",
								"label": "supplierAddress",
								"offset": 0,
								"slot": "0",
								"type": "t_address"
							},
							{
								"astId": 242,
								"contract": "contracts/newBuilding.sol:newBuilding",
								"label": "supplierName",
								"offset": 0,
								"slot": "1",
								"type": "t_string_storage"
							}
						],
						"numberOfBytes": "64"
					},
					"t_uint256": {
						"encoding": "inplace",
						"label": "uint256",
						"numberOfBytes": "32"
					}
				}
			},
			"userdoc": {
				"kind": "user",
				"methods": {},
				"version": 1
			}
		}
	}
}