{
	"contracts/newBuilding.sol": {
		"newBuilding": {
			"abi": [
				{
					"inputs": [
						{
							"internalType": "address",
							"name": "build_developer",
							"type": "address"
						},
						{
							"internalType": "string",
							"name": "name",
							"type": "string"
						}
					],
					"stateMutability": "nonpayable",
					"type": "constructor"
				},
				{
					"inputs": [
						{
							"internalType": "address",
							"name": "",
							"type": "address"
						}
					],
					"name": "BatchCertificate",
					"outputs": [
						{
							"internalType": "string",
							"name": "",
							"type": "string"
						}
					],
					"stateMutability": "view",
					"type": "function"
				},
				{
					"inputs": [
						{
							"internalType": "address",
							"name": "contractor_Address",
							"type": "address"
						},
						{
							"internalType": "string",
							"name": "name_",
							"type": "string"
						}
					],
					"name": "addContractor",
					"outputs": [],
					"stateMutability": "nonpayable",
					"type": "function"
				},
				{
					"inputs": [
						{
							"internalType": "string",
							"name": "material",
							"type": "string"
						},
						{
							"internalType": "address",
							"name": "batchAddress",
							"type": "address"
						},
						{
							"internalType": "uint256",
							"name": "quantity",
							"type": "uint256"
						},
						{
							"internalType": "string",
							"name": "unit",
							"type": "string"
						},
						{
							"components": [
								{
									"internalType": "address",
									"name": "supplierAddress",
									"type": "address"
								},
								{
									"internalType": "string",
									"name": "supplierName",
									"type": "string"
								}
							],
							"internalType": "struct newBuilding.supplier[]",
							"name": "chain",
							"type": "tuple[]"
						}
					],
					"name": "assignMaterial",
					"outputs": [],
					"stateMutability": "nonpayable",
					"type": "function"
				},
				{
					"inputs": [],
					"name": "disableOrEnableContract",
					"outputs": [],
					"stateMutability": "nonpayable",
					"type": "function"
				},
				{
					"inputs": [],
					"name": "generalInfo",
					"outputs": [
						{
							"internalType": "string",
							"name": "generalInformation",
							"type": "string"
						}
					],
					"stateMutability": "view",
					"type": "function"
				},
				{
					"inputs": [],
					"name": "showAllRegisteredContractors",
					"outputs": [
						{
							"internalType": "string",
							"name": "allContractors",
							"type": "string"
						}
					],
					"stateMutability": "view",
					"type": "function"
				},
				{
					"inputs": [],
					"name": "showListOfMaterials",
					"outputs": [
						{
							"internalType": "string",
							"name": "materialsList",
							"type": "string"
						}
					],
					"stateMutability": "view",
					"type": "function"
				},
				{
					"inputs": [
						{
							"internalType": "string",
							"name": "material",
							"type": "string"
						}
					],
					"name": "showOverviewOfMaterial",
					"outputs": [
						{
							"internalType": "string",
							"name": "batchesList",
							"type": "string"
						}
					],
					"stateMutability": "view",
					"type": "function"
				},
				{
					"inputs": [
						{
							"internalType": "uint256",
							"name": "assignId",
							"type": "uint256"
						}
					],
					"name": "showSupplyChain",
					"outputs": [
						{
							"internalType": "string",
							"name": "chainOfSupply",
							"type": "string"
						}
					],
					"stateMutability": "view",
					"type": "function"
				}
			],
			"devdoc": {
				"kind": "dev",
				"methods": {},
				"version": 1
			},
			"evm": {
				"assembly": "    /* \"contracts/newBuilding.sol\":137:10825  contract newBuilding {\r... */\n  mstore(0x40, 0x80)\n    /* \"contracts/newBuilding.sol\":811:816  false */\n  0x00\n    /* \"contracts/newBuilding.sol\":777:816  bool private contractIsDisabled = false */\n  dup1\n  exp(0x0100, 0x00)\n  dup2\n  sload\n  dup2\n  0xff\n  mul\n  not\n  and\n  swap1\n  dup4\n  iszero\n  iszero\n  mul\n  or\n  swap1\n  sstore\n  pop\n    /* \"contracts/newBuilding.sol\":1225:1226  1 */\n  0x01\n    /* \"contracts/newBuilding.sol\":1191:1226  uint private assignement_number = 1 */\n  dup1\n  sstore\n    /* \"contracts/newBuilding.sol\":2313:3098  constructor (address build_developer, string memory name) { \r... */\n  callvalue\n  dup1\n  iszero\n  tag_1\n  jumpi\n  0x00\n  dup1\n  revert\ntag_1:\n  pop\n  mload(0x40)\n  sub(codesize, bytecodeSize)\n  dup1\n  bytecodeSize\n  dup4\n  codecopy\n  dup2\n  dup2\n  add\n  0x40\n  mstore\n  dup2\n  add\n  swap1\n  tag_2\n  swap2\n  swap1\n  tag_3\n  jump\t// in\ntag_2:\n    /* \"contracts/newBuilding.sol\":2398:2402  name */\n  dup1\n    /* \"contracts/newBuilding.sol\":2383:2395  BuildingName */\n  0x09\n    /* \"contracts/newBuilding.sol\":2383:2402  BuildingName = name */\n  swap1\n  dup1\n  mload\n  swap1\n  0x20\n  add\n  swap1\n  tag_6\n  swap3\n  swap2\n  swap1\n  tag_7\n  jump\t// in\ntag_6:\n  pop\n    /* \"contracts/newBuilding.sol\":2425:2440  build_developer */\n  dup2\n    /* \"contracts/newBuilding.sol\":2413:2422  Developer */\n  0x07\n  0x00\n    /* \"contracts/newBuilding.sol\":2413:2440  Developer = build_developer */\n  0x0100\n  exp\n  dup2\n  sload\n  dup2\n  0xffffffffffffffffffffffffffffffffffffffff\n  mul\n  not\n  and\n  swap1\n  dup4\n  0xffffffffffffffffffffffffffffffffffffffff\n  and\n  mul\n  or\n  swap1\n  sstore\n  pop\n    /* \"contracts/newBuilding.sol\":2452:2494  listOfContractors[Developer] = \"Developer\" */\n  mload(0x40)\n  dup1\n  0x40\n  add\n  0x40\n  mstore\n  dup1\n  0x09\n  dup2\n  mstore\n  0x20\n  add\n  0x446576656c6f7065720000000000000000000000000000000000000000000000\n  dup2\n  mstore\n  pop\n    /* \"contracts/newBuilding.sol\":2452:2469  listOfContractors */\n  0x06\n    /* \"contracts/newBuilding.sol\":2452:2480  listOfContractors[Developer] */\n  0x00\n    /* \"contracts/newBuilding.sol\":2470:2479  Developer */\n  0x07\n  0x00\n  swap1\n  sload\n  swap1\n  0x0100\n  exp\n  swap1\n  div\n  0xffffffffffffffffffffffffffffffffffffffff\n  and\n    /* \"contracts/newBuilding.sol\":2452:2480  listOfContractors[Developer] */\n  0xffffffffffffffffffffffffffffffffffffffff\n  and\n  0xffffffffffffffffffffffffffffffffffffffff\n  and\n  dup2\n  mstore\n  0x20\n  add\n  swap1\n  dup2\n  mstore\n  0x20\n  add\n  0x00\n  keccak256\n    /* \"contracts/newBuilding.sol\":2452:2494  listOfContractors[Developer] = \"Developer\" */\n  swap1\n  dup1\n  mload\n  swap1\n  0x20\n  add\n  swap1\n  tag_8\n  swap3\n  swap2\n  swap1\n  tag_7\n  jump\t// in\ntag_8:\n  pop\n    /* \"contracts/newBuilding.sol\":2506:2529  allContractorsAddresses */\n  0x05\n    /* \"contracts/newBuilding.sol\":2535:2544  Developer */\n  0x07\n  0x00\n  swap1\n  sload\n  swap1\n  0x0100\n  exp\n  swap1\n  div\n  0xffffffffffffffffffffffffffffffffffffffff\n  and\n    /* \"contracts/newBuilding.sol\":2506:2545  allContractorsAddresses.push(Developer) */\n  swap1\n  dup1\n  0x01\n  dup2\n  sload\n  add\n  dup1\n  dup3\n  sstore\n  dup1\n  swap2\n  pop\n  pop\n  0x01\n  swap1\n  sub\n  swap1\n  0x00\n  mstore\n  keccak256(0x00, 0x20)\n  add\n  0x00\n  swap1\n  swap2\n  swap1\n  swap2\n  swap1\n  swap2\n  0x0100\n  exp\n  dup2\n  sload\n  dup2\n  0xffffffffffffffffffffffffffffffffffffffff\n  mul\n  not\n  and\n  swap1\n  dup4\n  0xffffffffffffffffffffffffffffffffffffffff\n  and\n  mul\n  or\n  swap1\n  sstore\n  pop\n    /* \"contracts/newBuilding.sol\":2612:2616  this */\n  address\n    /* \"contracts/newBuilding.sol\":2586:2601  BuildingAddress */\n  0x08\n  0x00\n    /* \"contracts/newBuilding.sol\":2586:2617  BuildingAddress = address(this) */\n  0x0100\n  exp\n  dup2\n  sload\n  dup2\n  0xffffffffffffffffffffffffffffffffffffffff\n  mul\n  not\n  and\n  swap1\n  dup4\n  0xffffffffffffffffffffffffffffffffffffffff\n  and\n  mul\n  or\n  swap1\n  sstore\n  pop\n    /* \"contracts/newBuilding.sol\":3078:3088  msg.sender */\n  caller\n    /* \"contracts/newBuilding.sol\":3053:3075  factoryContractAddress */\n  0x00\n  0x01\n    /* \"contracts/newBuilding.sol\":3053:3088  factoryContractAddress = msg.sender */\n  0x0100\n  exp\n  dup2\n  sload\n  dup2\n  0xffffffffffffffffffffffffffffffffffffffff\n  mul\n  not\n  and\n  swap1\n  dup4\n  0xffffffffffffffffffffffffffffffffffffffff\n  and\n  mul\n  or\n  swap1\n  sstore\n  pop\n    /* \"contracts/newBuilding.sol\":2313:3098  constructor (address build_developer, string memory name) { \r... */\n  pop\n  pop\n    /* \"contracts/newBuilding.sol\":137:10825  contract newBuilding {\r... */\n  jump(tag_10)\ntag_7:\n  dup3\n  dup1\n  sload\n  tag_11\n  swap1\n  tag_12\n  jump\t// in\ntag_11:\n  swap1\n  0x00\n  mstore\n  keccak256(0x00, 0x20)\n  swap1\n  0x1f\n  add\n  0x20\n  swap1\n  div\n  dup2\n  add\n  swap3\n  dup3\n  tag_14\n  jumpi\n  0x00\n  dup6\n  sstore\n  jump(tag_13)\ntag_14:\n  dup3\n  0x1f\n  lt\n  tag_15\n  jumpi\n  dup1\n  mload\n  not(0xff)\n  and\n  dup4\n  dup1\n  add\n  or\n  dup6\n  sstore\n  jump(tag_13)\ntag_15:\n  dup3\n  dup1\n  add\n  0x01\n  add\n  dup6\n  sstore\n  dup3\n  iszero\n  tag_13\n  jumpi\n  swap2\n  dup3\n  add\ntag_16:\n  dup3\n  dup2\n  gt\n  iszero\n  tag_17\n  jumpi\n  dup3\n  mload\n  dup3\n  sstore\n  swap2\n  0x20\n  add\n  swap2\n  swap1\n  0x01\n  add\n  swap1\n  jump(tag_16)\ntag_17:\ntag_13:\n  pop\n  swap1\n  pop\n  tag_18\n  swap2\n  swap1\n  tag_19\n  jump\t// in\ntag_18:\n  pop\n  swap1\n  jump\t// out\ntag_19:\ntag_20:\n  dup1\n  dup3\n  gt\n  iszero\n  tag_21\n  jumpi\n  0x00\n  dup2\n  0x00\n  swap1\n  sstore\n  pop\n  0x01\n  add\n  jump(tag_20)\ntag_21:\n  pop\n  swap1\n  jump\t// out\n    /* \"#utility.yul\":7:360   */\ntag_23:\n  0x00\n    /* \"#utility.yul\":121:186   */\n  tag_25\n    /* \"#utility.yul\":136:185   */\n  tag_26\n    /* \"#utility.yul\":178:184   */\n  dup5\n    /* \"#utility.yul\":136:185   */\n  tag_27\n  jump\t// in\ntag_26:\n    /* \"#utility.yul\":121:186   */\n  tag_28\n  jump\t// in\ntag_25:\n    /* \"#utility.yul\":112:186   */\n  swap1\n  pop\n    /* \"#utility.yul\":209:215   */\n  dup3\n    /* \"#utility.yul\":202:207   */\n  dup2\n    /* \"#utility.yul\":195:216   */\n  mstore\n    /* \"#utility.yul\":247:251   */\n  0x20\n    /* \"#utility.yul\":240:245   */\n  dup2\n    /* \"#utility.yul\":236:252   */\n  add\n    /* \"#utility.yul\":285:288   */\n  dup5\n    /* \"#utility.yul\":276:282   */\n  dup5\n    /* \"#utility.yul\":271:274   */\n  dup5\n    /* \"#utility.yul\":267:283   */\n  add\n    /* \"#utility.yul\":264:289   */\n  gt\n    /* \"#utility.yul\":261:263   */\n  iszero\n  tag_29\n  jumpi\n    /* \"#utility.yul\":302:303   */\n  0x00\n    /* \"#utility.yul\":299:300   */\n  dup1\n    /* \"#utility.yul\":292:304   */\n  revert\n    /* \"#utility.yul\":261:263   */\ntag_29:\n    /* \"#utility.yul\":315:354   */\n  tag_30\n    /* \"#utility.yul\":347:353   */\n  dup5\n    /* \"#utility.yul\":342:345   */\n  dup3\n    /* \"#utility.yul\":337:340   */\n  dup6\n    /* \"#utility.yul\":315:354   */\n  tag_31\n  jump\t// in\ntag_30:\n    /* \"#utility.yul\":102:360   */\n  pop\n  swap4\n  swap3\n  pop\n  pop\n  pop\n  jump\t// out\n    /* \"#utility.yul\":366:509   */\ntag_32:\n  0x00\n    /* \"#utility.yul\":454:460   */\n  dup2\n    /* \"#utility.yul\":448:461   */\n  mload\n    /* \"#utility.yul\":439:461   */\n  swap1\n  pop\n    /* \"#utility.yul\":470:503   */\n  tag_34\n    /* \"#utility.yul\":497:502   */\n  dup2\n    /* \"#utility.yul\":470:503   */\n  tag_35\n  jump\t// in\ntag_34:\n    /* \"#utility.yul\":429:509   */\n  swap3\n  swap2\n  pop\n  pop\n  jump\t// out\n    /* \"#utility.yul\":529:817   */\ntag_36:\n  0x00\n    /* \"#utility.yul\":645:648   */\n  dup3\n    /* \"#utility.yul\":638:642   */\n  0x1f\n    /* \"#utility.yul\":630:636   */\n  dup4\n    /* \"#utility.yul\":626:643   */\n  add\n    /* \"#utility.yul\":622:649   */\n  slt\n    /* \"#utility.yul\":612:614   */\n  tag_38\n  jumpi\n    /* \"#utility.yul\":663:664   */\n  0x00\n    /* \"#utility.yul\":660:661   */\n  dup1\n    /* \"#utility.yul\":653:665   */\n  revert\n    /* \"#utility.yul\":612:614   */\ntag_38:\n    /* \"#utility.yul\":696:702   */\n  dup2\n    /* \"#utility.yul\":690:703   */\n  mload\n    /* \"#utility.yul\":721:811   */\n  tag_39\n    /* \"#utility.yul\":807:810   */\n  dup5\n    /* \"#utility.yul\":799:805   */\n  dup3\n    /* \"#utility.yul\":792:796   */\n  0x20\n    /* \"#utility.yul\":784:790   */\n  dup7\n    /* \"#utility.yul\":780:797   */\n  add\n    /* \"#utility.yul\":721:811   */\n  tag_23\n  jump\t// in\ntag_39:\n    /* \"#utility.yul\":712:811   */\n  swap2\n  pop\n    /* \"#utility.yul\":602:817   */\n  pop\n  swap3\n  swap2\n  pop\n  pop\n  jump\t// out\n    /* \"#utility.yul\":823:1369   */\ntag_3:\n  0x00\n  dup1\n    /* \"#utility.yul\":969:971   */\n  0x40\n    /* \"#utility.yul\":957:966   */\n  dup4\n    /* \"#utility.yul\":948:955   */\n  dup6\n    /* \"#utility.yul\":944:967   */\n  sub\n    /* \"#utility.yul\":940:972   */\n  slt\n    /* \"#utility.yul\":937:939   */\n  iszero\n  tag_41\n  jumpi\n    /* \"#utility.yul\":985:986   */\n  0x00\n    /* \"#utility.yul\":982:983   */\n  dup1\n    /* \"#utility.yul\":975:987   */\n  revert\n    /* \"#utility.yul\":937:939   */\ntag_41:\n    /* \"#utility.yul\":1028:1029   */\n  0x00\n    /* \"#utility.yul\":1053:1117   */\n  tag_42\n    /* \"#utility.yul\":1109:1116   */\n  dup6\n    /* \"#utility.yul\":1100:1106   */\n  dup3\n    /* \"#utility.yul\":1089:1098   */\n  dup7\n    /* \"#utility.yul\":1085:1107   */\n  add\n    /* \"#utility.yul\":1053:1117   */\n  tag_32\n  jump\t// in\ntag_42:\n    /* \"#utility.yul\":1043:1117   */\n  swap3\n  pop\n    /* \"#utility.yul\":999:1127   */\n  pop\n    /* \"#utility.yul\":1187:1189   */\n  0x20\n    /* \"#utility.yul\":1176:1185   */\n  dup4\n    /* \"#utility.yul\":1172:1190   */\n  add\n    /* \"#utility.yul\":1166:1191   */\n  mload\n    /* \"#utility.yul\":1218:1236   */\n  0xffffffffffffffff\n    /* \"#utility.yul\":1210:1216   */\n  dup2\n    /* \"#utility.yul\":1207:1237   */\n  gt\n    /* \"#utility.yul\":1204:1206   */\n  iszero\n  tag_43\n  jumpi\n    /* \"#utility.yul\":1250:1251   */\n  0x00\n    /* \"#utility.yul\":1247:1248   */\n  dup1\n    /* \"#utility.yul\":1240:1252   */\n  revert\n    /* \"#utility.yul\":1204:1206   */\ntag_43:\n    /* \"#utility.yul\":1278:1352   */\n  tag_44\n    /* \"#utility.yul\":1344:1351   */\n  dup6\n    /* \"#utility.yul\":1335:1341   */\n  dup3\n    /* \"#utility.yul\":1324:1333   */\n  dup7\n    /* \"#utility.yul\":1320:1342   */\n  add\n    /* \"#utility.yul\":1278:1352   */\n  tag_36\n  jump\t// in\ntag_44:\n    /* \"#utility.yul\":1268:1352   */\n  swap2\n  pop\n    /* \"#utility.yul\":1137:1362   */\n  pop\n    /* \"#utility.yul\":927:1369   */\n  swap3\n  pop\n  swap3\n  swap1\n  pop\n  jump\t// out\n    /* \"#utility.yul\":1375:1658   */\ntag_28:\n  0x00\n    /* \"#utility.yul\":1441:1443   */\n  0x40\n    /* \"#utility.yul\":1435:1444   */\n  mload\n    /* \"#utility.yul\":1425:1444   */\n  swap1\n  pop\n    /* \"#utility.yul\":1483:1487   */\n  dup2\n    /* \"#utility.yul\":1475:1481   */\n  dup2\n    /* \"#utility.yul\":1471:1488   */\n  add\n    /* \"#utility.yul\":1590:1596   */\n  dup2\n    /* \"#utility.yul\":1578:1588   */\n  dup2\n    /* \"#utility.yul\":1575:1597   */\n  lt\n    /* \"#utility.yul\":1554:1572   */\n  0xffffffffffffffff\n    /* \"#utility.yul\":1542:1552   */\n  dup3\n    /* \"#utility.yul\":1539:1573   */\n  gt\n    /* \"#utility.yul\":1536:1598   */\n  or\n    /* \"#utility.yul\":1533:1535   */\n  iszero\n  tag_46\n  jumpi\n    /* \"#utility.yul\":1601:1619   */\n  tag_47\n  tag_48\n  jump\t// in\ntag_47:\n    /* \"#utility.yul\":1533:1535   */\ntag_46:\n    /* \"#utility.yul\":1641:1651   */\n  dup1\n    /* \"#utility.yul\":1637:1639   */\n  0x40\n    /* \"#utility.yul\":1630:1652   */\n  mstore\n    /* \"#utility.yul\":1415:1658   */\n  pop\n  swap2\n  swap1\n  pop\n  jump\t// out\n    /* \"#utility.yul\":1664:1996   */\ntag_27:\n  0x00\n    /* \"#utility.yul\":1816:1834   */\n  0xffffffffffffffff\n    /* \"#utility.yul\":1808:1814   */\n  dup3\n    /* \"#utility.yul\":1805:1835   */\n  gt\n    /* \"#utility.yul\":1802:1804   */\n  iszero\n  tag_50\n  jumpi\n    /* \"#utility.yul\":1838:1856   */\n  tag_51\n  tag_48\n  jump\t// in\ntag_51:\n    /* \"#utility.yul\":1802:1804   */\ntag_50:\n    /* \"#utility.yul\":1923:1927   */\n  0x1f\n    /* \"#utility.yul\":1919:1928   */\n  not\n    /* \"#utility.yul\":1912:1916   */\n  0x1f\n    /* \"#utility.yul\":1904:1910   */\n  dup4\n    /* \"#utility.yul\":1900:1917   */\n  add\n    /* \"#utility.yul\":1896:1929   */\n  and\n    /* \"#utility.yul\":1888:1929   */\n  swap1\n  pop\n    /* \"#utility.yul\":1984:1988   */\n  0x20\n    /* \"#utility.yul\":1978:1982   */\n  dup2\n    /* \"#utility.yul\":1974:1989   */\n  add\n    /* \"#utility.yul\":1966:1989   */\n  swap1\n  pop\n    /* \"#utility.yul\":1731:1996   */\n  swap2\n  swap1\n  pop\n  jump\t// out\n    /* \"#utility.yul\":2002:2098   */\ntag_52:\n  0x00\n    /* \"#utility.yul\":2068:2092   */\n  tag_54\n    /* \"#utility.yul\":2086:2091   */\n  dup3\n    /* \"#utility.yul\":2068:2092   */\n  tag_55\n  jump\t// in\ntag_54:\n    /* \"#utility.yul\":2057:2092   */\n  swap1\n  pop\n    /* \"#utility.yul\":2047:2098   */\n  swap2\n  swap1\n  pop\n  jump\t// out\n    /* \"#utility.yul\":2104:2230   */\ntag_55:\n  0x00\n    /* \"#utility.yul\":2181:2223   */\n  0xffffffffffffffffffffffffffffffffffffffff\n    /* \"#utility.yul\":2174:2179   */\n  dup3\n    /* \"#utility.yul\":2170:2224   */\n  and\n    /* \"#utility.yul\":2159:2224   */\n  swap1\n  pop\n    /* \"#utility.yul\":2149:2230   */\n  swap2\n  swap1\n  pop\n  jump\t// out\n    /* \"#utility.yul\":2236:2543   */\ntag_31:\n    /* \"#utility.yul\":2304:2305   */\n  0x00\n    /* \"#utility.yul\":2314:2427   */\ntag_58:\n    /* \"#utility.yul\":2328:2334   */\n  dup4\n    /* \"#utility.yul\":2325:2326   */\n  dup2\n    /* \"#utility.yul\":2322:2335   */\n  lt\n    /* \"#utility.yul\":2314:2427   */\n  iszero\n  tag_60\n  jumpi\n    /* \"#utility.yul\":2413:2414   */\n  dup1\n    /* \"#utility.yul\":2408:2411   */\n  dup3\n    /* \"#utility.yul\":2404:2415   */\n  add\n    /* \"#utility.yul\":2398:2416   */\n  mload\n    /* \"#utility.yul\":2394:2395   */\n  dup2\n    /* \"#utility.yul\":2389:2392   */\n  dup5\n    /* \"#utility.yul\":2385:2396   */\n  add\n    /* \"#utility.yul\":2378:2417   */\n  mstore\n    /* \"#utility.yul\":2350:2352   */\n  0x20\n    /* \"#utility.yul\":2347:2348   */\n  dup2\n    /* \"#utility.yul\":2343:2353   */\n  add\n    /* \"#utility.yul\":2338:2353   */\n  swap1\n  pop\n    /* \"#utility.yul\":2314:2427   */\n  jump(tag_58)\ntag_60:\n    /* \"#utility.yul\":2445:2451   */\n  dup4\n    /* \"#utility.yul\":2442:2443   */\n  dup2\n    /* \"#utility.yul\":2439:2452   */\n  gt\n    /* \"#utility.yul\":2436:2438   */\n  iszero\n  tag_61\n  jumpi\n    /* \"#utility.yul\":2525:2526   */\n  0x00\n    /* \"#utility.yul\":2516:2522   */\n  dup5\n    /* \"#utility.yul\":2511:2514   */\n  dup5\n    /* \"#utility.yul\":2507:2523   */\n  add\n    /* \"#utility.yul\":2500:2527   */\n  mstore\n    /* \"#utility.yul\":2436:2438   */\ntag_61:\n    /* \"#utility.yul\":2285:2543   */\n  pop\n  pop\n  pop\n  pop\n  jump\t// out\n    /* \"#utility.yul\":2549:2869   */\ntag_12:\n  0x00\n    /* \"#utility.yul\":2630:2631   */\n  0x02\n    /* \"#utility.yul\":2624:2628   */\n  dup3\n    /* \"#utility.yul\":2620:2632   */\n  div\n    /* \"#utility.yul\":2610:2632   */\n  swap1\n  pop\n    /* \"#utility.yul\":2677:2678   */\n  0x01\n    /* \"#utility.yul\":2671:2675   */\n  dup3\n    /* \"#utility.yul\":2667:2679   */\n  and\n    /* \"#utility.yul\":2698:2716   */\n  dup1\n    /* \"#utility.yul\":2688:2690   */\n  tag_63\n  jumpi\n    /* \"#utility.yul\":2754:2758   */\n  0x7f\n    /* \"#utility.yul\":2746:2752   */\n  dup3\n    /* \"#utility.yul\":2742:2759   */\n  and\n    /* \"#utility.yul\":2732:2759   */\n  swap2\n  pop\n    /* \"#utility.yul\":2688:2690   */\ntag_63:\n    /* \"#utility.yul\":2816:2818   */\n  0x20\n    /* \"#utility.yul\":2808:2814   */\n  dup3\n    /* \"#utility.yul\":2805:2819   */\n  lt\n    /* \"#utility.yul\":2785:2803   */\n  dup2\n    /* \"#utility.yul\":2782:2820   */\n  eq\n    /* \"#utility.yul\":2779:2781   */\n  iszero\n  tag_64\n  jumpi\n    /* \"#utility.yul\":2835:2853   */\n  tag_65\n  tag_66\n  jump\t// in\ntag_65:\n    /* \"#utility.yul\":2779:2781   */\ntag_64:\n    /* \"#utility.yul\":2600:2869   */\n  pop\n  swap2\n  swap1\n  pop\n  jump\t// out\n    /* \"#utility.yul\":2875:3055   */\ntag_66:\n    /* \"#utility.yul\":2923:3000   */\n  0x4e487b7100000000000000000000000000000000000000000000000000000000\n    /* \"#utility.yul\":2920:2921   */\n  0x00\n    /* \"#utility.yul\":2913:3001   */\n  mstore\n    /* \"#utility.yul\":3020:3024   */\n  0x22\n    /* \"#utility.yul\":3017:3018   */\n  0x04\n    /* \"#utility.yul\":3010:3025   */\n  mstore\n    /* \"#utility.yul\":3044:3048   */\n  0x24\n    /* \"#utility.yul\":3041:3042   */\n  0x00\n    /* \"#utility.yul\":3034:3049   */\n  revert\n    /* \"#utility.yul\":3061:3241   */\ntag_48:\n    /* \"#utility.yul\":3109:3186   */\n  0x4e487b7100000000000000000000000000000000000000000000000000000000\n    /* \"#utility.yul\":3106:3107   */\n  0x00\n    /* \"#utility.yul\":3099:3187   */\n  mstore\n    /* \"#utility.yul\":3206:3210   */\n  0x41\n    /* \"#utility.yul\":3203:3204   */\n  0x04\n    /* \"#utility.yul\":3196:3211   */\n  mstore\n    /* \"#utility.yul\":3230:3234   */\n  0x24\n    /* \"#utility.yul\":3227:3228   */\n  0x00\n    /* \"#utility.yul\":3220:3235   */\n  revert\n    /* \"#utility.yul\":3247:3369   */\ntag_35:\n    /* \"#utility.yul\":3320:3344   */\n  tag_70\n    /* \"#utility.yul\":3338:3343   */\n  dup2\n    /* \"#utility.yul\":3320:3344   */\n  tag_52\n  jump\t// in\ntag_70:\n    /* \"#utility.yul\":3313:3318   */\n  dup2\n    /* \"#utility.yul\":3310:3345   */\n  eq\n    /* \"#utility.yul\":3300:3302   */\n  tag_71\n  jumpi\n    /* \"#utility.yul\":3359:3360   */\n  0x00\n    /* \"#utility.yul\":3356:3357   */\n  dup1\n    /* \"#utility.yul\":3349:3361   */\n  revert\n    /* \"#utility.yul\":3300:3302   */\ntag_71:\n    /* \"#utility.yul\":3290:3369   */\n  pop\n  jump\t// out\n    /* \"contracts/newBuilding.sol\":137:10825  contract newBuilding {\r... */\ntag_10:\n  dataSize(sub_0)\n  dup1\n  dataOffset(sub_0)\n  0x00\n  codecopy\n  0x00\n  return\nstop\n\nsub_0: assembly {\n        /* \"contracts/newBuilding.sol\":137:10825  contract newBuilding {\r... */\n      mstore(0x40, 0x80)\n      callvalue\n      dup1\n      iszero\n      tag_1\n      jumpi\n      0x00\n      dup1\n      revert\n    tag_1:\n      pop\n      jumpi(tag_2, lt(calldatasize, 0x04))\n      shr(0xe0, calldataload(0x00))\n      dup1\n      0x401d5026\n      gt\n      tag_12\n      jumpi\n      dup1\n      0x401d5026\n      eq\n      tag_7\n      jumpi\n      dup1\n      0x64fbc026\n      eq\n      tag_8\n      jumpi\n      dup1\n      0x784b5031\n      eq\n      tag_9\n      jumpi\n      dup1\n      0x909fc14a\n      eq\n      tag_10\n      jumpi\n      dup1\n      0xbd8976c4\n      eq\n      tag_11\n      jumpi\n      jump(tag_2)\n    tag_12:\n      dup1\n      0x0eccf4f0\n      eq\n      tag_3\n      jumpi\n      dup1\n      0x25a6c545\n      eq\n      tag_4\n      jumpi\n      dup1\n      0x27dd978f\n      eq\n      tag_5\n      jumpi\n      dup1\n      0x2968a545\n      eq\n      tag_6\n      jumpi\n    tag_2:\n      0x00\n      dup1\n      revert\n        /* \"contracts/newBuilding.sol\":5964:6832  function showSupplyChain (uint assignId) public view returns (string memory chainOfSupply) {\r... */\n    tag_3:\n      tag_13\n      0x04\n      dup1\n      calldatasize\n      sub\n      dup2\n      add\n      swap1\n      tag_14\n      swap2\n      swap1\n      tag_15\n      jump\t// in\n    tag_14:\n      tag_16\n      jump\t// in\n    tag_13:\n      mload(0x40)\n      tag_17\n      swap2\n      swap1\n      tag_18\n      jump\t// in\n    tag_17:\n      mload(0x40)\n      dup1\n      swap2\n      sub\n      swap1\n      return\n        /* \"contracts/newBuilding.sol\":3251:3759  function generalInfo () public view returns (string memory generalInformation) {\r... */\n    tag_4:\n      tag_19\n      tag_20\n      jump\t// in\n    tag_19:\n      mload(0x40)\n      tag_21\n      swap2\n      swap1\n      tag_18\n      jump\t// in\n    tag_21:\n      mload(0x40)\n      dup1\n      swap2\n      sub\n      swap1\n      return\n        /* \"contracts/newBuilding.sol\":6936:7567  function showAllRegisteredContractors() public view returns (string memory allContractors) {\r... */\n    tag_5:\n      tag_22\n      tag_23\n      jump\t// in\n    tag_22:\n      mload(0x40)\n      tag_24\n      swap2\n      swap1\n      tag_18\n      jump\t// in\n    tag_24:\n      mload(0x40)\n      dup1\n      swap2\n      sub\n      swap1\n      return\n        /* \"contracts/newBuilding.sol\":4656:5838  function showOverviewOfMaterial (string memory material) public view returns  (string memory batchesList) { \r... */\n    tag_6:\n      tag_25\n      0x04\n      dup1\n      calldatasize\n      sub\n      dup2\n      add\n      swap1\n      tag_26\n      swap2\n      swap1\n      tag_27\n      jump\t// in\n    tag_26:\n      tag_28\n      jump\t// in\n    tag_25:\n      mload(0x40)\n      tag_29\n      swap2\n      swap1\n      tag_18\n      jump\t// in\n    tag_29:\n      mload(0x40)\n      dup1\n      swap2\n      sub\n      swap1\n      return\n        /* \"contracts/newBuilding.sol\":8888:9930  function assignMaterial (string memory material, address batchAddress, uint quantity, string memory unit, supplier[] memory chain) public onlyByRegisteredContractor disabledContract { \r... */\n    tag_7:\n      tag_30\n      0x04\n      dup1\n      calldatasize\n      sub\n      dup2\n      add\n      swap1\n      tag_31\n      swap2\n      swap1\n      tag_32\n      jump\t// in\n    tag_31:\n      tag_33\n      jump\t// in\n    tag_30:\n      stop\n        /* \"contracts/newBuilding.sol\":4044:4474  function showListOfMaterials () public view returns (string memory materialsList ) {\r... */\n    tag_8:\n      tag_34\n      tag_35\n      jump\t// in\n    tag_34:\n      mload(0x40)\n      tag_36\n      swap2\n      swap1\n      tag_18\n      jump\t// in\n    tag_36:\n      mload(0x40)\n      dup1\n      swap2\n      sub\n      swap1\n      return\n        /* \"contracts/newBuilding.sol\":10474:10682  function disableOrEnableContract () external {\r... */\n    tag_9:\n      tag_37\n      tag_38\n      jump\t// in\n    tag_37:\n      stop\n        /* \"contracts/newBuilding.sol\":3777:3828  mapping (address => string) public BatchCertificate */\n    tag_10:\n      tag_39\n      0x04\n      dup1\n      calldatasize\n      sub\n      dup2\n      add\n      swap1\n      tag_40\n      swap2\n      swap1\n      tag_41\n      jump\t// in\n    tag_40:\n      tag_42\n      jump\t// in\n    tag_39:\n      mload(0x40)\n      tag_43\n      swap2\n      swap1\n      tag_18\n      jump\t// in\n    tag_43:\n      mload(0x40)\n      dup1\n      swap2\n      sub\n      swap1\n      return\n        /* \"contracts/newBuilding.sol\":7993:8355  function addContractor ( address contractor_Address, string memory name_ ) public onlyByDeveloper disabledContract {\r... */\n    tag_11:\n      tag_44\n      0x04\n      dup1\n      calldatasize\n      sub\n      dup2\n      add\n      swap1\n      tag_45\n      swap2\n      swap1\n      tag_46\n      jump\t// in\n    tag_45:\n      tag_47\n      jump\t// in\n    tag_44:\n      stop\n        /* \"contracts/newBuilding.sol\":5964:6832  function showSupplyChain (uint assignId) public view returns (string memory chainOfSupply) {\r... */\n    tag_16:\n        /* \"contracts/newBuilding.sol\":6026:6053  string memory chainOfSupply */\n      0x60\n        /* \"contracts/newBuilding.sol\":6112:6116  true */\n      0x01\n        /* \"contracts/newBuilding.sol\":6074:6116  (supplyChain[assignId].length > 0) == true */\n      iszero\n      iszero\n        /* \"contracts/newBuilding.sol\":6106:6107  0 */\n      0x00\n        /* \"contracts/newBuilding.sol\":6075:6086  supplyChain */\n      0x04\n        /* \"contracts/newBuilding.sol\":6075:6096  supplyChain[assignId] */\n      0x00\n        /* \"contracts/newBuilding.sol\":6087:6095  assignId */\n      dup6\n        /* \"contracts/newBuilding.sol\":6075:6096  supplyChain[assignId] */\n      dup2\n      mstore\n      0x20\n      add\n      swap1\n      dup2\n      mstore\n      0x20\n      add\n      0x00\n      keccak256\n        /* \"contracts/newBuilding.sol\":6075:6103  supplyChain[assignId].length */\n      dup1\n      sload\n      swap1\n      pop\n        /* \"contracts/newBuilding.sol\":6075:6107  supplyChain[assignId].length > 0 */\n      gt\n        /* \"contracts/newBuilding.sol\":6074:6116  (supplyChain[assignId].length > 0) == true */\n      iszero\n      iszero\n      eq\n        /* \"contracts/newBuilding.sol\":6066:6178  require((supplyChain[assignId].length > 0) == true, \"Please try again as requested batch address was not found\") */\n      tag_49\n      jumpi\n      mload(0x40)\n      0x08c379a000000000000000000000000000000000000000000000000000000000\n      dup2\n      mstore\n      0x04\n      add\n      tag_50\n      swap1\n      tag_51\n      jump\t// in\n    tag_50:\n      mload(0x40)\n      dup1\n      swap2\n      sub\n      swap1\n      revert\n    tag_49:\n        /* \"contracts/newBuilding.sol\":6189:6210  chainOfSupply = \":\\n\" */\n      mload(0x40)\n      dup1\n      0x40\n      add\n      0x40\n      mstore\n      dup1\n      0x02\n      dup2\n      mstore\n      0x20\n      add\n      0x3a0a000000000000000000000000000000000000000000000000000000000000\n      dup2\n      mstore\n      pop\n      swap1\n      pop\n        /* \"contracts/newBuilding.sol\":6221:6256  string memory  supplier_address_str */\n      0x60\n        /* \"contracts/newBuilding.sol\":6267:6294  string memory supplier_name */\n      dup1\n        /* \"contracts/newBuilding.sol\":6320:6326  uint i */\n      0x00\n        /* \"contracts/newBuilding.sol\":6315:6784  for (uint i=0; i<supplyChain[assignId].length; i++) {\r... */\n    tag_52:\n        /* \"contracts/newBuilding.sol\":6332:6343  supplyChain */\n      0x04\n        /* \"contracts/newBuilding.sol\":6332:6353  supplyChain[assignId] */\n      0x00\n        /* \"contracts/newBuilding.sol\":6344:6352  assignId */\n      dup7\n        /* \"contracts/newBuilding.sol\":6332:6353  supplyChain[assignId] */\n      dup2\n      mstore\n      0x20\n      add\n      swap1\n      dup2\n      mstore\n      0x20\n      add\n      0x00\n      keccak256\n        /* \"contracts/newBuilding.sol\":6332:6360  supplyChain[assignId].length */\n      dup1\n      sload\n      swap1\n      pop\n        /* \"contracts/newBuilding.sol\":6330:6331  i */\n      dup2\n        /* \"contracts/newBuilding.sol\":6330:6360  i<supplyChain[assignId].length */\n      lt\n        /* \"contracts/newBuilding.sol\":6315:6784  for (uint i=0; i<supplyChain[assignId].length; i++) {\r... */\n      iszero\n      tag_53\n      jumpi\n        /* \"contracts/newBuilding.sol\":6405:6466  Strings.toHexString(supplyChain[assignId][i].supplierAddress) */\n      tag_55\n        /* \"contracts/newBuilding.sol\":6425:6436  supplyChain */\n      0x04\n        /* \"contracts/newBuilding.sol\":6425:6446  supplyChain[assignId] */\n      0x00\n        /* \"contracts/newBuilding.sol\":6437:6445  assignId */\n      dup8\n        /* \"contracts/newBuilding.sol\":6425:6446  supplyChain[assignId] */\n      dup2\n      mstore\n      0x20\n      add\n      swap1\n      dup2\n      mstore\n      0x20\n      add\n      0x00\n      keccak256\n        /* \"contracts/newBuilding.sol\":6447:6448  i */\n      dup3\n        /* \"contracts/newBuilding.sol\":6425:6449  supplyChain[assignId][i] */\n      dup2\n      sload\n      dup2\n      lt\n      tag_56\n      jumpi\n      mstore(0x00, 0x4e487b7100000000000000000000000000000000000000000000000000000000)\n      mstore(0x04, 0x32)\n      revert(0x00, 0x24)\n    tag_56:\n      swap1\n      0x00\n      mstore\n      keccak256(0x00, 0x20)\n      swap1\n      0x02\n      mul\n      add\n        /* \"contracts/newBuilding.sol\":6425:6465  supplyChain[assignId][i].supplierAddress */\n      0x00\n      add\n      0x00\n      swap1\n      sload\n      swap1\n      0x0100\n      exp\n      swap1\n      div\n      0xffffffffffffffffffffffffffffffffffffffff\n      and\n        /* \"contracts/newBuilding.sol\":6405:6424  Strings.toHexString */\n      tag_58\n        /* \"contracts/newBuilding.sol\":6405:6466  Strings.toHexString(supplyChain[assignId][i].supplierAddress) */\n      jump\t// in\n    tag_55:\n        /* \"contracts/newBuilding.sol\":6382:6466  supplier_address_str = Strings.toHexString(supplyChain[assignId][i].supplierAddress) */\n      swap3\n      pop\n        /* \"contracts/newBuilding.sol\":6497:6508  supplyChain */\n      0x04\n        /* \"contracts/newBuilding.sol\":6497:6518  supplyChain[assignId] */\n      0x00\n        /* \"contracts/newBuilding.sol\":6509:6517  assignId */\n      dup7\n        /* \"contracts/newBuilding.sol\":6497:6518  supplyChain[assignId] */\n      dup2\n      mstore\n      0x20\n      add\n      swap1\n      dup2\n      mstore\n      0x20\n      add\n      0x00\n      keccak256\n        /* \"contracts/newBuilding.sol\":6519:6520  i */\n      dup2\n        /* \"contracts/newBuilding.sol\":6497:6521  supplyChain[assignId][i] */\n      dup2\n      sload\n      dup2\n      lt\n      tag_59\n      jumpi\n      mstore(0x00, 0x4e487b7100000000000000000000000000000000000000000000000000000000)\n      mstore(0x04, 0x32)\n      revert(0x00, 0x24)\n    tag_59:\n      swap1\n      0x00\n      mstore\n      keccak256(0x00, 0x20)\n      swap1\n      0x02\n      mul\n      add\n        /* \"contracts/newBuilding.sol\":6497:6534  supplyChain[assignId][i].supplierName */\n      0x01\n      add\n        /* \"contracts/newBuilding.sol\":6481:6534  supplier_name = supplyChain[assignId][i].supplierName */\n      dup1\n      sload\n      tag_61\n      swap1\n      tag_62\n      jump\t// in\n    tag_61:\n      dup1\n      0x1f\n      add\n      0x20\n      dup1\n      swap2\n      div\n      mul\n      0x20\n      add\n      mload(0x40)\n      swap1\n      dup2\n      add\n      0x40\n      mstore\n      dup1\n      swap3\n      swap2\n      swap1\n      dup2\n      dup2\n      mstore\n      0x20\n      add\n      dup3\n      dup1\n      sload\n      tag_63\n      swap1\n      tag_62\n      jump\t// in\n    tag_63:\n      dup1\n      iszero\n      tag_64\n      jumpi\n      dup1\n      0x1f\n      lt\n      tag_65\n      jumpi\n      0x0100\n      dup1\n      dup4\n      sload\n      div\n      mul\n      dup4\n      mstore\n      swap2\n      0x20\n      add\n      swap2\n      jump(tag_64)\n    tag_65:\n      dup3\n      add\n      swap2\n      swap1\n      0x00\n      mstore\n      keccak256(0x00, 0x20)\n      swap1\n    tag_66:\n      dup2\n      sload\n      dup2\n      mstore\n      swap1\n      0x01\n      add\n      swap1\n      0x20\n      add\n      dup1\n      dup4\n      gt\n      tag_66\n      jumpi\n      dup3\n      swap1\n      sub\n      0x1f\n      and\n      dup3\n      add\n      swap2\n    tag_64:\n      pop\n      pop\n      pop\n      pop\n      pop\n      swap2\n      pop\n        /* \"contracts/newBuilding.sol\":6604:6617  chainOfSupply */\n      dup4\n        /* \"contracts/newBuilding.sol\":6626:6646  supplier_address_str */\n      dup4\n        /* \"contracts/newBuilding.sol\":6656:6669  supplier_name */\n      dup4\n        /* \"contracts/newBuilding.sol\":6586:6681  abi.encodePacked( chainOfSupply, \" ( \", supplier_address_str, \" -> \", supplier_name , \" ) \\n\" ) */\n      add(0x20, mload(0x40))\n      tag_67\n      swap4\n      swap3\n      swap2\n      swap1\n      tag_68\n      jump\t// in\n    tag_67:\n      mload(0x40)\n      0x20\n      dup2\n      dup4\n      sub\n      sub\n      dup2\n      mstore\n      swap1\n      0x40\n      mstore\n        /* \"contracts/newBuilding.sol\":6563:6682  chainOfSupply = string(abi.encodePacked( chainOfSupply, \" ( \", supplier_address_str, \" -> \", supplier_name , \" ) \\n\" )) */\n      swap4\n      pop\n        /* \"contracts/newBuilding.sol\":6362:6365  i++ */\n      dup1\n      dup1\n      tag_69\n      swap1\n      tag_70\n      jump\t// in\n    tag_69:\n      swap2\n      pop\n      pop\n        /* \"contracts/newBuilding.sol\":6315:6784  for (uint i=0; i<supplyChain[assignId].length; i++) {\r... */\n      jump(tag_52)\n    tag_53:\n      pop\n        /* \"contracts/newBuilding.sol\":6804:6824  return chainOfSupply */\n      pop\n      pop\n        /* \"contracts/newBuilding.sol\":5964:6832  function showSupplyChain (uint assignId) public view returns (string memory chainOfSupply) {\r... */\n      swap2\n      swap1\n      pop\n      jump\t// out\n        /* \"contracts/newBuilding.sol\":3251:3759  function generalInfo () public view returns (string memory generalInformation) {\r... */\n    tag_20:\n        /* \"contracts/newBuilding.sol\":3296:3328  string memory generalInformation */\n      0x60\n        /* \"contracts/newBuilding.sol\":3341:3372  string memory developerAddr_str */\n      0x00\n        /* \"contracts/newBuilding.sol\":3375:3405  Strings.toHexString(Developer) */\n      tag_72\n        /* \"contracts/newBuilding.sol\":3395:3404  Developer */\n      0x07\n      0x00\n      swap1\n      sload\n      swap1\n      0x0100\n      exp\n      swap1\n      div\n      0xffffffffffffffffffffffffffffffffffffffff\n      and\n        /* \"contracts/newBuilding.sol\":3375:3394  Strings.toHexString */\n      tag_58\n        /* \"contracts/newBuilding.sol\":3375:3405  Strings.toHexString(Developer) */\n      jump\t// in\n    tag_72:\n        /* \"contracts/newBuilding.sol\":3341:3405  string memory developerAddr_str = Strings.toHexString(Developer) */\n      swap1\n      pop\n        /* \"contracts/newBuilding.sol\":3416:3446  string memory buildingAddr_str */\n      0x00\n        /* \"contracts/newBuilding.sol\":3449:3485  Strings.toHexString(BuildingAddress) */\n      tag_73\n        /* \"contracts/newBuilding.sol\":3469:3484  BuildingAddress */\n      0x08\n      0x00\n      swap1\n      sload\n      swap1\n      0x0100\n      exp\n      swap1\n      div\n      0xffffffffffffffffffffffffffffffffffffffff\n      and\n        /* \"contracts/newBuilding.sol\":3449:3468  Strings.toHexString */\n      tag_58\n        /* \"contracts/newBuilding.sol\":3449:3485  Strings.toHexString(BuildingAddress) */\n      jump\t// in\n    tag_73:\n        /* \"contracts/newBuilding.sol\":3416:3485  string memory buildingAddr_str = Strings.toHexString(BuildingAddress) */\n      swap1\n      pop\n        /* \"contracts/newBuilding.sol\":3572:3584  BuildingName */\n      0x09\n        /* \"contracts/newBuilding.sol\":3626:3642  buildingAddr_str */\n      dup2\n        /* \"contracts/newBuilding.sol\":3685:3702  developerAddr_str */\n      dup4\n        /* \"contracts/newBuilding.sol\":3524:3714  abi.encodePacked( \"(Building's Name: \", \" -> \", BuildingName, \" ) \", \"(Building's Address: \", \" -> \", buildingAddr_str, \" ) \", \"(Developer's Address: \", \" -> \", developerAddr_str , \" ) \\n\" ) */\n      add(0x20, mload(0x40))\n      tag_74\n      swap4\n      swap3\n      swap2\n      swap1\n      tag_75\n      jump\t// in\n    tag_74:\n      mload(0x40)\n      0x20\n      dup2\n      dup4\n      sub\n      sub\n      dup2\n      mstore\n      swap1\n      0x40\n      mstore\n        /* \"contracts/newBuilding.sol\":3496:3715  generalInformation = string(abi.encodePacked( \"(Building's Name: \", \" -> \", BuildingName, \" ) \", \"(Building's Address: \", \" -> \", buildingAddr_str, \" ) \", \"(Developer's Address: \", \" -> \", developerAddr_str , \" ) \\n\" )) */\n      swap3\n      pop\n        /* \"contracts/newBuilding.sol\":3726:3751  return generalInformation */\n      pop\n      pop\n        /* \"contracts/newBuilding.sol\":3251:3759  function generalInfo () public view returns (string memory generalInformation) {\r... */\n      swap1\n      jump\t// out\n        /* \"contracts/newBuilding.sol\":6936:7567  function showAllRegisteredContractors() public view returns (string memory allContractors) {\r... */\n    tag_23:\n        /* \"contracts/newBuilding.sol\":6997:7025  string memory allContractors */\n      0x60\n        /* \"contracts/newBuilding.sol\":7038:7060  allContractors = \":\\n\" */\n      mload(0x40)\n      dup1\n      0x40\n      add\n      0x40\n      mstore\n      dup1\n      0x02\n      dup2\n      mstore\n      0x20\n      add\n      0x3a0a000000000000000000000000000000000000000000000000000000000000\n      dup2\n      mstore\n      pop\n      swap1\n      pop\n        /* \"contracts/newBuilding.sol\":7071:7108  string memory  contractor_address_str */\n      0x60\n        /* \"contracts/newBuilding.sol\":7119:7148  string memory contractor_name */\n      dup1\n        /* \"contracts/newBuilding.sol\":7164:7170  uint i */\n      0x00\n        /* \"contracts/newBuilding.sol\":7159:7528  for (uint i=0; i<allContractorsAddresses.length; i++) {\r... */\n    tag_77:\n        /* \"contracts/newBuilding.sol\":7176:7199  allContractorsAddresses */\n      0x05\n        /* \"contracts/newBuilding.sol\":7176:7206  allContractorsAddresses.length */\n      dup1\n      sload\n      swap1\n      pop\n        /* \"contracts/newBuilding.sol\":7174:7175  i */\n      dup2\n        /* \"contracts/newBuilding.sol\":7174:7206  i<allContractorsAddresses.length */\n      lt\n        /* \"contracts/newBuilding.sol\":7159:7528  for (uint i=0; i<allContractorsAddresses.length; i++) {\r... */\n      iszero\n      tag_78\n      jumpi\n        /* \"contracts/newBuilding.sol\":7252:7299  Strings.toHexString(allContractorsAddresses[i]) */\n      tag_80\n        /* \"contracts/newBuilding.sol\":7272:7295  allContractorsAddresses */\n      0x05\n        /* \"contracts/newBuilding.sol\":7296:7297  i */\n      dup3\n        /* \"contracts/newBuilding.sol\":7272:7298  allContractorsAddresses[i] */\n      dup2\n      sload\n      dup2\n      lt\n      tag_81\n      jumpi\n      mstore(0x00, 0x4e487b7100000000000000000000000000000000000000000000000000000000)\n      mstore(0x04, 0x32)\n      revert(0x00, 0x24)\n    tag_81:\n      swap1\n      0x00\n      mstore\n      keccak256(0x00, 0x20)\n      add\n      0x00\n      swap1\n      sload\n      swap1\n      0x0100\n      exp\n      swap1\n      div\n      0xffffffffffffffffffffffffffffffffffffffff\n      and\n        /* \"contracts/newBuilding.sol\":7252:7271  Strings.toHexString */\n      tag_58\n        /* \"contracts/newBuilding.sol\":7252:7299  Strings.toHexString(allContractorsAddresses[i]) */\n      jump\t// in\n    tag_80:\n        /* \"contracts/newBuilding.sol\":7227:7299  contractor_address_str = Strings.toHexString(allContractorsAddresses[i]) */\n      swap3\n      pop\n        /* \"contracts/newBuilding.sol\":7331:7348  listOfContractors */\n      0x06\n        /* \"contracts/newBuilding.sol\":7331:7376  listOfContractors[allContractorsAddresses[i]] */\n      0x00\n        /* \"contracts/newBuilding.sol\":7349:7372  allContractorsAddresses */\n      0x05\n        /* \"contracts/newBuilding.sol\":7373:7374  i */\n      dup4\n        /* \"contracts/newBuilding.sol\":7349:7375  allContractorsAddresses[i] */\n      dup2\n      sload\n      dup2\n      lt\n      tag_83\n      jumpi\n      mstore(0x00, 0x4e487b7100000000000000000000000000000000000000000000000000000000)\n      mstore(0x04, 0x32)\n      revert(0x00, 0x24)\n    tag_83:\n      swap1\n      0x00\n      mstore\n      keccak256(0x00, 0x20)\n      add\n      0x00\n      swap1\n      sload\n      swap1\n      0x0100\n      exp\n      swap1\n      div\n      0xffffffffffffffffffffffffffffffffffffffff\n      and\n        /* \"contracts/newBuilding.sol\":7331:7376  listOfContractors[allContractorsAddresses[i]] */\n      0xffffffffffffffffffffffffffffffffffffffff\n      and\n      0xffffffffffffffffffffffffffffffffffffffff\n      and\n      dup2\n      mstore\n      0x20\n      add\n      swap1\n      dup2\n      mstore\n      0x20\n      add\n      0x00\n      keccak256\n        /* \"contracts/newBuilding.sol\":7313:7376  contractor_name = listOfContractors[allContractorsAddresses[i]] */\n      dup1\n      sload\n      tag_85\n      swap1\n      tag_62\n      jump\t// in\n    tag_85:\n      dup1\n      0x1f\n      add\n      0x20\n      dup1\n      swap2\n      div\n      mul\n      0x20\n      add\n      mload(0x40)\n      swap1\n      dup2\n      add\n      0x40\n      mstore\n      dup1\n      swap3\n      swap2\n      swap1\n      dup2\n      dup2\n      mstore\n      0x20\n      add\n      dup3\n      dup1\n      sload\n      tag_86\n      swap1\n      tag_62\n      jump\t// in\n    tag_86:\n      dup1\n      iszero\n      tag_87\n      jumpi\n      dup1\n      0x1f\n      lt\n      tag_88\n      jumpi\n      0x0100\n      dup1\n      dup4\n      sload\n      div\n      mul\n      dup4\n      mstore\n      swap2\n      0x20\n      add\n      swap2\n      jump(tag_87)\n    tag_88:\n      dup3\n      add\n      swap2\n      swap1\n      0x00\n      mstore\n      keccak256(0x00, 0x20)\n      swap1\n    tag_89:\n      dup2\n      sload\n      dup2\n      mstore\n      swap1\n      0x01\n      add\n      swap1\n      0x20\n      add\n      dup1\n      dup4\n      gt\n      tag_89\n      jumpi\n      dup3\n      swap1\n      sub\n      0x1f\n      and\n      dup3\n      add\n      swap2\n    tag_87:\n      pop\n      pop\n      pop\n      pop\n      pop\n      swap2\n      pop\n        /* \"contracts/newBuilding.sol\":7432:7446  allContractors */\n      dup4\n        /* \"contracts/newBuilding.sol\":7455:7477  contractor_address_str */\n      dup4\n        /* \"contracts/newBuilding.sol\":7488:7503  contractor_name */\n      dup4\n        /* \"contracts/newBuilding.sol\":7414:7515  abi.encodePacked( allContractors, \" ( \", contractor_address_str , \" -> \", contractor_name , \" ) \\n\" ) */\n      add(0x20, mload(0x40))\n      tag_90\n      swap4\n      swap3\n      swap2\n      swap1\n      tag_68\n      jump\t// in\n    tag_90:\n      mload(0x40)\n      0x20\n      dup2\n      dup4\n      sub\n      sub\n      dup2\n      mstore\n      swap1\n      0x40\n      mstore\n        /* \"contracts/newBuilding.sol\":7390:7516  allContractors = string(abi.encodePacked( allContractors, \" ( \", contractor_address_str , \" -> \", contractor_name , \" ) \\n\" )) */\n      swap4\n      pop\n        /* \"contracts/newBuilding.sol\":7208:7211  i++ */\n      dup1\n      dup1\n      tag_91\n      swap1\n      tag_70\n      jump\t// in\n    tag_91:\n      swap2\n      pop\n      pop\n        /* \"contracts/newBuilding.sol\":7159:7528  for (uint i=0; i<allContractorsAddresses.length; i++) {\r... */\n      jump(tag_77)\n    tag_78:\n      pop\n        /* \"contracts/newBuilding.sol\":7538:7559  return allContractors */\n      pop\n      pop\n        /* \"contracts/newBuilding.sol\":6936:7567  function showAllRegisteredContractors() public view returns (string memory allContractors) {\r... */\n      swap1\n      jump\t// out\n        /* \"contracts/newBuilding.sol\":4656:5838  function showOverviewOfMaterial (string memory material) public view returns  (string memory batchesList) { \r... */\n    tag_28:\n        /* \"contracts/newBuilding.sol\":4735:4760  string memory batchesList */\n      0x60\n        /* \"contracts/newBuilding.sol\":4900:4904  true */\n      0x01\n        /* \"contracts/newBuilding.sol\":4860:4904  (listOfBatches[material].length > 0) == true */\n      iszero\n      iszero\n        /* \"contracts/newBuilding.sol\":4894:4895  0 */\n      0x00\n        /* \"contracts/newBuilding.sol\":4861:4874  listOfBatches */\n      0x03\n        /* \"contracts/newBuilding.sol\":4875:4883  material */\n      dup5\n        /* \"contracts/newBuilding.sol\":4861:4884  listOfBatches[material] */\n      mload(0x40)\n      tag_93\n      swap2\n      swap1\n      tag_94\n      jump\t// in\n    tag_93:\n      swap1\n      dup2\n      mstore\n      0x20\n      add\n      mload(0x40)\n      dup1\n      swap2\n      sub\n      swap1\n      keccak256\n        /* \"contracts/newBuilding.sol\":4861:4891  listOfBatches[material].length */\n      dup1\n      sload\n      swap1\n      pop\n        /* \"contracts/newBuilding.sol\":4861:4895  listOfBatches[material].length > 0 */\n      gt\n        /* \"contracts/newBuilding.sol\":4860:4904  (listOfBatches[material].length > 0) == true */\n      iszero\n      iszero\n      eq\n        /* \"contracts/newBuilding.sol\":4852:4961  require((listOfBatches[material].length > 0) == true, \"Please try again as requested material was not found\") */\n      tag_95\n      jumpi\n      mload(0x40)\n      0x08c379a000000000000000000000000000000000000000000000000000000000\n      dup2\n      mstore\n      0x04\n      add\n      tag_96\n      swap1\n      tag_97\n      jump\t// in\n    tag_96:\n      mload(0x40)\n      dup1\n      swap2\n      sub\n      swap1\n      revert\n    tag_95:\n        /* \"contracts/newBuilding.sol\":4981:5000  batchesList = \":\\n\" */\n      mload(0x40)\n      dup1\n      0x40\n      add\n      0x40\n      mstore\n      dup1\n      0x02\n      dup2\n      mstore\n      0x20\n      add\n      0x3a0a000000000000000000000000000000000000000000000000000000000000\n      dup2\n      mstore\n      pop\n      swap1\n      pop\n        /* \"contracts/newBuilding.sol\":5011:5031  string memory id_str */\n      0x60\n        /* \"contracts/newBuilding.sol\":5042:5068  string memory contract_str */\n      dup1\n        /* \"contracts/newBuilding.sol\":5079:5105  string memory quantity_str */\n      0x60\n        /* \"contracts/newBuilding.sol\":5117:5139  string memory unit_str */\n      dup1\n        /* \"contracts/newBuilding.sol\":5155:5161  uint i */\n      0x00\n        /* \"contracts/newBuilding.sol\":5150:5792  for (uint i=0; i<listOfBatches[material].length; i++) {\r... */\n    tag_98:\n        /* \"contracts/newBuilding.sol\":5167:5180  listOfBatches */\n      0x03\n        /* \"contracts/newBuilding.sol\":5181:5189  material */\n      dup8\n        /* \"contracts/newBuilding.sol\":5167:5190  listOfBatches[material] */\n      mload(0x40)\n      tag_101\n      swap2\n      swap1\n      tag_94\n      jump\t// in\n    tag_101:\n      swap1\n      dup2\n      mstore\n      0x20\n      add\n      mload(0x40)\n      dup1\n      swap2\n      sub\n      swap1\n      keccak256\n        /* \"contracts/newBuilding.sol\":5167:5197  listOfBatches[material].length */\n      dup1\n      sload\n      swap1\n      pop\n        /* \"contracts/newBuilding.sol\":5165:5166  i */\n      dup2\n        /* \"contracts/newBuilding.sol\":5165:5197  i<listOfBatches[material].length */\n      lt\n        /* \"contracts/newBuilding.sol\":5150:5792  for (uint i=0; i<listOfBatches[material].length; i++) {\r... */\n      iszero\n      tag_99\n      jumpi\n        /* \"contracts/newBuilding.sol\":5228:5286  Strings.toString(listOfBatches[material][i].assignementId) */\n      tag_102\n        /* \"contracts/newBuilding.sol\":5245:5258  listOfBatches */\n      0x03\n        /* \"contracts/newBuilding.sol\":5259:5267  material */\n      dup9\n        /* \"contracts/newBuilding.sol\":5245:5268  listOfBatches[material] */\n      mload(0x40)\n      tag_103\n      swap2\n      swap1\n      tag_94\n      jump\t// in\n    tag_103:\n      swap1\n      dup2\n      mstore\n      0x20\n      add\n      mload(0x40)\n      dup1\n      swap2\n      sub\n      swap1\n      keccak256\n        /* \"contracts/newBuilding.sol\":5269:5270  i */\n      dup3\n        /* \"contracts/newBuilding.sol\":5245:5271  listOfBatches[material][i] */\n      dup2\n      sload\n      dup2\n      lt\n      tag_104\n      jumpi\n      mstore(0x00, 0x4e487b7100000000000000000000000000000000000000000000000000000000)\n      mstore(0x04, 0x32)\n      revert(0x00, 0x24)\n    tag_104:\n      swap1\n      0x00\n      mstore\n      keccak256(0x00, 0x20)\n      swap1\n      0x04\n      mul\n      add\n        /* \"contracts/newBuilding.sol\":5245:5285  listOfBatches[material][i].assignementId */\n      0x00\n      add\n      sload\n        /* \"contracts/newBuilding.sol\":5228:5244  Strings.toString */\n      tag_106\n        /* \"contracts/newBuilding.sol\":5228:5286  Strings.toString(listOfBatches[material][i].assignementId) */\n      jump\t// in\n    tag_102:\n        /* \"contracts/newBuilding.sol\":5219:5286  id_str = Strings.toString(listOfBatches[material][i].assignementId) */\n      swap5\n      pop\n        /* \"contracts/newBuilding.sol\":5316:5384  Strings.toHexString(listOfBatches[material][i].batchContractAddress) */\n      tag_107\n        /* \"contracts/newBuilding.sol\":5336:5349  listOfBatches */\n      0x03\n        /* \"contracts/newBuilding.sol\":5350:5358  material */\n      dup9\n        /* \"contracts/newBuilding.sol\":5336:5359  listOfBatches[material] */\n      mload(0x40)\n      tag_108\n      swap2\n      swap1\n      tag_94\n      jump\t// in\n    tag_108:\n      swap1\n      dup2\n      mstore\n      0x20\n      add\n      mload(0x40)\n      dup1\n      swap2\n      sub\n      swap1\n      keccak256\n        /* \"contracts/newBuilding.sol\":5360:5361  i */\n      dup3\n        /* \"contracts/newBuilding.sol\":5336:5362  listOfBatches[material][i] */\n      dup2\n      sload\n      dup2\n      lt\n      tag_109\n      jumpi\n      mstore(0x00, 0x4e487b7100000000000000000000000000000000000000000000000000000000)\n      mstore(0x04, 0x32)\n      revert(0x00, 0x24)\n    tag_109:\n      swap1\n      0x00\n      mstore\n      keccak256(0x00, 0x20)\n      swap1\n      0x04\n      mul\n      add\n        /* \"contracts/newBuilding.sol\":5336:5383  listOfBatches[material][i].batchContractAddress */\n      0x01\n      add\n      0x00\n      swap1\n      sload\n      swap1\n      0x0100\n      exp\n      swap1\n      div\n      0xffffffffffffffffffffffffffffffffffffffff\n      and\n        /* \"contracts/newBuilding.sol\":5316:5335  Strings.toHexString */\n      tag_58\n        /* \"contracts/newBuilding.sol\":5316:5384  Strings.toHexString(listOfBatches[material][i].batchContractAddress) */\n      jump\t// in\n    tag_107:\n        /* \"contracts/newBuilding.sol\":5301:5384  contract_str = Strings.toHexString(listOfBatches[material][i].batchContractAddress) */\n      swap4\n      pop\n        /* \"contracts/newBuilding.sol\":5414:5475  Strings.toString(listOfBatches[material][i].quantityAssigned) */\n      tag_111\n        /* \"contracts/newBuilding.sol\":5431:5444  listOfBatches */\n      0x03\n        /* \"contracts/newBuilding.sol\":5445:5453  material */\n      dup9\n        /* \"contracts/newBuilding.sol\":5431:5454  listOfBatches[material] */\n      mload(0x40)\n      tag_112\n      swap2\n      swap1\n      tag_94\n      jump\t// in\n    tag_112:\n      swap1\n      dup2\n      mstore\n      0x20\n      add\n      mload(0x40)\n      dup1\n      swap2\n      sub\n      swap1\n      keccak256\n        /* \"contracts/newBuilding.sol\":5455:5456  i */\n      dup3\n        /* \"contracts/newBuilding.sol\":5431:5457  listOfBatches[material][i] */\n      dup2\n      sload\n      dup2\n      lt\n      tag_113\n      jumpi\n      mstore(0x00, 0x4e487b7100000000000000000000000000000000000000000000000000000000)\n      mstore(0x04, 0x32)\n      revert(0x00, 0x24)\n    tag_113:\n      swap1\n      0x00\n      mstore\n      keccak256(0x00, 0x20)\n      swap1\n      0x04\n      mul\n      add\n        /* \"contracts/newBuilding.sol\":5431:5474  listOfBatches[material][i].quantityAssigned */\n      0x02\n      add\n      sload\n        /* \"contracts/newBuilding.sol\":5414:5430  Strings.toString */\n      tag_106\n        /* \"contracts/newBuilding.sol\":5414:5475  Strings.toString(listOfBatches[material][i].quantityAssigned) */\n      jump\t// in\n    tag_111:\n        /* \"contracts/newBuilding.sol\":5399:5475  quantity_str = Strings.toString(listOfBatches[material][i].quantityAssigned) */\n      swap3\n      pop\n        /* \"contracts/newBuilding.sol\":5501:5514  listOfBatches */\n      0x03\n        /* \"contracts/newBuilding.sol\":5515:5523  material */\n      dup8\n        /* \"contracts/newBuilding.sol\":5501:5524  listOfBatches[material] */\n      mload(0x40)\n      tag_115\n      swap2\n      swap1\n      tag_94\n      jump\t// in\n    tag_115:\n      swap1\n      dup2\n      mstore\n      0x20\n      add\n      mload(0x40)\n      dup1\n      swap2\n      sub\n      swap1\n      keccak256\n        /* \"contracts/newBuilding.sol\":5525:5526  i */\n      dup2\n        /* \"contracts/newBuilding.sol\":5501:5527  listOfBatches[material][i] */\n      dup2\n      sload\n      dup2\n      lt\n      tag_116\n      jumpi\n      mstore(0x00, 0x4e487b7100000000000000000000000000000000000000000000000000000000)\n      mstore(0x04, 0x32)\n      revert(0x00, 0x24)\n    tag_116:\n      swap1\n      0x00\n      mstore\n      keccak256(0x00, 0x20)\n      swap1\n      0x04\n      mul\n      add\n        /* \"contracts/newBuilding.sol\":5501:5540  listOfBatches[material][i].quantityUnit */\n      0x03\n      add\n        /* \"contracts/newBuilding.sol\":5490:5540  unit_str = listOfBatches[material][i].quantityUnit */\n      dup1\n      sload\n      tag_118\n      swap1\n      tag_62\n      jump\t// in\n    tag_118:\n      dup1\n      0x1f\n      add\n      0x20\n      dup1\n      swap2\n      div\n      mul\n      0x20\n      add\n      mload(0x40)\n      swap1\n      dup2\n      add\n      0x40\n      mstore\n      dup1\n      swap3\n      swap2\n      swap1\n      dup2\n      dup2\n      mstore\n      0x20\n      add\n      dup3\n      dup1\n      sload\n      tag_119\n      swap1\n      tag_62\n      jump\t// in\n    tag_119:\n      dup1\n      iszero\n      tag_120\n      jumpi\n      dup1\n      0x1f\n      lt\n      tag_121\n      jumpi\n      0x0100\n      dup1\n      dup4\n      sload\n      div\n      mul\n      dup4\n      mstore\n      swap2\n      0x20\n      add\n      swap2\n      jump(tag_120)\n    tag_121:\n      dup3\n      add\n      swap2\n      swap1\n      0x00\n      mstore\n      keccak256(0x00, 0x20)\n      swap1\n    tag_122:\n      dup2\n      sload\n      dup2\n      mstore\n      swap1\n      0x01\n      add\n      swap1\n      0x20\n      add\n      dup1\n      dup4\n      gt\n      tag_122\n      jumpi\n      dup3\n      swap1\n      sub\n      0x1f\n      and\n      dup3\n      add\n      swap2\n    tag_120:\n      pop\n      pop\n      pop\n      pop\n      pop\n      swap2\n      pop\n        /* \"contracts/newBuilding.sol\":5594:5605  batchesList */\n      dup6\n        /* \"contracts/newBuilding.sol\":5614:5626  contract_str */\n      dup5\n        /* \"contracts/newBuilding.sol\":5637:5649  quantity_str */\n      dup5\n        /* \"contracts/newBuilding.sol\":5652:5660  unit_str */\n      dup5\n        /* \"contracts/newBuilding.sol\":5670:5676  id_str */\n      dup9\n        /* \"contracts/newBuilding.sol\":5576:5689  abi.encodePacked( batchesList, \" ( \", contract_str , \" -> \", quantity_str , unit_str, \" -> \", id_str,   \" ) \\n\" ) */\n      add(0x20, mload(0x40))\n      tag_123\n      swap6\n      swap5\n      swap4\n      swap3\n      swap2\n      swap1\n      tag_124\n      jump\t// in\n    tag_123:\n      mload(0x40)\n      0x20\n      dup2\n      dup4\n      sub\n      sub\n      dup2\n      mstore\n      swap1\n      0x40\n      mstore\n        /* \"contracts/newBuilding.sol\":5555:5690  batchesList = string(abi.encodePacked( batchesList, \" ( \", contract_str , \" -> \", quantity_str , unit_str, \" -> \", id_str,   \" ) \\n\" )) */\n      swap6\n      pop\n        /* \"contracts/newBuilding.sol\":5199:5202  i++ */\n      dup1\n      dup1\n      tag_125\n      swap1\n      tag_70\n      jump\t// in\n    tag_125:\n      swap2\n      pop\n      pop\n        /* \"contracts/newBuilding.sol\":5150:5792  for (uint i=0; i<listOfBatches[material].length; i++) {\r... */\n      jump(tag_98)\n    tag_99:\n      pop\n        /* \"contracts/newBuilding.sol\":5802:5820  return batchesList */\n      pop\n      pop\n      pop\n      pop\n        /* \"contracts/newBuilding.sol\":4656:5838  function showOverviewOfMaterial (string memory material) public view returns  (string memory batchesList) { \r... */\n      swap2\n      swap1\n      pop\n      jump\t// out\n        /* \"contracts/newBuilding.sol\":8888:9930  function assignMaterial (string memory material, address batchAddress, uint quantity, string memory unit, supplier[] memory chain) public onlyByRegisteredContractor disabledContract { \r... */\n    tag_33:\n        /* \"contracts/newBuilding.sol\":10044:10045  0 */\n      0x00\n        /* \"contracts/newBuilding.sol\":10003:10020  listOfContractors */\n      0x06\n        /* \"contracts/newBuilding.sol\":10003:10032  listOfContractors[msg.sender] */\n      0x00\n        /* \"contracts/newBuilding.sol\":10021:10031  msg.sender */\n      caller\n        /* \"contracts/newBuilding.sol\":10003:10032  listOfContractors[msg.sender] */\n      0xffffffffffffffffffffffffffffffffffffffff\n      and\n      0xffffffffffffffffffffffffffffffffffffffff\n      and\n      dup2\n      mstore\n      0x20\n      add\n      swap1\n      dup2\n      mstore\n      0x20\n      add\n      0x00\n      keccak256\n        /* \"contracts/newBuilding.sol\":9997:10040  bytes(listOfContractors[msg.sender]).length */\n      dup1\n      sload\n      tag_127\n      swap1\n      tag_62\n      jump\t// in\n    tag_127:\n      swap1\n      pop\n        /* \"contracts/newBuilding.sol\":9997:10045  bytes(listOfContractors[msg.sender]).length != 0 */\n      eq\n      iszero\n        /* \"contracts/newBuilding.sol\":9989:10100  require(bytes(listOfContractors[msg.sender]).length != 0, \"Can only be executed by the registered Contractor\" ) */\n      tag_128\n      jumpi\n      mload(0x40)\n      0x08c379a000000000000000000000000000000000000000000000000000000000\n      dup2\n      mstore\n      0x04\n      add\n      tag_129\n      swap1\n      tag_130\n      jump\t// in\n    tag_129:\n      mload(0x40)\n      dup1\n      swap2\n      sub\n      swap1\n      revert\n    tag_128:\n        /* \"contracts/newBuilding.sol\":10764:10769  false */\n      0x00\n        /* \"contracts/newBuilding.sol\":10742:10769  contractIsDisabled == false */\n      iszero\n      iszero\n        /* \"contracts/newBuilding.sol\":10742:10760  contractIsDisabled */\n      0x00\n      dup1\n      sload\n      swap1\n      0x0100\n      exp\n      swap1\n      div\n      0xff\n      and\n        /* \"contracts/newBuilding.sol\":10742:10769  contractIsDisabled == false */\n      iszero\n      iszero\n      eq\n        /* \"contracts/newBuilding.sol\":10734:10800  require(contractIsDisabled == false, \"Contract has been disabled\") */\n      tag_132\n      jumpi\n      mload(0x40)\n      0x08c379a000000000000000000000000000000000000000000000000000000000\n      dup2\n      mstore\n      0x04\n      add\n      tag_133\n      swap1\n      tag_134\n      jump\t// in\n    tag_133:\n      mload(0x40)\n      dup1\n      swap2\n      sub\n      swap1\n      revert\n    tag_132:\n        /* \"contracts/newBuilding.sol\":9130:9131  0 */\n      0x00\n        /* \"contracts/newBuilding.sol\":9096:9109  listOfBatches */\n      0x03\n        /* \"contracts/newBuilding.sol\":9110:9118  material */\n      dup7\n        /* \"contracts/newBuilding.sol\":9096:9119  listOfBatches[material] */\n      mload(0x40)\n      tag_136\n      swap2\n      swap1\n      tag_94\n      jump\t// in\n    tag_136:\n      swap1\n      dup2\n      mstore\n      0x20\n      add\n      mload(0x40)\n      dup1\n      swap2\n      sub\n      swap1\n      keccak256\n        /* \"contracts/newBuilding.sol\":9096:9126  listOfBatches[material].length */\n      dup1\n      sload\n      swap1\n      pop\n        /* \"contracts/newBuilding.sol\":9096:9131  listOfBatches[material].length == 0 */\n      eq\n        /* \"contracts/newBuilding.sol\":9092:9235  if (listOfBatches[material].length == 0) { //check whether material name already exists\r... */\n      iszero\n      tag_137\n      jumpi\n        /* \"contracts/newBuilding.sol\":9193:9208  listOfMaterials */\n      0x02\n        /* \"contracts/newBuilding.sol\":9214:9222  material */\n      dup6\n        /* \"contracts/newBuilding.sol\":9193:9223  listOfMaterials.push(material) */\n      swap1\n      dup1\n      0x01\n      dup2\n      sload\n      add\n      dup1\n      dup3\n      sstore\n      dup1\n      swap2\n      pop\n      pop\n      0x01\n      swap1\n      sub\n      swap1\n      0x00\n      mstore\n      keccak256(0x00, 0x20)\n      add\n      0x00\n      swap1\n      swap2\n      swap1\n      swap2\n      swap1\n      swap2\n      pop\n      swap1\n      dup1\n      mload\n      swap1\n      0x20\n      add\n      swap1\n      tag_139\n      swap3\n      swap2\n      swap1\n      tag_140\n      jump\t// in\n    tag_139:\n      pop\n        /* \"contracts/newBuilding.sol\":9092:9235  if (listOfBatches[material].length == 0) { //check whether material name already exists\r... */\n    tag_137:\n        /* \"contracts/newBuilding.sol\":9255:9269  Batch memory b */\n      tag_141\n      tag_142\n      jump\t// in\n    tag_141:\n        /* \"contracts/newBuilding.sol\":9298:9316  assignement_number */\n      sload(0x01)\n        /* \"contracts/newBuilding.sol\":9280:9281  b */\n      dup2\n        /* \"contracts/newBuilding.sol\":9280:9295  b.assignementId */\n      0x00\n      add\n        /* \"contracts/newBuilding.sol\":9280:9316  b.assignementId = assignement_number */\n      dup2\n      dup2\n      mstore\n      pop\n      pop\n        /* \"contracts/newBuilding.sol\":9352:9364  batchAddress */\n      dup5\n        /* \"contracts/newBuilding.sol\":9327:9328  b */\n      dup2\n        /* \"contracts/newBuilding.sol\":9327:9349  b.batchContractAddress */\n      0x20\n      add\n        /* \"contracts/newBuilding.sol\":9327:9364  b.batchContractAddress = batchAddress */\n      swap1\n      0xffffffffffffffffffffffffffffffffffffffff\n      and\n      swap1\n      dup2\n      0xffffffffffffffffffffffffffffffffffffffff\n      and\n      dup2\n      mstore\n      pop\n      pop\n        /* \"contracts/newBuilding.sol\":9396:9404  quantity */\n      dup4\n        /* \"contracts/newBuilding.sol\":9375:9376  b */\n      dup2\n        /* \"contracts/newBuilding.sol\":9375:9393  b.quantityAssigned */\n      0x40\n      add\n        /* \"contracts/newBuilding.sol\":9375:9404  b.quantityAssigned = quantity */\n      dup2\n      dup2\n      mstore\n      pop\n      pop\n        /* \"contracts/newBuilding.sol\":9432:9436  unit */\n      dup3\n        /* \"contracts/newBuilding.sol\":9415:9416  b */\n      dup2\n        /* \"contracts/newBuilding.sol\":9415:9429  b.quantityUnit */\n      0x60\n      add\n        /* \"contracts/newBuilding.sol\":9415:9436  b.quantityUnit = unit */\n      dup2\n      swap1\n      mstore\n      pop\n        /* \"contracts/newBuilding.sol\":9447:9460  listOfBatches */\n      0x03\n        /* \"contracts/newBuilding.sol\":9461:9469  material */\n      dup7\n        /* \"contracts/newBuilding.sol\":9447:9470  listOfBatches[material] */\n      mload(0x40)\n      tag_143\n      swap2\n      swap1\n      tag_94\n      jump\t// in\n    tag_143:\n      swap1\n      dup2\n      mstore\n      0x20\n      add\n      mload(0x40)\n      dup1\n      swap2\n      sub\n      swap1\n      keccak256\n        /* \"contracts/newBuilding.sol\":9476:9477  b */\n      dup2\n        /* \"contracts/newBuilding.sol\":9447:9478  listOfBatches[material].push(b) */\n      swap1\n      dup1\n      0x01\n      dup2\n      sload\n      add\n      dup1\n      dup3\n      sstore\n      dup1\n      swap2\n      pop\n      pop\n      0x01\n      swap1\n      sub\n      swap1\n      0x00\n      mstore\n      keccak256(0x00, 0x20)\n      swap1\n      0x04\n      mul\n      add\n      0x00\n      swap1\n      swap2\n      swap1\n      swap2\n      swap1\n      swap2\n      pop\n      0x00\n      dup3\n      add\n      mload\n      dup2\n      0x00\n      add\n      sstore\n      0x20\n      dup3\n      add\n      mload\n      dup2\n      0x01\n      add\n      exp(0x0100, 0x00)\n      dup2\n      sload\n      dup2\n      0xffffffffffffffffffffffffffffffffffffffff\n      mul\n      not\n      and\n      swap1\n      dup4\n      0xffffffffffffffffffffffffffffffffffffffff\n      and\n      mul\n      or\n      swap1\n      sstore\n      pop\n      0x40\n      dup3\n      add\n      mload\n      dup2\n      0x02\n      add\n      sstore\n      0x60\n      dup3\n      add\n      mload\n      dup2\n      0x03\n      add\n      swap1\n      dup1\n      mload\n      swap1\n      0x20\n      add\n      swap1\n      tag_145\n      swap3\n      swap2\n      swap1\n      tag_140\n      jump\t// in\n    tag_145:\n      pop\n      pop\n      pop\n        /* \"contracts/newBuilding.sol\":9504:9510  uint i */\n      0x00\n        /* \"contracts/newBuilding.sol\":9499:9608  for (uint i=0; i<chain.length; i++) {\r... */\n    tag_146:\n        /* \"contracts/newBuilding.sol\":9516:9521  chain */\n      dup3\n        /* \"contracts/newBuilding.sol\":9516:9528  chain.length */\n      mload\n        /* \"contracts/newBuilding.sol\":9514:9515  i */\n      dup2\n        /* \"contracts/newBuilding.sol\":9514:9528  i<chain.length */\n      lt\n        /* \"contracts/newBuilding.sol\":9499:9608  for (uint i=0; i<chain.length; i++) {\r... */\n      iszero\n      tag_147\n      jumpi\n        /* \"contracts/newBuilding.sol\":9550:9561  supplyChain */\n      0x04\n        /* \"contracts/newBuilding.sol\":9550:9581  supplyChain[assignement_number] */\n      0x00\n        /* \"contracts/newBuilding.sol\":9562:9580  assignement_number */\n      sload(0x01)\n        /* \"contracts/newBuilding.sol\":9550:9581  supplyChain[assignement_number] */\n      dup2\n      mstore\n      0x20\n      add\n      swap1\n      dup2\n      mstore\n      0x20\n      add\n      0x00\n      keccak256\n        /* \"contracts/newBuilding.sol\":9587:9592  chain */\n      dup4\n        /* \"contracts/newBuilding.sol\":9593:9594  i */\n      dup3\n        /* \"contracts/newBuilding.sol\":9587:9595  chain[i] */\n      dup2\n      mload\n      dup2\n      lt\n      tag_149\n      jumpi\n      mstore(0x00, 0x4e487b7100000000000000000000000000000000000000000000000000000000)\n      mstore(0x04, 0x32)\n      revert(0x00, 0x24)\n    tag_149:\n      0x20\n      mul\n      0x20\n      add\n      add\n      mload\n        /* \"contracts/newBuilding.sol\":9550:9596  supplyChain[assignement_number].push(chain[i]) */\n      swap1\n      dup1\n      0x01\n      dup2\n      sload\n      add\n      dup1\n      dup3\n      sstore\n      dup1\n      swap2\n      pop\n      pop\n      0x01\n      swap1\n      sub\n      swap1\n      0x00\n      mstore\n      keccak256(0x00, 0x20)\n      swap1\n      0x02\n      mul\n      add\n      0x00\n      swap1\n      swap2\n      swap1\n      swap2\n      swap1\n      swap2\n      pop\n      0x00\n      dup3\n      add\n      mload\n      dup2\n      0x00\n      add\n      exp(0x0100, 0x00)\n      dup2\n      sload\n      dup2\n      0xffffffffffffffffffffffffffffffffffffffff\n      mul\n      not\n      and\n      swap1\n      dup4\n      0xffffffffffffffffffffffffffffffffffffffff\n      and\n      mul\n      or\n      swap1\n      sstore\n      pop\n      0x20\n      dup3\n      add\n      mload\n      dup2\n      0x01\n      add\n      swap1\n      dup1\n      mload\n      swap1\n      0x20\n      add\n      swap1\n      tag_151\n      swap3\n      swap2\n      swap1\n      tag_140\n      jump\t// in\n    tag_151:\n      pop\n      pop\n      pop\n        /* \"contracts/newBuilding.sol\":9530:9533  i++ */\n      dup1\n      dup1\n      tag_152\n      swap1\n      tag_70\n      jump\t// in\n    tag_152:\n      swap2\n      pop\n      pop\n        /* \"contracts/newBuilding.sol\":9499:9608  for (uint i=0; i<chain.length; i++) {\r... */\n      jump(tag_146)\n    tag_147:\n      pop\n        /* \"contracts/newBuilding.sol\":9716:9733  supplier memory s */\n      tag_153\n      tag_154\n      jump\t// in\n    tag_153:\n        /* \"contracts/newBuilding.sol\":9764:9774  msg.sender */\n      caller\n        /* \"contracts/newBuilding.sol\":9744:9745  s */\n      dup2\n        /* \"contracts/newBuilding.sol\":9744:9761  s.supplierAddress */\n      0x00\n      add\n        /* \"contracts/newBuilding.sol\":9744:9774  s.supplierAddress = msg.sender */\n      swap1\n      0xffffffffffffffffffffffffffffffffffffffff\n      and\n      swap1\n      dup2\n      0xffffffffffffffffffffffffffffffffffffffff\n      and\n      dup2\n      mstore\n      pop\n      pop\n        /* \"contracts/newBuilding.sol\":9802:9819  listOfContractors */\n      0x06\n        /* \"contracts/newBuilding.sol\":9802:9831  listOfContractors[msg.sender] */\n      0x00\n        /* \"contracts/newBuilding.sol\":9820:9830  msg.sender */\n      caller\n        /* \"contracts/newBuilding.sol\":9802:9831  listOfContractors[msg.sender] */\n      0xffffffffffffffffffffffffffffffffffffffff\n      and\n      0xffffffffffffffffffffffffffffffffffffffff\n      and\n      dup2\n      mstore\n      0x20\n      add\n      swap1\n      dup2\n      mstore\n      0x20\n      add\n      0x00\n      keccak256\n        /* \"contracts/newBuilding.sol\":9785:9831  s.supplierName = listOfContractors[msg.sender] */\n      dup1\n      sload\n      tag_155\n      swap1\n      tag_62\n      jump\t// in\n    tag_155:\n      dup1\n      0x1f\n      add\n      0x20\n      dup1\n      swap2\n      div\n      mul\n      0x20\n      add\n      mload(0x40)\n      swap1\n      dup2\n      add\n      0x40\n      mstore\n      dup1\n      swap3\n      swap2\n      swap1\n      dup2\n      dup2\n      mstore\n      0x20\n      add\n      dup3\n      dup1\n      sload\n      tag_156\n      swap1\n      tag_62\n      jump\t// in\n    tag_156:\n      dup1\n      iszero\n      tag_157\n      jumpi\n      dup1\n      0x1f\n      lt\n      tag_158\n      jumpi\n      0x0100\n      dup1\n      dup4\n      sload\n      div\n      mul\n      dup4\n      mstore\n      swap2\n      0x20\n      add\n      swap2\n      jump(tag_157)\n    tag_158:\n      dup3\n      add\n      swap2\n      swap1\n      0x00\n      mstore\n      keccak256(0x00, 0x20)\n      swap1\n    tag_159:\n      dup2\n      sload\n      dup2\n      mstore\n      swap1\n      0x01\n      add\n      swap1\n      0x20\n      add\n      dup1\n      dup4\n      gt\n      tag_159\n      jumpi\n      dup3\n      swap1\n      sub\n      0x1f\n      and\n      dup3\n      add\n      swap2\n    tag_157:\n      pop\n      pop\n      pop\n      pop\n      pop\n        /* \"contracts/newBuilding.sol\":9785:9786  s */\n      dup2\n        /* \"contracts/newBuilding.sol\":9785:9799  s.supplierName */\n      0x20\n      add\n        /* \"contracts/newBuilding.sol\":9785:9831  s.supplierName = listOfContractors[msg.sender] */\n      dup2\n      swap1\n      mstore\n      pop\n        /* \"contracts/newBuilding.sol\":9842:9853  supplyChain */\n      0x04\n        /* \"contracts/newBuilding.sol\":9842:9873  supplyChain[assignement_number] */\n      0x00\n        /* \"contracts/newBuilding.sol\":9854:9872  assignement_number */\n      sload(0x01)\n        /* \"contracts/newBuilding.sol\":9842:9873  supplyChain[assignement_number] */\n      dup2\n      mstore\n      0x20\n      add\n      swap1\n      dup2\n      mstore\n      0x20\n      add\n      0x00\n      keccak256\n        /* \"contracts/newBuilding.sol\":9879:9880  s */\n      dup2\n        /* \"contracts/newBuilding.sol\":9842:9881  supplyChain[assignement_number].push(s) */\n      swap1\n      dup1\n      0x01\n      dup2\n      sload\n      add\n      dup1\n      dup3\n      sstore\n      dup1\n      swap2\n      pop\n      pop\n      0x01\n      swap1\n      sub\n      swap1\n      0x00\n      mstore\n      keccak256(0x00, 0x20)\n      swap1\n      0x02\n      mul\n      add\n      0x00\n      swap1\n      swap2\n      swap1\n      swap2\n      swap1\n      swap2\n      pop\n      0x00\n      dup3\n      add\n      mload\n      dup2\n      0x00\n      add\n      exp(0x0100, 0x00)\n      dup2\n      sload\n      dup2\n      0xffffffffffffffffffffffffffffffffffffffff\n      mul\n      not\n      and\n      swap1\n      dup4\n      0xffffffffffffffffffffffffffffffffffffffff\n      and\n      mul\n      or\n      swap1\n      sstore\n      pop\n      0x20\n      dup3\n      add\n      mload\n      dup2\n      0x01\n      add\n      swap1\n      dup1\n      mload\n      swap1\n      0x20\n      add\n      swap1\n      tag_161\n      swap3\n      swap2\n      swap1\n      tag_140\n      jump\t// in\n    tag_161:\n      pop\n      pop\n      pop\n        /* \"contracts/newBuilding.sol\":9902:9920  assignement_number */\n      0x01\n      0x00\n        /* \"contracts/newBuilding.sol\":9902:9922  assignement_number++ */\n      dup2\n      sload\n      dup1\n      swap3\n      swap2\n      swap1\n      tag_162\n      swap1\n      tag_70\n      jump\t// in\n    tag_162:\n      swap2\n      swap1\n      pop\n      sstore\n      pop\n        /* \"contracts/newBuilding.sol\":10811:10812  _ */\n      pop\n      pop\n        /* \"contracts/newBuilding.sol\":8888:9930  function assignMaterial (string memory material, address batchAddress, uint quantity, string memory unit, supplier[] memory chain) public onlyByRegisteredContractor disabledContract { \r... */\n      pop\n      pop\n      pop\n      pop\n      pop\n      jump\t// out\n        /* \"contracts/newBuilding.sol\":4044:4474  function showListOfMaterials () public view returns (string memory materialsList ) {\r... */\n    tag_35:\n        /* \"contracts/newBuilding.sol\":4097:4124  string memory materialsList */\n      0x60\n        /* \"contracts/newBuilding.sol\":4138:4159  materialsList = \":\\n\" */\n      mload(0x40)\n      dup1\n      0x40\n      add\n      0x40\n      mstore\n      dup1\n      0x02\n      dup2\n      mstore\n      0x20\n      add\n      0x3a0a000000000000000000000000000000000000000000000000000000000000\n      dup2\n      mstore\n      pop\n      swap1\n      pop\n        /* \"contracts/newBuilding.sol\":4175:4181  uint i */\n      0x00\n        /* \"contracts/newBuilding.sol\":4170:4327  for (uint i=0; i<listOfMaterials.length-1; i++) {\r... */\n    tag_164:\n        /* \"contracts/newBuilding.sol\":4210:4211  1 */\n      0x01\n        /* \"contracts/newBuilding.sol\":4187:4202  listOfMaterials */\n      0x02\n        /* \"contracts/newBuilding.sol\":4187:4209  listOfMaterials.length */\n      dup1\n      sload\n      swap1\n      pop\n        /* \"contracts/newBuilding.sol\":4187:4211  listOfMaterials.length-1 */\n      tag_167\n      swap2\n      swap1\n      tag_168\n      jump\t// in\n    tag_167:\n        /* \"contracts/newBuilding.sol\":4185:4186  i */\n      dup2\n        /* \"contracts/newBuilding.sol\":4185:4211  i<listOfMaterials.length-1 */\n      lt\n        /* \"contracts/newBuilding.sol\":4170:4327  for (uint i=0; i<listOfMaterials.length-1; i++) {\r... */\n      iszero\n      tag_165\n      jumpi\n        /* \"contracts/newBuilding.sol\":4273:4286  materialsList */\n      dup2\n        /* \"contracts/newBuilding.sol\":4288:4303  listOfMaterials */\n      0x02\n        /* \"contracts/newBuilding.sol\":4304:4305  i */\n      dup3\n        /* \"contracts/newBuilding.sol\":4288:4306  listOfMaterials[i] */\n      dup2\n      sload\n      dup2\n      lt\n      tag_169\n      jumpi\n      mstore(0x00, 0x4e487b7100000000000000000000000000000000000000000000000000000000)\n      mstore(0x04, 0x32)\n      revert(0x00, 0x24)\n    tag_169:\n      swap1\n      0x00\n      mstore\n      keccak256(0x00, 0x20)\n      add\n        /* \"contracts/newBuilding.sol\":4256:4314  abi.encodePacked(materialsList, listOfMaterials[i], \",\\n\") */\n      add(0x20, mload(0x40))\n      tag_171\n      swap3\n      swap2\n      swap1\n      tag_172\n      jump\t// in\n    tag_171:\n      mload(0x40)\n      0x20\n      dup2\n      dup4\n      sub\n      sub\n      dup2\n      mstore\n      swap1\n      0x40\n      mstore\n        /* \"contracts/newBuilding.sol\":4233:4315  materialsList = string(abi.encodePacked(materialsList, listOfMaterials[i], \",\\n\")) */\n      swap2\n      pop\n        /* \"contracts/newBuilding.sol\":4213:4216  i++ */\n      dup1\n      dup1\n      tag_173\n      swap1\n      tag_70\n      jump\t// in\n    tag_173:\n      swap2\n      pop\n      pop\n        /* \"contracts/newBuilding.sol\":4170:4327  for (uint i=0; i<listOfMaterials.length-1; i++) {\r... */\n      jump(tag_164)\n    tag_165:\n      pop\n        /* \"contracts/newBuilding.sol\":4377:4390  materialsList */\n      dup1\n        /* \"contracts/newBuilding.sol\":4392:4407  listOfMaterials */\n      0x02\n        /* \"contracts/newBuilding.sol\":4431:4432  1 */\n      0x01\n        /* \"contracts/newBuilding.sol\":4408:4423  listOfMaterials */\n      0x02\n        /* \"contracts/newBuilding.sol\":4408:4430  listOfMaterials.length */\n      dup1\n      sload\n      swap1\n      pop\n        /* \"contracts/newBuilding.sol\":4408:4432  listOfMaterials.length-1 */\n      tag_174\n      swap2\n      swap1\n      tag_168\n      jump\t// in\n    tag_174:\n        /* \"contracts/newBuilding.sol\":4392:4433  listOfMaterials[listOfMaterials.length-1] */\n      dup2\n      sload\n      dup2\n      lt\n      tag_175\n      jumpi\n      mstore(0x00, 0x4e487b7100000000000000000000000000000000000000000000000000000000)\n      mstore(0x04, 0x32)\n      revert(0x00, 0x24)\n    tag_175:\n      swap1\n      0x00\n      mstore\n      keccak256(0x00, 0x20)\n      add\n        /* \"contracts/newBuilding.sol\":4360:4434  abi.encodePacked(materialsList, listOfMaterials[listOfMaterials.length-1]) */\n      add(0x20, mload(0x40))\n      tag_177\n      swap3\n      swap2\n      swap1\n      tag_178\n      jump\t// in\n    tag_177:\n      mload(0x40)\n      0x20\n      dup2\n      dup4\n      sub\n      sub\n      dup2\n      mstore\n      swap1\n      0x40\n      mstore\n        /* \"contracts/newBuilding.sol\":4337:4435  materialsList = string(abi.encodePacked(materialsList, listOfMaterials[listOfMaterials.length-1])) */\n      swap1\n      pop\n        /* \"contracts/newBuilding.sol\":4044:4474  function showListOfMaterials () public view returns (string memory materialsList ) {\r... */\n      swap1\n      jump\t// out\n        /* \"contracts/newBuilding.sol\":10474:10682  function disableOrEnableContract () external {\r... */\n    tag_38:\n        /* \"contracts/newBuilding.sol\":10552:10574  factoryContractAddress */\n      0x00\n      0x01\n      swap1\n      sload\n      swap1\n      0x0100\n      exp\n      swap1\n      div\n      0xffffffffffffffffffffffffffffffffffffffff\n      and\n        /* \"contracts/newBuilding.sol\":10538:10574  msg.sender == factoryContractAddress */\n      0xffffffffffffffffffffffffffffffffffffffff\n      and\n        /* \"contracts/newBuilding.sol\":10538:10548  msg.sender */\n      caller\n        /* \"contracts/newBuilding.sol\":10538:10574  msg.sender == factoryContractAddress */\n      0xffffffffffffffffffffffffffffffffffffffff\n      and\n      eq\n        /* \"contracts/newBuilding.sol\":10530:10623  require(msg.sender == factoryContractAddress, \"Only factory contract can call this function\") */\n      tag_180\n      jumpi\n      mload(0x40)\n      0x08c379a000000000000000000000000000000000000000000000000000000000\n      dup2\n      mstore\n      0x04\n      add\n      tag_181\n      swap1\n      tag_182\n      jump\t// in\n    tag_181:\n      mload(0x40)\n      dup1\n      swap2\n      sub\n      swap1\n      revert\n    tag_180:\n        /* \"contracts/newBuilding.sol\":10656:10674  contractIsDisabled */\n      0x00\n      dup1\n      sload\n      swap1\n      0x0100\n      exp\n      swap1\n      div\n      0xff\n      and\n        /* \"contracts/newBuilding.sol\":10655:10674  !contractIsDisabled */\n      iszero\n        /* \"contracts/newBuilding.sol\":10634:10652  contractIsDisabled */\n      0x00\n      dup1\n        /* \"contracts/newBuilding.sol\":10634:10674  contractIsDisabled = !contractIsDisabled */\n      0x0100\n      exp\n      dup2\n      sload\n      dup2\n      0xff\n      mul\n      not\n      and\n      swap1\n      dup4\n      iszero\n      iszero\n      mul\n      or\n      swap1\n      sstore\n      pop\n        /* \"contracts/newBuilding.sol\":10474:10682  function disableOrEnableContract () external {\r... */\n      jump\t// out\n        /* \"contracts/newBuilding.sol\":3777:3828  mapping (address => string) public BatchCertificate */\n    tag_42:\n      mstore(0x20, 0x0a)\n      dup1\n      0x00\n      mstore\n      keccak256(0x00, 0x40)\n      0x00\n      swap2\n      pop\n      swap1\n      pop\n      dup1\n      sload\n      tag_183\n      swap1\n      tag_62\n      jump\t// in\n    tag_183:\n      dup1\n      0x1f\n      add\n      0x20\n      dup1\n      swap2\n      div\n      mul\n      0x20\n      add\n      mload(0x40)\n      swap1\n      dup2\n      add\n      0x40\n      mstore\n      dup1\n      swap3\n      swap2\n      swap1\n      dup2\n      dup2\n      mstore\n      0x20\n      add\n      dup3\n      dup1\n      sload\n      tag_184\n      swap1\n      tag_62\n      jump\t// in\n    tag_184:\n      dup1\n      iszero\n      tag_185\n      jumpi\n      dup1\n      0x1f\n      lt\n      tag_186\n      jumpi\n      0x0100\n      dup1\n      dup4\n      sload\n      div\n      mul\n      dup4\n      mstore\n      swap2\n      0x20\n      add\n      swap2\n      jump(tag_185)\n    tag_186:\n      dup3\n      add\n      swap2\n      swap1\n      0x00\n      mstore\n      keccak256(0x00, 0x20)\n      swap1\n    tag_187:\n      dup2\n      sload\n      dup2\n      mstore\n      swap1\n      0x01\n      add\n      swap1\n      0x20\n      add\n      dup1\n      dup4\n      gt\n      tag_187\n      jumpi\n      dup3\n      swap1\n      sub\n      0x1f\n      and\n      dup3\n      add\n      swap2\n    tag_185:\n      pop\n      pop\n      pop\n      pop\n      pop\n      dup2\n      jump\t// out\n        /* \"contracts/newBuilding.sol\":7993:8355  function addContractor ( address contractor_Address, string memory name_ ) public onlyByDeveloper disabledContract {\r... */\n    tag_47:\n        /* \"contracts/newBuilding.sol\":8422:8431  Developer */\n      0x07\n      0x00\n      swap1\n      sload\n      swap1\n      0x0100\n      exp\n      swap1\n      div\n      0xffffffffffffffffffffffffffffffffffffffff\n      and\n        /* \"contracts/newBuilding.sol\":8409:8431  tx.origin == Developer */\n      0xffffffffffffffffffffffffffffffffffffffff\n      and\n        /* \"contracts/newBuilding.sol\":8409:8418  tx.origin */\n      origin\n        /* \"contracts/newBuilding.sol\":8409:8431  tx.origin == Developer */\n      0xffffffffffffffffffffffffffffffffffffffff\n      and\n      eq\n        /* \"contracts/newBuilding.sol\":8401:8473  require(tx.origin == Developer, \"Can only be executed by the Developer\") */\n      tag_189\n      jumpi\n      mload(0x40)\n      0x08c379a000000000000000000000000000000000000000000000000000000000\n      dup2\n      mstore\n      0x04\n      add\n      tag_190\n      swap1\n      tag_191\n      jump\t// in\n    tag_190:\n      mload(0x40)\n      dup1\n      swap2\n      sub\n      swap1\n      revert\n    tag_189:\n        /* \"contracts/newBuilding.sol\":10764:10769  false */\n      0x00\n        /* \"contracts/newBuilding.sol\":10742:10769  contractIsDisabled == false */\n      iszero\n      iszero\n        /* \"contracts/newBuilding.sol\":10742:10760  contractIsDisabled */\n      0x00\n      dup1\n      sload\n      swap1\n      0x0100\n      exp\n      swap1\n      div\n      0xff\n      and\n        /* \"contracts/newBuilding.sol\":10742:10769  contractIsDisabled == false */\n      iszero\n      iszero\n      eq\n        /* \"contracts/newBuilding.sol\":10734:10800  require(contractIsDisabled == false, \"Contract has been disabled\") */\n      tag_193\n      jumpi\n      mload(0x40)\n      0x08c379a000000000000000000000000000000000000000000000000000000000\n      dup2\n      mstore\n      0x04\n      add\n      tag_194\n      swap1\n      tag_134\n      jump\t// in\n    tag_194:\n      mload(0x40)\n      dup1\n      swap2\n      sub\n      swap1\n      revert\n    tag_193:\n        /* \"contracts/newBuilding.sol\":8182:8183  0 */\n      0x00\n        /* \"contracts/newBuilding.sol\":8133:8150  listOfContractors */\n      0x06\n        /* \"contracts/newBuilding.sol\":8133:8170  listOfContractors[contractor_Address] */\n      0x00\n        /* \"contracts/newBuilding.sol\":8151:8169  contractor_Address */\n      dup5\n        /* \"contracts/newBuilding.sol\":8133:8170  listOfContractors[contractor_Address] */\n      0xffffffffffffffffffffffffffffffffffffffff\n      and\n      0xffffffffffffffffffffffffffffffffffffffff\n      and\n      dup2\n      mstore\n      0x20\n      add\n      swap1\n      dup2\n      mstore\n      0x20\n      add\n      0x00\n      keccak256\n        /* \"contracts/newBuilding.sol\":8127:8178  bytes(listOfContractors[contractor_Address]).length */\n      dup1\n      sload\n      tag_196\n      swap1\n      tag_62\n      jump\t// in\n    tag_196:\n      swap1\n      pop\n        /* \"contracts/newBuilding.sol\":8127:8183  bytes(listOfContractors[contractor_Address]).length == 0 */\n      eq\n        /* \"contracts/newBuilding.sol\":8119:8221  require(bytes(listOfContractors[contractor_Address]).length == 0, \"Contractor is already registered\" ) */\n      tag_197\n      jumpi\n      mload(0x40)\n      0x08c379a000000000000000000000000000000000000000000000000000000000\n      dup2\n      mstore\n      0x04\n      add\n      tag_198\n      swap1\n      tag_199\n      jump\t// in\n    tag_198:\n      mload(0x40)\n      dup1\n      swap2\n      sub\n      swap1\n      revert\n    tag_197:\n        /* \"contracts/newBuilding.sol\":8272:8277  name_ */\n      dup1\n        /* \"contracts/newBuilding.sol\":8232:8249  listOfContractors */\n      0x06\n        /* \"contracts/newBuilding.sol\":8232:8269  listOfContractors[contractor_Address] */\n      0x00\n        /* \"contracts/newBuilding.sol\":8250:8268  contractor_Address */\n      dup5\n        /* \"contracts/newBuilding.sol\":8232:8269  listOfContractors[contractor_Address] */\n      0xffffffffffffffffffffffffffffffffffffffff\n      and\n      0xffffffffffffffffffffffffffffffffffffffff\n      and\n      dup2\n      mstore\n      0x20\n      add\n      swap1\n      dup2\n      mstore\n      0x20\n      add\n      0x00\n      keccak256\n        /* \"contracts/newBuilding.sol\":8232:8277  listOfContractors[contractor_Address] = name_ */\n      swap1\n      dup1\n      mload\n      swap1\n      0x20\n      add\n      swap1\n      tag_200\n      swap3\n      swap2\n      swap1\n      tag_140\n      jump\t// in\n    tag_200:\n      pop\n        /* \"contracts/newBuilding.sol\":8289:8312  allContractorsAddresses */\n      0x05\n        /* \"contracts/newBuilding.sol\":8318:8336  contractor_Address */\n      dup3\n        /* \"contracts/newBuilding.sol\":8289:8337  allContractorsAddresses.push(contractor_Address) */\n      swap1\n      dup1\n      0x01\n      dup2\n      sload\n      add\n      dup1\n      dup3\n      sstore\n      dup1\n      swap2\n      pop\n      pop\n      0x01\n      swap1\n      sub\n      swap1\n      0x00\n      mstore\n      keccak256(0x00, 0x20)\n      add\n      0x00\n      swap1\n      swap2\n      swap1\n      swap2\n      swap1\n      swap2\n      0x0100\n      exp\n      dup2\n      sload\n      dup2\n      0xffffffffffffffffffffffffffffffffffffffff\n      mul\n      not\n      and\n      swap1\n      dup4\n      0xffffffffffffffffffffffffffffffffffffffff\n      and\n      mul\n      or\n      swap1\n      sstore\n      pop\n        /* \"contracts/newBuilding.sol\":7993:8355  function addContractor ( address contractor_Address, string memory name_ ) public onlyByDeveloper disabledContract {\r... */\n      pop\n      pop\n      jump\t// out\n        /* \"@openzeppelin/contracts/utils/Strings.sol\":2245:2394  function toHexString(address addr) internal pure returns (string memory) {... */\n    tag_58:\n        /* \"@openzeppelin/contracts/utils/Strings.sol\":2303:2316  string memory */\n      0x60\n        /* \"@openzeppelin/contracts/utils/Strings.sol\":2335:2387  toHexString(uint256(uint160(addr)), _ADDRESS_LENGTH) */\n      tag_203\n        /* \"@openzeppelin/contracts/utils/Strings.sol\":2363:2367  addr */\n      dup3\n        /* \"@openzeppelin/contracts/utils/Strings.sol\":2347:2369  uint256(uint160(addr)) */\n      0xffffffffffffffffffffffffffffffffffffffff\n      and\n        /* \"@openzeppelin/contracts/utils/Strings.sol\":288:290  20 */\n      0x14\n        /* \"@openzeppelin/contracts/utils/Strings.sol\":2335:2387  toHexString(uint256(uint160(addr)), _ADDRESS_LENGTH) */\n      0xff\n      and\n        /* \"@openzeppelin/contracts/utils/Strings.sol\":2335:2346  toHexString */\n      tag_204\n        /* \"@openzeppelin/contracts/utils/Strings.sol\":2335:2387  toHexString(uint256(uint160(addr)), _ADDRESS_LENGTH) */\n      jump\t// in\n    tag_203:\n        /* \"@openzeppelin/contracts/utils/Strings.sol\":2328:2387  return toHexString(uint256(uint160(addr)), _ADDRESS_LENGTH) */\n      swap1\n      pop\n        /* \"@openzeppelin/contracts/utils/Strings.sol\":2245:2394  function toHexString(address addr) internal pure returns (string memory) {... */\n      swap2\n      swap1\n      pop\n      jump\t// out\n        /* \"@openzeppelin/contracts/utils/Strings.sol\":392:1095  function toString(uint256 value) internal pure returns (string memory) {... */\n    tag_106:\n        /* \"@openzeppelin/contracts/utils/Strings.sol\":448:461  string memory */\n      0x60\n        /* \"@openzeppelin/contracts/utils/Strings.sol\":674:675  0 */\n      0x00\n        /* \"@openzeppelin/contracts/utils/Strings.sol\":665:670  value */\n      dup3\n        /* \"@openzeppelin/contracts/utils/Strings.sol\":665:675  value == 0 */\n      eq\n        /* \"@openzeppelin/contracts/utils/Strings.sol\":661:712  if (value == 0) {... */\n      iszero\n      tag_206\n      jumpi\n        /* \"@openzeppelin/contracts/utils/Strings.sol\":691:701  return \"0\" */\n      mload(0x40)\n      dup1\n      0x40\n      add\n      0x40\n      mstore\n      dup1\n      0x01\n      dup2\n      mstore\n      0x20\n      add\n      0x3000000000000000000000000000000000000000000000000000000000000000\n      dup2\n      mstore\n      pop\n      swap1\n      pop\n      jump(tag_205)\n        /* \"@openzeppelin/contracts/utils/Strings.sol\":661:712  if (value == 0) {... */\n    tag_206:\n        /* \"@openzeppelin/contracts/utils/Strings.sol\":721:733  uint256 temp */\n      0x00\n        /* \"@openzeppelin/contracts/utils/Strings.sol\":736:741  value */\n      dup3\n        /* \"@openzeppelin/contracts/utils/Strings.sol\":721:741  uint256 temp = value */\n      swap1\n      pop\n        /* \"@openzeppelin/contracts/utils/Strings.sol\":751:765  uint256 digits */\n      0x00\n        /* \"@openzeppelin/contracts/utils/Strings.sol\":775:850  while (temp != 0) {... */\n    tag_207:\n        /* \"@openzeppelin/contracts/utils/Strings.sol\":790:791  0 */\n      0x00\n        /* \"@openzeppelin/contracts/utils/Strings.sol\":782:786  temp */\n      dup3\n        /* \"@openzeppelin/contracts/utils/Strings.sol\":782:791  temp != 0 */\n      eq\n        /* \"@openzeppelin/contracts/utils/Strings.sol\":775:850  while (temp != 0) {... */\n      tag_208\n      jumpi\n        /* \"@openzeppelin/contracts/utils/Strings.sol\":807:815  digits++ */\n      dup1\n      dup1\n      tag_209\n      swap1\n      tag_70\n      jump\t// in\n    tag_209:\n      swap2\n      pop\n      pop\n        /* \"@openzeppelin/contracts/utils/Strings.sol\":837:839  10 */\n      0x0a\n        /* \"@openzeppelin/contracts/utils/Strings.sol\":829:839  temp /= 10 */\n      dup3\n      tag_210\n      swap2\n      swap1\n      tag_211\n      jump\t// in\n    tag_210:\n      swap2\n      pop\n        /* \"@openzeppelin/contracts/utils/Strings.sol\":775:850  while (temp != 0) {... */\n      jump(tag_207)\n    tag_208:\n        /* \"@openzeppelin/contracts/utils/Strings.sol\":859:878  bytes memory buffer */\n      0x00\n        /* \"@openzeppelin/contracts/utils/Strings.sol\":891:897  digits */\n      dup2\n        /* \"@openzeppelin/contracts/utils/Strings.sol\":881:898  new bytes(digits) */\n      0xffffffffffffffff\n      dup2\n      gt\n      iszero\n      tag_212\n      jumpi\n      mstore(0x00, 0x4e487b7100000000000000000000000000000000000000000000000000000000)\n      mstore(0x04, 0x41)\n      revert(0x00, 0x24)\n    tag_212:\n      mload(0x40)\n      swap1\n      dup1\n      dup3\n      mstore\n      dup1\n      0x1f\n      add\n      not(0x1f)\n      and\n      0x20\n      add\n      dup3\n      add\n      0x40\n      mstore\n      dup1\n      iszero\n      tag_213\n      jumpi\n      dup2\n      0x20\n      add\n      0x01\n      dup3\n      mul\n      dup1\n      calldatasize\n      dup4\n      calldatacopy\n      dup1\n      dup3\n      add\n      swap2\n      pop\n      pop\n      swap1\n      pop\n    tag_213:\n      pop\n        /* \"@openzeppelin/contracts/utils/Strings.sol\":859:898  bytes memory buffer = new bytes(digits) */\n      swap1\n      pop\n        /* \"@openzeppelin/contracts/utils/Strings.sol\":908:1058  while (value != 0) {... */\n    tag_214:\n        /* \"@openzeppelin/contracts/utils/Strings.sol\":924:925  0 */\n      0x00\n        /* \"@openzeppelin/contracts/utils/Strings.sol\":915:920  value */\n      dup6\n        /* \"@openzeppelin/contracts/utils/Strings.sol\":915:925  value != 0 */\n      eq\n        /* \"@openzeppelin/contracts/utils/Strings.sol\":908:1058  while (value != 0) {... */\n      tag_215\n      jumpi\n        /* \"@openzeppelin/contracts/utils/Strings.sol\":951:952  1 */\n      0x01\n        /* \"@openzeppelin/contracts/utils/Strings.sol\":941:952  digits -= 1 */\n      dup3\n      tag_216\n      swap2\n      swap1\n      tag_168\n      jump\t// in\n    tag_216:\n      swap2\n      pop\n        /* \"@openzeppelin/contracts/utils/Strings.sol\":1017:1019  10 */\n      0x0a\n        /* \"@openzeppelin/contracts/utils/Strings.sol\":1009:1014  value */\n      dup6\n        /* \"@openzeppelin/contracts/utils/Strings.sol\":1009:1019  value % 10 */\n      tag_217\n      swap2\n      swap1\n      tag_218\n      jump\t// in\n    tag_217:\n        /* \"@openzeppelin/contracts/utils/Strings.sol\":996:998  48 */\n      0x30\n        /* \"@openzeppelin/contracts/utils/Strings.sol\":996:1020  48 + uint256(value % 10) */\n      tag_219\n      swap2\n      swap1\n      tag_220\n      jump\t// in\n    tag_219:\n        /* \"@openzeppelin/contracts/utils/Strings.sol\":983:1022  bytes1(uint8(48 + uint256(value % 10))) */\n      0xf8\n      shl\n        /* \"@openzeppelin/contracts/utils/Strings.sol\":966:972  buffer */\n      dup2\n        /* \"@openzeppelin/contracts/utils/Strings.sol\":973:979  digits */\n      dup4\n        /* \"@openzeppelin/contracts/utils/Strings.sol\":966:980  buffer[digits] */\n      dup2\n      mload\n      dup2\n      lt\n      tag_221\n      jumpi\n      mstore(0x00, 0x4e487b7100000000000000000000000000000000000000000000000000000000)\n      mstore(0x04, 0x32)\n      revert(0x00, 0x24)\n    tag_221:\n      0x20\n      add\n      add\n        /* \"@openzeppelin/contracts/utils/Strings.sol\":966:1022  buffer[digits] = bytes1(uint8(48 + uint256(value % 10))) */\n      swap1\n      not(0xffffffffffffffffffffffffffffffffffffffffffffffffffffffffffffff)\n      and\n      swap1\n      dup2\n      0x00\n      byte\n      swap1\n      mstore8\n      pop\n        /* \"@openzeppelin/contracts/utils/Strings.sol\":1045:1047  10 */\n      0x0a\n        /* \"@openzeppelin/contracts/utils/Strings.sol\":1036:1047  value /= 10 */\n      dup6\n      tag_222\n      swap2\n      swap1\n      tag_211\n      jump\t// in\n    tag_222:\n      swap5\n      pop\n        /* \"@openzeppelin/contracts/utils/Strings.sol\":908:1058  while (value != 0) {... */\n      jump(tag_214)\n    tag_215:\n        /* \"@openzeppelin/contracts/utils/Strings.sol\":1081:1087  buffer */\n      dup1\n        /* \"@openzeppelin/contracts/utils/Strings.sol\":1067:1088  return string(buffer) */\n      swap4\n      pop\n      pop\n      pop\n      pop\n        /* \"@openzeppelin/contracts/utils/Strings.sol\":392:1095  function toString(uint256 value) internal pure returns (string memory) {... */\n    tag_205:\n      swap2\n      swap1\n      pop\n      jump\t// out\n        /* \"@openzeppelin/contracts/utils/Strings.sol\":1652:2093  function toHexString(uint256 value, uint256 length) internal pure returns (string memory) {... */\n    tag_204:\n        /* \"@openzeppelin/contracts/utils/Strings.sol\":1727:1740  string memory */\n      0x60\n        /* \"@openzeppelin/contracts/utils/Strings.sol\":1752:1771  bytes memory buffer */\n      0x00\n        /* \"@openzeppelin/contracts/utils/Strings.sol\":1797:1798  2 */\n      0x02\n        /* \"@openzeppelin/contracts/utils/Strings.sol\":1788:1794  length */\n      dup4\n        /* \"@openzeppelin/contracts/utils/Strings.sol\":1784:1785  2 */\n      0x02\n        /* \"@openzeppelin/contracts/utils/Strings.sol\":1784:1794  2 * length */\n      tag_224\n      swap2\n      swap1\n      tag_225\n      jump\t// in\n    tag_224:\n        /* \"@openzeppelin/contracts/utils/Strings.sol\":1784:1798  2 * length + 2 */\n      tag_226\n      swap2\n      swap1\n      tag_220\n      jump\t// in\n    tag_226:\n        /* \"@openzeppelin/contracts/utils/Strings.sol\":1774:1799  new bytes(2 * length + 2) */\n      0xffffffffffffffff\n      dup2\n      gt\n      iszero\n      tag_227\n      jumpi\n      mstore(0x00, 0x4e487b7100000000000000000000000000000000000000000000000000000000)\n      mstore(0x04, 0x41)\n      revert(0x00, 0x24)\n    tag_227:\n      mload(0x40)\n      swap1\n      dup1\n      dup3\n      mstore\n      dup1\n      0x1f\n      add\n      not(0x1f)\n      and\n      0x20\n      add\n      dup3\n      add\n      0x40\n      mstore\n      dup1\n      iszero\n      tag_228\n      jumpi\n      dup2\n      0x20\n      add\n      0x01\n      dup3\n      mul\n      dup1\n      calldatasize\n      dup4\n      calldatacopy\n      dup1\n      dup3\n      add\n      swap2\n      pop\n      pop\n      swap1\n      pop\n    tag_228:\n      pop\n        /* \"@openzeppelin/contracts/utils/Strings.sol\":1752:1799  bytes memory buffer = new bytes(2 * length + 2) */\n      swap1\n      pop\n        /* \"@openzeppelin/contracts/utils/Strings.sol\":1809:1824  buffer[0] = \"0\" */\n      0x3000000000000000000000000000000000000000000000000000000000000000\n        /* \"@openzeppelin/contracts/utils/Strings.sol\":1809:1815  buffer */\n      dup2\n        /* \"@openzeppelin/contracts/utils/Strings.sol\":1816:1817  0 */\n      0x00\n        /* \"@openzeppelin/contracts/utils/Strings.sol\":1809:1818  buffer[0] */\n      dup2\n      mload\n      dup2\n      lt\n      tag_229\n      jumpi\n      mstore(0x00, 0x4e487b7100000000000000000000000000000000000000000000000000000000)\n      mstore(0x04, 0x32)\n      revert(0x00, 0x24)\n    tag_229:\n      0x20\n      add\n      add\n        /* \"@openzeppelin/contracts/utils/Strings.sol\":1809:1824  buffer[0] = \"0\" */\n      swap1\n      not(0xffffffffffffffffffffffffffffffffffffffffffffffffffffffffffffff)\n      and\n      swap1\n      dup2\n      0x00\n      byte\n      swap1\n      mstore8\n      pop\n        /* \"@openzeppelin/contracts/utils/Strings.sol\":1834:1849  buffer[1] = \"x\" */\n      0x7800000000000000000000000000000000000000000000000000000000000000\n        /* \"@openzeppelin/contracts/utils/Strings.sol\":1834:1840  buffer */\n      dup2\n        /* \"@openzeppelin/contracts/utils/Strings.sol\":1841:1842  1 */\n      0x01\n        /* \"@openzeppelin/contracts/utils/Strings.sol\":1834:1843  buffer[1] */\n      dup2\n      mload\n      dup2\n      lt\n      tag_230\n      jumpi\n      mstore(0x00, 0x4e487b7100000000000000000000000000000000000000000000000000000000)\n      mstore(0x04, 0x32)\n      revert(0x00, 0x24)\n    tag_230:\n      0x20\n      add\n      add\n        /* \"@openzeppelin/contracts/utils/Strings.sol\":1834:1849  buffer[1] = \"x\" */\n      swap1\n      not(0xffffffffffffffffffffffffffffffffffffffffffffffffffffffffffffff)\n      and\n      swap1\n      dup2\n      0x00\n      byte\n      swap1\n      mstore8\n      pop\n        /* \"@openzeppelin/contracts/utils/Strings.sol\":1864:1873  uint256 i */\n      0x00\n        /* \"@openzeppelin/contracts/utils/Strings.sol\":1889:1890  1 */\n      0x01\n        /* \"@openzeppelin/contracts/utils/Strings.sol\":1880:1886  length */\n      dup5\n        /* \"@openzeppelin/contracts/utils/Strings.sol\":1876:1877  2 */\n      0x02\n        /* \"@openzeppelin/contracts/utils/Strings.sol\":1876:1886  2 * length */\n      tag_234\n      swap2\n      swap1\n      tag_225\n      jump\t// in\n    tag_234:\n        /* \"@openzeppelin/contracts/utils/Strings.sol\":1876:1890  2 * length + 1 */\n      tag_235\n      swap2\n      swap1\n      tag_220\n      jump\t// in\n    tag_235:\n        /* \"@openzeppelin/contracts/utils/Strings.sol\":1864:1890  uint256 i = 2 * length + 1 */\n      swap1\n      pop\n        /* \"@openzeppelin/contracts/utils/Strings.sol\":1859:1991  for (uint256 i = 2 * length + 1; i > 1; --i) {... */\n    tag_231:\n        /* \"@openzeppelin/contracts/utils/Strings.sol\":1896:1897  1 */\n      0x01\n        /* \"@openzeppelin/contracts/utils/Strings.sol\":1892:1893  i */\n      dup2\n        /* \"@openzeppelin/contracts/utils/Strings.sol\":1892:1897  i > 1 */\n      gt\n        /* \"@openzeppelin/contracts/utils/Strings.sol\":1859:1991  for (uint256 i = 2 * length + 1; i > 1; --i) {... */\n      iszero\n      tag_232\n      jumpi\n        /* \"@openzeppelin/contracts/utils/Strings.sol\":1930:1942  _HEX_SYMBOLS */\n      0x3031323334353637383961626364656600000000000000000000000000000000\n        /* \"@openzeppelin/contracts/utils/Strings.sol\":1951:1954  0xf */\n      0x0f\n        /* \"@openzeppelin/contracts/utils/Strings.sol\":1943:1948  value */\n      dup7\n        /* \"@openzeppelin/contracts/utils/Strings.sol\":1943:1954  value & 0xf */\n      and\n        /* \"@openzeppelin/contracts/utils/Strings.sol\":1930:1955  _HEX_SYMBOLS[value & 0xf] */\n      0x10\n      dup2\n      lt\n      tag_236\n      jumpi\n      mstore(0x00, 0x4e487b7100000000000000000000000000000000000000000000000000000000)\n      mstore(0x04, 0x32)\n      revert(0x00, 0x24)\n    tag_236:\n      byte\n      0xf8\n      shl\n        /* \"@openzeppelin/contracts/utils/Strings.sol\":1918:1924  buffer */\n      dup3\n        /* \"@openzeppelin/contracts/utils/Strings.sol\":1925:1926  i */\n      dup3\n        /* \"@openzeppelin/contracts/utils/Strings.sol\":1918:1927  buffer[i] */\n      dup2\n      mload\n      dup2\n      lt\n      tag_237\n      jumpi\n      mstore(0x00, 0x4e487b7100000000000000000000000000000000000000000000000000000000)\n      mstore(0x04, 0x32)\n      revert(0x00, 0x24)\n    tag_237:\n      0x20\n      add\n      add\n        /* \"@openzeppelin/contracts/utils/Strings.sol\":1918:1955  buffer[i] = _HEX_SYMBOLS[value & 0xf] */\n      swap1\n      not(0xffffffffffffffffffffffffffffffffffffffffffffffffffffffffffffff)\n      and\n      swap1\n      dup2\n      0x00\n      byte\n      swap1\n      mstore8\n      pop\n        /* \"@openzeppelin/contracts/utils/Strings.sol\":1979:1980  4 */\n      0x04\n        /* \"@openzeppelin/contracts/utils/Strings.sol\":1969:1980  value >>= 4 */\n      dup6\n      swap1\n      shr\n      swap5\n      pop\n        /* \"@openzeppelin/contracts/utils/Strings.sol\":1899:1902  --i */\n      dup1\n      tag_238\n      swap1\n      tag_239\n      jump\t// in\n    tag_238:\n      swap1\n      pop\n        /* \"@openzeppelin/contracts/utils/Strings.sol\":1859:1991  for (uint256 i = 2 * length + 1; i > 1; --i) {... */\n      jump(tag_231)\n    tag_232:\n      pop\n        /* \"@openzeppelin/contracts/utils/Strings.sol\":2017:2018  0 */\n      0x00\n        /* \"@openzeppelin/contracts/utils/Strings.sol\":2008:2013  value */\n      dup5\n        /* \"@openzeppelin/contracts/utils/Strings.sol\":2008:2018  value == 0 */\n      eq\n        /* \"@openzeppelin/contracts/utils/Strings.sol\":2000:2055  require(value == 0, \"Strings: hex length insufficient\") */\n      tag_240\n      jumpi\n      mload(0x40)\n      0x08c379a000000000000000000000000000000000000000000000000000000000\n      dup2\n      mstore\n      0x04\n      add\n      tag_241\n      swap1\n      tag_242\n      jump\t// in\n    tag_241:\n      mload(0x40)\n      dup1\n      swap2\n      sub\n      swap1\n      revert\n    tag_240:\n        /* \"@openzeppelin/contracts/utils/Strings.sol\":2079:2085  buffer */\n      dup1\n        /* \"@openzeppelin/contracts/utils/Strings.sol\":2065:2086  return string(buffer) */\n      swap2\n      pop\n      pop\n        /* \"@openzeppelin/contracts/utils/Strings.sol\":1652:2093  function toHexString(uint256 value, uint256 length) internal pure returns (string memory) {... */\n      swap3\n      swap2\n      pop\n      pop\n      jump\t// out\n    tag_140:\n      dup3\n      dup1\n      sload\n      tag_243\n      swap1\n      tag_62\n      jump\t// in\n    tag_243:\n      swap1\n      0x00\n      mstore\n      keccak256(0x00, 0x20)\n      swap1\n      0x1f\n      add\n      0x20\n      swap1\n      div\n      dup2\n      add\n      swap3\n      dup3\n      tag_245\n      jumpi\n      0x00\n      dup6\n      sstore\n      jump(tag_244)\n    tag_245:\n      dup3\n      0x1f\n      lt\n      tag_246\n      jumpi\n      dup1\n      mload\n      not(0xff)\n      and\n      dup4\n      dup1\n      add\n      or\n      dup6\n      sstore\n      jump(tag_244)\n    tag_246:\n      dup3\n      dup1\n      add\n      0x01\n      add\n      dup6\n      sstore\n      dup3\n      iszero\n      tag_244\n      jumpi\n      swap2\n      dup3\n      add\n    tag_247:\n      dup3\n      dup2\n      gt\n      iszero\n      tag_248\n      jumpi\n      dup3\n      mload\n      dup3\n      sstore\n      swap2\n      0x20\n      add\n      swap2\n      swap1\n      0x01\n      add\n      swap1\n      jump(tag_247)\n    tag_248:\n    tag_244:\n      pop\n      swap1\n      pop\n      tag_249\n      swap2\n      swap1\n      tag_250\n      jump\t// in\n    tag_249:\n      pop\n      swap1\n      jump\t// out\n    tag_142:\n      mload(0x40)\n      dup1\n      0x80\n      add\n      0x40\n      mstore\n      dup1\n      0x00\n      dup2\n      mstore\n      0x20\n      add\n      and(0xffffffffffffffffffffffffffffffffffffffff, 0x00)\n      dup2\n      mstore\n      0x20\n      add\n      0x00\n      dup2\n      mstore\n      0x20\n      add\n      0x60\n      dup2\n      mstore\n      pop\n      swap1\n      jump\t// out\n    tag_154:\n      mload(0x40)\n      dup1\n      0x40\n      add\n      0x40\n      mstore\n      dup1\n      and(0xffffffffffffffffffffffffffffffffffffffff, 0x00)\n      dup2\n      mstore\n      0x20\n      add\n      0x60\n      dup2\n      mstore\n      pop\n      swap1\n      jump\t// out\n    tag_250:\n    tag_251:\n      dup1\n      dup3\n      gt\n      iszero\n      tag_252\n      jumpi\n      0x00\n      dup2\n      0x00\n      swap1\n      sstore\n      pop\n      0x01\n      add\n      jump(tag_251)\n    tag_252:\n      pop\n      swap1\n      jump\t// out\n        /* \"#utility.yul\":44:704   */\n    tag_254:\n      0x00\n        /* \"#utility.yul\":190:295   */\n      tag_256\n        /* \"#utility.yul\":205:294   */\n      tag_257\n        /* \"#utility.yul\":287:293   */\n      dup5\n        /* \"#utility.yul\":205:294   */\n      tag_258\n      jump\t// in\n    tag_257:\n        /* \"#utility.yul\":190:295   */\n      tag_259\n      jump\t// in\n    tag_256:\n        /* \"#utility.yul\":181:295   */\n      swap1\n      pop\n        /* \"#utility.yul\":315:320   */\n      dup1\n        /* \"#utility.yul\":343:349   */\n      dup4\n        /* \"#utility.yul\":336:341   */\n      dup3\n        /* \"#utility.yul\":329:350   */\n      mstore\n        /* \"#utility.yul\":369:373   */\n      0x20\n        /* \"#utility.yul\":362:367   */\n      dup3\n        /* \"#utility.yul\":358:374   */\n      add\n        /* \"#utility.yul\":351:374   */\n      swap1\n      pop\n        /* \"#utility.yul\":394:400   */\n      dup3\n        /* \"#utility.yul\":425:426   */\n      0x00\n        /* \"#utility.yul\":410:698   */\n    tag_260:\n        /* \"#utility.yul\":435:441   */\n      dup6\n        /* \"#utility.yul\":432:433   */\n      dup2\n        /* \"#utility.yul\":429:442   */\n      lt\n        /* \"#utility.yul\":410:698   */\n      iszero\n      tag_262\n      jumpi\n        /* \"#utility.yul\":527:530   */\n      dup2\n        /* \"#utility.yul\":514:531   */\n      calldataload\n        /* \"#utility.yul\":506:512   */\n      dup6\n        /* \"#utility.yul\":502:532   */\n      add\n        /* \"#utility.yul\":557:619   */\n      tag_263\n        /* \"#utility.yul\":615:618   */\n      dup9\n        /* \"#utility.yul\":603:613   */\n      dup3\n        /* \"#utility.yul\":557:619   */\n      tag_264\n      jump\t// in\n    tag_263:\n        /* \"#utility.yul\":552:555   */\n      dup5\n        /* \"#utility.yul\":545:620   */\n      mstore\n        /* \"#utility.yul\":649:653   */\n      0x20\n        /* \"#utility.yul\":644:647   */\n      dup5\n        /* \"#utility.yul\":640:654   */\n      add\n        /* \"#utility.yul\":633:654   */\n      swap4\n      pop\n        /* \"#utility.yul\":683:687   */\n      0x20\n        /* \"#utility.yul\":678:681   */\n      dup4\n        /* \"#utility.yul\":674:688   */\n      add\n        /* \"#utility.yul\":667:688   */\n      swap3\n      pop\n        /* \"#utility.yul\":470:698   */\n      pop\n        /* \"#utility.yul\":457:458   */\n      0x01\n        /* \"#utility.yul\":454:455   */\n      dup2\n        /* \"#utility.yul\":450:459   */\n      add\n        /* \"#utility.yul\":445:459   */\n      swap1\n      pop\n        /* \"#utility.yul\":410:698   */\n      jump(tag_260)\n    tag_262:\n        /* \"#utility.yul\":414:428   */\n      pop\n        /* \"#utility.yul\":171:704   */\n      pop\n      pop\n      swap4\n      swap3\n      pop\n      pop\n      pop\n      jump\t// out\n        /* \"#utility.yul\":710:1054   */\n    tag_265:\n      0x00\n        /* \"#utility.yul\":813:878   */\n      tag_267\n        /* \"#utility.yul\":828:877   */\n      tag_268\n        /* \"#utility.yul\":870:876   */\n      dup5\n        /* \"#utility.yul\":828:877   */\n      tag_269\n      jump\t// in\n    tag_268:\n        /* \"#utility.yul\":813:878   */\n      tag_259\n      jump\t// in\n    tag_267:\n        /* \"#utility.yul\":804:878   */\n      swap1\n      pop\n        /* \"#utility.yul\":901:907   */\n      dup3\n        /* \"#utility.yul\":894:899   */\n      dup2\n        /* \"#utility.yul\":887:908   */\n      mstore\n        /* \"#utility.yul\":939:943   */\n      0x20\n        /* \"#utility.yul\":932:937   */\n      dup2\n        /* \"#utility.yul\":928:944   */\n      add\n        /* \"#utility.yul\":977:980   */\n      dup5\n        /* \"#utility.yul\":968:974   */\n      dup5\n        /* \"#utility.yul\":963:966   */\n      dup5\n        /* \"#utility.yul\":959:975   */\n      add\n        /* \"#utility.yul\":956:981   */\n      gt\n        /* \"#utility.yul\":953:955   */\n      iszero\n      tag_270\n      jumpi\n        /* \"#utility.yul\":994:995   */\n      0x00\n        /* \"#utility.yul\":991:992   */\n      dup1\n        /* \"#utility.yul\":984:996   */\n      revert\n        /* \"#utility.yul\":953:955   */\n    tag_270:\n        /* \"#utility.yul\":1007:1048   */\n      tag_271\n        /* \"#utility.yul\":1041:1047   */\n      dup5\n        /* \"#utility.yul\":1036:1039   */\n      dup3\n        /* \"#utility.yul\":1031:1034   */\n      dup6\n        /* \"#utility.yul\":1007:1048   */\n      tag_272\n      jump\t// in\n    tag_271:\n        /* \"#utility.yul\":794:1054   */\n      pop\n      swap4\n      swap3\n      pop\n      pop\n      pop\n      jump\t// out\n        /* \"#utility.yul\":1060:1199   */\n    tag_273:\n      0x00\n        /* \"#utility.yul\":1144:1150   */\n      dup2\n        /* \"#utility.yul\":1131:1151   */\n      calldataload\n        /* \"#utility.yul\":1122:1151   */\n      swap1\n      pop\n        /* \"#utility.yul\":1160:1193   */\n      tag_275\n        /* \"#utility.yul\":1187:1192   */\n      dup2\n        /* \"#utility.yul\":1160:1193   */\n      tag_276\n      jump\t// in\n    tag_275:\n        /* \"#utility.yul\":1112:1199   */\n      swap3\n      swap2\n      pop\n      pop\n      jump\t// out\n        /* \"#utility.yul\":1242:1595   */\n    tag_277:\n      0x00\n        /* \"#utility.yul\":1387:1390   */\n      dup3\n        /* \"#utility.yul\":1380:1384   */\n      0x1f\n        /* \"#utility.yul\":1372:1378   */\n      dup4\n        /* \"#utility.yul\":1368:1385   */\n      add\n        /* \"#utility.yul\":1364:1391   */\n      slt\n        /* \"#utility.yul\":1354:1356   */\n      tag_279\n      jumpi\n        /* \"#utility.yul\":1405:1406   */\n      0x00\n        /* \"#utility.yul\":1402:1403   */\n      dup1\n        /* \"#utility.yul\":1395:1407   */\n      revert\n        /* \"#utility.yul\":1354:1356   */\n    tag_279:\n        /* \"#utility.yul\":1445:1451   */\n      dup2\n        /* \"#utility.yul\":1432:1452   */\n      calldataload\n        /* \"#utility.yul\":1470:1589   */\n      tag_280\n        /* \"#utility.yul\":1585:1588   */\n      dup5\n        /* \"#utility.yul\":1577:1583   */\n      dup3\n        /* \"#utility.yul\":1570:1574   */\n      0x20\n        /* \"#utility.yul\":1562:1568   */\n      dup7\n        /* \"#utility.yul\":1558:1575   */\n      add\n        /* \"#utility.yul\":1470:1589   */\n      tag_254\n      jump\t// in\n    tag_280:\n        /* \"#utility.yul\":1461:1589   */\n      swap2\n      pop\n        /* \"#utility.yul\":1344:1595   */\n      pop\n      swap3\n      swap2\n      pop\n      pop\n      jump\t// out\n        /* \"#utility.yul\":1615:1888   */\n    tag_281:\n      0x00\n        /* \"#utility.yul\":1720:1723   */\n      dup3\n        /* \"#utility.yul\":1713:1717   */\n      0x1f\n        /* \"#utility.yul\":1705:1711   */\n      dup4\n        /* \"#utility.yul\":1701:1718   */\n      add\n        /* \"#utility.yul\":1697:1724   */\n      slt\n        /* \"#utility.yul\":1687:1689   */\n      tag_283\n      jumpi\n        /* \"#utility.yul\":1738:1739   */\n      0x00\n        /* \"#utility.yul\":1735:1736   */\n      dup1\n        /* \"#utility.yul\":1728:1740   */\n      revert\n        /* \"#utility.yul\":1687:1689   */\n    tag_283:\n        /* \"#utility.yul\":1778:1784   */\n      dup2\n        /* \"#utility.yul\":1765:1785   */\n      calldataload\n        /* \"#utility.yul\":1803:1882   */\n      tag_284\n        /* \"#utility.yul\":1878:1881   */\n      dup5\n        /* \"#utility.yul\":1870:1876   */\n      dup3\n        /* \"#utility.yul\":1863:1867   */\n      0x20\n        /* \"#utility.yul\":1855:1861   */\n      dup7\n        /* \"#utility.yul\":1851:1868   */\n      add\n        /* \"#utility.yul\":1803:1882   */\n      tag_265\n      jump\t// in\n    tag_284:\n        /* \"#utility.yul\":1794:1882   */\n      swap2\n      pop\n        /* \"#utility.yul\":1677:1888   */\n      pop\n      swap3\n      swap2\n      pop\n      pop\n      jump\t// out\n        /* \"#utility.yul\":1929:2557   */\n    tag_264:\n      0x00\n        /* \"#utility.yul\":2047:2051   */\n      0x40\n        /* \"#utility.yul\":2035:2044   */\n      dup3\n        /* \"#utility.yul\":2030:2033   */\n      dup5\n        /* \"#utility.yul\":2026:2045   */\n      sub\n        /* \"#utility.yul\":2022:2052   */\n      slt\n        /* \"#utility.yul\":2019:2021   */\n      iszero\n      tag_286\n      jumpi\n        /* \"#utility.yul\":2065:2066   */\n      0x00\n        /* \"#utility.yul\":2062:2063   */\n      dup1\n        /* \"#utility.yul\":2055:2067   */\n      revert\n        /* \"#utility.yul\":2019:2021   */\n    tag_286:\n        /* \"#utility.yul\":2087:2107   */\n      tag_287\n        /* \"#utility.yul\":2102:2106   */\n      0x40\n        /* \"#utility.yul\":2087:2107   */\n      tag_259\n      jump\t// in\n    tag_287:\n        /* \"#utility.yul\":2078:2107   */\n      swap1\n      pop\n        /* \"#utility.yul\":2177:2178   */\n      0x00\n        /* \"#utility.yul\":2217:2266   */\n      tag_288\n        /* \"#utility.yul\":2262:2265   */\n      dup5\n        /* \"#utility.yul\":2253:2259   */\n      dup3\n        /* \"#utility.yul\":2242:2251   */\n      dup6\n        /* \"#utility.yul\":2238:2260   */\n      add\n        /* \"#utility.yul\":2217:2266   */\n      tag_273\n      jump\t// in\n    tag_288:\n        /* \"#utility.yul\":2210:2214   */\n      0x00\n        /* \"#utility.yul\":2203:2208   */\n      dup4\n        /* \"#utility.yul\":2199:2215   */\n      add\n        /* \"#utility.yul\":2192:2267   */\n      mstore\n        /* \"#utility.yul\":2117:2278   */\n      pop\n        /* \"#utility.yul\":2373:2375   */\n      0x20\n        /* \"#utility.yul\":2362:2371   */\n      dup3\n        /* \"#utility.yul\":2358:2376   */\n      add\n        /* \"#utility.yul\":2345:2377   */\n      calldataload\n        /* \"#utility.yul\":2404:2422   */\n      0xffffffffffffffff\n        /* \"#utility.yul\":2396:2402   */\n      dup2\n        /* \"#utility.yul\":2393:2423   */\n      gt\n        /* \"#utility.yul\":2390:2392   */\n      iszero\n      tag_289\n      jumpi\n        /* \"#utility.yul\":2436:2437   */\n      0x00\n        /* \"#utility.yul\":2433:2434   */\n      dup1\n        /* \"#utility.yul\":2426:2438   */\n      revert\n        /* \"#utility.yul\":2390:2392   */\n    tag_289:\n        /* \"#utility.yul\":2479:2538   */\n      tag_290\n        /* \"#utility.yul\":2534:2537   */\n      dup5\n        /* \"#utility.yul\":2525:2531   */\n      dup3\n        /* \"#utility.yul\":2514:2523   */\n      dup6\n        /* \"#utility.yul\":2510:2532   */\n      add\n        /* \"#utility.yul\":2479:2538   */\n      tag_281\n      jump\t// in\n    tag_290:\n        /* \"#utility.yul\":2472:2476   */\n      0x20\n        /* \"#utility.yul\":2465:2470   */\n      dup4\n        /* \"#utility.yul\":2461:2477   */\n      add\n        /* \"#utility.yul\":2454:2539   */\n      mstore\n        /* \"#utility.yul\":2288:2550   */\n      pop\n        /* \"#utility.yul\":2009:2557   */\n      swap3\n      swap2\n      pop\n      pop\n      jump\t// out\n        /* \"#utility.yul\":2563:2702   */\n    tag_291:\n      0x00\n        /* \"#utility.yul\":2647:2653   */\n      dup2\n        /* \"#utility.yul\":2634:2654   */\n      calldataload\n        /* \"#utility.yul\":2625:2654   */\n      swap1\n      pop\n        /* \"#utility.yul\":2663:2696   */\n      tag_293\n        /* \"#utility.yul\":2690:2695   */\n      dup2\n        /* \"#utility.yul\":2663:2696   */\n      tag_294\n      jump\t// in\n    tag_293:\n        /* \"#utility.yul\":2615:2702   */\n      swap3\n      swap2\n      pop\n      pop\n      jump\t// out\n        /* \"#utility.yul\":2708:2970   */\n    tag_41:\n      0x00\n        /* \"#utility.yul\":2816:2818   */\n      0x20\n        /* \"#utility.yul\":2804:2813   */\n      dup3\n        /* \"#utility.yul\":2795:2802   */\n      dup5\n        /* \"#utility.yul\":2791:2814   */\n      sub\n        /* \"#utility.yul\":2787:2819   */\n      slt\n        /* \"#utility.yul\":2784:2786   */\n      iszero\n      tag_296\n      jumpi\n        /* \"#utility.yul\":2832:2833   */\n      0x00\n        /* \"#utility.yul\":2829:2830   */\n      dup1\n        /* \"#utility.yul\":2822:2834   */\n      revert\n        /* \"#utility.yul\":2784:2786   */\n    tag_296:\n        /* \"#utility.yul\":2875:2876   */\n      0x00\n        /* \"#utility.yul\":2900:2953   */\n      tag_297\n        /* \"#utility.yul\":2945:2952   */\n      dup5\n        /* \"#utility.yul\":2936:2942   */\n      dup3\n        /* \"#utility.yul\":2925:2934   */\n      dup6\n        /* \"#utility.yul\":2921:2943   */\n      add\n        /* \"#utility.yul\":2900:2953   */\n      tag_273\n      jump\t// in\n    tag_297:\n        /* \"#utility.yul\":2890:2953   */\n      swap2\n      pop\n        /* \"#utility.yul\":2846:2963   */\n      pop\n        /* \"#utility.yul\":2774:2970   */\n      swap3\n      swap2\n      pop\n      pop\n      jump\t// out\n        /* \"#utility.yul\":2976:3496   */\n    tag_46:\n      0x00\n      dup1\n        /* \"#utility.yul\":3111:3113   */\n      0x40\n        /* \"#utility.yul\":3099:3108   */\n      dup4\n        /* \"#utility.yul\":3090:3097   */\n      dup6\n        /* \"#utility.yul\":3086:3109   */\n      sub\n        /* \"#utility.yul\":3082:3114   */\n      slt\n        /* \"#utility.yul\":3079:3081   */\n      iszero\n      tag_299\n      jumpi\n        /* \"#utility.yul\":3127:3128   */\n      0x00\n        /* \"#utility.yul\":3124:3125   */\n      dup1\n        /* \"#utility.yul\":3117:3129   */\n      revert\n        /* \"#utility.yul\":3079:3081   */\n    tag_299:\n        /* \"#utility.yul\":3170:3171   */\n      0x00\n        /* \"#utility.yul\":3195:3248   */\n      tag_300\n        /* \"#utility.yul\":3240:3247   */\n      dup6\n        /* \"#utility.yul\":3231:3237   */\n      dup3\n        /* \"#utility.yul\":3220:3229   */\n      dup7\n        /* \"#utility.yul\":3216:3238   */\n      add\n        /* \"#utility.yul\":3195:3248   */\n      tag_273\n      jump\t// in\n    tag_300:\n        /* \"#utility.yul\":3185:3248   */\n      swap3\n      pop\n        /* \"#utility.yul\":3141:3258   */\n      pop\n        /* \"#utility.yul\":3325:3327   */\n      0x20\n        /* \"#utility.yul\":3314:3323   */\n      dup4\n        /* \"#utility.yul\":3310:3328   */\n      add\n        /* \"#utility.yul\":3297:3329   */\n      calldataload\n        /* \"#utility.yul\":3356:3374   */\n      0xffffffffffffffff\n        /* \"#utility.yul\":3348:3354   */\n      dup2\n        /* \"#utility.yul\":3345:3375   */\n      gt\n        /* \"#utility.yul\":3342:3344   */\n      iszero\n      tag_301\n      jumpi\n        /* \"#utility.yul\":3388:3389   */\n      0x00\n        /* \"#utility.yul\":3385:3386   */\n      dup1\n        /* \"#utility.yul\":3378:3390   */\n      revert\n        /* \"#utility.yul\":3342:3344   */\n    tag_301:\n        /* \"#utility.yul\":3416:3479   */\n      tag_302\n        /* \"#utility.yul\":3471:3478   */\n      dup6\n        /* \"#utility.yul\":3462:3468   */\n      dup3\n        /* \"#utility.yul\":3451:3460   */\n      dup7\n        /* \"#utility.yul\":3447:3469   */\n      add\n        /* \"#utility.yul\":3416:3479   */\n      tag_281\n      jump\t// in\n    tag_302:\n        /* \"#utility.yul\":3406:3479   */\n      swap2\n      pop\n        /* \"#utility.yul\":3268:3489   */\n      pop\n        /* \"#utility.yul\":3069:3496   */\n      swap3\n      pop\n      swap3\n      swap1\n      pop\n      jump\t// out\n        /* \"#utility.yul\":3502:3877   */\n    tag_27:\n      0x00\n        /* \"#utility.yul\":3620:3622   */\n      0x20\n        /* \"#utility.yul\":3608:3617   */\n      dup3\n        /* \"#utility.yul\":3599:3606   */\n      dup5\n        /* \"#utility.yul\":3595:3618   */\n      sub\n        /* \"#utility.yul\":3591:3623   */\n      slt\n        /* \"#utility.yul\":3588:3590   */\n      iszero\n      tag_304\n      jumpi\n        /* \"#utility.yul\":3636:3637   */\n      0x00\n        /* \"#utility.yul\":3633:3634   */\n      dup1\n        /* \"#utility.yul\":3626:3638   */\n      revert\n        /* \"#utility.yul\":3588:3590   */\n    tag_304:\n        /* \"#utility.yul\":3707:3708   */\n      0x00\n        /* \"#utility.yul\":3696:3705   */\n      dup3\n        /* \"#utility.yul\":3692:3709   */\n      add\n        /* \"#utility.yul\":3679:3710   */\n      calldataload\n        /* \"#utility.yul\":3737:3755   */\n      0xffffffffffffffff\n        /* \"#utility.yul\":3729:3735   */\n      dup2\n        /* \"#utility.yul\":3726:3756   */\n      gt\n        /* \"#utility.yul\":3723:3725   */\n      iszero\n      tag_305\n      jumpi\n        /* \"#utility.yul\":3769:3770   */\n      0x00\n        /* \"#utility.yul\":3766:3767   */\n      dup1\n        /* \"#utility.yul\":3759:3771   */\n      revert\n        /* \"#utility.yul\":3723:3725   */\n    tag_305:\n        /* \"#utility.yul\":3797:3860   */\n      tag_306\n        /* \"#utility.yul\":3852:3859   */\n      dup5\n        /* \"#utility.yul\":3843:3849   */\n      dup3\n        /* \"#utility.yul\":3832:3841   */\n      dup6\n        /* \"#utility.yul\":3828:3850   */\n      add\n        /* \"#utility.yul\":3797:3860   */\n      tag_281\n      jump\t// in\n    tag_306:\n        /* \"#utility.yul\":3787:3860   */\n      swap2\n      pop\n        /* \"#utility.yul\":3650:3870   */\n      pop\n        /* \"#utility.yul\":3578:3877   */\n      swap3\n      swap2\n      pop\n      pop\n      jump\t// out\n        /* \"#utility.yul\":3883:5146   */\n    tag_32:\n      0x00\n      dup1\n      0x00\n      dup1\n      0x00\n        /* \"#utility.yul\":4129:4132   */\n      0xa0\n        /* \"#utility.yul\":4117:4126   */\n      dup7\n        /* \"#utility.yul\":4108:4115   */\n      dup9\n        /* \"#utility.yul\":4104:4127   */\n      sub\n        /* \"#utility.yul\":4100:4133   */\n      slt\n        /* \"#utility.yul\":4097:4099   */\n      iszero\n      tag_308\n      jumpi\n        /* \"#utility.yul\":4146:4147   */\n      0x00\n        /* \"#utility.yul\":4143:4144   */\n      dup1\n        /* \"#utility.yul\":4136:4148   */\n      revert\n        /* \"#utility.yul\":4097:4099   */\n    tag_308:\n        /* \"#utility.yul\":4217:4218   */\n      0x00\n        /* \"#utility.yul\":4206:4215   */\n      dup7\n        /* \"#utility.yul\":4202:4219   */\n      add\n        /* \"#utility.yul\":4189:4220   */\n      calldataload\n        /* \"#utility.yul\":4247:4265   */\n      0xffffffffffffffff\n        /* \"#utility.yul\":4239:4245   */\n      dup2\n        /* \"#utility.yul\":4236:4266   */\n      gt\n        /* \"#utility.yul\":4233:4235   */\n      iszero\n      tag_309\n      jumpi\n        /* \"#utility.yul\":4279:4280   */\n      0x00\n        /* \"#utility.yul\":4276:4277   */\n      dup1\n        /* \"#utility.yul\":4269:4281   */\n      revert\n        /* \"#utility.yul\":4233:4235   */\n    tag_309:\n        /* \"#utility.yul\":4307:4370   */\n      tag_310\n        /* \"#utility.yul\":4362:4369   */\n      dup9\n        /* \"#utility.yul\":4353:4359   */\n      dup3\n        /* \"#utility.yul\":4342:4351   */\n      dup10\n        /* \"#utility.yul\":4338:4360   */\n      add\n        /* \"#utility.yul\":4307:4370   */\n      tag_281\n      jump\t// in\n    tag_310:\n        /* \"#utility.yul\":4297:4370   */\n      swap6\n      pop\n        /* \"#utility.yul\":4160:4380   */\n      pop\n        /* \"#utility.yul\":4419:4421   */\n      0x20\n        /* \"#utility.yul\":4445:4498   */\n      tag_311\n        /* \"#utility.yul\":4490:4497   */\n      dup9\n        /* \"#utility.yul\":4481:4487   */\n      dup3\n        /* \"#utility.yul\":4470:4479   */\n      dup10\n        /* \"#utility.yul\":4466:4488   */\n      add\n        /* \"#utility.yul\":4445:4498   */\n      tag_273\n      jump\t// in\n    tag_311:\n        /* \"#utility.yul\":4435:4498   */\n      swap5\n      pop\n        /* \"#utility.yul\":4390:4508   */\n      pop\n        /* \"#utility.yul\":4547:4549   */\n      0x40\n        /* \"#utility.yul\":4573:4626   */\n      tag_312\n        /* \"#utility.yul\":4618:4625   */\n      dup9\n        /* \"#utility.yul\":4609:4615   */\n      dup3\n        /* \"#utility.yul\":4598:4607   */\n      dup10\n        /* \"#utility.yul\":4594:4616   */\n      add\n        /* \"#utility.yul\":4573:4626   */\n      tag_291\n      jump\t// in\n    tag_312:\n        /* \"#utility.yul\":4563:4626   */\n      swap4\n      pop\n        /* \"#utility.yul\":4518:4636   */\n      pop\n        /* \"#utility.yul\":4703:4705   */\n      0x60\n        /* \"#utility.yul\":4692:4701   */\n      dup7\n        /* \"#utility.yul\":4688:4706   */\n      add\n        /* \"#utility.yul\":4675:4707   */\n      calldataload\n        /* \"#utility.yul\":4734:4752   */\n      0xffffffffffffffff\n        /* \"#utility.yul\":4726:4732   */\n      dup2\n        /* \"#utility.yul\":4723:4753   */\n      gt\n        /* \"#utility.yul\":4720:4722   */\n      iszero\n      tag_313\n      jumpi\n        /* \"#utility.yul\":4766:4767   */\n      0x00\n        /* \"#utility.yul\":4763:4764   */\n      dup1\n        /* \"#utility.yul\":4756:4768   */\n      revert\n        /* \"#utility.yul\":4720:4722   */\n    tag_313:\n        /* \"#utility.yul\":4794:4857   */\n      tag_314\n        /* \"#utility.yul\":4849:4856   */\n      dup9\n        /* \"#utility.yul\":4840:4846   */\n      dup3\n        /* \"#utility.yul\":4829:4838   */\n      dup10\n        /* \"#utility.yul\":4825:4847   */\n      add\n        /* \"#utility.yul\":4794:4857   */\n      tag_281\n      jump\t// in\n    tag_314:\n        /* \"#utility.yul\":4784:4857   */\n      swap3\n      pop\n        /* \"#utility.yul\":4646:4867   */\n      pop\n        /* \"#utility.yul\":4934:4937   */\n      0x80\n        /* \"#utility.yul\":4923:4932   */\n      dup7\n        /* \"#utility.yul\":4919:4938   */\n      add\n        /* \"#utility.yul\":4906:4939   */\n      calldataload\n        /* \"#utility.yul\":4966:4984   */\n      0xffffffffffffffff\n        /* \"#utility.yul\":4958:4964   */\n      dup2\n        /* \"#utility.yul\":4955:4985   */\n      gt\n        /* \"#utility.yul\":4952:4954   */\n      iszero\n      tag_315\n      jumpi\n        /* \"#utility.yul\":4998:4999   */\n      0x00\n        /* \"#utility.yul\":4995:4996   */\n      dup1\n        /* \"#utility.yul\":4988:5000   */\n      revert\n        /* \"#utility.yul\":4952:4954   */\n    tag_315:\n        /* \"#utility.yul\":5026:5129   */\n      tag_316\n        /* \"#utility.yul\":5121:5128   */\n      dup9\n        /* \"#utility.yul\":5112:5118   */\n      dup3\n        /* \"#utility.yul\":5101:5110   */\n      dup10\n        /* \"#utility.yul\":5097:5119   */\n      add\n        /* \"#utility.yul\":5026:5129   */\n      tag_277\n      jump\t// in\n    tag_316:\n        /* \"#utility.yul\":5016:5129   */\n      swap2\n      pop\n        /* \"#utility.yul\":4877:5139   */\n      pop\n        /* \"#utility.yul\":4087:5146   */\n      swap3\n      swap6\n      pop\n      swap3\n      swap6\n      swap1\n      swap4\n      pop\n      jump\t// out\n        /* \"#utility.yul\":5152:5414   */\n    tag_15:\n      0x00\n        /* \"#utility.yul\":5260:5262   */\n      0x20\n        /* \"#utility.yul\":5248:5257   */\n      dup3\n        /* \"#utility.yul\":5239:5246   */\n      dup5\n        /* \"#utility.yul\":5235:5258   */\n      sub\n        /* \"#utility.yul\":5231:5263   */\n      slt\n        /* \"#utility.yul\":5228:5230   */\n      iszero\n      tag_318\n      jumpi\n        /* \"#utility.yul\":5276:5277   */\n      0x00\n        /* \"#utility.yul\":5273:5274   */\n      dup1\n        /* \"#utility.yul\":5266:5278   */\n      revert\n        /* \"#utility.yul\":5228:5230   */\n    tag_318:\n        /* \"#utility.yul\":5319:5320   */\n      0x00\n        /* \"#utility.yul\":5344:5397   */\n      tag_319\n        /* \"#utility.yul\":5389:5396   */\n      dup5\n        /* \"#utility.yul\":5380:5386   */\n      dup3\n        /* \"#utility.yul\":5369:5378   */\n      dup6\n        /* \"#utility.yul\":5365:5387   */\n      add\n        /* \"#utility.yul\":5344:5397   */\n      tag_291\n      jump\t// in\n    tag_319:\n        /* \"#utility.yul\":5334:5397   */\n      swap2\n      pop\n        /* \"#utility.yul\":5290:5407   */\n      pop\n        /* \"#utility.yul\":5218:5414   */\n      swap3\n      swap2\n      pop\n      pop\n      jump\t// out\n        /* \"#utility.yul\":5420:5784   */\n    tag_320:\n      0x00\n        /* \"#utility.yul\":5536:5575   */\n      tag_322\n        /* \"#utility.yul\":5569:5574   */\n      dup3\n        /* \"#utility.yul\":5536:5575   */\n      tag_323\n      jump\t// in\n    tag_322:\n        /* \"#utility.yul\":5591:5662   */\n      tag_324\n        /* \"#utility.yul\":5655:5661   */\n      dup2\n        /* \"#utility.yul\":5650:5653   */\n      dup6\n        /* \"#utility.yul\":5591:5662   */\n      tag_325\n      jump\t// in\n    tag_324:\n        /* \"#utility.yul\":5584:5662   */\n      swap4\n      pop\n        /* \"#utility.yul\":5671:5723   */\n      tag_326\n        /* \"#utility.yul\":5716:5722   */\n      dup2\n        /* \"#utility.yul\":5711:5714   */\n      dup6\n        /* \"#utility.yul\":5704:5708   */\n      0x20\n        /* \"#utility.yul\":5697:5702   */\n      dup7\n        /* \"#utility.yul\":5693:5709   */\n      add\n        /* \"#utility.yul\":5671:5723   */\n      tag_327\n      jump\t// in\n    tag_326:\n        /* \"#utility.yul\":5748:5777   */\n      tag_328\n        /* \"#utility.yul\":5770:5776   */\n      dup2\n        /* \"#utility.yul\":5748:5777   */\n      tag_329\n      jump\t// in\n    tag_328:\n        /* \"#utility.yul\":5743:5746   */\n      dup5\n        /* \"#utility.yul\":5739:5778   */\n      add\n        /* \"#utility.yul\":5732:5778   */\n      swap2\n      pop\n        /* \"#utility.yul\":5512:5784   */\n      pop\n      swap3\n      swap2\n      pop\n      pop\n      jump\t// out\n        /* \"#utility.yul\":5790:6167   */\n    tag_330:\n      0x00\n        /* \"#utility.yul\":5924:5963   */\n      tag_332\n        /* \"#utility.yul\":5957:5962   */\n      dup3\n        /* \"#utility.yul\":5924:5963   */\n      tag_323\n      jump\t// in\n    tag_332:\n        /* \"#utility.yul\":5979:6068   */\n      tag_333\n        /* \"#utility.yul\":6061:6067   */\n      dup2\n        /* \"#utility.yul\":6056:6059   */\n      dup6\n        /* \"#utility.yul\":5979:6068   */\n      tag_334\n      jump\t// in\n    tag_333:\n        /* \"#utility.yul\":5972:6068   */\n      swap4\n      pop\n        /* \"#utility.yul\":6077:6129   */\n      tag_335\n        /* \"#utility.yul\":6122:6128   */\n      dup2\n        /* \"#utility.yul\":6117:6120   */\n      dup6\n        /* \"#utility.yul\":6110:6114   */\n      0x20\n        /* \"#utility.yul\":6103:6108   */\n      dup7\n        /* \"#utility.yul\":6099:6115   */\n      add\n        /* \"#utility.yul\":6077:6129   */\n      tag_327\n      jump\t// in\n    tag_335:\n        /* \"#utility.yul\":6154:6160   */\n      dup1\n        /* \"#utility.yul\":6149:6152   */\n      dup5\n        /* \"#utility.yul\":6145:6161   */\n      add\n        /* \"#utility.yul\":6138:6161   */\n      swap2\n      pop\n        /* \"#utility.yul\":5900:6167   */\n      pop\n      swap3\n      swap2\n      pop\n      pop\n      jump\t// out\n        /* \"#utility.yul\":6197:7042   */\n    tag_336:\n      0x00\n        /* \"#utility.yul\":6337:6342   */\n      dup2\n        /* \"#utility.yul\":6331:6343   */\n      sload\n        /* \"#utility.yul\":6366:6402   */\n      tag_338\n        /* \"#utility.yul\":6392:6401   */\n      dup2\n        /* \"#utility.yul\":6366:6402   */\n      tag_62\n      jump\t// in\n    tag_338:\n        /* \"#utility.yul\":6418:6507   */\n      tag_339\n        /* \"#utility.yul\":6500:6506   */\n      dup2\n        /* \"#utility.yul\":6495:6498   */\n      dup7\n        /* \"#utility.yul\":6418:6507   */\n      tag_334\n      jump\t// in\n    tag_339:\n        /* \"#utility.yul\":6411:6507   */\n      swap5\n      pop\n        /* \"#utility.yul\":6538:6539   */\n      0x01\n        /* \"#utility.yul\":6527:6536   */\n      dup3\n        /* \"#utility.yul\":6523:6540   */\n      and\n        /* \"#utility.yul\":6554:6555   */\n      0x00\n        /* \"#utility.yul\":6549:6686   */\n      dup2\n      eq\n      tag_341\n      jumpi\n        /* \"#utility.yul\":6700:6701   */\n      0x01\n        /* \"#utility.yul\":6695:7036   */\n      dup2\n      eq\n      tag_342\n      jumpi\n        /* \"#utility.yul\":6516:7036   */\n      jump(tag_340)\n        /* \"#utility.yul\":6549:6686   */\n    tag_341:\n        /* \"#utility.yul\":6633:6637   */\n      0xff\n        /* \"#utility.yul\":6629:6638   */\n      not\n        /* \"#utility.yul\":6618:6627   */\n      dup4\n        /* \"#utility.yul\":6614:6639   */\n      and\n        /* \"#utility.yul\":6609:6612   */\n      dup7\n        /* \"#utility.yul\":6602:6640   */\n      mstore\n        /* \"#utility.yul\":6669:6675   */\n      dup2\n        /* \"#utility.yul\":6664:6667   */\n      dup7\n        /* \"#utility.yul\":6660:6676   */\n      add\n        /* \"#utility.yul\":6653:6676   */\n      swap4\n      pop\n        /* \"#utility.yul\":6549:6686   */\n      jump(tag_340)\n        /* \"#utility.yul\":6695:7036   */\n    tag_342:\n        /* \"#utility.yul\":6762:6800   */\n      tag_343\n        /* \"#utility.yul\":6794:6799   */\n      dup6\n        /* \"#utility.yul\":6762:6800   */\n      tag_344\n      jump\t// in\n    tag_343:\n        /* \"#utility.yul\":6822:6823   */\n      0x00\n        /* \"#utility.yul\":6836:6990   */\n    tag_345:\n        /* \"#utility.yul\":6850:6856   */\n      dup4\n        /* \"#utility.yul\":6847:6848   */\n      dup2\n        /* \"#utility.yul\":6844:6857   */\n      lt\n        /* \"#utility.yul\":6836:6990   */\n      iszero\n      tag_347\n      jumpi\n        /* \"#utility.yul\":6924:6931   */\n      dup2\n        /* \"#utility.yul\":6918:6932   */\n      sload\n        /* \"#utility.yul\":6914:6915   */\n      dup2\n        /* \"#utility.yul\":6909:6912   */\n      dup10\n        /* \"#utility.yul\":6905:6916   */\n      add\n        /* \"#utility.yul\":6898:6933   */\n      mstore\n        /* \"#utility.yul\":6974:6975   */\n      0x01\n        /* \"#utility.yul\":6965:6972   */\n      dup3\n        /* \"#utility.yul\":6961:6976   */\n      add\n        /* \"#utility.yul\":6950:6976   */\n      swap2\n      pop\n        /* \"#utility.yul\":6872:6876   */\n      0x20\n        /* \"#utility.yul\":6869:6870   */\n      dup2\n        /* \"#utility.yul\":6865:6877   */\n      add\n        /* \"#utility.yul\":6860:6877   */\n      swap1\n      pop\n        /* \"#utility.yul\":6836:6990   */\n      jump(tag_345)\n    tag_347:\n        /* \"#utility.yul\":7019:7025   */\n      dup4\n        /* \"#utility.yul\":7014:7017   */\n      dup9\n        /* \"#utility.yul\":7010:7026   */\n      add\n        /* \"#utility.yul\":7003:7026   */\n      swap6\n      pop\n        /* \"#utility.yul\":6702:7036   */\n      pop\n      pop\n        /* \"#utility.yul\":6516:7036   */\n    tag_340:\n      pop\n        /* \"#utility.yul\":6304:7042   */\n      pop\n      pop\n      swap3\n      swap2\n      pop\n      pop\n      jump\t// out\n        /* \"#utility.yul\":7048:7378   */\n    tag_348:\n      0x00\n        /* \"#utility.yul\":7211:7278   */\n      tag_350\n        /* \"#utility.yul\":7275:7277   */\n      0x20\n        /* \"#utility.yul\":7270:7273   */\n      dup4\n        /* \"#utility.yul\":7211:7278   */\n      tag_325\n      jump\t// in\n    tag_350:\n        /* \"#utility.yul\":7204:7278   */\n      swap2\n      pop\n        /* \"#utility.yul\":7308:7342   */\n      0x537472696e67733a20686578206c656e67746820696e73756666696369656e74\n        /* \"#utility.yul\":7304:7305   */\n      0x00\n        /* \"#utility.yul\":7299:7302   */\n      dup4\n        /* \"#utility.yul\":7295:7306   */\n      add\n        /* \"#utility.yul\":7288:7343   */\n      mstore\n        /* \"#utility.yul\":7369:7371   */\n      0x20\n        /* \"#utility.yul\":7364:7367   */\n      dup3\n        /* \"#utility.yul\":7360:7372   */\n      add\n        /* \"#utility.yul\":7353:7372   */\n      swap1\n      pop\n        /* \"#utility.yul\":7194:7378   */\n      swap2\n      swap1\n      pop\n      jump\t// out\n        /* \"#utility.yul\":7384:7780   */\n    tag_351:\n      0x00\n        /* \"#utility.yul\":7565:7649   */\n      tag_353\n        /* \"#utility.yul\":7647:7648   */\n      0x02\n        /* \"#utility.yul\":7642:7645   */\n      dup4\n        /* \"#utility.yul\":7565:7649   */\n      tag_334\n      jump\t// in\n    tag_353:\n        /* \"#utility.yul\":7558:7649   */\n      swap2\n      pop\n        /* \"#utility.yul\":7679:7745   */\n      0x2c0a000000000000000000000000000000000000000000000000000000000000\n        /* \"#utility.yul\":7675:7676   */\n      0x00\n        /* \"#utility.yul\":7670:7673   */\n      dup4\n        /* \"#utility.yul\":7666:7677   */\n      add\n        /* \"#utility.yul\":7659:7746   */\n      mstore\n        /* \"#utility.yul\":7772:7773   */\n      0x02\n        /* \"#utility.yul\":7767:7770   */\n      dup3\n        /* \"#utility.yul\":7763:7774   */\n      add\n        /* \"#utility.yul\":7756:7774   */\n      swap1\n      pop\n        /* \"#utility.yul\":7548:7780   */\n      swap2\n      swap1\n      pop\n      jump\t// out\n        /* \"#utility.yul\":7786:8162   */\n    tag_354:\n      0x00\n        /* \"#utility.yul\":7949:8016   */\n      tag_356\n        /* \"#utility.yul\":8013:8015   */\n      0x2c\n        /* \"#utility.yul\":8008:8011   */\n      dup4\n        /* \"#utility.yul\":7949:8016   */\n      tag_325\n      jump\t// in\n    tag_356:\n        /* \"#utility.yul\":7942:8016   */\n      swap2\n      pop\n        /* \"#utility.yul\":8046:8080   */\n      0x4f6e6c7920666163746f727920636f6e74726163742063616e2063616c6c2074\n        /* \"#utility.yul\":8042:8043   */\n      0x00\n        /* \"#utility.yul\":8037:8040   */\n      dup4\n        /* \"#utility.yul\":8033:8044   */\n      add\n        /* \"#utility.yul\":8026:8081   */\n      mstore\n        /* \"#utility.yul\":8112:8126   */\n      0x6869732066756e6374696f6e0000000000000000000000000000000000000000\n        /* \"#utility.yul\":8107:8109   */\n      0x20\n        /* \"#utility.yul\":8102:8105   */\n      dup4\n        /* \"#utility.yul\":8098:8110   */\n      add\n        /* \"#utility.yul\":8091:8127   */\n      mstore\n        /* \"#utility.yul\":8153:8155   */\n      0x40\n        /* \"#utility.yul\":8148:8151   */\n      dup3\n        /* \"#utility.yul\":8144:8156   */\n      add\n        /* \"#utility.yul\":8137:8156   */\n      swap1\n      pop\n        /* \"#utility.yul\":7932:8162   */\n      swap2\n      swap1\n      pop\n      jump\t// out\n        /* \"#utility.yul\":8168:8531   */\n    tag_357:\n      0x00\n        /* \"#utility.yul\":8349:8434   */\n      tag_359\n        /* \"#utility.yul\":8431:8433   */\n      0x15\n        /* \"#utility.yul\":8426:8429   */\n      dup4\n        /* \"#utility.yul\":8349:8434   */\n      tag_334\n      jump\t// in\n    tag_359:\n        /* \"#utility.yul\":8342:8434   */\n      swap2\n      pop\n        /* \"#utility.yul\":8464:8487   */\n      0x284275696c64696e67277320416464726573733a200000000000000000000000\n        /* \"#utility.yul\":8460:8461   */\n      0x00\n        /* \"#utility.yul\":8455:8458   */\n      dup4\n        /* \"#utility.yul\":8451:8462   */\n      add\n        /* \"#utility.yul\":8444:8488   */\n      mstore\n        /* \"#utility.yul\":8518:8520   */\n      0x15\n        /* \"#utility.yul\":8513:8516   */\n      dup3\n        /* \"#utility.yul\":8509:8521   */\n      add\n        /* \"#utility.yul\":8502:8521   */\n      swap1\n      pop\n        /* \"#utility.yul\":8332:8531   */\n      swap2\n      swap1\n      pop\n      jump\t// out\n        /* \"#utility.yul\":8541:8887   */\n    tag_360:\n      0x00\n        /* \"#utility.yul\":8708:8775   */\n      tag_362\n        /* \"#utility.yul\":8772:8774   */\n      0x20\n        /* \"#utility.yul\":8767:8770   */\n      dup4\n        /* \"#utility.yul\":8708:8775   */\n      tag_325\n      jump\t// in\n    tag_362:\n        /* \"#utility.yul\":8701:8775   */\n      swap2\n      pop\n        /* \"#utility.yul\":8809:8843   */\n      0x436f6e74726163746f7220697320616c72656164792072656769737465726564\n        /* \"#utility.yul\":8805:8806   */\n      0x00\n        /* \"#utility.yul\":8800:8803   */\n      dup4\n        /* \"#utility.yul\":8796:8807   */\n      add\n        /* \"#utility.yul\":8789:8844   */\n      mstore\n        /* \"#utility.yul\":8874:8876   */\n      0x20\n        /* \"#utility.yul\":8869:8872   */\n      dup3\n        /* \"#utility.yul\":8865:8877   */\n      add\n        /* \"#utility.yul\":8858:8877   */\n      swap1\n      pop\n        /* \"#utility.yul\":8687:8887   */\n      swap2\n      swap1\n      pop\n      jump\t// out\n        /* \"#utility.yul\":8897:9237   */\n    tag_363:\n      0x00\n        /* \"#utility.yul\":9064:9131   */\n      tag_365\n        /* \"#utility.yul\":9128:9130   */\n      0x1a\n        /* \"#utility.yul\":9123:9126   */\n      dup4\n        /* \"#utility.yul\":9064:9131   */\n      tag_325\n      jump\t// in\n    tag_365:\n        /* \"#utility.yul\":9057:9131   */\n      swap2\n      pop\n        /* \"#utility.yul\":9165:9193   */\n      0x436f6e747261637420686173206265656e2064697361626c6564000000000000\n        /* \"#utility.yul\":9161:9162   */\n      0x00\n        /* \"#utility.yul\":9156:9159   */\n      dup4\n        /* \"#utility.yul\":9152:9163   */\n      add\n        /* \"#utility.yul\":9145:9194   */\n      mstore\n        /* \"#utility.yul\":9224:9226   */\n      0x20\n        /* \"#utility.yul\":9219:9222   */\n      dup3\n        /* \"#utility.yul\":9215:9227   */\n      add\n        /* \"#utility.yul\":9208:9227   */\n      swap1\n      pop\n        /* \"#utility.yul\":9043:9237   */\n      swap2\n      swap1\n      pop\n      jump\t// out\n        /* \"#utility.yul\":9247:9636   */\n    tag_366:\n      0x00\n        /* \"#utility.yul\":9414:9481   */\n      tag_368\n        /* \"#utility.yul\":9478:9480   */\n      0x25\n        /* \"#utility.yul\":9473:9476   */\n      dup4\n        /* \"#utility.yul\":9414:9481   */\n      tag_325\n      jump\t// in\n    tag_368:\n        /* \"#utility.yul\":9407:9481   */\n      swap2\n      pop\n        /* \"#utility.yul\":9515:9549   */\n      0x43616e206f6e6c79206265206578656375746564206279207468652044657665\n        /* \"#utility.yul\":9511:9512   */\n      0x00\n        /* \"#utility.yul\":9506:9509   */\n      dup4\n        /* \"#utility.yul\":9502:9513   */\n      add\n        /* \"#utility.yul\":9495:9550   */\n      mstore\n        /* \"#utility.yul\":9585:9592   */\n      0x6c6f706572000000000000000000000000000000000000000000000000000000\n        /* \"#utility.yul\":9580:9582   */\n      0x20\n        /* \"#utility.yul\":9575:9578   */\n      dup4\n        /* \"#utility.yul\":9571:9583   */\n      add\n        /* \"#utility.yul\":9564:9593   */\n      mstore\n        /* \"#utility.yul\":9623:9625   */\n      0x40\n        /* \"#utility.yul\":9618:9621   */\n      dup3\n        /* \"#utility.yul\":9614:9626   */\n      add\n        /* \"#utility.yul\":9607:9626   */\n      swap1\n      pop\n        /* \"#utility.yul\":9393:9636   */\n      swap2\n      swap1\n      pop\n      jump\t// out\n        /* \"#utility.yul\":9646:10026   */\n    tag_369:\n      0x00\n        /* \"#utility.yul\":9831:9916   */\n      tag_371\n        /* \"#utility.yul\":9913:9915   */\n      0x16\n        /* \"#utility.yul\":9908:9911   */\n      dup4\n        /* \"#utility.yul\":9831:9916   */\n      tag_334\n      jump\t// in\n    tag_371:\n        /* \"#utility.yul\":9824:9916   */\n      swap2\n      pop\n        /* \"#utility.yul\":9950:9974   */\n      0x28446576656c6f706572277320416464726573733a2000000000000000000000\n        /* \"#utility.yul\":9946:9947   */\n      0x00\n        /* \"#utility.yul\":9941:9944   */\n      dup4\n        /* \"#utility.yul\":9937:9948   */\n      add\n        /* \"#utility.yul\":9930:9975   */\n      mstore\n        /* \"#utility.yul\":10009:10011   */\n      0x16\n        /* \"#utility.yul\":10004:10007   */\n      dup3\n        /* \"#utility.yul\":10000:10012   */\n      add\n        /* \"#utility.yul\":9993:10012   */\n      swap1\n      pop\n        /* \"#utility.yul\":9810:10026   */\n      swap2\n      swap1\n      pop\n      jump\t// out\n        /* \"#utility.yul\":10040:10395   */\n    tag_372:\n      0x00\n        /* \"#utility.yul\":10229:10313   */\n      tag_374\n        /* \"#utility.yul\":10311:10312   */\n      0x03\n        /* \"#utility.yul\":10306:10309   */\n      dup4\n        /* \"#utility.yul\":10229:10313   */\n      tag_334\n      jump\t// in\n    tag_374:\n        /* \"#utility.yul\":10222:10313   */\n      swap2\n      pop\n        /* \"#utility.yul\":10347:10352   */\n      0x2029200000000000000000000000000000000000000000000000000000000000\n        /* \"#utility.yul\":10343:10344   */\n      0x00\n        /* \"#utility.yul\":10338:10341   */\n      dup4\n        /* \"#utility.yul\":10334:10345   */\n      add\n        /* \"#utility.yul\":10327:10353   */\n      mstore\n        /* \"#utility.yul\":10383:10384   */\n      0x03\n        /* \"#utility.yul\":10378:10381   */\n      dup3\n        /* \"#utility.yul\":10374:10385   */\n      add\n        /* \"#utility.yul\":10367:10385   */\n      swap1\n      pop\n        /* \"#utility.yul\":10204:10395   */\n      swap2\n      swap1\n      pop\n      jump\t// out\n        /* \"#utility.yul\":10405:10806   */\n    tag_375:\n      0x00\n        /* \"#utility.yul\":10572:10639   */\n      tag_377\n        /* \"#utility.yul\":10636:10638   */\n      0x31\n        /* \"#utility.yul\":10631:10634   */\n      dup4\n        /* \"#utility.yul\":10572:10639   */\n      tag_325\n      jump\t// in\n    tag_377:\n        /* \"#utility.yul\":10565:10639   */\n      swap2\n      pop\n        /* \"#utility.yul\":10673:10707   */\n      0x43616e206f6e6c79206265206578656375746564206279207468652072656769\n        /* \"#utility.yul\":10669:10670   */\n      0x00\n        /* \"#utility.yul\":10664:10667   */\n      dup4\n        /* \"#utility.yul\":10660:10671   */\n      add\n        /* \"#utility.yul\":10653:10708   */\n      mstore\n        /* \"#utility.yul\":10743:10762   */\n      0x73746572656420436f6e74726163746f72000000000000000000000000000000\n        /* \"#utility.yul\":10738:10740   */\n      0x20\n        /* \"#utility.yul\":10733:10736   */\n      dup4\n        /* \"#utility.yul\":10729:10741   */\n      add\n        /* \"#utility.yul\":10722:10763   */\n      mstore\n        /* \"#utility.yul\":10793:10795   */\n      0x40\n        /* \"#utility.yul\":10788:10791   */\n      dup3\n        /* \"#utility.yul\":10784:10796   */\n      add\n        /* \"#utility.yul\":10777:10796   */\n      swap1\n      pop\n        /* \"#utility.yul\":10551:10806   */\n      swap2\n      swap1\n      pop\n      jump\t// out\n        /* \"#utility.yul\":10816:11192   */\n    tag_378:\n      0x00\n        /* \"#utility.yul\":11001:11086   */\n      tag_380\n        /* \"#utility.yul\":11083:11085   */\n      0x12\n        /* \"#utility.yul\":11078:11081   */\n      dup4\n        /* \"#utility.yul\":11001:11086   */\n      tag_334\n      jump\t// in\n    tag_380:\n        /* \"#utility.yul\":10994:11086   */\n      swap2\n      pop\n        /* \"#utility.yul\":11120:11140   */\n      0x284275696c64696e672773204e616d653a200000000000000000000000000000\n        /* \"#utility.yul\":11116:11117   */\n      0x00\n        /* \"#utility.yul\":11111:11114   */\n      dup4\n        /* \"#utility.yul\":11107:11118   */\n      add\n        /* \"#utility.yul\":11100:11141   */\n      mstore\n        /* \"#utility.yul\":11175:11177   */\n      0x12\n        /* \"#utility.yul\":11170:11173   */\n      dup3\n        /* \"#utility.yul\":11166:11178   */\n      add\n        /* \"#utility.yul\":11159:11178   */\n      swap1\n      pop\n        /* \"#utility.yul\":10980:11192   */\n      swap2\n      swap1\n      pop\n      jump\t// out\n        /* \"#utility.yul\":11206:11630   */\n    tag_381:\n      0x00\n        /* \"#utility.yul\":11377:11444   */\n      tag_383\n        /* \"#utility.yul\":11441:11443   */\n      0x34\n        /* \"#utility.yul\":11436:11439   */\n      dup4\n        /* \"#utility.yul\":11377:11444   */\n      tag_325\n      jump\t// in\n    tag_383:\n        /* \"#utility.yul\":11370:11444   */\n      swap2\n      pop\n        /* \"#utility.yul\":11482:11516   */\n      0x506c656173652074727920616761696e20617320726571756573746564206d61\n        /* \"#utility.yul\":11478:11479   */\n      0x00\n        /* \"#utility.yul\":11473:11476   */\n      dup4\n        /* \"#utility.yul\":11469:11480   */\n      add\n        /* \"#utility.yul\":11462:11517   */\n      mstore\n        /* \"#utility.yul\":11556:11578   */\n      0x74657269616c20776173206e6f7420666f756e64000000000000000000000000\n        /* \"#utility.yul\":11551:11553   */\n      0x20\n        /* \"#utility.yul\":11546:11549   */\n      dup4\n        /* \"#utility.yul\":11542:11554   */\n      add\n        /* \"#utility.yul\":11535:11579   */\n      mstore\n        /* \"#utility.yul\":11613:11615   */\n      0x40\n        /* \"#utility.yul\":11608:11611   */\n      dup3\n        /* \"#utility.yul\":11604:11616   */\n      add\n        /* \"#utility.yul\":11597:11616   */\n      swap1\n      pop\n        /* \"#utility.yul\":11352:11630   */\n      swap2\n      swap1\n      pop\n      jump\t// out\n        /* \"#utility.yul\":11644:12019   */\n    tag_384:\n      0x00\n        /* \"#utility.yul\":11833:11917   */\n      tag_386\n        /* \"#utility.yul\":11915:11916   */\n      0x03\n        /* \"#utility.yul\":11910:11913   */\n      dup4\n        /* \"#utility.yul\":11833:11917   */\n      tag_334\n      jump\t// in\n    tag_386:\n        /* \"#utility.yul\":11826:11917   */\n      swap2\n      pop\n        /* \"#utility.yul\":11955:11960   */\n      0x2028200000000000000000000000000000000000000000000000000000000000\n        /* \"#utility.yul\":11951:11952   */\n      0x00\n        /* \"#utility.yul\":11946:11949   */\n      dup4\n        /* \"#utility.yul\":11942:11953   */\n      add\n        /* \"#utility.yul\":11935:11961   */\n      mstore\n        /* \"#utility.yul\":11999:12000   */\n      0x03\n        /* \"#utility.yul\":11994:11997   */\n      dup3\n        /* \"#utility.yul\":11990:12001   */\n      add\n        /* \"#utility.yul\":11983:12001   */\n      swap1\n      pop\n        /* \"#utility.yul\":11808:12019   */\n      swap2\n      swap1\n      pop\n      jump\t// out\n        /* \"#utility.yul\":12037:12486   */\n    tag_387:\n      0x00\n        /* \"#utility.yul\":12212:12279   */\n      tag_389\n        /* \"#utility.yul\":12276:12278   */\n      0x39\n        /* \"#utility.yul\":12271:12274   */\n      dup4\n        /* \"#utility.yul\":12212:12279   */\n      tag_325\n      jump\t// in\n    tag_389:\n        /* \"#utility.yul\":12205:12279   */\n      swap2\n      pop\n        /* \"#utility.yul\":12321:12355   */\n      0x506c656173652074727920616761696e20617320726571756573746564206261\n        /* \"#utility.yul\":12317:12318   */\n      0x00\n        /* \"#utility.yul\":12312:12315   */\n      dup4\n        /* \"#utility.yul\":12308:12319   */\n      add\n        /* \"#utility.yul\":12301:12356   */\n      mstore\n        /* \"#utility.yul\":12399:12426   */\n      0x746368206164647265737320776173206e6f7420666f756e6400000000000000\n        /* \"#utility.yul\":12394:12396   */\n      0x20\n        /* \"#utility.yul\":12389:12392   */\n      dup4\n        /* \"#utility.yul\":12385:12397   */\n      add\n        /* \"#utility.yul\":12378:12427   */\n      mstore\n        /* \"#utility.yul\":12465:12467   */\n      0x40\n        /* \"#utility.yul\":12460:12463   */\n      dup3\n        /* \"#utility.yul\":12456:12468   */\n      add\n        /* \"#utility.yul\":12449:12468   */\n      swap1\n      pop\n        /* \"#utility.yul\":12183:12486   */\n      swap2\n      swap1\n      pop\n      jump\t// out\n        /* \"#utility.yul\":12504:12888   */\n    tag_390:\n      0x00\n        /* \"#utility.yul\":12697:12781   */\n      tag_392\n        /* \"#utility.yul\":12779:12780   */\n      0x04\n        /* \"#utility.yul\":12774:12777   */\n      dup4\n        /* \"#utility.yul\":12697:12781   */\n      tag_334\n      jump\t// in\n    tag_392:\n        /* \"#utility.yul\":12690:12781   */\n      swap2\n      pop\n        /* \"#utility.yul\":12823:12829   */\n      0x202d3e2000000000000000000000000000000000000000000000000000000000\n        /* \"#utility.yul\":12819:12820   */\n      0x00\n        /* \"#utility.yul\":12814:12817   */\n      dup4\n        /* \"#utility.yul\":12810:12821   */\n      add\n        /* \"#utility.yul\":12803:12830   */\n      mstore\n        /* \"#utility.yul\":12868:12869   */\n      0x04\n        /* \"#utility.yul\":12863:12866   */\n      dup3\n        /* \"#utility.yul\":12859:12870   */\n      add\n        /* \"#utility.yul\":12852:12870   */\n      swap1\n      pop\n        /* \"#utility.yul\":12668:12888   */\n      swap2\n      swap1\n      pop\n      jump\t// out\n        /* \"#utility.yul\":12906:13350   */\n    tag_393:\n      0x00\n        /* \"#utility.yul\":13099:13183   */\n      tag_395\n        /* \"#utility.yul\":13181:13182   */\n      0x04\n        /* \"#utility.yul\":13176:13179   */\n      dup4\n        /* \"#utility.yul\":13099:13183   */\n      tag_334\n      jump\t// in\n    tag_395:\n        /* \"#utility.yul\":13092:13183   */\n      swap2\n      pop\n        /* \"#utility.yul\":13225:13291   */\n      0x2029200a00000000000000000000000000000000000000000000000000000000\n        /* \"#utility.yul\":13221:13222   */\n      0x00\n        /* \"#utility.yul\":13216:13219   */\n      dup4\n        /* \"#utility.yul\":13212:13223   */\n      add\n        /* \"#utility.yul\":13205:13292   */\n      mstore\n        /* \"#utility.yul\":13330:13331   */\n      0x04\n        /* \"#utility.yul\":13325:13328   */\n      dup3\n        /* \"#utility.yul\":13321:13332   */\n      add\n        /* \"#utility.yul\":13314:13332   */\n      swap1\n      pop\n        /* \"#utility.yul\":13070:13350   */\n      swap2\n      swap1\n      pop\n      jump\t// out\n        /* \"#utility.yul\":13368:13679   */\n    tag_94:\n      0x00\n        /* \"#utility.yul\":13534:13629   */\n      tag_397\n        /* \"#utility.yul\":13625:13628   */\n      dup3\n        /* \"#utility.yul\":13616:13622   */\n      dup5\n        /* \"#utility.yul\":13534:13629   */\n      tag_330\n      jump\t// in\n    tag_397:\n        /* \"#utility.yul\":13527:13629   */\n      swap2\n      pop\n        /* \"#utility.yul\":13658:13661   */\n      dup2\n        /* \"#utility.yul\":13651:13661   */\n      swap1\n      pop\n        /* \"#utility.yul\":13504:13679   */\n      swap3\n      swap2\n      pop\n      pop\n      jump\t// out\n        /* \"#utility.yul\":13697:14174   */\n    tag_178:\n      0x00\n        /* \"#utility.yul\":13908:14003   */\n      tag_399\n        /* \"#utility.yul\":13999:14002   */\n      dup3\n        /* \"#utility.yul\":13990:13996   */\n      dup6\n        /* \"#utility.yul\":13908:14003   */\n      tag_330\n      jump\t// in\n    tag_399:\n        /* \"#utility.yul\":13901:14003   */\n      swap2\n      pop\n        /* \"#utility.yul\":14032:14124   */\n      tag_400\n        /* \"#utility.yul\":14120:14123   */\n      dup3\n        /* \"#utility.yul\":14111:14117   */\n      dup5\n        /* \"#utility.yul\":14032:14124   */\n      tag_336\n      jump\t// in\n    tag_400:\n        /* \"#utility.yul\":14025:14124   */\n      swap2\n      pop\n        /* \"#utility.yul\":14153:14156   */\n      dup2\n        /* \"#utility.yul\":14146:14156   */\n      swap1\n      pop\n        /* \"#utility.yul\":13878:14174   */\n      swap4\n      swap3\n      pop\n      pop\n      pop\n      jump\t// out\n        /* \"#utility.yul\":14192:14947   */\n    tag_172:\n      0x00\n        /* \"#utility.yul\":14504:14599   */\n      tag_402\n        /* \"#utility.yul\":14595:14598   */\n      dup3\n        /* \"#utility.yul\":14586:14592   */\n      dup6\n        /* \"#utility.yul\":14504:14599   */\n      tag_330\n      jump\t// in\n    tag_402:\n        /* \"#utility.yul\":14497:14599   */\n      swap2\n      pop\n        /* \"#utility.yul\":14628:14720   */\n      tag_403\n        /* \"#utility.yul\":14716:14719   */\n      dup3\n        /* \"#utility.yul\":14707:14713   */\n      dup5\n        /* \"#utility.yul\":14628:14720   */\n      tag_336\n      jump\t// in\n    tag_403:\n        /* \"#utility.yul\":14621:14720   */\n      swap2\n      pop\n        /* \"#utility.yul\":14749:14897   */\n      tag_404\n        /* \"#utility.yul\":14893:14896   */\n      dup3\n        /* \"#utility.yul\":14749:14897   */\n      tag_351\n      jump\t// in\n    tag_404:\n        /* \"#utility.yul\":14742:14897   */\n      swap2\n      pop\n        /* \"#utility.yul\":14926:14929   */\n      dup2\n        /* \"#utility.yul\":14919:14929   */\n      swap1\n      pop\n        /* \"#utility.yul\":14474:14947   */\n      swap4\n      swap3\n      pop\n      pop\n      pop\n      jump\t// out\n        /* \"#utility.yul\":14965:17076   */\n    tag_124:\n      0x00\n        /* \"#utility.yul\":15727:15822   */\n      tag_406\n        /* \"#utility.yul\":15818:15821   */\n      dup3\n        /* \"#utility.yul\":15809:15815   */\n      dup9\n        /* \"#utility.yul\":15727:15822   */\n      tag_330\n      jump\t// in\n    tag_406:\n        /* \"#utility.yul\":15720:15822   */\n      swap2\n      pop\n        /* \"#utility.yul\":15851:15999   */\n      tag_407\n        /* \"#utility.yul\":15995:15998   */\n      dup3\n        /* \"#utility.yul\":15851:15999   */\n      tag_384\n      jump\t// in\n    tag_407:\n        /* \"#utility.yul\":15844:15999   */\n      swap2\n      pop\n        /* \"#utility.yul\":16028:16123   */\n      tag_408\n        /* \"#utility.yul\":16119:16122   */\n      dup3\n        /* \"#utility.yul\":16110:16116   */\n      dup8\n        /* \"#utility.yul\":16028:16123   */\n      tag_330\n      jump\t// in\n    tag_408:\n        /* \"#utility.yul\":16021:16123   */\n      swap2\n      pop\n        /* \"#utility.yul\":16152:16300   */\n      tag_409\n        /* \"#utility.yul\":16296:16299   */\n      dup3\n        /* \"#utility.yul\":16152:16300   */\n      tag_390\n      jump\t// in\n    tag_409:\n        /* \"#utility.yul\":16145:16300   */\n      swap2\n      pop\n        /* \"#utility.yul\":16329:16424   */\n      tag_410\n        /* \"#utility.yul\":16420:16423   */\n      dup3\n        /* \"#utility.yul\":16411:16417   */\n      dup7\n        /* \"#utility.yul\":16329:16424   */\n      tag_330\n      jump\t// in\n    tag_410:\n        /* \"#utility.yul\":16322:16424   */\n      swap2\n      pop\n        /* \"#utility.yul\":16453:16548   */\n      tag_411\n        /* \"#utility.yul\":16544:16547   */\n      dup3\n        /* \"#utility.yul\":16535:16541   */\n      dup6\n        /* \"#utility.yul\":16453:16548   */\n      tag_330\n      jump\t// in\n    tag_411:\n        /* \"#utility.yul\":16446:16548   */\n      swap2\n      pop\n        /* \"#utility.yul\":16577:16725   */\n      tag_412\n        /* \"#utility.yul\":16721:16724   */\n      dup3\n        /* \"#utility.yul\":16577:16725   */\n      tag_390\n      jump\t// in\n    tag_412:\n        /* \"#utility.yul\":16570:16725   */\n      swap2\n      pop\n        /* \"#utility.yul\":16754:16849   */\n      tag_413\n        /* \"#utility.yul\":16845:16848   */\n      dup3\n        /* \"#utility.yul\":16836:16842   */\n      dup5\n        /* \"#utility.yul\":16754:16849   */\n      tag_330\n      jump\t// in\n    tag_413:\n        /* \"#utility.yul\":16747:16849   */\n      swap2\n      pop\n        /* \"#utility.yul\":16878:17026   */\n      tag_414\n        /* \"#utility.yul\":17022:17025   */\n      dup3\n        /* \"#utility.yul\":16878:17026   */\n      tag_393\n      jump\t// in\n    tag_414:\n        /* \"#utility.yul\":16871:17026   */\n      swap2\n      pop\n        /* \"#utility.yul\":17055:17058   */\n      dup2\n        /* \"#utility.yul\":17048:17058   */\n      swap1\n      pop\n        /* \"#utility.yul\":15697:17076   */\n      swap7\n      swap6\n      pop\n      pop\n      pop\n      pop\n      pop\n      pop\n      jump\t// out\n        /* \"#utility.yul\":17094:18583   */\n    tag_68:\n      0x00\n        /* \"#utility.yul\":17659:17754   */\n      tag_416\n        /* \"#utility.yul\":17750:17753   */\n      dup3\n        /* \"#utility.yul\":17741:17747   */\n      dup7\n        /* \"#utility.yul\":17659:17754   */\n      tag_330\n      jump\t// in\n    tag_416:\n        /* \"#utility.yul\":17652:17754   */\n      swap2\n      pop\n        /* \"#utility.yul\":17783:17931   */\n      tag_417\n        /* \"#utility.yul\":17927:17930   */\n      dup3\n        /* \"#utility.yul\":17783:17931   */\n      tag_384\n      jump\t// in\n    tag_417:\n        /* \"#utility.yul\":17776:17931   */\n      swap2\n      pop\n        /* \"#utility.yul\":17960:18055   */\n      tag_418\n        /* \"#utility.yul\":18051:18054   */\n      dup3\n        /* \"#utility.yul\":18042:18048   */\n      dup6\n        /* \"#utility.yul\":17960:18055   */\n      tag_330\n      jump\t// in\n    tag_418:\n        /* \"#utility.yul\":17953:18055   */\n      swap2\n      pop\n        /* \"#utility.yul\":18084:18232   */\n      tag_419\n        /* \"#utility.yul\":18228:18231   */\n      dup3\n        /* \"#utility.yul\":18084:18232   */\n      tag_390\n      jump\t// in\n    tag_419:\n        /* \"#utility.yul\":18077:18232   */\n      swap2\n      pop\n        /* \"#utility.yul\":18261:18356   */\n      tag_420\n        /* \"#utility.yul\":18352:18355   */\n      dup3\n        /* \"#utility.yul\":18343:18349   */\n      dup5\n        /* \"#utility.yul\":18261:18356   */\n      tag_330\n      jump\t// in\n    tag_420:\n        /* \"#utility.yul\":18254:18356   */\n      swap2\n      pop\n        /* \"#utility.yul\":18385:18533   */\n      tag_421\n        /* \"#utility.yul\":18529:18532   */\n      dup3\n        /* \"#utility.yul\":18385:18533   */\n      tag_393\n      jump\t// in\n    tag_421:\n        /* \"#utility.yul\":18378:18533   */\n      swap2\n      pop\n        /* \"#utility.yul\":18562:18565   */\n      dup2\n        /* \"#utility.yul\":18555:18565   */\n      swap1\n      pop\n        /* \"#utility.yul\":17629:18583   */\n      swap5\n      swap4\n      pop\n      pop\n      pop\n      pop\n      jump\t// out\n        /* \"#utility.yul\":18601:21752   */\n    tag_75:\n      0x00\n        /* \"#utility.yul\":19769:19917   */\n      tag_423\n        /* \"#utility.yul\":19913:19916   */\n      dup3\n        /* \"#utility.yul\":19769:19917   */\n      tag_378\n      jump\t// in\n    tag_423:\n        /* \"#utility.yul\":19762:19917   */\n      swap2\n      pop\n        /* \"#utility.yul\":19946:20094   */\n      tag_424\n        /* \"#utility.yul\":20090:20093   */\n      dup3\n        /* \"#utility.yul\":19946:20094   */\n      tag_390\n      jump\t// in\n    tag_424:\n        /* \"#utility.yul\":19939:20094   */\n      swap2\n      pop\n        /* \"#utility.yul\":20123:20215   */\n      tag_425\n        /* \"#utility.yul\":20211:20214   */\n      dup3\n        /* \"#utility.yul\":20202:20208   */\n      dup7\n        /* \"#utility.yul\":20123:20215   */\n      tag_336\n      jump\t// in\n    tag_425:\n        /* \"#utility.yul\":20116:20215   */\n      swap2\n      pop\n        /* \"#utility.yul\":20244:20392   */\n      tag_426\n        /* \"#utility.yul\":20388:20391   */\n      dup3\n        /* \"#utility.yul\":20244:20392   */\n      tag_372\n      jump\t// in\n    tag_426:\n        /* \"#utility.yul\":20237:20392   */\n      swap2\n      pop\n        /* \"#utility.yul\":20421:20569   */\n      tag_427\n        /* \"#utility.yul\":20565:20568   */\n      dup3\n        /* \"#utility.yul\":20421:20569   */\n      tag_357\n      jump\t// in\n    tag_427:\n        /* \"#utility.yul\":20414:20569   */\n      swap2\n      pop\n        /* \"#utility.yul\":20598:20746   */\n      tag_428\n        /* \"#utility.yul\":20742:20745   */\n      dup3\n        /* \"#utility.yul\":20598:20746   */\n      tag_390\n      jump\t// in\n    tag_428:\n        /* \"#utility.yul\":20591:20746   */\n      swap2\n      pop\n        /* \"#utility.yul\":20775:20870   */\n      tag_429\n        /* \"#utility.yul\":20866:20869   */\n      dup3\n        /* \"#utility.yul\":20857:20863   */\n      dup6\n        /* \"#utility.yul\":20775:20870   */\n      tag_330\n      jump\t// in\n    tag_429:\n        /* \"#utility.yul\":20768:20870   */\n      swap2\n      pop\n        /* \"#utility.yul\":20899:21047   */\n      tag_430\n        /* \"#utility.yul\":21043:21046   */\n      dup3\n        /* \"#utility.yul\":20899:21047   */\n      tag_372\n      jump\t// in\n    tag_430:\n        /* \"#utility.yul\":20892:21047   */\n      swap2\n      pop\n        /* \"#utility.yul\":21076:21224   */\n      tag_431\n        /* \"#utility.yul\":21220:21223   */\n      dup3\n        /* \"#utility.yul\":21076:21224   */\n      tag_369\n      jump\t// in\n    tag_431:\n        /* \"#utility.yul\":21069:21224   */\n      swap2\n      pop\n        /* \"#utility.yul\":21253:21401   */\n      tag_432\n        /* \"#utility.yul\":21397:21400   */\n      dup3\n        /* \"#utility.yul\":21253:21401   */\n      tag_390\n      jump\t// in\n    tag_432:\n        /* \"#utility.yul\":21246:21401   */\n      swap2\n      pop\n        /* \"#utility.yul\":21430:21525   */\n      tag_433\n        /* \"#utility.yul\":21521:21524   */\n      dup3\n        /* \"#utility.yul\":21512:21518   */\n      dup5\n        /* \"#utility.yul\":21430:21525   */\n      tag_330\n      jump\t// in\n    tag_433:\n        /* \"#utility.yul\":21423:21525   */\n      swap2\n      pop\n        /* \"#utility.yul\":21554:21702   */\n      tag_434\n        /* \"#utility.yul\":21698:21701   */\n      dup3\n        /* \"#utility.yul\":21554:21702   */\n      tag_393\n      jump\t// in\n    tag_434:\n        /* \"#utility.yul\":21547:21702   */\n      swap2\n      pop\n        /* \"#utility.yul\":21731:21734   */\n      dup2\n        /* \"#utility.yul\":21724:21734   */\n      swap1\n      pop\n        /* \"#utility.yul\":19739:21752   */\n      swap5\n      swap4\n      pop\n      pop\n      pop\n      pop\n      jump\t// out\n        /* \"#utility.yul\":21770:22131   */\n    tag_18:\n      0x00\n        /* \"#utility.yul\":21933:21935   */\n      0x20\n        /* \"#utility.yul\":21922:21931   */\n      dup3\n        /* \"#utility.yul\":21918:21936   */\n      add\n        /* \"#utility.yul\":21910:21936   */\n      swap1\n      pop\n        /* \"#utility.yul\":21994:22003   */\n      dup2\n        /* \"#utility.yul\":21988:21992   */\n      dup2\n        /* \"#utility.yul\":21984:22004   */\n      sub\n        /* \"#utility.yul\":21980:21981   */\n      0x00\n        /* \"#utility.yul\":21969:21978   */\n      dup4\n        /* \"#utility.yul\":21965:21982   */\n      add\n        /* \"#utility.yul\":21958:22005   */\n      mstore\n        /* \"#utility.yul\":22034:22112   */\n      tag_436\n        /* \"#utility.yul\":22107:22111   */\n      dup2\n        /* \"#utility.yul\":22098:22104   */\n      dup5\n        /* \"#utility.yul\":22034:22112   */\n      tag_320\n      jump\t// in\n    tag_436:\n        /* \"#utility.yul\":22026:22112   */\n      swap1\n      pop\n        /* \"#utility.yul\":21888:22131   */\n      swap3\n      swap2\n      pop\n      pop\n      jump\t// out\n        /* \"#utility.yul\":22149:22616   */\n    tag_242:\n      0x00\n        /* \"#utility.yul\":22365:22367   */\n      0x20\n        /* \"#utility.yul\":22354:22363   */\n      dup3\n        /* \"#utility.yul\":22350:22368   */\n      add\n        /* \"#utility.yul\":22342:22368   */\n      swap1\n      pop\n        /* \"#utility.yul\":22426:22435   */\n      dup2\n        /* \"#utility.yul\":22420:22424   */\n      dup2\n        /* \"#utility.yul\":22416:22436   */\n      sub\n        /* \"#utility.yul\":22412:22413   */\n      0x00\n        /* \"#utility.yul\":22401:22410   */\n      dup4\n        /* \"#utility.yul\":22397:22414   */\n      add\n        /* \"#utility.yul\":22390:22437   */\n      mstore\n        /* \"#utility.yul\":22466:22597   */\n      tag_438\n        /* \"#utility.yul\":22592:22596   */\n      dup2\n        /* \"#utility.yul\":22466:22597   */\n      tag_348\n      jump\t// in\n    tag_438:\n        /* \"#utility.yul\":22458:22597   */\n      swap1\n      pop\n        /* \"#utility.yul\":22320:22616   */\n      swap2\n      swap1\n      pop\n      jump\t// out\n        /* \"#utility.yul\":22634:23101   */\n    tag_182:\n      0x00\n        /* \"#utility.yul\":22850:22852   */\n      0x20\n        /* \"#utility.yul\":22839:22848   */\n      dup3\n        /* \"#utility.yul\":22835:22853   */\n      add\n        /* \"#utility.yul\":22827:22853   */\n      swap1\n      pop\n        /* \"#utility.yul\":22911:22920   */\n      dup2\n        /* \"#utility.yul\":22905:22909   */\n      dup2\n        /* \"#utility.yul\":22901:22921   */\n      sub\n        /* \"#utility.yul\":22897:22898   */\n      0x00\n        /* \"#utility.yul\":22886:22895   */\n      dup4\n        /* \"#utility.yul\":22882:22899   */\n      add\n        /* \"#utility.yul\":22875:22922   */\n      mstore\n        /* \"#utility.yul\":22951:23082   */\n      tag_440\n        /* \"#utility.yul\":23077:23081   */\n      dup2\n        /* \"#utility.yul\":22951:23082   */\n      tag_354\n      jump\t// in\n    tag_440:\n        /* \"#utility.yul\":22943:23082   */\n      swap1\n      pop\n        /* \"#utility.yul\":22805:23101   */\n      swap2\n      swap1\n      pop\n      jump\t// out\n        /* \"#utility.yul\":23119:23586   */\n    tag_199:\n      0x00\n        /* \"#utility.yul\":23335:23337   */\n      0x20\n        /* \"#utility.yul\":23324:23333   */\n      dup3\n        /* \"#utility.yul\":23320:23338   */\n      add\n        /* \"#utility.yul\":23312:23338   */\n      swap1\n      pop\n        /* \"#utility.yul\":23396:23405   */\n      dup2\n        /* \"#utility.yul\":23390:23394   */\n      dup2\n        /* \"#utility.yul\":23386:23406   */\n      sub\n        /* \"#utility.yul\":23382:23383   */\n      0x00\n        /* \"#utility.yul\":23371:23380   */\n      dup4\n        /* \"#utility.yul\":23367:23384   */\n      add\n        /* \"#utility.yul\":23360:23407   */\n      mstore\n        /* \"#utility.yul\":23436:23567   */\n      tag_442\n        /* \"#utility.yul\":23562:23566   */\n      dup2\n        /* \"#utility.yul\":23436:23567   */\n      tag_360\n      jump\t// in\n    tag_442:\n        /* \"#utility.yul\":23428:23567   */\n      swap1\n      pop\n        /* \"#utility.yul\":23290:23586   */\n      swap2\n      swap1\n      pop\n      jump\t// out\n        /* \"#utility.yul\":23604:24071   */\n    tag_134:\n      0x00\n        /* \"#utility.yul\":23820:23822   */\n      0x20\n        /* \"#utility.yul\":23809:23818   */\n      dup3\n        /* \"#utility.yul\":23805:23823   */\n      add\n        /* \"#utility.yul\":23797:23823   */\n      swap1\n      pop\n        /* \"#utility.yul\":23881:23890   */\n      dup2\n        /* \"#utility.yul\":23875:23879   */\n      dup2\n        /* \"#utility.yul\":23871:23891   */\n      sub\n        /* \"#utility.yul\":23867:23868   */\n      0x00\n        /* \"#utility.yul\":23856:23865   */\n      dup4\n        /* \"#utility.yul\":23852:23869   */\n      add\n        /* \"#utility.yul\":23845:23892   */\n      mstore\n        /* \"#utility.yul\":23921:24052   */\n      tag_444\n        /* \"#utility.yul\":24047:24051   */\n      dup2\n        /* \"#utility.yul\":23921:24052   */\n      tag_363\n      jump\t// in\n    tag_444:\n        /* \"#utility.yul\":23913:24052   */\n      swap1\n      pop\n        /* \"#utility.yul\":23775:24071   */\n      swap2\n      swap1\n      pop\n      jump\t// out\n        /* \"#utility.yul\":24089:24556   */\n    tag_191:\n      0x00\n        /* \"#utility.yul\":24305:24307   */\n      0x20\n        /* \"#utility.yul\":24294:24303   */\n      dup3\n        /* \"#utility.yul\":24290:24308   */\n      add\n        /* \"#utility.yul\":24282:24308   */\n      swap1\n      pop\n        /* \"#utility.yul\":24366:24375   */\n      dup2\n        /* \"#utility.yul\":24360:24364   */\n      dup2\n        /* \"#utility.yul\":24356:24376   */\n      sub\n        /* \"#utility.yul\":24352:24353   */\n      0x00\n        /* \"#utility.yul\":24341:24350   */\n      dup4\n        /* \"#utility.yul\":24337:24354   */\n      add\n        /* \"#utility.yul\":24330:24377   */\n      mstore\n        /* \"#utility.yul\":24406:24537   */\n      tag_446\n        /* \"#utility.yul\":24532:24536   */\n      dup2\n        /* \"#utility.yul\":24406:24537   */\n      tag_366\n      jump\t// in\n    tag_446:\n        /* \"#utility.yul\":24398:24537   */\n      swap1\n      pop\n        /* \"#utility.yul\":24260:24556   */\n      swap2\n      swap1\n      pop\n      jump\t// out\n        /* \"#utility.yul\":24574:25041   */\n    tag_130:\n      0x00\n        /* \"#utility.yul\":24790:24792   */\n      0x20\n        /* \"#utility.yul\":24779:24788   */\n      dup3\n        /* \"#utility.yul\":24775:24793   */\n      add\n        /* \"#utility.yul\":24767:24793   */\n      swap1\n      pop\n        /* \"#utility.yul\":24851:24860   */\n      dup2\n        /* \"#utility.yul\":24845:24849   */\n      dup2\n        /* \"#utility.yul\":24841:24861   */\n      sub\n        /* \"#utility.yul\":24837:24838   */\n      0x00\n        /* \"#utility.yul\":24826:24835   */\n      dup4\n        /* \"#utility.yul\":24822:24839   */\n      add\n        /* \"#utility.yul\":24815:24862   */\n      mstore\n        /* \"#utility.yul\":24891:25022   */\n      tag_448\n        /* \"#utility.yul\":25017:25021   */\n      dup2\n        /* \"#utility.yul\":24891:25022   */\n      tag_375\n      jump\t// in\n    tag_448:\n        /* \"#utility.yul\":24883:25022   */\n      swap1\n      pop\n        /* \"#utility.yul\":24745:25041   */\n      swap2\n      swap1\n      pop\n      jump\t// out\n        /* \"#utility.yul\":25059:25526   */\n    tag_97:\n      0x00\n        /* \"#utility.yul\":25275:25277   */\n      0x20\n        /* \"#utility.yul\":25264:25273   */\n      dup3\n        /* \"#utility.yul\":25260:25278   */\n      add\n        /* \"#utility.yul\":25252:25278   */\n      swap1\n      pop\n        /* \"#utility.yul\":25336:25345   */\n      dup2\n        /* \"#utility.yul\":25330:25334   */\n      dup2\n        /* \"#utility.yul\":25326:25346   */\n      sub\n        /* \"#utility.yul\":25322:25323   */\n      0x00\n        /* \"#utility.yul\":25311:25320   */\n      dup4\n        /* \"#utility.yul\":25307:25324   */\n      add\n        /* \"#utility.yul\":25300:25347   */\n      mstore\n        /* \"#utility.yul\":25376:25507   */\n      tag_450\n        /* \"#utility.yul\":25502:25506   */\n      dup2\n        /* \"#utility.yul\":25376:25507   */\n      tag_381\n      jump\t// in\n    tag_450:\n        /* \"#utility.yul\":25368:25507   */\n      swap1\n      pop\n        /* \"#utility.yul\":25230:25526   */\n      swap2\n      swap1\n      pop\n      jump\t// out\n        /* \"#utility.yul\":25544:26011   */\n    tag_51:\n      0x00\n        /* \"#utility.yul\":25760:25762   */\n      0x20\n        /* \"#utility.yul\":25749:25758   */\n      dup3\n        /* \"#utility.yul\":25745:25763   */\n      add\n        /* \"#utility.yul\":25737:25763   */\n      swap1\n      pop\n        /* \"#utility.yul\":25821:25830   */\n      dup2\n        /* \"#utility.yul\":25815:25819   */\n      dup2\n        /* \"#utility.yul\":25811:25831   */\n      sub\n        /* \"#utility.yul\":25807:25808   */\n      0x00\n        /* \"#utility.yul\":25796:25805   */\n      dup4\n        /* \"#utility.yul\":25792:25809   */\n      add\n        /* \"#utility.yul\":25785:25832   */\n      mstore\n        /* \"#utility.yul\":25861:25992   */\n      tag_452\n        /* \"#utility.yul\":25987:25991   */\n      dup2\n        /* \"#utility.yul\":25861:25992   */\n      tag_387\n      jump\t// in\n    tag_452:\n        /* \"#utility.yul\":25853:25992   */\n      swap1\n      pop\n        /* \"#utility.yul\":25715:26011   */\n      swap2\n      swap1\n      pop\n      jump\t// out\n        /* \"#utility.yul\":26029:26384   */\n    tag_259:\n      0x00\n        /* \"#utility.yul\":26107:26109   */\n      0x40\n        /* \"#utility.yul\":26101:26110   */\n      mload\n        /* \"#utility.yul\":26091:26110   */\n      swap1\n      pop\n        /* \"#utility.yul\":26161:26165   */\n      dup2\n        /* \"#utility.yul\":26153:26159   */\n      dup2\n        /* \"#utility.yul\":26149:26166   */\n      add\n        /* \"#utility.yul\":26292:26298   */\n      dup2\n        /* \"#utility.yul\":26280:26290   */\n      dup2\n        /* \"#utility.yul\":26277:26299   */\n      lt\n        /* \"#utility.yul\":26256:26274   */\n      0xffffffffffffffff\n        /* \"#utility.yul\":26244:26254   */\n      dup3\n        /* \"#utility.yul\":26241:26275   */\n      gt\n        /* \"#utility.yul\":26238:26300   */\n      or\n        /* \"#utility.yul\":26235:26237   */\n      iszero\n      tag_454\n      jumpi\n        /* \"#utility.yul\":26303:26321   */\n      tag_455\n      tag_456\n      jump\t// in\n    tag_455:\n        /* \"#utility.yul\":26235:26237   */\n    tag_454:\n        /* \"#utility.yul\":26355:26365   */\n      dup1\n        /* \"#utility.yul\":26351:26353   */\n      0x40\n        /* \"#utility.yul\":26344:26366   */\n      mstore\n        /* \"#utility.yul\":26069:26384   */\n      pop\n      swap2\n      swap1\n      pop\n      jump\t// out\n        /* \"#utility.yul\":26402:26810   */\n    tag_258:\n      0x00\n        /* \"#utility.yul\":26618:26636   */\n      0xffffffffffffffff\n        /* \"#utility.yul\":26610:26616   */\n      dup3\n        /* \"#utility.yul\":26607:26637   */\n      gt\n        /* \"#utility.yul\":26604:26606   */\n      iszero\n      tag_458\n      jumpi\n        /* \"#utility.yul\":26640:26658   */\n      tag_459\n      tag_456\n      jump\t// in\n    tag_459:\n        /* \"#utility.yul\":26604:26606   */\n    tag_458:\n        /* \"#utility.yul\":26702:26706   */\n      0x20\n        /* \"#utility.yul\":26694:26700   */\n      dup3\n        /* \"#utility.yul\":26690:26707   */\n      mul\n        /* \"#utility.yul\":26682:26707   */\n      swap1\n      pop\n        /* \"#utility.yul\":26786:26790   */\n      0x20\n        /* \"#utility.yul\":26780:26784   */\n      dup2\n        /* \"#utility.yul\":26776:26791   */\n      add\n        /* \"#utility.yul\":26768:26791   */\n      swap1\n      pop\n        /* \"#utility.yul\":26509:26810   */\n      swap2\n      swap1\n      pop\n      jump\t// out\n        /* \"#utility.yul\":26828:27244   */\n    tag_269:\n      0x00\n        /* \"#utility.yul\":27004:27022   */\n      0xffffffffffffffff\n        /* \"#utility.yul\":26996:27002   */\n      dup3\n        /* \"#utility.yul\":26993:27023   */\n      gt\n        /* \"#utility.yul\":26990:26992   */\n      iszero\n      tag_461\n      jumpi\n        /* \"#utility.yul\":27026:27044   */\n      tag_462\n      tag_456\n      jump\t// in\n    tag_462:\n        /* \"#utility.yul\":26990:26992   */\n    tag_461:\n        /* \"#utility.yul\":27135:27139   */\n      0x1f\n        /* \"#utility.yul\":27131:27140   */\n      not\n        /* \"#utility.yul\":27124:27128   */\n      0x1f\n        /* \"#utility.yul\":27116:27122   */\n      dup4\n        /* \"#utility.yul\":27112:27129   */\n      add\n        /* \"#utility.yul\":27108:27141   */\n      and\n        /* \"#utility.yul\":27100:27141   */\n      swap1\n      pop\n        /* \"#utility.yul\":27220:27224   */\n      0x20\n        /* \"#utility.yul\":27214:27218   */\n      dup2\n        /* \"#utility.yul\":27210:27225   */\n      add\n        /* \"#utility.yul\":27202:27225   */\n      swap1\n      pop\n        /* \"#utility.yul\":26895:27244   */\n      swap2\n      swap1\n      pop\n      jump\t// out\n        /* \"#utility.yul\":27262:27451   */\n    tag_344:\n      0x00\n        /* \"#utility.yul\":27346:27349   */\n      dup2\n        /* \"#utility.yul\":27338:27349   */\n      swap1\n      pop\n        /* \"#utility.yul\":27381:27384   */\n      dup2\n        /* \"#utility.yul\":27378:27379   */\n      0x00\n        /* \"#utility.yul\":27371:27385   */\n      mstore\n        /* \"#utility.yul\":27427:27431   */\n      0x20\n        /* \"#utility.yul\":27424:27425   */\n      0x00\n        /* \"#utility.yul\":27414:27432   */\n      keccak256\n        /* \"#utility.yul\":27406:27432   */\n      swap1\n      pop\n        /* \"#utility.yul\":27316:27451   */\n      swap2\n      swap1\n      pop\n      jump\t// out\n        /* \"#utility.yul\":27469:27592   */\n    tag_323:\n      0x00\n        /* \"#utility.yul\":27567:27572   */\n      dup2\n        /* \"#utility.yul\":27561:27573   */\n      mload\n        /* \"#utility.yul\":27551:27573   */\n      swap1\n      pop\n        /* \"#utility.yul\":27528:27592   */\n      swap2\n      swap1\n      pop\n      jump\t// out\n        /* \"#utility.yul\":27610:27815   */\n    tag_325:\n      0x00\n        /* \"#utility.yul\":27740:27746   */\n      dup3\n        /* \"#utility.yul\":27735:27738   */\n      dup3\n        /* \"#utility.yul\":27728:27747   */\n      mstore\n        /* \"#utility.yul\":27792:27796   */\n      0x20\n        /* \"#utility.yul\":27787:27790   */\n      dup3\n        /* \"#utility.yul\":27783:27797   */\n      add\n        /* \"#utility.yul\":27768:27797   */\n      swap1\n      pop\n        /* \"#utility.yul\":27706:27815   */\n      swap3\n      swap2\n      pop\n      pop\n      jump\t// out\n        /* \"#utility.yul\":27833:28005   */\n    tag_334:\n      0x00\n        /* \"#utility.yul\":27984:27987   */\n      dup2\n        /* \"#utility.yul\":27969:27987   */\n      swap1\n      pop\n        /* \"#utility.yul\":27947:28005   */\n      swap3\n      swap2\n      pop\n      pop\n      jump\t// out\n        /* \"#utility.yul\":28023:28400   */\n    tag_220:\n      0x00\n        /* \"#utility.yul\":28094:28114   */\n      tag_468\n        /* \"#utility.yul\":28112:28113   */\n      dup3\n        /* \"#utility.yul\":28094:28114   */\n      tag_469\n      jump\t// in\n    tag_468:\n        /* \"#utility.yul\":28089:28114   */\n      swap2\n      pop\n        /* \"#utility.yul\":28140:28160   */\n      tag_470\n        /* \"#utility.yul\":28158:28159   */\n      dup4\n        /* \"#utility.yul\":28140:28160   */\n      tag_469\n      jump\t// in\n    tag_470:\n        /* \"#utility.yul\":28135:28160   */\n      swap3\n      pop\n        /* \"#utility.yul\":28318:28319   */\n      dup3\n        /* \"#utility.yul\":28250:28316   */\n      0xffffffffffffffffffffffffffffffffffffffffffffffffffffffffffffffff\n        /* \"#utility.yul\":28246:28320   */\n      sub\n        /* \"#utility.yul\":28243:28244   */\n      dup3\n        /* \"#utility.yul\":28240:28321   */\n      gt\n        /* \"#utility.yul\":28237:28239   */\n      iszero\n      tag_471\n      jumpi\n        /* \"#utility.yul\":28324:28342   */\n      tag_472\n      tag_473\n      jump\t// in\n    tag_472:\n        /* \"#utility.yul\":28237:28239   */\n    tag_471:\n        /* \"#utility.yul\":28380:28381   */\n      dup3\n        /* \"#utility.yul\":28377:28378   */\n      dup3\n        /* \"#utility.yul\":28373:28382   */\n      add\n        /* \"#utility.yul\":28366:28382   */\n      swap1\n      pop\n        /* \"#utility.yul\":28067:28400   */\n      swap3\n      swap2\n      pop\n      pop\n      jump\t// out\n        /* \"#utility.yul\":28418:28663   */\n    tag_211:\n      0x00\n        /* \"#utility.yul\":28487:28507   */\n      tag_475\n        /* \"#utility.yul\":28505:28506   */\n      dup3\n        /* \"#utility.yul\":28487:28507   */\n      tag_469\n      jump\t// in\n    tag_475:\n        /* \"#utility.yul\":28482:28507   */\n      swap2\n      pop\n        /* \"#utility.yul\":28533:28553   */\n      tag_476\n        /* \"#utility.yul\":28551:28552   */\n      dup4\n        /* \"#utility.yul\":28533:28553   */\n      tag_469\n      jump\t// in\n    tag_476:\n        /* \"#utility.yul\":28528:28553   */\n      swap3\n      pop\n        /* \"#utility.yul\":28584:28585   */\n      dup3\n        /* \"#utility.yul\":28574:28576   */\n      tag_477\n      jumpi\n        /* \"#utility.yul\":28589:28607   */\n      tag_478\n      tag_479\n      jump\t// in\n    tag_478:\n        /* \"#utility.yul\":28574:28576   */\n    tag_477:\n        /* \"#utility.yul\":28643:28644   */\n      dup3\n        /* \"#utility.yul\":28640:28641   */\n      dup3\n        /* \"#utility.yul\":28636:28645   */\n      div\n        /* \"#utility.yul\":28631:28645   */\n      swap1\n      pop\n        /* \"#utility.yul\":28460:28663   */\n      swap3\n      swap2\n      pop\n      pop\n      jump\t// out\n        /* \"#utility.yul\":28681:29101   */\n    tag_225:\n      0x00\n        /* \"#utility.yul\":28756:28776   */\n      tag_481\n        /* \"#utility.yul\":28774:28775   */\n      dup3\n        /* \"#utility.yul\":28756:28776   */\n      tag_469\n      jump\t// in\n    tag_481:\n        /* \"#utility.yul\":28751:28776   */\n      swap2\n      pop\n        /* \"#utility.yul\":28802:28822   */\n      tag_482\n        /* \"#utility.yul\":28820:28821   */\n      dup4\n        /* \"#utility.yul\":28802:28822   */\n      tag_469\n      jump\t// in\n    tag_482:\n        /* \"#utility.yul\":28797:28822   */\n      swap3\n      pop\n        /* \"#utility.yul\":29014:29015   */\n      dup2\n        /* \"#utility.yul\":28946:29012   */\n      0xffffffffffffffffffffffffffffffffffffffffffffffffffffffffffffffff\n        /* \"#utility.yul\":28942:29016   */\n      div\n        /* \"#utility.yul\":28939:28940   */\n      dup4\n        /* \"#utility.yul\":28936:29017   */\n      gt\n        /* \"#utility.yul\":28931:28932   */\n      dup3\n        /* \"#utility.yul\":28924:28933   */\n      iszero\n        /* \"#utility.yul\":28917:28934   */\n      iszero\n        /* \"#utility.yul\":28913:29018   */\n      and\n        /* \"#utility.yul\":28910:28912   */\n      iszero\n      tag_483\n      jumpi\n        /* \"#utility.yul\":29021:29039   */\n      tag_484\n      tag_473\n      jump\t// in\n    tag_484:\n        /* \"#utility.yul\":28910:28912   */\n    tag_483:\n        /* \"#utility.yul\":29081:29082   */\n      dup3\n        /* \"#utility.yul\":29078:29079   */\n      dup3\n        /* \"#utility.yul\":29074:29083   */\n      mul\n        /* \"#utility.yul\":29063:29083   */\n      swap1\n      pop\n        /* \"#utility.yul\":28729:29101   */\n      swap3\n      swap2\n      pop\n      pop\n      jump\t// out\n        /* \"#utility.yul\":29119:29370   */\n    tag_168:\n      0x00\n        /* \"#utility.yul\":29191:29211   */\n      tag_486\n        /* \"#utility.yul\":29209:29210   */\n      dup3\n        /* \"#utility.yul\":29191:29211   */\n      tag_469\n      jump\t// in\n    tag_486:\n        /* \"#utility.yul\":29186:29211   */\n      swap2\n      pop\n        /* \"#utility.yul\":29237:29257   */\n      tag_487\n        /* \"#utility.yul\":29255:29256   */\n      dup4\n        /* \"#utility.yul\":29237:29257   */\n      tag_469\n      jump\t// in\n    tag_487:\n        /* \"#utility.yul\":29232:29257   */\n      swap3\n      pop\n        /* \"#utility.yul\":29288:29289   */\n      dup3\n        /* \"#utility.yul\":29285:29286   */\n      dup3\n        /* \"#utility.yul\":29282:29290   */\n      lt\n        /* \"#utility.yul\":29279:29281   */\n      iszero\n      tag_488\n      jumpi\n        /* \"#utility.yul\":29293:29311   */\n      tag_489\n      tag_473\n      jump\t// in\n    tag_489:\n        /* \"#utility.yul\":29279:29281   */\n    tag_488:\n        /* \"#utility.yul\":29350:29351   */\n      dup3\n        /* \"#utility.yul\":29347:29348   */\n      dup3\n        /* \"#utility.yul\":29343:29352   */\n      sub\n        /* \"#utility.yul\":29335:29352   */\n      swap1\n      pop\n        /* \"#utility.yul\":29164:29370   */\n      swap3\n      swap2\n      pop\n      pop\n      jump\t// out\n        /* \"#utility.yul\":29388:29508   */\n    tag_490:\n      0x00\n        /* \"#utility.yul\":29466:29490   */\n      tag_492\n        /* \"#utility.yul\":29484:29489   */\n      dup3\n        /* \"#utility.yul\":29466:29490   */\n      tag_493\n      jump\t// in\n    tag_492:\n        /* \"#utility.yul\":29455:29490   */\n      swap1\n      pop\n        /* \"#utility.yul\":29433:29508   */\n      swap2\n      swap1\n      pop\n      jump\t// out\n        /* \"#utility.yul\":29526:29676   */\n    tag_493:\n      0x00\n        /* \"#utility.yul\":29615:29657   */\n      0xffffffffffffffffffffffffffffffffffffffff\n        /* \"#utility.yul\":29608:29613   */\n      dup3\n        /* \"#utility.yul\":29604:29658   */\n      and\n        /* \"#utility.yul\":29593:29658   */\n      swap1\n      pop\n        /* \"#utility.yul\":29571:29676   */\n      swap2\n      swap1\n      pop\n      jump\t// out\n        /* \"#utility.yul\":29694:29795   */\n    tag_469:\n      0x00\n        /* \"#utility.yul\":29772:29777   */\n      dup2\n        /* \"#utility.yul\":29761:29777   */\n      swap1\n      pop\n        /* \"#utility.yul\":29739:29795   */\n      swap2\n      swap1\n      pop\n      jump\t// out\n        /* \"#utility.yul\":29813:30015   */\n    tag_272:\n        /* \"#utility.yul\":29909:29915   */\n      dup3\n        /* \"#utility.yul\":29904:29907   */\n      dup2\n        /* \"#utility.yul\":29899:29902   */\n      dup4\n        /* \"#utility.yul\":29886:29916   */\n      calldatacopy\n        /* \"#utility.yul\":29995:29996   */\n      0x00\n        /* \"#utility.yul\":29986:29992   */\n      dup4\n        /* \"#utility.yul\":29981:29984   */\n      dup4\n        /* \"#utility.yul\":29977:29993   */\n      add\n        /* \"#utility.yul\":29970:29997   */\n      mstore\n        /* \"#utility.yul\":29864:30015   */\n      pop\n      pop\n      pop\n      jump\t// out\n        /* \"#utility.yul\":30033:30472   */\n    tag_327:\n        /* \"#utility.yul\":30113:30114   */\n      0x00\n        /* \"#utility.yul\":30135:30284   */\n    tag_498:\n        /* \"#utility.yul\":30149:30155   */\n      dup4\n        /* \"#utility.yul\":30146:30147   */\n      dup2\n        /* \"#utility.yul\":30143:30156   */\n      lt\n        /* \"#utility.yul\":30135:30284   */\n      iszero\n      tag_500\n      jumpi\n        /* \"#utility.yul\":30258:30259   */\n      dup1\n        /* \"#utility.yul\":30253:30256   */\n      dup3\n        /* \"#utility.yul\":30249:30260   */\n      add\n        /* \"#utility.yul\":30243:30261   */\n      mload\n        /* \"#utility.yul\":30239:30240   */\n      dup2\n        /* \"#utility.yul\":30234:30237   */\n      dup5\n        /* \"#utility.yul\":30230:30241   */\n      add\n        /* \"#utility.yul\":30223:30262   */\n      mstore\n        /* \"#utility.yul\":30171:30173   */\n      0x20\n        /* \"#utility.yul\":30168:30169   */\n      dup2\n        /* \"#utility.yul\":30164:30174   */\n      add\n        /* \"#utility.yul\":30159:30174   */\n      swap1\n      pop\n        /* \"#utility.yul\":30135:30284   */\n      jump(tag_498)\n    tag_500:\n        /* \"#utility.yul\":30314:30320   */\n      dup4\n        /* \"#utility.yul\":30311:30312   */\n      dup2\n        /* \"#utility.yul\":30308:30321   */\n      gt\n        /* \"#utility.yul\":30305:30307   */\n      iszero\n      tag_501\n      jumpi\n        /* \"#utility.yul\":30430:30431   */\n      0x00\n        /* \"#utility.yul\":30421:30427   */\n      dup5\n        /* \"#utility.yul\":30416:30419   */\n      dup5\n        /* \"#utility.yul\":30412:30428   */\n      add\n        /* \"#utility.yul\":30405:30432   */\n      mstore\n        /* \"#utility.yul\":30305:30307   */\n    tag_501:\n        /* \"#utility.yul\":30082:30472   */\n      pop\n      pop\n      pop\n      pop\n      jump\t// out\n        /* \"#utility.yul\":30490:30709   */\n    tag_239:\n      0x00\n        /* \"#utility.yul\":30564:30588   */\n      tag_503\n        /* \"#utility.yul\":30582:30587   */\n      dup3\n        /* \"#utility.yul\":30564:30588   */\n      tag_469\n      jump\t// in\n    tag_503:\n        /* \"#utility.yul\":30555:30588   */\n      swap2\n      pop\n        /* \"#utility.yul\":30622:30626   */\n      0x00\n        /* \"#utility.yul\":30615:30620   */\n      dup3\n        /* \"#utility.yul\":30612:30627   */\n      eq\n        /* \"#utility.yul\":30609:30611   */\n      iszero\n      tag_504\n      jumpi\n        /* \"#utility.yul\":30630:30648   */\n      tag_505\n      tag_473\n      jump\t// in\n    tag_505:\n        /* \"#utility.yul\":30609:30611   */\n    tag_504:\n        /* \"#utility.yul\":30689:30690   */\n      0x01\n        /* \"#utility.yul\":30682:30687   */\n      dup3\n        /* \"#utility.yul\":30678:30691   */\n      sub\n        /* \"#utility.yul\":30671:30691   */\n      swap1\n      pop\n        /* \"#utility.yul\":30533:30709   */\n      swap2\n      swap1\n      pop\n      jump\t// out\n        /* \"#utility.yul\":30727:31155   */\n    tag_62:\n      0x00\n        /* \"#utility.yul\":30820:30821   */\n      0x02\n        /* \"#utility.yul\":30814:30818   */\n      dup3\n        /* \"#utility.yul\":30810:30822   */\n      div\n        /* \"#utility.yul\":30800:30822   */\n      swap1\n      pop\n        /* \"#utility.yul\":30879:30880   */\n      0x01\n        /* \"#utility.yul\":30873:30877   */\n      dup3\n        /* \"#utility.yul\":30869:30881   */\n      and\n        /* \"#utility.yul\":30912:30930   */\n      dup1\n        /* \"#utility.yul\":30902:30904   */\n      tag_507\n      jumpi\n        /* \"#utility.yul\":30980:30984   */\n      0x7f\n        /* \"#utility.yul\":30972:30978   */\n      dup3\n        /* \"#utility.yul\":30968:30985   */\n      and\n        /* \"#utility.yul\":30958:30985   */\n      swap2\n      pop\n        /* \"#utility.yul\":30902:30904   */\n    tag_507:\n        /* \"#utility.yul\":31066:31068   */\n      0x20\n        /* \"#utility.yul\":31058:31064   */\n      dup3\n        /* \"#utility.yul\":31055:31069   */\n      lt\n        /* \"#utility.yul\":31035:31053   */\n      dup2\n        /* \"#utility.yul\":31032:31070   */\n      eq\n        /* \"#utility.yul\":31029:31031   */\n      iszero\n      tag_508\n      jumpi\n        /* \"#utility.yul\":31097:31115   */\n      tag_509\n      tag_510\n      jump\t// in\n    tag_509:\n        /* \"#utility.yul\":31029:31031   */\n    tag_508:\n        /* \"#utility.yul\":30778:31155   */\n      pop\n      swap2\n      swap1\n      pop\n      jump\t// out\n        /* \"#utility.yul\":31173:31454   */\n    tag_70:\n      0x00\n        /* \"#utility.yul\":31247:31271   */\n      tag_512\n        /* \"#utility.yul\":31265:31270   */\n      dup3\n        /* \"#utility.yul\":31247:31271   */\n      tag_469\n      jump\t// in\n    tag_512:\n        /* \"#utility.yul\":31238:31271   */\n      swap2\n      pop\n        /* \"#utility.yul\":31305:31371   */\n      0xffffffffffffffffffffffffffffffffffffffffffffffffffffffffffffffff\n        /* \"#utility.yul\":31298:31303   */\n      dup3\n        /* \"#utility.yul\":31295:31372   */\n      eq\n        /* \"#utility.yul\":31292:31294   */\n      iszero\n      tag_513\n      jumpi\n        /* \"#utility.yul\":31375:31393   */\n      tag_514\n      tag_473\n      jump\t// in\n    tag_514:\n        /* \"#utility.yul\":31292:31294   */\n    tag_513:\n        /* \"#utility.yul\":31434:31435   */\n      0x01\n        /* \"#utility.yul\":31427:31432   */\n      dup3\n        /* \"#utility.yul\":31423:31436   */\n      add\n        /* \"#utility.yul\":31416:31436   */\n      swap1\n      pop\n        /* \"#utility.yul\":31216:31454   */\n      swap2\n      swap1\n      pop\n      jump\t// out\n        /* \"#utility.yul\":31472:31708   */\n    tag_218:\n      0x00\n        /* \"#utility.yul\":31533:31553   */\n      tag_516\n        /* \"#utility.yul\":31551:31552   */\n      dup3\n        /* \"#utility.yul\":31533:31553   */\n      tag_469\n      jump\t// in\n    tag_516:\n        /* \"#utility.yul\":31528:31553   */\n      swap2\n      pop\n        /* \"#utility.yul\":31579:31599   */\n      tag_517\n        /* \"#utility.yul\":31597:31598   */\n      dup4\n        /* \"#utility.yul\":31579:31599   */\n      tag_469\n      jump\t// in\n    tag_517:\n        /* \"#utility.yul\":31574:31599   */\n      swap3\n      pop\n        /* \"#utility.yul\":31630:31631   */\n      dup3\n        /* \"#utility.yul\":31620:31622   */\n      tag_518\n      jumpi\n        /* \"#utility.yul\":31635:31653   */\n      tag_519\n      tag_479\n      jump\t// in\n    tag_519:\n        /* \"#utility.yul\":31620:31622   */\n    tag_518:\n        /* \"#utility.yul\":31688:31689   */\n      dup3\n        /* \"#utility.yul\":31685:31686   */\n      dup3\n        /* \"#utility.yul\":31681:31690   */\n      mod\n        /* \"#utility.yul\":31676:31690   */\n      swap1\n      pop\n        /* \"#utility.yul\":31506:31708   */\n      swap3\n      swap2\n      pop\n      pop\n      jump\t// out\n        /* \"#utility.yul\":31726:31954   */\n    tag_473:\n        /* \"#utility.yul\":31786:31863   */\n      0x4e487b7100000000000000000000000000000000000000000000000000000000\n        /* \"#utility.yul\":31783:31784   */\n      0x00\n        /* \"#utility.yul\":31776:31864   */\n      mstore\n        /* \"#utility.yul\":31895:31899   */\n      0x11\n        /* \"#utility.yul\":31892:31893   */\n      0x04\n        /* \"#utility.yul\":31885:31900   */\n      mstore\n        /* \"#utility.yul\":31931:31935   */\n      0x24\n        /* \"#utility.yul\":31928:31929   */\n      0x00\n        /* \"#utility.yul\":31921:31936   */\n      revert\n        /* \"#utility.yul\":31972:32200   */\n    tag_479:\n        /* \"#utility.yul\":32032:32109   */\n      0x4e487b7100000000000000000000000000000000000000000000000000000000\n        /* \"#utility.yul\":32029:32030   */\n      0x00\n        /* \"#utility.yul\":32022:32110   */\n      mstore\n        /* \"#utility.yul\":32141:32145   */\n      0x12\n        /* \"#utility.yul\":32138:32139   */\n      0x04\n        /* \"#utility.yul\":32131:32146   */\n      mstore\n        /* \"#utility.yul\":32177:32181   */\n      0x24\n        /* \"#utility.yul\":32174:32175   */\n      0x00\n        /* \"#utility.yul\":32167:32182   */\n      revert\n        /* \"#utility.yul\":32218:32446   */\n    tag_510:\n        /* \"#utility.yul\":32278:32355   */\n      0x4e487b7100000000000000000000000000000000000000000000000000000000\n        /* \"#utility.yul\":32275:32276   */\n      0x00\n        /* \"#utility.yul\":32268:32356   */\n      mstore\n        /* \"#utility.yul\":32387:32391   */\n      0x22\n        /* \"#utility.yul\":32384:32385   */\n      0x04\n        /* \"#utility.yul\":32377:32392   */\n      mstore\n        /* \"#utility.yul\":32423:32427   */\n      0x24\n        /* \"#utility.yul\":32420:32421   */\n      0x00\n        /* \"#utility.yul\":32413:32428   */\n      revert\n        /* \"#utility.yul\":32464:32692   */\n    tag_456:\n        /* \"#utility.yul\":32524:32601   */\n      0x4e487b7100000000000000000000000000000000000000000000000000000000\n        /* \"#utility.yul\":32521:32522   */\n      0x00\n        /* \"#utility.yul\":32514:32602   */\n      mstore\n        /* \"#utility.yul\":32633:32637   */\n      0x41\n        /* \"#utility.yul\":32630:32631   */\n      0x04\n        /* \"#utility.yul\":32623:32638   */\n      mstore\n        /* \"#utility.yul\":32669:32673   */\n      0x24\n        /* \"#utility.yul\":32666:32667   */\n      0x00\n        /* \"#utility.yul\":32659:32674   */\n      revert\n        /* \"#utility.yul\":32710:32836   */\n    tag_329:\n      0x00\n        /* \"#utility.yul\":32814:32816   */\n      0x1f\n        /* \"#utility.yul\":32810:32817   */\n      not\n        /* \"#utility.yul\":32805:32807   */\n      0x1f\n        /* \"#utility.yul\":32798:32803   */\n      dup4\n        /* \"#utility.yul\":32794:32808   */\n      add\n        /* \"#utility.yul\":32790:32818   */\n      and\n        /* \"#utility.yul\":32780:32818   */\n      swap1\n      pop\n        /* \"#utility.yul\":32758:32836   */\n      swap2\n      swap1\n      pop\n      jump\t// out\n        /* \"#utility.yul\":32854:33000   */\n    tag_276:\n        /* \"#utility.yul\":32939:32963   */\n      tag_526\n        /* \"#utility.yul\":32957:32962   */\n      dup2\n        /* \"#utility.yul\":32939:32963   */\n      tag_490\n      jump\t// in\n    tag_526:\n        /* \"#utility.yul\":32932:32937   */\n      dup2\n        /* \"#utility.yul\":32929:32964   */\n      eq\n        /* \"#utility.yul\":32919:32921   */\n      tag_527\n      jumpi\n        /* \"#utility.yul\":32978:32979   */\n      0x00\n        /* \"#utility.yul\":32975:32976   */\n      dup1\n        /* \"#utility.yul\":32968:32980   */\n      revert\n        /* \"#utility.yul\":32919:32921   */\n    tag_527:\n        /* \"#utility.yul\":32897:33000   */\n      pop\n      jump\t// out\n        /* \"#utility.yul\":33018:33164   */\n    tag_294:\n        /* \"#utility.yul\":33103:33127   */\n      tag_529\n        /* \"#utility.yul\":33121:33126   */\n      dup2\n        /* \"#utility.yul\":33103:33127   */\n      tag_469\n      jump\t// in\n    tag_529:\n        /* \"#utility.yul\":33096:33101   */\n      dup2\n        /* \"#utility.yul\":33093:33128   */\n      eq\n        /* \"#utility.yul\":33083:33085   */\n      tag_530\n      jumpi\n        /* \"#utility.yul\":33142:33143   */\n      0x00\n        /* \"#utility.yul\":33139:33140   */\n      dup1\n        /* \"#utility.yul\":33132:33144   */\n      revert\n        /* \"#utility.yul\":33083:33085   */\n    tag_530:\n        /* \"#utility.yul\":33061:33164   */\n      pop\n      jump\t// out\n\n    auxdata: 0xa2646970667358221220c1cac152278ba46c8a42c8dec5895ca1ae82f3ca242a108d078cdbbed7d331ff64736f6c63430008000033\n}\n",
				"bytecode": {
					"linkReferences": {},
					"object": "608060405260008060006101000a81548160ff021916908315150217905550600180553480156200002f57600080fd5b506040516200300c3803806200300c8339818101604052810190620000559190620003a4565b80600990805190602001906200006d9291906200026b565b5081600760006101000a81548173ffffffffffffffffffffffffffffffffffffffff021916908373ffffffffffffffffffffffffffffffffffffffff1602179055506040518060400160405280600981526020017f446576656c6f706572000000000000000000000000000000000000000000000081525060066000600760009054906101000a900473ffffffffffffffffffffffffffffffffffffffff1673ffffffffffffffffffffffffffffffffffffffff1673ffffffffffffffffffffffffffffffffffffffff16815260200190815260200160002090805190602001906200015b9291906200026b565b506005600760009054906101000a900473ffffffffffffffffffffffffffffffffffffffff169080600181540180825580915050600190039060005260206000200160009091909190916101000a81548173ffffffffffffffffffffffffffffffffffffffff021916908373ffffffffffffffffffffffffffffffffffffffff16021790555030600860006101000a81548173ffffffffffffffffffffffffffffffffffffffff021916908373ffffffffffffffffffffffffffffffffffffffff16021790555033600060016101000a81548173ffffffffffffffffffffffffffffffffffffffff021916908373ffffffffffffffffffffffffffffffffffffffff16021790555050506200057d565b8280546200027990620004cf565b90600052602060002090601f0160209004810192826200029d5760008555620002e9565b82601f10620002b857805160ff1916838001178555620002e9565b82800160010185558215620002e9579182015b82811115620002e8578251825591602001919060010190620002cb565b5b509050620002f89190620002fc565b5090565b5b8082111562000317576000816000905550600101620002fd565b5090565b6000620003326200032c8462000432565b620003fe565b9050828152602081018484840111156200034b57600080fd5b6200035884828562000499565b509392505050565b600081519050620003718162000563565b92915050565b600082601f8301126200038957600080fd5b81516200039b8482602086016200031b565b91505092915050565b60008060408385031215620003b857600080fd5b6000620003c88582860162000360565b925050602083015167ffffffffffffffff811115620003e657600080fd5b620003f48582860162000377565b9150509250929050565b6000604051905081810181811067ffffffffffffffff8211171562000428576200042762000534565b5b8060405250919050565b600067ffffffffffffffff82111562000450576200044f62000534565b5b601f19601f8301169050602081019050919050565b6000620004728262000479565b9050919050565b600073ffffffffffffffffffffffffffffffffffffffff82169050919050565b60005b83811015620004b95780820151818401526020810190506200049c565b83811115620004c9576000848401525b50505050565b60006002820490506001821680620004e857607f821691505b60208210811415620004ff57620004fe62000505565b5b50919050565b7f4e487b7100000000000000000000000000000000000000000000000000000000600052602260045260246000fd5b7f4e487b7100000000000000000000000000000000000000000000000000000000600052604160045260246000fd5b6200056e8162000465565b81146200057a57600080fd5b50565b612a7f806200058d6000396000f3fe608060405234801561001057600080fd5b50600436106100935760003560e01c8063401d502611610066578063401d50261461013457806364fbc02614610150578063784b50311461016e578063909fc14a14610178578063bd8976c4146101a857610093565b80630eccf4f01461009857806325a6c545146100c857806327dd978f146100e65780632968a54514610104575b600080fd5b6100b260048036038101906100ad9190611d63565b6101c4565b6040516100bf91906124fa565b60405180910390f35b6100d0610431565b6040516100dd91906124fa565b60405180910390f35b6100ee6104bd565b6040516100fb91906124fa565b60405180910390f35b61011e60048036038101906101199190611c63565b6106e6565b60405161012b91906124fa565b60405180910390f35b61014e60048036038101906101499190611ca4565b610a6c565b005b610158610fb2565b60405161016591906124fa565b60405180910390f35b6101766110fe565b005b610192600480360381019061018d9190611be6565b6111b7565b60405161019f91906124fa565b60405180910390f35b6101c260048036038101906101bd9190611c0f565b611257565b005b6060600115156000600460008581526020019081526020016000208054905011151514610226576040517f08c379a000000000000000000000000000000000000000000000000000000000815260040161021d906125fc565b60405180910390fd5b6040518060400160405280600281526020017f3a0a000000000000000000000000000000000000000000000000000000000000815250905060608060005b6004600086815260200190815260200160002080549050811015610429576103076004600087815260200190815260200160002082815481106102d0577f4e487b7100000000000000000000000000000000000000000000000000000000600052603260045260246000fd5b906000526020600020906002020160000160009054906101000a900473ffffffffffffffffffffffffffffffffffffffff16611484565b9250600460008681526020019081526020016000208181548110610354577f4e487b7100000000000000000000000000000000000000000000000000000000600052603260045260246000fd5b90600052602060002090600202016001018054610370906128a2565b80601f016020809104026020016040519081016040528092919081815260200182805461039c906128a2565b80156103e95780601f106103be576101008083540402835291602001916103e9565b820191906000526020600020905b8154815290600101906020018083116103cc57829003601f168201915b5050505050915083838360405160200161040593929190612414565b60405160208183030381529060405293508080610421906128d4565b915050610264565b505050919050565b60606000610460600760009054906101000a900473ffffffffffffffffffffffffffffffffffffffff16611484565b9050600061048f600860009054906101000a900473ffffffffffffffffffffffffffffffffffffffff16611484565b9050600981836040516020016104a793929190612466565b6040516020818303038152906040529250505090565b60606040518060400160405280600281526020017f3a0a000000000000000000000000000000000000000000000000000000000000815250905060608060005b6005805490508110156106e05761057760058281548110610547577f4e487b7100000000000000000000000000000000000000000000000000000000600052603260045260246000fd5b9060005260206000200160009054906101000a900473ffffffffffffffffffffffffffffffffffffffff16611484565b925060066000600583815481106105b7577f4e487b7100000000000000000000000000000000000000000000000000000000600052603260045260246000fd5b9060005260206000200160009054906101000a900473ffffffffffffffffffffffffffffffffffffffff1673ffffffffffffffffffffffffffffffffffffffff1673ffffffffffffffffffffffffffffffffffffffff1681526020019081526020016000208054610627906128a2565b80601f0160208091040260200160405190810160405280929190818152602001828054610653906128a2565b80156106a05780601f10610675576101008083540402835291602001916106a0565b820191906000526020600020905b81548152906001019060200180831161068357829003601f168201915b505050505091508383836040516020016106bc93929190612414565b604051602081830303815290604052935080806106d8906128d4565b9150506104fd565b50505090565b60606001151560006003846040516106fe9190612333565b90815260200160405180910390208054905011151514610753576040517f08c379a000000000000000000000000000000000000000000000000000000000815260040161074a906125dc565b60405180910390fd5b6040518060400160405280600281526020017f3a0a000000000000000000000000000000000000000000000000000000000000815250905060608060608060005b6003876040516107a49190612333565b908152602001604051809103902080549050811015610a625761082d6003886040516107d09190612333565b90815260200160405180910390208281548110610816577f4e487b7100000000000000000000000000000000000000000000000000000000600052603260045260246000fd5b9060005260206000209060040201600001546114b1565b94506108bf6003886040516108429190612333565b90815260200160405180910390208281548110610888577f4e487b7100000000000000000000000000000000000000000000000000000000600052603260045260246000fd5b906000526020600020906004020160010160009054906101000a900473ffffffffffffffffffffffffffffffffffffffff16611484565b93506109316003886040516108d49190612333565b9081526020016040518091039020828154811061091a577f4e487b7100000000000000000000000000000000000000000000000000000000600052603260045260246000fd5b9060005260206000209060040201600201546114b1565b92506003876040516109439190612333565b90815260200160405180910390208181548110610989577f4e487b7100000000000000000000000000000000000000000000000000000000600052603260045260246000fd5b906000526020600020906004020160030180546109a5906128a2565b80601f01602080910402602001604051908101604052809291908181526020018280546109d1906128a2565b8015610a1e5780601f106109f357610100808354040283529160200191610a1e565b820191906000526020600020905b815481529060010190602001808311610a0157829003601f168201915b505050505091508584848488604051602001610a3e95949392919061239d565b60405160208183030381529060405295508080610a5a906128d4565b915050610794565b5050505050919050565b6000600660003373ffffffffffffffffffffffffffffffffffffffff1673ffffffffffffffffffffffffffffffffffffffff1681526020019081526020016000208054610ab8906128a2565b90501415610afb576040517f08c379a0000000000000000000000000000000000000000000000000000000008152600401610af2906125bc565b60405180910390fd5b6000151560008054906101000a900460ff16151514610b4f576040517f08c379a0000000000000000000000000000000000000000000000000000000008152600401610b469061257c565b60405180910390fd5b6000600386604051610b619190612333565b9081526020016040518091039020805490501415610bb657600285908060018154018082558091505060019003906000526020600020016000909190919091509080519060200190610bb4929190611958565b505b610bbe6119de565b60015481600001818152505084816020019073ffffffffffffffffffffffffffffffffffffffff16908173ffffffffffffffffffffffffffffffffffffffff168152505083816040018181525050828160600181905250600386604051610c259190612333565b90815260200160405180910390208190806001815401808255809150506001900390600052602060002090600402016000909190919091506000820151816000015560208201518160010160006101000a81548173ffffffffffffffffffffffffffffffffffffffff021916908373ffffffffffffffffffffffffffffffffffffffff160217905550604082015181600201556060820151816003019080519060200190610cd4929190611958565b50505060005b8251811015610ddb57600460006001548152602001908152602001600020838281518110610d31577f4e487b7100000000000000000000000000000000000000000000000000000000600052603260045260246000fd5b6020026020010151908060018154018082558091505060019003906000526020600020906002020160009091909190915060008201518160000160006101000a81548173ffffffffffffffffffffffffffffffffffffffff021916908373ffffffffffffffffffffffffffffffffffffffff1602179055506020820151816001019080519060200190610dc5929190611958565b5050508080610dd3906128d4565b915050610cda565b50610de4611a1c565b33816000019073ffffffffffffffffffffffffffffffffffffffff16908173ffffffffffffffffffffffffffffffffffffffff1681525050600660003373ffffffffffffffffffffffffffffffffffffffff1673ffffffffffffffffffffffffffffffffffffffff1681526020019081526020016000208054610e66906128a2565b80601f0160208091040260200160405190810160405280929190818152602001828054610e92906128a2565b8015610edf5780601f10610eb457610100808354040283529160200191610edf565b820191906000526020600020905b815481529060010190602001808311610ec257829003601f168201915b5050505050816020018190525060046000600154815260200190815260200160002081908060018154018082558091505060019003906000526020600020906002020160009091909190915060008201518160000160006101000a81548173ffffffffffffffffffffffffffffffffffffffff021916908373ffffffffffffffffffffffffffffffffffffffff1602179055506020820151816001019080519060200190610f8e929190611958565b50505060016000815480929190610fa4906128d4565b919050555050505050505050565b60606040518060400160405280600281526020017f3a0a000000000000000000000000000000000000000000000000000000000000815250905060005b600160028054905061100191906127c6565b811015611082578160028281548110611043577f4e487b7100000000000000000000000000000000000000000000000000000000600052603260045260246000fd5b9060005260206000200160405160200161105e92919061236e565b6040516020818303038152906040529150808061107a906128d4565b915050610fef565b50806002600160028054905061109891906127c6565b815481106110cf577f4e487b7100000000000000000000000000000000000000000000000000000000600052603260045260246000fd5b906000526020600020016040516020016110ea92919061234a565b604051602081830303815290604052905090565b600060019054906101000a900473ffffffffffffffffffffffffffffffffffffffff1673ffffffffffffffffffffffffffffffffffffffff163373ffffffffffffffffffffffffffffffffffffffff161461118e576040517f08c379a00000000000000000000000000000000000000000000000000000000081526004016111859061253c565b60405180910390fd5b60008054906101000a900460ff16156000806101000a81548160ff021916908315150217905550565b600a60205280600052604060002060009150905080546111d6906128a2565b80601f0160208091040260200160405190810160405280929190818152602001828054611202906128a2565b801561124f5780601f106112245761010080835404028352916020019161124f565b820191906000526020600020905b81548152906001019060200180831161123257829003601f168201915b505050505081565b600760009054906101000a900473ffffffffffffffffffffffffffffffffffffffff1673ffffffffffffffffffffffffffffffffffffffff163273ffffffffffffffffffffffffffffffffffffffff16146112e7576040517f08c379a00000000000000000000000000000000000000000000000000000000081526004016112de9061259c565b60405180910390fd5b6000151560008054906101000a900460ff1615151461133b576040517f08c379a00000000000000000000000000000000000000000000000000000000081526004016113329061257c565b60405180910390fd5b6000600660008473ffffffffffffffffffffffffffffffffffffffff1673ffffffffffffffffffffffffffffffffffffffff1681526020019081526020016000208054611387906128a2565b9050146113c9576040517f08c379a00000000000000000000000000000000000000000000000000000000081526004016113c09061255c565b60405180910390fd5b80600660008473ffffffffffffffffffffffffffffffffffffffff1673ffffffffffffffffffffffffffffffffffffffff168152602001908152602001600020908051906020019061141c929190611958565b506005829080600181540180825580915050600190039060005260206000200160009091909190916101000a81548173ffffffffffffffffffffffffffffffffffffffff021916908373ffffffffffffffffffffffffffffffffffffffff1602179055505050565b60606114aa8273ffffffffffffffffffffffffffffffffffffffff16601460ff1661165e565b9050919050565b606060008214156114f9576040518060400160405280600181526020017f30000000000000000000000000000000000000000000000000000000000000008152509050611659565b600082905060005b6000821461152b578080611514906128d4565b915050600a82611524919061273b565b9150611501565b60008167ffffffffffffffff81111561156d577f4e487b7100000000000000000000000000000000000000000000000000000000600052604160045260246000fd5b6040519080825280601f01601f19166020018201604052801561159f5781602001600182028036833780820191505090505b5090505b60008514611652576001826115b891906127c6565b9150600a856115c7919061291d565b60306115d391906126e5565b60f81b81838151811061160f577f4e487b7100000000000000000000000000000000000000000000000000000000600052603260045260246000fd5b60200101907effffffffffffffffffffffffffffffffffffffffffffffffffffffffffffff1916908160001a905350600a8561164b919061273b565b94506115a3565b8093505050505b919050565b606060006002836002611671919061276c565b61167b91906126e5565b67ffffffffffffffff8111156116ba577f4e487b7100000000000000000000000000000000000000000000000000000000600052604160045260246000fd5b6040519080825280601f01601f1916602001820160405280156116ec5781602001600182028036833780820191505090505b5090507f30000000000000000000000000000000000000000000000000000000000000008160008151811061174a577f4e487b7100000000000000000000000000000000000000000000000000000000600052603260045260246000fd5b60200101907effffffffffffffffffffffffffffffffffffffffffffffffffffffffffffff1916908160001a9053507f7800000000000000000000000000000000000000000000000000000000000000816001815181106117d4577f4e487b7100000000000000000000000000000000000000000000000000000000600052603260045260246000fd5b60200101907effffffffffffffffffffffffffffffffffffffffffffffffffffffffffffff1916908160001a90535060006001846002611814919061276c565b61181e91906126e5565b90505b600181111561190a577f3031323334353637383961626364656600000000000000000000000000000000600f861660108110611886577f4e487b7100000000000000000000000000000000000000000000000000000000600052603260045260246000fd5b1a60f81b8282815181106118c3577f4e487b7100000000000000000000000000000000000000000000000000000000600052603260045260246000fd5b60200101907effffffffffffffffffffffffffffffffffffffffffffffffffffffffffffff1916908160001a905350600485901c94508061190390612878565b9050611821565b506000841461194e576040517f08c379a00000000000000000000000000000000000000000000000000000000081526004016119459061251c565b60405180910390fd5b8091505092915050565b828054611964906128a2565b90600052602060002090601f01602090048101928261198657600085556119cd565b82601f1061199f57805160ff19168380011785556119cd565b828001600101855582156119cd579182015b828111156119cc5782518255916020019190600101906119b1565b5b5090506119da9190611a4c565b5090565b604051806080016040528060008152602001600073ffffffffffffffffffffffffffffffffffffffff16815260200160008152602001606081525090565b6040518060400160405280600073ffffffffffffffffffffffffffffffffffffffff168152602001606081525090565b5b80821115611a65576000816000905550600101611a4d565b5090565b6000611a7c611a778461264d565b61261c565b9050808382526020820190508260005b85811015611abc5781358501611aa28882611b6d565b845260208401935060208301925050600181019050611a8c565b5050509392505050565b6000611ad9611ad484612679565b61261c565b905082815260208101848484011115611af157600080fd5b611afc848285612836565b509392505050565b600081359050611b1381612a1b565b92915050565b600082601f830112611b2a57600080fd5b8135611b3a848260208601611a69565b91505092915050565b600082601f830112611b5457600080fd5b8135611b64848260208601611ac6565b91505092915050565b600060408284031215611b7f57600080fd5b611b89604061261c565b90506000611b9984828501611b04565b600083015250602082013567ffffffffffffffff811115611bb957600080fd5b611bc584828501611b43565b60208301525092915050565b600081359050611be081612a32565b92915050565b600060208284031215611bf857600080fd5b6000611c0684828501611b04565b91505092915050565b60008060408385031215611c2257600080fd5b6000611c3085828601611b04565b925050602083013567ffffffffffffffff811115611c4d57600080fd5b611c5985828601611b43565b9150509250929050565b600060208284031215611c7557600080fd5b600082013567ffffffffffffffff811115611c8f57600080fd5b611c9b84828501611b43565b91505092915050565b600080600080600060a08688031215611cbc57600080fd5b600086013567ffffffffffffffff811115611cd657600080fd5b611ce288828901611b43565b9550506020611cf388828901611b04565b9450506040611d0488828901611bd1565b935050606086013567ffffffffffffffff811115611d2157600080fd5b611d2d88828901611b43565b925050608086013567ffffffffffffffff811115611d4a57600080fd5b611d5688828901611b19565b9150509295509295909350565b600060208284031215611d7557600080fd5b6000611d8384828501611bd1565b91505092915050565b6000611d97826126be565b611da181856126c9565b9350611db1818560208601612845565b611dba81612a0a565b840191505092915050565b6000611dd0826126be565b611dda81856126da565b9350611dea818560208601612845565b80840191505092915050565b60008154611e03816128a2565b611e0d81866126da565b94506001821660008114611e285760018114611e3957611e6c565b60ff19831686528186019350611e6c565b611e42856126a9565b60005b83811015611e6457815481890152600182019150602081019050611e45565b838801955050505b50505092915050565b6000611e826020836126c9565b91507f537472696e67733a20686578206c656e67746820696e73756666696369656e746000830152602082019050919050565b6000611ec26002836126da565b91507f2c0a0000000000000000000000000000000000000000000000000000000000006000830152600282019050919050565b6000611f02602c836126c9565b91507f4f6e6c7920666163746f727920636f6e74726163742063616e2063616c6c207460008301527f6869732066756e6374696f6e00000000000000000000000000000000000000006020830152604082019050919050565b6000611f686015836126da565b91507f284275696c64696e67277320416464726573733a2000000000000000000000006000830152601582019050919050565b6000611fa86020836126c9565b91507f436f6e74726163746f7220697320616c726561647920726567697374657265646000830152602082019050919050565b6000611fe8601a836126c9565b91507f436f6e747261637420686173206265656e2064697361626c65640000000000006000830152602082019050919050565b60006120286025836126c9565b91507f43616e206f6e6c7920626520657865637574656420627920746865204465766560008301527f6c6f7065720000000000000000000000000000000000000000000000000000006020830152604082019050919050565b600061208e6016836126da565b91507f28446576656c6f706572277320416464726573733a20000000000000000000006000830152601682019050919050565b60006120ce6003836126da565b91507f20292000000000000000000000000000000000000000000000000000000000006000830152600382019050919050565b600061210e6031836126c9565b91507f43616e206f6e6c7920626520657865637574656420627920746865207265676960008301527f73746572656420436f6e74726163746f720000000000000000000000000000006020830152604082019050919050565b60006121746012836126da565b91507f284275696c64696e672773204e616d653a2000000000000000000000000000006000830152601282019050919050565b60006121b46034836126c9565b91507f506c656173652074727920616761696e20617320726571756573746564206d6160008301527f74657269616c20776173206e6f7420666f756e640000000000000000000000006020830152604082019050919050565b600061221a6003836126da565b91507f20282000000000000000000000000000000000000000000000000000000000006000830152600382019050919050565b600061225a6039836126c9565b91507f506c656173652074727920616761696e2061732072657175657374656420626160008301527f746368206164647265737320776173206e6f7420666f756e64000000000000006020830152604082019050919050565b60006122c06004836126da565b91507f202d3e20000000000000000000000000000000000000000000000000000000006000830152600482019050919050565b60006123006004836126da565b91507f2029200a000000000000000000000000000000000000000000000000000000006000830152600482019050919050565b600061233f8284611dc5565b915081905092915050565b60006123568285611dc5565b91506123628284611df6565b91508190509392505050565b600061237a8285611dc5565b91506123868284611df6565b915061239182611eb5565b91508190509392505050565b60006123a98288611dc5565b91506123b48261220d565b91506123c08287611dc5565b91506123cb826122b3565b91506123d78286611dc5565b91506123e38285611dc5565b91506123ee826122b3565b91506123fa8284611dc5565b9150612405826122f3565b91508190509695505050505050565b60006124208286611dc5565b915061242b8261220d565b91506124378285611dc5565b9150612442826122b3565b915061244e8284611dc5565b9150612459826122f3565b9150819050949350505050565b600061247182612167565b915061247c826122b3565b91506124888286611df6565b9150612493826120c1565b915061249e82611f5b565b91506124a9826122b3565b91506124b58285611dc5565b91506124c0826120c1565b91506124cb82612081565b91506124d6826122b3565b91506124e28284611dc5565b91506124ed826122f3565b9150819050949350505050565b600060208201905081810360008301526125148184611d8c565b905092915050565b6000602082019050818103600083015261253581611e75565b9050919050565b6000602082019050818103600083015261255581611ef5565b9050919050565b6000602082019050818103600083015261257581611f9b565b9050919050565b6000602082019050818103600083015261259581611fdb565b9050919050565b600060208201905081810360008301526125b58161201b565b9050919050565b600060208201905081810360008301526125d581612101565b9050919050565b600060208201905081810360008301526125f5816121a7565b9050919050565b600060208201905081810360008301526126158161224d565b9050919050565b6000604051905081810181811067ffffffffffffffff82111715612643576126426129db565b5b8060405250919050565b600067ffffffffffffffff821115612668576126676129db565b5b602082029050602081019050919050565b600067ffffffffffffffff821115612694576126936129db565b5b601f19601f8301169050602081019050919050565b60008190508160005260206000209050919050565b600081519050919050565b600082825260208201905092915050565b600081905092915050565b60006126f08261282c565b91506126fb8361282c565b9250827fffffffffffffffffffffffffffffffffffffffffffffffffffffffffffffffff038211156127305761272f61294e565b5b828201905092915050565b60006127468261282c565b91506127518361282c565b9250826127615761276061297d565b5b828204905092915050565b60006127778261282c565b91506127828361282c565b9250817fffffffffffffffffffffffffffffffffffffffffffffffffffffffffffffffff04831182151516156127bb576127ba61294e565b5b828202905092915050565b60006127d18261282c565b91506127dc8361282c565b9250828210156127ef576127ee61294e565b5b828203905092915050565b60006128058261280c565b9050919050565b600073ffffffffffffffffffffffffffffffffffffffff82169050919050565b6000819050919050565b82818337600083830152505050565b60005b83811015612863578082015181840152602081019050612848565b83811115612872576000848401525b50505050565b60006128838261282c565b915060008214156128975761289661294e565b5b600182039050919050565b600060028204905060018216806128ba57607f821691505b602082108114156128ce576128cd6129ac565b5b50919050565b60006128df8261282c565b91507fffffffffffffffffffffffffffffffffffffffffffffffffffffffffffffffff8214156129125761291161294e565b5b600182019050919050565b60006129288261282c565b91506129338361282c565b9250826129435761294261297d565b5b828206905092915050565b7f4e487b7100000000000000000000000000000000000000000000000000000000600052601160045260246000fd5b7f4e487b7100000000000000000000000000000000000000000000000000000000600052601260045260246000fd5b7f4e487b7100000000000000000000000000000000000000000000000000000000600052602260045260246000fd5b7f4e487b7100000000000000000000000000000000000000000000000000000000600052604160045260246000fd5b6000601f19601f8301169050919050565b612a24816127fa565b8114612a2f57600080fd5b50565b612a3b8161282c565b8114612a4657600080fd5b5056fea2646970667358221220c1cac152278ba46c8a42c8dec5895ca1ae82f3ca242a108d078cdbbed7d331ff64736f6c63430008000033",
					"opcodes": "PUSH1 0x80 PUSH1 0x40 MSTORE PUSH1 0x0 DUP1 PUSH1 0x0 PUSH2 0x100 EXP DUP2 SLOAD DUP2 PUSH1 0xFF MUL NOT AND SWAP1 DUP4 ISZERO ISZERO MUL OR SWAP1 SSTORE POP PUSH1 0x1 DUP1 SSTORE CALLVALUE DUP1 ISZERO PUSH3 0x2F JUMPI PUSH1 0x0 DUP1 REVERT JUMPDEST POP PUSH1 0x40 MLOAD PUSH3 0x300C CODESIZE SUB DUP1 PUSH3 0x300C DUP4 CODECOPY DUP2 DUP2 ADD PUSH1 0x40 MSTORE DUP2 ADD SWAP1 PUSH3 0x55 SWAP2 SWAP1 PUSH3 0x3A4 JUMP JUMPDEST DUP1 PUSH1 0x9 SWAP1 DUP1 MLOAD SWAP1 PUSH1 0x20 ADD SWAP1 PUSH3 0x6D SWAP3 SWAP2 SWAP1 PUSH3 0x26B JUMP JUMPDEST POP DUP2 PUSH1 0x7 PUSH1 0x0 PUSH2 0x100 EXP DUP2 SLOAD DUP2 PUSH20 0xFFFFFFFFFFFFFFFFFFFFFFFFFFFFFFFFFFFFFFFF MUL NOT AND SWAP1 DUP4 PUSH20 0xFFFFFFFFFFFFFFFFFFFFFFFFFFFFFFFFFFFFFFFF AND MUL OR SWAP1 SSTORE POP PUSH1 0x40 MLOAD DUP1 PUSH1 0x40 ADD PUSH1 0x40 MSTORE DUP1 PUSH1 0x9 DUP2 MSTORE PUSH1 0x20 ADD PUSH32 0x446576656C6F7065720000000000000000000000000000000000000000000000 DUP2 MSTORE POP PUSH1 0x6 PUSH1 0x0 PUSH1 0x7 PUSH1 0x0 SWAP1 SLOAD SWAP1 PUSH2 0x100 EXP SWAP1 DIV PUSH20 0xFFFFFFFFFFFFFFFFFFFFFFFFFFFFFFFFFFFFFFFF AND PUSH20 0xFFFFFFFFFFFFFFFFFFFFFFFFFFFFFFFFFFFFFFFF AND PUSH20 0xFFFFFFFFFFFFFFFFFFFFFFFFFFFFFFFFFFFFFFFF AND DUP2 MSTORE PUSH1 0x20 ADD SWAP1 DUP2 MSTORE PUSH1 0x20 ADD PUSH1 0x0 KECCAK256 SWAP1 DUP1 MLOAD SWAP1 PUSH1 0x20 ADD SWAP1 PUSH3 0x15B SWAP3 SWAP2 SWAP1 PUSH3 0x26B JUMP JUMPDEST POP PUSH1 0x5 PUSH1 0x7 PUSH1 0x0 SWAP1 SLOAD SWAP1 PUSH2 0x100 EXP SWAP1 DIV PUSH20 0xFFFFFFFFFFFFFFFFFFFFFFFFFFFFFFFFFFFFFFFF AND SWAP1 DUP1 PUSH1 0x1 DUP2 SLOAD ADD DUP1 DUP3 SSTORE DUP1 SWAP2 POP POP PUSH1 0x1 SWAP1 SUB SWAP1 PUSH1 0x0 MSTORE PUSH1 0x20 PUSH1 0x0 KECCAK256 ADD PUSH1 0x0 SWAP1 SWAP2 SWAP1 SWAP2 SWAP1 SWAP2 PUSH2 0x100 EXP DUP2 SLOAD DUP2 PUSH20 0xFFFFFFFFFFFFFFFFFFFFFFFFFFFFFFFFFFFFFFFF MUL NOT AND SWAP1 DUP4 PUSH20 0xFFFFFFFFFFFFFFFFFFFFFFFFFFFFFFFFFFFFFFFF AND MUL OR SWAP1 SSTORE POP ADDRESS PUSH1 0x8 PUSH1 0x0 PUSH2 0x100 EXP DUP2 SLOAD DUP2 PUSH20 0xFFFFFFFFFFFFFFFFFFFFFFFFFFFFFFFFFFFFFFFF MUL NOT AND SWAP1 DUP4 PUSH20 0xFFFFFFFFFFFFFFFFFFFFFFFFFFFFFFFFFFFFFFFF AND MUL OR SWAP1 SSTORE POP CALLER PUSH1 0x0 PUSH1 0x1 PUSH2 0x100 EXP DUP2 SLOAD DUP2 PUSH20 0xFFFFFFFFFFFFFFFFFFFFFFFFFFFFFFFFFFFFFFFF MUL NOT AND SWAP1 DUP4 PUSH20 0xFFFFFFFFFFFFFFFFFFFFFFFFFFFFFFFFFFFFFFFF AND MUL OR SWAP1 SSTORE POP POP POP PUSH3 0x57D JUMP JUMPDEST DUP3 DUP1 SLOAD PUSH3 0x279 SWAP1 PUSH3 0x4CF JUMP JUMPDEST SWAP1 PUSH1 0x0 MSTORE PUSH1 0x20 PUSH1 0x0 KECCAK256 SWAP1 PUSH1 0x1F ADD PUSH1 0x20 SWAP1 DIV DUP2 ADD SWAP3 DUP3 PUSH3 0x29D JUMPI PUSH1 0x0 DUP6 SSTORE PUSH3 0x2E9 JUMP JUMPDEST DUP3 PUSH1 0x1F LT PUSH3 0x2B8 JUMPI DUP1 MLOAD PUSH1 0xFF NOT AND DUP4 DUP1 ADD OR DUP6 SSTORE PUSH3 0x2E9 JUMP JUMPDEST DUP3 DUP1 ADD PUSH1 0x1 ADD DUP6 SSTORE DUP3 ISZERO PUSH3 0x2E9 JUMPI SWAP2 DUP3 ADD JUMPDEST DUP3 DUP2 GT ISZERO PUSH3 0x2E8 JUMPI DUP3 MLOAD DUP3 SSTORE SWAP2 PUSH1 0x20 ADD SWAP2 SWAP1 PUSH1 0x1 ADD SWAP1 PUSH3 0x2CB JUMP JUMPDEST JUMPDEST POP SWAP1 POP PUSH3 0x2F8 SWAP2 SWAP1 PUSH3 0x2FC JUMP JUMPDEST POP SWAP1 JUMP JUMPDEST JUMPDEST DUP1 DUP3 GT ISZERO PUSH3 0x317 JUMPI PUSH1 0x0 DUP2 PUSH1 0x0 SWAP1 SSTORE POP PUSH1 0x1 ADD PUSH3 0x2FD JUMP JUMPDEST POP SWAP1 JUMP JUMPDEST PUSH1 0x0 PUSH3 0x332 PUSH3 0x32C DUP5 PUSH3 0x432 JUMP JUMPDEST PUSH3 0x3FE JUMP JUMPDEST SWAP1 POP DUP3 DUP2 MSTORE PUSH1 0x20 DUP2 ADD DUP5 DUP5 DUP5 ADD GT ISZERO PUSH3 0x34B JUMPI PUSH1 0x0 DUP1 REVERT JUMPDEST PUSH3 0x358 DUP5 DUP3 DUP6 PUSH3 0x499 JUMP JUMPDEST POP SWAP4 SWAP3 POP POP POP JUMP JUMPDEST PUSH1 0x0 DUP2 MLOAD SWAP1 POP PUSH3 0x371 DUP2 PUSH3 0x563 JUMP JUMPDEST SWAP3 SWAP2 POP POP JUMP JUMPDEST PUSH1 0x0 DUP3 PUSH1 0x1F DUP4 ADD SLT PUSH3 0x389 JUMPI PUSH1 0x0 DUP1 REVERT JUMPDEST DUP2 MLOAD PUSH3 0x39B DUP5 DUP3 PUSH1 0x20 DUP7 ADD PUSH3 0x31B JUMP JUMPDEST SWAP2 POP POP SWAP3 SWAP2 POP POP JUMP JUMPDEST PUSH1 0x0 DUP1 PUSH1 0x40 DUP4 DUP6 SUB SLT ISZERO PUSH3 0x3B8 JUMPI PUSH1 0x0 DUP1 REVERT JUMPDEST PUSH1 0x0 PUSH3 0x3C8 DUP6 DUP3 DUP7 ADD PUSH3 0x360 JUMP JUMPDEST SWAP3 POP POP PUSH1 0x20 DUP4 ADD MLOAD PUSH8 0xFFFFFFFFFFFFFFFF DUP2 GT ISZERO PUSH3 0x3E6 JUMPI PUSH1 0x0 DUP1 REVERT JUMPDEST PUSH3 0x3F4 DUP6 DUP3 DUP7 ADD PUSH3 0x377 JUMP JUMPDEST SWAP2 POP POP SWAP3 POP SWAP3 SWAP1 POP JUMP JUMPDEST PUSH1 0x0 PUSH1 0x40 MLOAD SWAP1 POP DUP2 DUP2 ADD DUP2 DUP2 LT PUSH8 0xFFFFFFFFFFFFFFFF DUP3 GT OR ISZERO PUSH3 0x428 JUMPI PUSH3 0x427 PUSH3 0x534 JUMP JUMPDEST JUMPDEST DUP1 PUSH1 0x40 MSTORE POP SWAP2 SWAP1 POP JUMP JUMPDEST PUSH1 0x0 PUSH8 0xFFFFFFFFFFFFFFFF DUP3 GT ISZERO PUSH3 0x450 JUMPI PUSH3 0x44F PUSH3 0x534 JUMP JUMPDEST JUMPDEST PUSH1 0x1F NOT PUSH1 0x1F DUP4 ADD AND SWAP1 POP PUSH1 0x20 DUP2 ADD SWAP1 POP SWAP2 SWAP1 POP JUMP JUMPDEST PUSH1 0x0 PUSH3 0x472 DUP3 PUSH3 0x479 JUMP JUMPDEST SWAP1 POP SWAP2 SWAP1 POP JUMP JUMPDEST PUSH1 0x0 PUSH20 0xFFFFFFFFFFFFFFFFFFFFFFFFFFFFFFFFFFFFFFFF DUP3 AND SWAP1 POP SWAP2 SWAP1 POP JUMP JUMPDEST PUSH1 0x0 JUMPDEST DUP4 DUP2 LT ISZERO PUSH3 0x4B9 JUMPI DUP1 DUP3 ADD MLOAD DUP2 DUP5 ADD MSTORE PUSH1 0x20 DUP2 ADD SWAP1 POP PUSH3 0x49C JUMP JUMPDEST DUP4 DUP2 GT ISZERO PUSH3 0x4C9 JUMPI PUSH1 0x0 DUP5 DUP5 ADD MSTORE JUMPDEST POP POP POP POP JUMP JUMPDEST PUSH1 0x0 PUSH1 0x2 DUP3 DIV SWAP1 POP PUSH1 0x1 DUP3 AND DUP1 PUSH3 0x4E8 JUMPI PUSH1 0x7F DUP3 AND SWAP2 POP JUMPDEST PUSH1 0x20 DUP3 LT DUP2 EQ ISZERO PUSH3 0x4FF JUMPI PUSH3 0x4FE PUSH3 0x505 JUMP JUMPDEST JUMPDEST POP SWAP2 SWAP1 POP JUMP JUMPDEST PUSH32 0x4E487B7100000000000000000000000000000000000000000000000000000000 PUSH1 0x0 MSTORE PUSH1 0x22 PUSH1 0x4 MSTORE PUSH1 0x24 PUSH1 0x0 REVERT JUMPDEST PUSH32 0x4E487B7100000000000000000000000000000000000000000000000000000000 PUSH1 0x0 MSTORE PUSH1 0x41 PUSH1 0x4 MSTORE PUSH1 0x24 PUSH1 0x0 REVERT JUMPDEST PUSH3 0x56E DUP2 PUSH3 0x465 JUMP JUMPDEST DUP2 EQ PUSH3 0x57A JUMPI PUSH1 0x0 DUP1 REVERT JUMPDEST POP JUMP JUMPDEST PUSH2 0x2A7F DUP1 PUSH3 0x58D PUSH1 0x0 CODECOPY PUSH1 0x0 RETURN INVALID PUSH1 0x80 PUSH1 0x40 MSTORE CALLVALUE DUP1 ISZERO PUSH2 0x10 JUMPI PUSH1 0x0 DUP1 REVERT JUMPDEST POP PUSH1 0x4 CALLDATASIZE LT PUSH2 0x93 JUMPI PUSH1 0x0 CALLDATALOAD PUSH1 0xE0 SHR DUP1 PUSH4 0x401D5026 GT PUSH2 0x66 JUMPI DUP1 PUSH4 0x401D5026 EQ PUSH2 0x134 JUMPI DUP1 PUSH4 0x64FBC026 EQ PUSH2 0x150 JUMPI DUP1 PUSH4 0x784B5031 EQ PUSH2 0x16E JUMPI DUP1 PUSH4 0x909FC14A EQ PUSH2 0x178 JUMPI DUP1 PUSH4 0xBD8976C4 EQ PUSH2 0x1A8 JUMPI PUSH2 0x93 JUMP JUMPDEST DUP1 PUSH4 0xECCF4F0 EQ PUSH2 0x98 JUMPI DUP1 PUSH4 0x25A6C545 EQ PUSH2 0xC8 JUMPI DUP1 PUSH4 0x27DD978F EQ PUSH2 0xE6 JUMPI DUP1 PUSH4 0x2968A545 EQ PUSH2 0x104 JUMPI JUMPDEST PUSH1 0x0 DUP1 REVERT JUMPDEST PUSH2 0xB2 PUSH1 0x4 DUP1 CALLDATASIZE SUB DUP2 ADD SWAP1 PUSH2 0xAD SWAP2 SWAP1 PUSH2 0x1D63 JUMP JUMPDEST PUSH2 0x1C4 JUMP JUMPDEST PUSH1 0x40 MLOAD PUSH2 0xBF SWAP2 SWAP1 PUSH2 0x24FA JUMP JUMPDEST PUSH1 0x40 MLOAD DUP1 SWAP2 SUB SWAP1 RETURN JUMPDEST PUSH2 0xD0 PUSH2 0x431 JUMP JUMPDEST PUSH1 0x40 MLOAD PUSH2 0xDD SWAP2 SWAP1 PUSH2 0x24FA JUMP JUMPDEST PUSH1 0x40 MLOAD DUP1 SWAP2 SUB SWAP1 RETURN JUMPDEST PUSH2 0xEE PUSH2 0x4BD JUMP JUMPDEST PUSH1 0x40 MLOAD PUSH2 0xFB SWAP2 SWAP1 PUSH2 0x24FA JUMP JUMPDEST PUSH1 0x40 MLOAD DUP1 SWAP2 SUB SWAP1 RETURN JUMPDEST PUSH2 0x11E PUSH1 0x4 DUP1 CALLDATASIZE SUB DUP2 ADD SWAP1 PUSH2 0x119 SWAP2 SWAP1 PUSH2 0x1C63 JUMP JUMPDEST PUSH2 0x6E6 JUMP JUMPDEST PUSH1 0x40 MLOAD PUSH2 0x12B SWAP2 SWAP1 PUSH2 0x24FA JUMP JUMPDEST PUSH1 0x40 MLOAD DUP1 SWAP2 SUB SWAP1 RETURN JUMPDEST PUSH2 0x14E PUSH1 0x4 DUP1 CALLDATASIZE SUB DUP2 ADD SWAP1 PUSH2 0x149 SWAP2 SWAP1 PUSH2 0x1CA4 JUMP JUMPDEST PUSH2 0xA6C JUMP JUMPDEST STOP JUMPDEST PUSH2 0x158 PUSH2 0xFB2 JUMP JUMPDEST PUSH1 0x40 MLOAD PUSH2 0x165 SWAP2 SWAP1 PUSH2 0x24FA JUMP JUMPDEST PUSH1 0x40 MLOAD DUP1 SWAP2 SUB SWAP1 RETURN JUMPDEST PUSH2 0x176 PUSH2 0x10FE JUMP JUMPDEST STOP JUMPDEST PUSH2 0x192 PUSH1 0x4 DUP1 CALLDATASIZE SUB DUP2 ADD SWAP1 PUSH2 0x18D SWAP2 SWAP1 PUSH2 0x1BE6 JUMP JUMPDEST PUSH2 0x11B7 JUMP JUMPDEST PUSH1 0x40 MLOAD PUSH2 0x19F SWAP2 SWAP1 PUSH2 0x24FA JUMP JUMPDEST PUSH1 0x40 MLOAD DUP1 SWAP2 SUB SWAP1 RETURN JUMPDEST PUSH2 0x1C2 PUSH1 0x4 DUP1 CALLDATASIZE SUB DUP2 ADD SWAP1 PUSH2 0x1BD SWAP2 SWAP1 PUSH2 0x1C0F JUMP JUMPDEST PUSH2 0x1257 JUMP JUMPDEST STOP JUMPDEST PUSH1 0x60 PUSH1 0x1 ISZERO ISZERO PUSH1 0x0 PUSH1 0x4 PUSH1 0x0 DUP6 DUP2 MSTORE PUSH1 0x20 ADD SWAP1 DUP2 MSTORE PUSH1 0x20 ADD PUSH1 0x0 KECCAK256 DUP1 SLOAD SWAP1 POP GT ISZERO ISZERO EQ PUSH2 0x226 JUMPI PUSH1 0x40 MLOAD PUSH32 0x8C379A000000000000000000000000000000000000000000000000000000000 DUP2 MSTORE PUSH1 0x4 ADD PUSH2 0x21D SWAP1 PUSH2 0x25FC JUMP JUMPDEST PUSH1 0x40 MLOAD DUP1 SWAP2 SUB SWAP1 REVERT JUMPDEST PUSH1 0x40 MLOAD DUP1 PUSH1 0x40 ADD PUSH1 0x40 MSTORE DUP1 PUSH1 0x2 DUP2 MSTORE PUSH1 0x20 ADD PUSH32 0x3A0A000000000000000000000000000000000000000000000000000000000000 DUP2 MSTORE POP SWAP1 POP PUSH1 0x60 DUP1 PUSH1 0x0 JUMPDEST PUSH1 0x4 PUSH1 0x0 DUP7 DUP2 MSTORE PUSH1 0x20 ADD SWAP1 DUP2 MSTORE PUSH1 0x20 ADD PUSH1 0x0 KECCAK256 DUP1 SLOAD SWAP1 POP DUP2 LT ISZERO PUSH2 0x429 JUMPI PUSH2 0x307 PUSH1 0x4 PUSH1 0x0 DUP8 DUP2 MSTORE PUSH1 0x20 ADD SWAP1 DUP2 MSTORE PUSH1 0x20 ADD PUSH1 0x0 KECCAK256 DUP3 DUP2 SLOAD DUP2 LT PUSH2 0x2D0 JUMPI PUSH32 0x4E487B7100000000000000000000000000000000000000000000000000000000 PUSH1 0x0 MSTORE PUSH1 0x32 PUSH1 0x4 MSTORE PUSH1 0x24 PUSH1 0x0 REVERT JUMPDEST SWAP1 PUSH1 0x0 MSTORE PUSH1 0x20 PUSH1 0x0 KECCAK256 SWAP1 PUSH1 0x2 MUL ADD PUSH1 0x0 ADD PUSH1 0x0 SWAP1 SLOAD SWAP1 PUSH2 0x100 EXP SWAP1 DIV PUSH20 0xFFFFFFFFFFFFFFFFFFFFFFFFFFFFFFFFFFFFFFFF AND PUSH2 0x1484 JUMP JUMPDEST SWAP3 POP PUSH1 0x4 PUSH1 0x0 DUP7 DUP2 MSTORE PUSH1 0x20 ADD SWAP1 DUP2 MSTORE PUSH1 0x20 ADD PUSH1 0x0 KECCAK256 DUP2 DUP2 SLOAD DUP2 LT PUSH2 0x354 JUMPI PUSH32 0x4E487B7100000000000000000000000000000000000000000000000000000000 PUSH1 0x0 MSTORE PUSH1 0x32 PUSH1 0x4 MSTORE PUSH1 0x24 PUSH1 0x0 REVERT JUMPDEST SWAP1 PUSH1 0x0 MSTORE PUSH1 0x20 PUSH1 0x0 KECCAK256 SWAP1 PUSH1 0x2 MUL ADD PUSH1 0x1 ADD DUP1 SLOAD PUSH2 0x370 SWAP1 PUSH2 0x28A2 JUMP JUMPDEST DUP1 PUSH1 0x1F ADD PUSH1 0x20 DUP1 SWAP2 DIV MUL PUSH1 0x20 ADD PUSH1 0x40 MLOAD SWAP1 DUP2 ADD PUSH1 0x40 MSTORE DUP1 SWAP3 SWAP2 SWAP1 DUP2 DUP2 MSTORE PUSH1 0x20 ADD DUP3 DUP1 SLOAD PUSH2 0x39C SWAP1 PUSH2 0x28A2 JUMP JUMPDEST DUP1 ISZERO PUSH2 0x3E9 JUMPI DUP1 PUSH1 0x1F LT PUSH2 0x3BE JUMPI PUSH2 0x100 DUP1 DUP4 SLOAD DIV MUL DUP4 MSTORE SWAP2 PUSH1 0x20 ADD SWAP2 PUSH2 0x3E9 JUMP JUMPDEST DUP3 ADD SWAP2 SWAP1 PUSH1 0x0 MSTORE PUSH1 0x20 PUSH1 0x0 KECCAK256 SWAP1 JUMPDEST DUP2 SLOAD DUP2 MSTORE SWAP1 PUSH1 0x1 ADD SWAP1 PUSH1 0x20 ADD DUP1 DUP4 GT PUSH2 0x3CC JUMPI DUP3 SWAP1 SUB PUSH1 0x1F AND DUP3 ADD SWAP2 JUMPDEST POP POP POP POP POP SWAP2 POP DUP4 DUP4 DUP4 PUSH1 0x40 MLOAD PUSH1 0x20 ADD PUSH2 0x405 SWAP4 SWAP3 SWAP2 SWAP1 PUSH2 0x2414 JUMP JUMPDEST PUSH1 0x40 MLOAD PUSH1 0x20 DUP2 DUP4 SUB SUB DUP2 MSTORE SWAP1 PUSH1 0x40 MSTORE SWAP4 POP DUP1 DUP1 PUSH2 0x421 SWAP1 PUSH2 0x28D4 JUMP JUMPDEST SWAP2 POP POP PUSH2 0x264 JUMP JUMPDEST POP POP POP SWAP2 SWAP1 POP JUMP JUMPDEST PUSH1 0x60 PUSH1 0x0 PUSH2 0x460 PUSH1 0x7 PUSH1 0x0 SWAP1 SLOAD SWAP1 PUSH2 0x100 EXP SWAP1 DIV PUSH20 0xFFFFFFFFFFFFFFFFFFFFFFFFFFFFFFFFFFFFFFFF AND PUSH2 0x1484 JUMP JUMPDEST SWAP1 POP PUSH1 0x0 PUSH2 0x48F PUSH1 0x8 PUSH1 0x0 SWAP1 SLOAD SWAP1 PUSH2 0x100 EXP SWAP1 DIV PUSH20 0xFFFFFFFFFFFFFFFFFFFFFFFFFFFFFFFFFFFFFFFF AND PUSH2 0x1484 JUMP JUMPDEST SWAP1 POP PUSH1 0x9 DUP2 DUP4 PUSH1 0x40 MLOAD PUSH1 0x20 ADD PUSH2 0x4A7 SWAP4 SWAP3 SWAP2 SWAP1 PUSH2 0x2466 JUMP JUMPDEST PUSH1 0x40 MLOAD PUSH1 0x20 DUP2 DUP4 SUB SUB DUP2 MSTORE SWAP1 PUSH1 0x40 MSTORE SWAP3 POP POP POP SWAP1 JUMP JUMPDEST PUSH1 0x60 PUSH1 0x40 MLOAD DUP1 PUSH1 0x40 ADD PUSH1 0x40 MSTORE DUP1 PUSH1 0x2 DUP2 MSTORE PUSH1 0x20 ADD PUSH32 0x3A0A000000000000000000000000000000000000000000000000000000000000 DUP2 MSTORE POP SWAP1 POP PUSH1 0x60 DUP1 PUSH1 0x0 JUMPDEST PUSH1 0x5 DUP1 SLOAD SWAP1 POP DUP2 LT ISZERO PUSH2 0x6E0 JUMPI PUSH2 0x577 PUSH1 0x5 DUP3 DUP2 SLOAD DUP2 LT PUSH2 0x547 JUMPI PUSH32 0x4E487B7100000000000000000000000000000000000000000000000000000000 PUSH1 0x0 MSTORE PUSH1 0x32 PUSH1 0x4 MSTORE PUSH1 0x24 PUSH1 0x0 REVERT JUMPDEST SWAP1 PUSH1 0x0 MSTORE PUSH1 0x20 PUSH1 0x0 KECCAK256 ADD PUSH1 0x0 SWAP1 SLOAD SWAP1 PUSH2 0x100 EXP SWAP1 DIV PUSH20 0xFFFFFFFFFFFFFFFFFFFFFFFFFFFFFFFFFFFFFFFF AND PUSH2 0x1484 JUMP JUMPDEST SWAP3 POP PUSH1 0x6 PUSH1 0x0 PUSH1 0x5 DUP4 DUP2 SLOAD DUP2 LT PUSH2 0x5B7 JUMPI PUSH32 0x4E487B7100000000000000000000000000000000000000000000000000000000 PUSH1 0x0 MSTORE PUSH1 0x32 PUSH1 0x4 MSTORE PUSH1 0x24 PUSH1 0x0 REVERT JUMPDEST SWAP1 PUSH1 0x0 MSTORE PUSH1 0x20 PUSH1 0x0 KECCAK256 ADD PUSH1 0x0 SWAP1 SLOAD SWAP1 PUSH2 0x100 EXP SWAP1 DIV PUSH20 0xFFFFFFFFFFFFFFFFFFFFFFFFFFFFFFFFFFFFFFFF AND PUSH20 0xFFFFFFFFFFFFFFFFFFFFFFFFFFFFFFFFFFFFFFFF AND PUSH20 0xFFFFFFFFFFFFFFFFFFFFFFFFFFFFFFFFFFFFFFFF AND DUP2 MSTORE PUSH1 0x20 ADD SWAP1 DUP2 MSTORE PUSH1 0x20 ADD PUSH1 0x0 KECCAK256 DUP1 SLOAD PUSH2 0x627 SWAP1 PUSH2 0x28A2 JUMP JUMPDEST DUP1 PUSH1 0x1F ADD PUSH1 0x20 DUP1 SWAP2 DIV MUL PUSH1 0x20 ADD PUSH1 0x40 MLOAD SWAP1 DUP2 ADD PUSH1 0x40 MSTORE DUP1 SWAP3 SWAP2 SWAP1 DUP2 DUP2 MSTORE PUSH1 0x20 ADD DUP3 DUP1 SLOAD PUSH2 0x653 SWAP1 PUSH2 0x28A2 JUMP JUMPDEST DUP1 ISZERO PUSH2 0x6A0 JUMPI DUP1 PUSH1 0x1F LT PUSH2 0x675 JUMPI PUSH2 0x100 DUP1 DUP4 SLOAD DIV MUL DUP4 MSTORE SWAP2 PUSH1 0x20 ADD SWAP2 PUSH2 0x6A0 JUMP JUMPDEST DUP3 ADD SWAP2 SWAP1 PUSH1 0x0 MSTORE PUSH1 0x20 PUSH1 0x0 KECCAK256 SWAP1 JUMPDEST DUP2 SLOAD DUP2 MSTORE SWAP1 PUSH1 0x1 ADD SWAP1 PUSH1 0x20 ADD DUP1 DUP4 GT PUSH2 0x683 JUMPI DUP3 SWAP1 SUB PUSH1 0x1F AND DUP3 ADD SWAP2 JUMPDEST POP POP POP POP POP SWAP2 POP DUP4 DUP4 DUP4 PUSH1 0x40 MLOAD PUSH1 0x20 ADD PUSH2 0x6BC SWAP4 SWAP3 SWAP2 SWAP1 PUSH2 0x2414 JUMP JUMPDEST PUSH1 0x40 MLOAD PUSH1 0x20 DUP2 DUP4 SUB SUB DUP2 MSTORE SWAP1 PUSH1 0x40 MSTORE SWAP4 POP DUP1 DUP1 PUSH2 0x6D8 SWAP1 PUSH2 0x28D4 JUMP JUMPDEST SWAP2 POP POP PUSH2 0x4FD JUMP JUMPDEST POP POP POP SWAP1 JUMP JUMPDEST PUSH1 0x60 PUSH1 0x1 ISZERO ISZERO PUSH1 0x0 PUSH1 0x3 DUP5 PUSH1 0x40 MLOAD PUSH2 0x6FE SWAP2 SWAP1 PUSH2 0x2333 JUMP JUMPDEST SWAP1 DUP2 MSTORE PUSH1 0x20 ADD PUSH1 0x40 MLOAD DUP1 SWAP2 SUB SWAP1 KECCAK256 DUP1 SLOAD SWAP1 POP GT ISZERO ISZERO EQ PUSH2 0x753 JUMPI PUSH1 0x40 MLOAD PUSH32 0x8C379A000000000000000000000000000000000000000000000000000000000 DUP2 MSTORE PUSH1 0x4 ADD PUSH2 0x74A SWAP1 PUSH2 0x25DC JUMP JUMPDEST PUSH1 0x40 MLOAD DUP1 SWAP2 SUB SWAP1 REVERT JUMPDEST PUSH1 0x40 MLOAD DUP1 PUSH1 0x40 ADD PUSH1 0x40 MSTORE DUP1 PUSH1 0x2 DUP2 MSTORE PUSH1 0x20 ADD PUSH32 0x3A0A000000000000000000000000000000000000000000000000000000000000 DUP2 MSTORE POP SWAP1 POP PUSH1 0x60 DUP1 PUSH1 0x60 DUP1 PUSH1 0x0 JUMPDEST PUSH1 0x3 DUP8 PUSH1 0x40 MLOAD PUSH2 0x7A4 SWAP2 SWAP1 PUSH2 0x2333 JUMP JUMPDEST SWAP1 DUP2 MSTORE PUSH1 0x20 ADD PUSH1 0x40 MLOAD DUP1 SWAP2 SUB SWAP1 KECCAK256 DUP1 SLOAD SWAP1 POP DUP2 LT ISZERO PUSH2 0xA62 JUMPI PUSH2 0x82D PUSH1 0x3 DUP9 PUSH1 0x40 MLOAD PUSH2 0x7D0 SWAP2 SWAP1 PUSH2 0x2333 JUMP JUMPDEST SWAP1 DUP2 MSTORE PUSH1 0x20 ADD PUSH1 0x40 MLOAD DUP1 SWAP2 SUB SWAP1 KECCAK256 DUP3 DUP2 SLOAD DUP2 LT PUSH2 0x816 JUMPI PUSH32 0x4E487B7100000000000000000000000000000000000000000000000000000000 PUSH1 0x0 MSTORE PUSH1 0x32 PUSH1 0x4 MSTORE PUSH1 0x24 PUSH1 0x0 REVERT JUMPDEST SWAP1 PUSH1 0x0 MSTORE PUSH1 0x20 PUSH1 0x0 KECCAK256 SWAP1 PUSH1 0x4 MUL ADD PUSH1 0x0 ADD SLOAD PUSH2 0x14B1 JUMP JUMPDEST SWAP5 POP PUSH2 0x8BF PUSH1 0x3 DUP9 PUSH1 0x40 MLOAD PUSH2 0x842 SWAP2 SWAP1 PUSH2 0x2333 JUMP JUMPDEST SWAP1 DUP2 MSTORE PUSH1 0x20 ADD PUSH1 0x40 MLOAD DUP1 SWAP2 SUB SWAP1 KECCAK256 DUP3 DUP2 SLOAD DUP2 LT PUSH2 0x888 JUMPI PUSH32 0x4E487B7100000000000000000000000000000000000000000000000000000000 PUSH1 0x0 MSTORE PUSH1 0x32 PUSH1 0x4 MSTORE PUSH1 0x24 PUSH1 0x0 REVERT JUMPDEST SWAP1 PUSH1 0x0 MSTORE PUSH1 0x20 PUSH1 0x0 KECCAK256 SWAP1 PUSH1 0x4 MUL ADD PUSH1 0x1 ADD PUSH1 0x0 SWAP1 SLOAD SWAP1 PUSH2 0x100 EXP SWAP1 DIV PUSH20 0xFFFFFFFFFFFFFFFFFFFFFFFFFFFFFFFFFFFFFFFF AND PUSH2 0x1484 JUMP JUMPDEST SWAP4 POP PUSH2 0x931 PUSH1 0x3 DUP9 PUSH1 0x40 MLOAD PUSH2 0x8D4 SWAP2 SWAP1 PUSH2 0x2333 JUMP JUMPDEST SWAP1 DUP2 MSTORE PUSH1 0x20 ADD PUSH1 0x40 MLOAD DUP1 SWAP2 SUB SWAP1 KECCAK256 DUP3 DUP2 SLOAD DUP2 LT PUSH2 0x91A JUMPI PUSH32 0x4E487B7100000000000000000000000000000000000000000000000000000000 PUSH1 0x0 MSTORE PUSH1 0x32 PUSH1 0x4 MSTORE PUSH1 0x24 PUSH1 0x0 REVERT JUMPDEST SWAP1 PUSH1 0x0 MSTORE PUSH1 0x20 PUSH1 0x0 KECCAK256 SWAP1 PUSH1 0x4 MUL ADD PUSH1 0x2 ADD SLOAD PUSH2 0x14B1 JUMP JUMPDEST SWAP3 POP PUSH1 0x3 DUP8 PUSH1 0x40 MLOAD PUSH2 0x943 SWAP2 SWAP1 PUSH2 0x2333 JUMP JUMPDEST SWAP1 DUP2 MSTORE PUSH1 0x20 ADD PUSH1 0x40 MLOAD DUP1 SWAP2 SUB SWAP1 KECCAK256 DUP2 DUP2 SLOAD DUP2 LT PUSH2 0x989 JUMPI PUSH32 0x4E487B7100000000000000000000000000000000000000000000000000000000 PUSH1 0x0 MSTORE PUSH1 0x32 PUSH1 0x4 MSTORE PUSH1 0x24 PUSH1 0x0 REVERT JUMPDEST SWAP1 PUSH1 0x0 MSTORE PUSH1 0x20 PUSH1 0x0 KECCAK256 SWAP1 PUSH1 0x4 MUL ADD PUSH1 0x3 ADD DUP1 SLOAD PUSH2 0x9A5 SWAP1 PUSH2 0x28A2 JUMP JUMPDEST DUP1 PUSH1 0x1F ADD PUSH1 0x20 DUP1 SWAP2 DIV MUL PUSH1 0x20 ADD PUSH1 0x40 MLOAD SWAP1 DUP2 ADD PUSH1 0x40 MSTORE DUP1 SWAP3 SWAP2 SWAP1 DUP2 DUP2 MSTORE PUSH1 0x20 ADD DUP3 DUP1 SLOAD PUSH2 0x9D1 SWAP1 PUSH2 0x28A2 JUMP JUMPDEST DUP1 ISZERO PUSH2 0xA1E JUMPI DUP1 PUSH1 0x1F LT PUSH2 0x9F3 JUMPI PUSH2 0x100 DUP1 DUP4 SLOAD DIV MUL DUP4 MSTORE SWAP2 PUSH1 0x20 ADD SWAP2 PUSH2 0xA1E JUMP JUMPDEST DUP3 ADD SWAP2 SWAP1 PUSH1 0x0 MSTORE PUSH1 0x20 PUSH1 0x0 KECCAK256 SWAP1 JUMPDEST DUP2 SLOAD DUP2 MSTORE SWAP1 PUSH1 0x1 ADD SWAP1 PUSH1 0x20 ADD DUP1 DUP4 GT PUSH2 0xA01 JUMPI DUP3 SWAP1 SUB PUSH1 0x1F AND DUP3 ADD SWAP2 JUMPDEST POP POP POP POP POP SWAP2 POP DUP6 DUP5 DUP5 DUP5 DUP9 PUSH1 0x40 MLOAD PUSH1 0x20 ADD PUSH2 0xA3E SWAP6 SWAP5 SWAP4 SWAP3 SWAP2 SWAP1 PUSH2 0x239D JUMP JUMPDEST PUSH1 0x40 MLOAD PUSH1 0x20 DUP2 DUP4 SUB SUB DUP2 MSTORE SWAP1 PUSH1 0x40 MSTORE SWAP6 POP DUP1 DUP1 PUSH2 0xA5A SWAP1 PUSH2 0x28D4 JUMP JUMPDEST SWAP2 POP POP PUSH2 0x794 JUMP JUMPDEST POP POP POP POP POP SWAP2 SWAP1 POP JUMP JUMPDEST PUSH1 0x0 PUSH1 0x6 PUSH1 0x0 CALLER PUSH20 0xFFFFFFFFFFFFFFFFFFFFFFFFFFFFFFFFFFFFFFFF AND PUSH20 0xFFFFFFFFFFFFFFFFFFFFFFFFFFFFFFFFFFFFFFFF AND DUP2 MSTORE PUSH1 0x20 ADD SWAP1 DUP2 MSTORE PUSH1 0x20 ADD PUSH1 0x0 KECCAK256 DUP1 SLOAD PUSH2 0xAB8 SWAP1 PUSH2 0x28A2 JUMP JUMPDEST SWAP1 POP EQ ISZERO PUSH2 0xAFB JUMPI PUSH1 0x40 MLOAD PUSH32 0x8C379A000000000000000000000000000000000000000000000000000000000 DUP2 MSTORE PUSH1 0x4 ADD PUSH2 0xAF2 SWAP1 PUSH2 0x25BC JUMP JUMPDEST PUSH1 0x40 MLOAD DUP1 SWAP2 SUB SWAP1 REVERT JUMPDEST PUSH1 0x0 ISZERO ISZERO PUSH1 0x0 DUP1 SLOAD SWAP1 PUSH2 0x100 EXP SWAP1 DIV PUSH1 0xFF AND ISZERO ISZERO EQ PUSH2 0xB4F JUMPI PUSH1 0x40 MLOAD PUSH32 0x8C379A000000000000000000000000000000000000000000000000000000000 DUP2 MSTORE PUSH1 0x4 ADD PUSH2 0xB46 SWAP1 PUSH2 0x257C JUMP JUMPDEST PUSH1 0x40 MLOAD DUP1 SWAP2 SUB SWAP1 REVERT JUMPDEST PUSH1 0x0 PUSH1 0x3 DUP7 PUSH1 0x40 MLOAD PUSH2 0xB61 SWAP2 SWAP1 PUSH2 0x2333 JUMP JUMPDEST SWAP1 DUP2 MSTORE PUSH1 0x20 ADD PUSH1 0x40 MLOAD DUP1 SWAP2 SUB SWAP1 KECCAK256 DUP1 SLOAD SWAP1 POP EQ ISZERO PUSH2 0xBB6 JUMPI PUSH1 0x2 DUP6 SWAP1 DUP1 PUSH1 0x1 DUP2 SLOAD ADD DUP1 DUP3 SSTORE DUP1 SWAP2 POP POP PUSH1 0x1 SWAP1 SUB SWAP1 PUSH1 0x0 MSTORE PUSH1 0x20 PUSH1 0x0 KECCAK256 ADD PUSH1 0x0 SWAP1 SWAP2 SWAP1 SWAP2 SWAP1 SWAP2 POP SWAP1 DUP1 MLOAD SWAP1 PUSH1 0x20 ADD SWAP1 PUSH2 0xBB4 SWAP3 SWAP2 SWAP1 PUSH2 0x1958 JUMP JUMPDEST POP JUMPDEST PUSH2 0xBBE PUSH2 0x19DE JUMP JUMPDEST PUSH1 0x1 SLOAD DUP2 PUSH1 0x0 ADD DUP2 DUP2 MSTORE POP POP DUP5 DUP2 PUSH1 0x20 ADD SWAP1 PUSH20 0xFFFFFFFFFFFFFFFFFFFFFFFFFFFFFFFFFFFFFFFF AND SWAP1 DUP2 PUSH20 0xFFFFFFFFFFFFFFFFFFFFFFFFFFFFFFFFFFFFFFFF AND DUP2 MSTORE POP POP DUP4 DUP2 PUSH1 0x40 ADD DUP2 DUP2 MSTORE POP POP DUP3 DUP2 PUSH1 0x60 ADD DUP2 SWAP1 MSTORE POP PUSH1 0x3 DUP7 PUSH1 0x40 MLOAD PUSH2 0xC25 SWAP2 SWAP1 PUSH2 0x2333 JUMP JUMPDEST SWAP1 DUP2 MSTORE PUSH1 0x20 ADD PUSH1 0x40 MLOAD DUP1 SWAP2 SUB SWAP1 KECCAK256 DUP2 SWAP1 DUP1 PUSH1 0x1 DUP2 SLOAD ADD DUP1 DUP3 SSTORE DUP1 SWAP2 POP POP PUSH1 0x1 SWAP1 SUB SWAP1 PUSH1 0x0 MSTORE PUSH1 0x20 PUSH1 0x0 KECCAK256 SWAP1 PUSH1 0x4 MUL ADD PUSH1 0x0 SWAP1 SWAP2 SWAP1 SWAP2 SWAP1 SWAP2 POP PUSH1 0x0 DUP3 ADD MLOAD DUP2 PUSH1 0x0 ADD SSTORE PUSH1 0x20 DUP3 ADD MLOAD DUP2 PUSH1 0x1 ADD PUSH1 0x0 PUSH2 0x100 EXP DUP2 SLOAD DUP2 PUSH20 0xFFFFFFFFFFFFFFFFFFFFFFFFFFFFFFFFFFFFFFFF MUL NOT AND SWAP1 DUP4 PUSH20 0xFFFFFFFFFFFFFFFFFFFFFFFFFFFFFFFFFFFFFFFF AND MUL OR SWAP1 SSTORE POP PUSH1 0x40 DUP3 ADD MLOAD DUP2 PUSH1 0x2 ADD SSTORE PUSH1 0x60 DUP3 ADD MLOAD DUP2 PUSH1 0x3 ADD SWAP1 DUP1 MLOAD SWAP1 PUSH1 0x20 ADD SWAP1 PUSH2 0xCD4 SWAP3 SWAP2 SWAP1 PUSH2 0x1958 JUMP JUMPDEST POP POP POP PUSH1 0x0 JUMPDEST DUP3 MLOAD DUP2 LT ISZERO PUSH2 0xDDB JUMPI PUSH1 0x4 PUSH1 0x0 PUSH1 0x1 SLOAD DUP2 MSTORE PUSH1 0x20 ADD SWAP1 DUP2 MSTORE PUSH1 0x20 ADD PUSH1 0x0 KECCAK256 DUP4 DUP3 DUP2 MLOAD DUP2 LT PUSH2 0xD31 JUMPI PUSH32 0x4E487B7100000000000000000000000000000000000000000000000000000000 PUSH1 0x0 MSTORE PUSH1 0x32 PUSH1 0x4 MSTORE PUSH1 0x24 PUSH1 0x0 REVERT JUMPDEST PUSH1 0x20 MUL PUSH1 0x20 ADD ADD MLOAD SWAP1 DUP1 PUSH1 0x1 DUP2 SLOAD ADD DUP1 DUP3 SSTORE DUP1 SWAP2 POP POP PUSH1 0x1 SWAP1 SUB SWAP1 PUSH1 0x0 MSTORE PUSH1 0x20 PUSH1 0x0 KECCAK256 SWAP1 PUSH1 0x2 MUL ADD PUSH1 0x0 SWAP1 SWAP2 SWAP1 SWAP2 SWAP1 SWAP2 POP PUSH1 0x0 DUP3 ADD MLOAD DUP2 PUSH1 0x0 ADD PUSH1 0x0 PUSH2 0x100 EXP DUP2 SLOAD DUP2 PUSH20 0xFFFFFFFFFFFFFFFFFFFFFFFFFFFFFFFFFFFFFFFF MUL NOT AND SWAP1 DUP4 PUSH20 0xFFFFFFFFFFFFFFFFFFFFFFFFFFFFFFFFFFFFFFFF AND MUL OR SWAP1 SSTORE POP PUSH1 0x20 DUP3 ADD MLOAD DUP2 PUSH1 0x1 ADD SWAP1 DUP1 MLOAD SWAP1 PUSH1 0x20 ADD SWAP1 PUSH2 0xDC5 SWAP3 SWAP2 SWAP1 PUSH2 0x1958 JUMP JUMPDEST POP POP POP DUP1 DUP1 PUSH2 0xDD3 SWAP1 PUSH2 0x28D4 JUMP JUMPDEST SWAP2 POP POP PUSH2 0xCDA JUMP JUMPDEST POP PUSH2 0xDE4 PUSH2 0x1A1C JUMP JUMPDEST CALLER DUP2 PUSH1 0x0 ADD SWAP1 PUSH20 0xFFFFFFFFFFFFFFFFFFFFFFFFFFFFFFFFFFFFFFFF AND SWAP1 DUP2 PUSH20 0xFFFFFFFFFFFFFFFFFFFFFFFFFFFFFFFFFFFFFFFF AND DUP2 MSTORE POP POP PUSH1 0x6 PUSH1 0x0 CALLER PUSH20 0xFFFFFFFFFFFFFFFFFFFFFFFFFFFFFFFFFFFFFFFF AND PUSH20 0xFFFFFFFFFFFFFFFFFFFFFFFFFFFFFFFFFFFFFFFF AND DUP2 MSTORE PUSH1 0x20 ADD SWAP1 DUP2 MSTORE PUSH1 0x20 ADD PUSH1 0x0 KECCAK256 DUP1 SLOAD PUSH2 0xE66 SWAP1 PUSH2 0x28A2 JUMP JUMPDEST DUP1 PUSH1 0x1F ADD PUSH1 0x20 DUP1 SWAP2 DIV MUL PUSH1 0x20 ADD PUSH1 0x40 MLOAD SWAP1 DUP2 ADD PUSH1 0x40 MSTORE DUP1 SWAP3 SWAP2 SWAP1 DUP2 DUP2 MSTORE PUSH1 0x20 ADD DUP3 DUP1 SLOAD PUSH2 0xE92 SWAP1 PUSH2 0x28A2 JUMP JUMPDEST DUP1 ISZERO PUSH2 0xEDF JUMPI DUP1 PUSH1 0x1F LT PUSH2 0xEB4 JUMPI PUSH2 0x100 DUP1 DUP4 SLOAD DIV MUL DUP4 MSTORE SWAP2 PUSH1 0x20 ADD SWAP2 PUSH2 0xEDF JUMP JUMPDEST DUP3 ADD SWAP2 SWAP1 PUSH1 0x0 MSTORE PUSH1 0x20 PUSH1 0x0 KECCAK256 SWAP1 JUMPDEST DUP2 SLOAD DUP2 MSTORE SWAP1 PUSH1 0x1 ADD SWAP1 PUSH1 0x20 ADD DUP1 DUP4 GT PUSH2 0xEC2 JUMPI DUP3 SWAP1 SUB PUSH1 0x1F AND DUP3 ADD SWAP2 JUMPDEST POP POP POP POP POP DUP2 PUSH1 0x20 ADD DUP2 SWAP1 MSTORE POP PUSH1 0x4 PUSH1 0x0 PUSH1 0x1 SLOAD DUP2 MSTORE PUSH1 0x20 ADD SWAP1 DUP2 MSTORE PUSH1 0x20 ADD PUSH1 0x0 KECCAK256 DUP2 SWAP1 DUP1 PUSH1 0x1 DUP2 SLOAD ADD DUP1 DUP3 SSTORE DUP1 SWAP2 POP POP PUSH1 0x1 SWAP1 SUB SWAP1 PUSH1 0x0 MSTORE PUSH1 0x20 PUSH1 0x0 KECCAK256 SWAP1 PUSH1 0x2 MUL ADD PUSH1 0x0 SWAP1 SWAP2 SWAP1 SWAP2 SWAP1 SWAP2 POP PUSH1 0x0 DUP3 ADD MLOAD DUP2 PUSH1 0x0 ADD PUSH1 0x0 PUSH2 0x100 EXP DUP2 SLOAD DUP2 PUSH20 0xFFFFFFFFFFFFFFFFFFFFFFFFFFFFFFFFFFFFFFFF MUL NOT AND SWAP1 DUP4 PUSH20 0xFFFFFFFFFFFFFFFFFFFFFFFFFFFFFFFFFFFFFFFF AND MUL OR SWAP1 SSTORE POP PUSH1 0x20 DUP3 ADD MLOAD DUP2 PUSH1 0x1 ADD SWAP1 DUP1 MLOAD SWAP1 PUSH1 0x20 ADD SWAP1 PUSH2 0xF8E SWAP3 SWAP2 SWAP1 PUSH2 0x1958 JUMP JUMPDEST POP POP POP PUSH1 0x1 PUSH1 0x0 DUP2 SLOAD DUP1 SWAP3 SWAP2 SWAP1 PUSH2 0xFA4 SWAP1 PUSH2 0x28D4 JUMP JUMPDEST SWAP2 SWAP1 POP SSTORE POP POP POP POP POP POP POP POP JUMP JUMPDEST PUSH1 0x60 PUSH1 0x40 MLOAD DUP1 PUSH1 0x40 ADD PUSH1 0x40 MSTORE DUP1 PUSH1 0x2 DUP2 MSTORE PUSH1 0x20 ADD PUSH32 0x3A0A000000000000000000000000000000000000000000000000000000000000 DUP2 MSTORE POP SWAP1 POP PUSH1 0x0 JUMPDEST PUSH1 0x1 PUSH1 0x2 DUP1 SLOAD SWAP1 POP PUSH2 0x1001 SWAP2 SWAP1 PUSH2 0x27C6 JUMP JUMPDEST DUP2 LT ISZERO PUSH2 0x1082 JUMPI DUP2 PUSH1 0x2 DUP3 DUP2 SLOAD DUP2 LT PUSH2 0x1043 JUMPI PUSH32 0x4E487B7100000000000000000000000000000000000000000000000000000000 PUSH1 0x0 MSTORE PUSH1 0x32 PUSH1 0x4 MSTORE PUSH1 0x24 PUSH1 0x0 REVERT JUMPDEST SWAP1 PUSH1 0x0 MSTORE PUSH1 0x20 PUSH1 0x0 KECCAK256 ADD PUSH1 0x40 MLOAD PUSH1 0x20 ADD PUSH2 0x105E SWAP3 SWAP2 SWAP1 PUSH2 0x236E JUMP JUMPDEST PUSH1 0x40 MLOAD PUSH1 0x20 DUP2 DUP4 SUB SUB DUP2 MSTORE SWAP1 PUSH1 0x40 MSTORE SWAP2 POP DUP1 DUP1 PUSH2 0x107A SWAP1 PUSH2 0x28D4 JUMP JUMPDEST SWAP2 POP POP PUSH2 0xFEF JUMP JUMPDEST POP DUP1 PUSH1 0x2 PUSH1 0x1 PUSH1 0x2 DUP1 SLOAD SWAP1 POP PUSH2 0x1098 SWAP2 SWAP1 PUSH2 0x27C6 JUMP JUMPDEST DUP2 SLOAD DUP2 LT PUSH2 0x10CF JUMPI PUSH32 0x4E487B7100000000000000000000000000000000000000000000000000000000 PUSH1 0x0 MSTORE PUSH1 0x32 PUSH1 0x4 MSTORE PUSH1 0x24 PUSH1 0x0 REVERT JUMPDEST SWAP1 PUSH1 0x0 MSTORE PUSH1 0x20 PUSH1 0x0 KECCAK256 ADD PUSH1 0x40 MLOAD PUSH1 0x20 ADD PUSH2 0x10EA SWAP3 SWAP2 SWAP1 PUSH2 0x234A JUMP JUMPDEST PUSH1 0x40 MLOAD PUSH1 0x20 DUP2 DUP4 SUB SUB DUP2 MSTORE SWAP1 PUSH1 0x40 MSTORE SWAP1 POP SWAP1 JUMP JUMPDEST PUSH1 0x0 PUSH1 0x1 SWAP1 SLOAD SWAP1 PUSH2 0x100 EXP SWAP1 DIV PUSH20 0xFFFFFFFFFFFFFFFFFFFFFFFFFFFFFFFFFFFFFFFF AND PUSH20 0xFFFFFFFFFFFFFFFFFFFFFFFFFFFFFFFFFFFFFFFF AND CALLER PUSH20 0xFFFFFFFFFFFFFFFFFFFFFFFFFFFFFFFFFFFFFFFF AND EQ PUSH2 0x118E JUMPI PUSH1 0x40 MLOAD PUSH32 0x8C379A000000000000000000000000000000000000000000000000000000000 DUP2 MSTORE PUSH1 0x4 ADD PUSH2 0x1185 SWAP1 PUSH2 0x253C JUMP JUMPDEST PUSH1 0x40 MLOAD DUP1 SWAP2 SUB SWAP1 REVERT JUMPDEST PUSH1 0x0 DUP1 SLOAD SWAP1 PUSH2 0x100 EXP SWAP1 DIV PUSH1 0xFF AND ISZERO PUSH1 0x0 DUP1 PUSH2 0x100 EXP DUP2 SLOAD DUP2 PUSH1 0xFF MUL NOT AND SWAP1 DUP4 ISZERO ISZERO MUL OR SWAP1 SSTORE POP JUMP JUMPDEST PUSH1 0xA PUSH1 0x20 MSTORE DUP1 PUSH1 0x0 MSTORE PUSH1 0x40 PUSH1 0x0 KECCAK256 PUSH1 0x0 SWAP2 POP SWAP1 POP DUP1 SLOAD PUSH2 0x11D6 SWAP1 PUSH2 0x28A2 JUMP JUMPDEST DUP1 PUSH1 0x1F ADD PUSH1 0x20 DUP1 SWAP2 DIV MUL PUSH1 0x20 ADD PUSH1 0x40 MLOAD SWAP1 DUP2 ADD PUSH1 0x40 MSTORE DUP1 SWAP3 SWAP2 SWAP1 DUP2 DUP2 MSTORE PUSH1 0x20 ADD DUP3 DUP1 SLOAD PUSH2 0x1202 SWAP1 PUSH2 0x28A2 JUMP JUMPDEST DUP1 ISZERO PUSH2 0x124F JUMPI DUP1 PUSH1 0x1F LT PUSH2 0x1224 JUMPI PUSH2 0x100 DUP1 DUP4 SLOAD DIV MUL DUP4 MSTORE SWAP2 PUSH1 0x20 ADD SWAP2 PUSH2 0x124F JUMP JUMPDEST DUP3 ADD SWAP2 SWAP1 PUSH1 0x0 MSTORE PUSH1 0x20 PUSH1 0x0 KECCAK256 SWAP1 JUMPDEST DUP2 SLOAD DUP2 MSTORE SWAP1 PUSH1 0x1 ADD SWAP1 PUSH1 0x20 ADD DUP1 DUP4 GT PUSH2 0x1232 JUMPI DUP3 SWAP1 SUB PUSH1 0x1F AND DUP3 ADD SWAP2 JUMPDEST POP POP POP POP POP DUP2 JUMP JUMPDEST PUSH1 0x7 PUSH1 0x0 SWAP1 SLOAD SWAP1 PUSH2 0x100 EXP SWAP1 DIV PUSH20 0xFFFFFFFFFFFFFFFFFFFFFFFFFFFFFFFFFFFFFFFF AND PUSH20 0xFFFFFFFFFFFFFFFFFFFFFFFFFFFFFFFFFFFFFFFF AND ORIGIN PUSH20 0xFFFFFFFFFFFFFFFFFFFFFFFFFFFFFFFFFFFFFFFF AND EQ PUSH2 0x12E7 JUMPI PUSH1 0x40 MLOAD PUSH32 0x8C379A000000000000000000000000000000000000000000000000000000000 DUP2 MSTORE PUSH1 0x4 ADD PUSH2 0x12DE SWAP1 PUSH2 0x259C JUMP JUMPDEST PUSH1 0x40 MLOAD DUP1 SWAP2 SUB SWAP1 REVERT JUMPDEST PUSH1 0x0 ISZERO ISZERO PUSH1 0x0 DUP1 SLOAD SWAP1 PUSH2 0x100 EXP SWAP1 DIV PUSH1 0xFF AND ISZERO ISZERO EQ PUSH2 0x133B JUMPI PUSH1 0x40 MLOAD PUSH32 0x8C379A000000000000000000000000000000000000000000000000000000000 DUP2 MSTORE PUSH1 0x4 ADD PUSH2 0x1332 SWAP1 PUSH2 0x257C JUMP JUMPDEST PUSH1 0x40 MLOAD DUP1 SWAP2 SUB SWAP1 REVERT JUMPDEST PUSH1 0x0 PUSH1 0x6 PUSH1 0x0 DUP5 PUSH20 0xFFFFFFFFFFFFFFFFFFFFFFFFFFFFFFFFFFFFFFFF AND PUSH20 0xFFFFFFFFFFFFFFFFFFFFFFFFFFFFFFFFFFFFFFFF AND DUP2 MSTORE PUSH1 0x20 ADD SWAP1 DUP2 MSTORE PUSH1 0x20 ADD PUSH1 0x0 KECCAK256 DUP1 SLOAD PUSH2 0x1387 SWAP1 PUSH2 0x28A2 JUMP JUMPDEST SWAP1 POP EQ PUSH2 0x13C9 JUMPI PUSH1 0x40 MLOAD PUSH32 0x8C379A000000000000000000000000000000000000000000000000000000000 DUP2 MSTORE PUSH1 0x4 ADD PUSH2 0x13C0 SWAP1 PUSH2 0x255C JUMP JUMPDEST PUSH1 0x40 MLOAD DUP1 SWAP2 SUB SWAP1 REVERT JUMPDEST DUP1 PUSH1 0x6 PUSH1 0x0 DUP5 PUSH20 0xFFFFFFFFFFFFFFFFFFFFFFFFFFFFFFFFFFFFFFFF AND PUSH20 0xFFFFFFFFFFFFFFFFFFFFFFFFFFFFFFFFFFFFFFFF AND DUP2 MSTORE PUSH1 0x20 ADD SWAP1 DUP2 MSTORE PUSH1 0x20 ADD PUSH1 0x0 KECCAK256 SWAP1 DUP1 MLOAD SWAP1 PUSH1 0x20 ADD SWAP1 PUSH2 0x141C SWAP3 SWAP2 SWAP1 PUSH2 0x1958 JUMP JUMPDEST POP PUSH1 0x5 DUP3 SWAP1 DUP1 PUSH1 0x1 DUP2 SLOAD ADD DUP1 DUP3 SSTORE DUP1 SWAP2 POP POP PUSH1 0x1 SWAP1 SUB SWAP1 PUSH1 0x0 MSTORE PUSH1 0x20 PUSH1 0x0 KECCAK256 ADD PUSH1 0x0 SWAP1 SWAP2 SWAP1 SWAP2 SWAP1 SWAP2 PUSH2 0x100 EXP DUP2 SLOAD DUP2 PUSH20 0xFFFFFFFFFFFFFFFFFFFFFFFFFFFFFFFFFFFFFFFF MUL NOT AND SWAP1 DUP4 PUSH20 0xFFFFFFFFFFFFFFFFFFFFFFFFFFFFFFFFFFFFFFFF AND MUL OR SWAP1 SSTORE POP POP POP JUMP JUMPDEST PUSH1 0x60 PUSH2 0x14AA DUP3 PUSH20 0xFFFFFFFFFFFFFFFFFFFFFFFFFFFFFFFFFFFFFFFF AND PUSH1 0x14 PUSH1 0xFF AND PUSH2 0x165E JUMP JUMPDEST SWAP1 POP SWAP2 SWAP1 POP JUMP JUMPDEST PUSH1 0x60 PUSH1 0x0 DUP3 EQ ISZERO PUSH2 0x14F9 JUMPI PUSH1 0x40 MLOAD DUP1 PUSH1 0x40 ADD PUSH1 0x40 MSTORE DUP1 PUSH1 0x1 DUP2 MSTORE PUSH1 0x20 ADD PUSH32 0x3000000000000000000000000000000000000000000000000000000000000000 DUP2 MSTORE POP SWAP1 POP PUSH2 0x1659 JUMP JUMPDEST PUSH1 0x0 DUP3 SWAP1 POP PUSH1 0x0 JUMPDEST PUSH1 0x0 DUP3 EQ PUSH2 0x152B JUMPI DUP1 DUP1 PUSH2 0x1514 SWAP1 PUSH2 0x28D4 JUMP JUMPDEST SWAP2 POP POP PUSH1 0xA DUP3 PUSH2 0x1524 SWAP2 SWAP1 PUSH2 0x273B JUMP JUMPDEST SWAP2 POP PUSH2 0x1501 JUMP JUMPDEST PUSH1 0x0 DUP2 PUSH8 0xFFFFFFFFFFFFFFFF DUP2 GT ISZERO PUSH2 0x156D JUMPI PUSH32 0x4E487B7100000000000000000000000000000000000000000000000000000000 PUSH1 0x0 MSTORE PUSH1 0x41 PUSH1 0x4 MSTORE PUSH1 0x24 PUSH1 0x0 REVERT JUMPDEST PUSH1 0x40 MLOAD SWAP1 DUP1 DUP3 MSTORE DUP1 PUSH1 0x1F ADD PUSH1 0x1F NOT AND PUSH1 0x20 ADD DUP3 ADD PUSH1 0x40 MSTORE DUP1 ISZERO PUSH2 0x159F JUMPI DUP2 PUSH1 0x20 ADD PUSH1 0x1 DUP3 MUL DUP1 CALLDATASIZE DUP4 CALLDATACOPY DUP1 DUP3 ADD SWAP2 POP POP SWAP1 POP JUMPDEST POP SWAP1 POP JUMPDEST PUSH1 0x0 DUP6 EQ PUSH2 0x1652 JUMPI PUSH1 0x1 DUP3 PUSH2 0x15B8 SWAP2 SWAP1 PUSH2 0x27C6 JUMP JUMPDEST SWAP2 POP PUSH1 0xA DUP6 PUSH2 0x15C7 SWAP2 SWAP1 PUSH2 0x291D JUMP JUMPDEST PUSH1 0x30 PUSH2 0x15D3 SWAP2 SWAP1 PUSH2 0x26E5 JUMP JUMPDEST PUSH1 0xF8 SHL DUP2 DUP4 DUP2 MLOAD DUP2 LT PUSH2 0x160F JUMPI PUSH32 0x4E487B7100000000000000000000000000000000000000000000000000000000 PUSH1 0x0 MSTORE PUSH1 0x32 PUSH1 0x4 MSTORE PUSH1 0x24 PUSH1 0x0 REVERT JUMPDEST PUSH1 0x20 ADD ADD SWAP1 PUSH31 0xFFFFFFFFFFFFFFFFFFFFFFFFFFFFFFFFFFFFFFFFFFFFFFFFFFFFFFFFFFFFFF NOT AND SWAP1 DUP2 PUSH1 0x0 BYTE SWAP1 MSTORE8 POP PUSH1 0xA DUP6 PUSH2 0x164B SWAP2 SWAP1 PUSH2 0x273B JUMP JUMPDEST SWAP5 POP PUSH2 0x15A3 JUMP JUMPDEST DUP1 SWAP4 POP POP POP POP JUMPDEST SWAP2 SWAP1 POP JUMP JUMPDEST PUSH1 0x60 PUSH1 0x0 PUSH1 0x2 DUP4 PUSH1 0x2 PUSH2 0x1671 SWAP2 SWAP1 PUSH2 0x276C JUMP JUMPDEST PUSH2 0x167B SWAP2 SWAP1 PUSH2 0x26E5 JUMP JUMPDEST PUSH8 0xFFFFFFFFFFFFFFFF DUP2 GT ISZERO PUSH2 0x16BA JUMPI PUSH32 0x4E487B7100000000000000000000000000000000000000000000000000000000 PUSH1 0x0 MSTORE PUSH1 0x41 PUSH1 0x4 MSTORE PUSH1 0x24 PUSH1 0x0 REVERT JUMPDEST PUSH1 0x40 MLOAD SWAP1 DUP1 DUP3 MSTORE DUP1 PUSH1 0x1F ADD PUSH1 0x1F NOT AND PUSH1 0x20 ADD DUP3 ADD PUSH1 0x40 MSTORE DUP1 ISZERO PUSH2 0x16EC JUMPI DUP2 PUSH1 0x20 ADD PUSH1 0x1 DUP3 MUL DUP1 CALLDATASIZE DUP4 CALLDATACOPY DUP1 DUP3 ADD SWAP2 POP POP SWAP1 POP JUMPDEST POP SWAP1 POP PUSH32 0x3000000000000000000000000000000000000000000000000000000000000000 DUP2 PUSH1 0x0 DUP2 MLOAD DUP2 LT PUSH2 0x174A JUMPI PUSH32 0x4E487B7100000000000000000000000000000000000000000000000000000000 PUSH1 0x0 MSTORE PUSH1 0x32 PUSH1 0x4 MSTORE PUSH1 0x24 PUSH1 0x0 REVERT JUMPDEST PUSH1 0x20 ADD ADD SWAP1 PUSH31 0xFFFFFFFFFFFFFFFFFFFFFFFFFFFFFFFFFFFFFFFFFFFFFFFFFFFFFFFFFFFFFF NOT AND SWAP1 DUP2 PUSH1 0x0 BYTE SWAP1 MSTORE8 POP PUSH32 0x7800000000000000000000000000000000000000000000000000000000000000 DUP2 PUSH1 0x1 DUP2 MLOAD DUP2 LT PUSH2 0x17D4 JUMPI PUSH32 0x4E487B7100000000000000000000000000000000000000000000000000000000 PUSH1 0x0 MSTORE PUSH1 0x32 PUSH1 0x4 MSTORE PUSH1 0x24 PUSH1 0x0 REVERT JUMPDEST PUSH1 0x20 ADD ADD SWAP1 PUSH31 0xFFFFFFFFFFFFFFFFFFFFFFFFFFFFFFFFFFFFFFFFFFFFFFFFFFFFFFFFFFFFFF NOT AND SWAP1 DUP2 PUSH1 0x0 BYTE SWAP1 MSTORE8 POP PUSH1 0x0 PUSH1 0x1 DUP5 PUSH1 0x2 PUSH2 0x1814 SWAP2 SWAP1 PUSH2 0x276C JUMP JUMPDEST PUSH2 0x181E SWAP2 SWAP1 PUSH2 0x26E5 JUMP JUMPDEST SWAP1 POP JUMPDEST PUSH1 0x1 DUP2 GT ISZERO PUSH2 0x190A JUMPI PUSH32 0x3031323334353637383961626364656600000000000000000000000000000000 PUSH1 0xF DUP7 AND PUSH1 0x10 DUP2 LT PUSH2 0x1886 JUMPI PUSH32 0x4E487B7100000000000000000000000000000000000000000000000000000000 PUSH1 0x0 MSTORE PUSH1 0x32 PUSH1 0x4 MSTORE PUSH1 0x24 PUSH1 0x0 REVERT JUMPDEST BYTE PUSH1 0xF8 SHL DUP3 DUP3 DUP2 MLOAD DUP2 LT PUSH2 0x18C3 JUMPI PUSH32 0x4E487B7100000000000000000000000000000000000000000000000000000000 PUSH1 0x0 MSTORE PUSH1 0x32 PUSH1 0x4 MSTORE PUSH1 0x24 PUSH1 0x0 REVERT JUMPDEST PUSH1 0x20 ADD ADD SWAP1 PUSH31 0xFFFFFFFFFFFFFFFFFFFFFFFFFFFFFFFFFFFFFFFFFFFFFFFFFFFFFFFFFFFFFF NOT AND SWAP1 DUP2 PUSH1 0x0 BYTE SWAP1 MSTORE8 POP PUSH1 0x4 DUP6 SWAP1 SHR SWAP5 POP DUP1 PUSH2 0x1903 SWAP1 PUSH2 0x2878 JUMP JUMPDEST SWAP1 POP PUSH2 0x1821 JUMP JUMPDEST POP PUSH1 0x0 DUP5 EQ PUSH2 0x194E JUMPI PUSH1 0x40 MLOAD PUSH32 0x8C379A000000000000000000000000000000000000000000000000000000000 DUP2 MSTORE PUSH1 0x4 ADD PUSH2 0x1945 SWAP1 PUSH2 0x251C JUMP JUMPDEST PUSH1 0x40 MLOAD DUP1 SWAP2 SUB SWAP1 REVERT JUMPDEST DUP1 SWAP2 POP POP SWAP3 SWAP2 POP POP JUMP JUMPDEST DUP3 DUP1 SLOAD PUSH2 0x1964 SWAP1 PUSH2 0x28A2 JUMP JUMPDEST SWAP1 PUSH1 0x0 MSTORE PUSH1 0x20 PUSH1 0x0 KECCAK256 SWAP1 PUSH1 0x1F ADD PUSH1 0x20 SWAP1 DIV DUP2 ADD SWAP3 DUP3 PUSH2 0x1986 JUMPI PUSH1 0x0 DUP6 SSTORE PUSH2 0x19CD JUMP JUMPDEST DUP3 PUSH1 0x1F LT PUSH2 0x199F JUMPI DUP1 MLOAD PUSH1 0xFF NOT AND DUP4 DUP1 ADD OR DUP6 SSTORE PUSH2 0x19CD JUMP JUMPDEST DUP3 DUP1 ADD PUSH1 0x1 ADD DUP6 SSTORE DUP3 ISZERO PUSH2 0x19CD JUMPI SWAP2 DUP3 ADD JUMPDEST DUP3 DUP2 GT ISZERO PUSH2 0x19CC JUMPI DUP3 MLOAD DUP3 SSTORE SWAP2 PUSH1 0x20 ADD SWAP2 SWAP1 PUSH1 0x1 ADD SWAP1 PUSH2 0x19B1 JUMP JUMPDEST JUMPDEST POP SWAP1 POP PUSH2 0x19DA SWAP2 SWAP1 PUSH2 0x1A4C JUMP JUMPDEST POP SWAP1 JUMP JUMPDEST PUSH1 0x40 MLOAD DUP1 PUSH1 0x80 ADD PUSH1 0x40 MSTORE DUP1 PUSH1 0x0 DUP2 MSTORE PUSH1 0x20 ADD PUSH1 0x0 PUSH20 0xFFFFFFFFFFFFFFFFFFFFFFFFFFFFFFFFFFFFFFFF AND DUP2 MSTORE PUSH1 0x20 ADD PUSH1 0x0 DUP2 MSTORE PUSH1 0x20 ADD PUSH1 0x60 DUP2 MSTORE POP SWAP1 JUMP JUMPDEST PUSH1 0x40 MLOAD DUP1 PUSH1 0x40 ADD PUSH1 0x40 MSTORE DUP1 PUSH1 0x0 PUSH20 0xFFFFFFFFFFFFFFFFFFFFFFFFFFFFFFFFFFFFFFFF AND DUP2 MSTORE PUSH1 0x20 ADD PUSH1 0x60 DUP2 MSTORE POP SWAP1 JUMP JUMPDEST JUMPDEST DUP1 DUP3 GT ISZERO PUSH2 0x1A65 JUMPI PUSH1 0x0 DUP2 PUSH1 0x0 SWAP1 SSTORE POP PUSH1 0x1 ADD PUSH2 0x1A4D JUMP JUMPDEST POP SWAP1 JUMP JUMPDEST PUSH1 0x0 PUSH2 0x1A7C PUSH2 0x1A77 DUP5 PUSH2 0x264D JUMP JUMPDEST PUSH2 0x261C JUMP JUMPDEST SWAP1 POP DUP1 DUP4 DUP3 MSTORE PUSH1 0x20 DUP3 ADD SWAP1 POP DUP3 PUSH1 0x0 JUMPDEST DUP6 DUP2 LT ISZERO PUSH2 0x1ABC JUMPI DUP2 CALLDATALOAD DUP6 ADD PUSH2 0x1AA2 DUP9 DUP3 PUSH2 0x1B6D JUMP JUMPDEST DUP5 MSTORE PUSH1 0x20 DUP5 ADD SWAP4 POP PUSH1 0x20 DUP4 ADD SWAP3 POP POP PUSH1 0x1 DUP2 ADD SWAP1 POP PUSH2 0x1A8C JUMP JUMPDEST POP POP POP SWAP4 SWAP3 POP POP POP JUMP JUMPDEST PUSH1 0x0 PUSH2 0x1AD9 PUSH2 0x1AD4 DUP5 PUSH2 0x2679 JUMP JUMPDEST PUSH2 0x261C JUMP JUMPDEST SWAP1 POP DUP3 DUP2 MSTORE PUSH1 0x20 DUP2 ADD DUP5 DUP5 DUP5 ADD GT ISZERO PUSH2 0x1AF1 JUMPI PUSH1 0x0 DUP1 REVERT JUMPDEST PUSH2 0x1AFC DUP5 DUP3 DUP6 PUSH2 0x2836 JUMP JUMPDEST POP SWAP4 SWAP3 POP POP POP JUMP JUMPDEST PUSH1 0x0 DUP2 CALLDATALOAD SWAP1 POP PUSH2 0x1B13 DUP2 PUSH2 0x2A1B JUMP JUMPDEST SWAP3 SWAP2 POP POP JUMP JUMPDEST PUSH1 0x0 DUP3 PUSH1 0x1F DUP4 ADD SLT PUSH2 0x1B2A JUMPI PUSH1 0x0 DUP1 REVERT JUMPDEST DUP2 CALLDATALOAD PUSH2 0x1B3A DUP5 DUP3 PUSH1 0x20 DUP7 ADD PUSH2 0x1A69 JUMP JUMPDEST SWAP2 POP POP SWAP3 SWAP2 POP POP JUMP JUMPDEST PUSH1 0x0 DUP3 PUSH1 0x1F DUP4 ADD SLT PUSH2 0x1B54 JUMPI PUSH1 0x0 DUP1 REVERT JUMPDEST DUP2 CALLDATALOAD PUSH2 0x1B64 DUP5 DUP3 PUSH1 0x20 DUP7 ADD PUSH2 0x1AC6 JUMP JUMPDEST SWAP2 POP POP SWAP3 SWAP2 POP POP JUMP JUMPDEST PUSH1 0x0 PUSH1 0x40 DUP3 DUP5 SUB SLT ISZERO PUSH2 0x1B7F JUMPI PUSH1 0x0 DUP1 REVERT JUMPDEST PUSH2 0x1B89 PUSH1 0x40 PUSH2 0x261C JUMP JUMPDEST SWAP1 POP PUSH1 0x0 PUSH2 0x1B99 DUP5 DUP3 DUP6 ADD PUSH2 0x1B04 JUMP JUMPDEST PUSH1 0x0 DUP4 ADD MSTORE POP PUSH1 0x20 DUP3 ADD CALLDATALOAD PUSH8 0xFFFFFFFFFFFFFFFF DUP2 GT ISZERO PUSH2 0x1BB9 JUMPI PUSH1 0x0 DUP1 REVERT JUMPDEST PUSH2 0x1BC5 DUP5 DUP3 DUP6 ADD PUSH2 0x1B43 JUMP JUMPDEST PUSH1 0x20 DUP4 ADD MSTORE POP SWAP3 SWAP2 POP POP JUMP JUMPDEST PUSH1 0x0 DUP2 CALLDATALOAD SWAP1 POP PUSH2 0x1BE0 DUP2 PUSH2 0x2A32 JUMP JUMPDEST SWAP3 SWAP2 POP POP JUMP JUMPDEST PUSH1 0x0 PUSH1 0x20 DUP3 DUP5 SUB SLT ISZERO PUSH2 0x1BF8 JUMPI PUSH1 0x0 DUP1 REVERT JUMPDEST PUSH1 0x0 PUSH2 0x1C06 DUP5 DUP3 DUP6 ADD PUSH2 0x1B04 JUMP JUMPDEST SWAP2 POP POP SWAP3 SWAP2 POP POP JUMP JUMPDEST PUSH1 0x0 DUP1 PUSH1 0x40 DUP4 DUP6 SUB SLT ISZERO PUSH2 0x1C22 JUMPI PUSH1 0x0 DUP1 REVERT JUMPDEST PUSH1 0x0 PUSH2 0x1C30 DUP6 DUP3 DUP7 ADD PUSH2 0x1B04 JUMP JUMPDEST SWAP3 POP POP PUSH1 0x20 DUP4 ADD CALLDATALOAD PUSH8 0xFFFFFFFFFFFFFFFF DUP2 GT ISZERO PUSH2 0x1C4D JUMPI PUSH1 0x0 DUP1 REVERT JUMPDEST PUSH2 0x1C59 DUP6 DUP3 DUP7 ADD PUSH2 0x1B43 JUMP JUMPDEST SWAP2 POP POP SWAP3 POP SWAP3 SWAP1 POP JUMP JUMPDEST PUSH1 0x0 PUSH1 0x20 DUP3 DUP5 SUB SLT ISZERO PUSH2 0x1C75 JUMPI PUSH1 0x0 DUP1 REVERT JUMPDEST PUSH1 0x0 DUP3 ADD CALLDATALOAD PUSH8 0xFFFFFFFFFFFFFFFF DUP2 GT ISZERO PUSH2 0x1C8F JUMPI PUSH1 0x0 DUP1 REVERT JUMPDEST PUSH2 0x1C9B DUP5 DUP3 DUP6 ADD PUSH2 0x1B43 JUMP JUMPDEST SWAP2 POP POP SWAP3 SWAP2 POP POP JUMP JUMPDEST PUSH1 0x0 DUP1 PUSH1 0x0 DUP1 PUSH1 0x0 PUSH1 0xA0 DUP7 DUP9 SUB SLT ISZERO PUSH2 0x1CBC JUMPI PUSH1 0x0 DUP1 REVERT JUMPDEST PUSH1 0x0 DUP7 ADD CALLDATALOAD PUSH8 0xFFFFFFFFFFFFFFFF DUP2 GT ISZERO PUSH2 0x1CD6 JUMPI PUSH1 0x0 DUP1 REVERT JUMPDEST PUSH2 0x1CE2 DUP9 DUP3 DUP10 ADD PUSH2 0x1B43 JUMP JUMPDEST SWAP6 POP POP PUSH1 0x20 PUSH2 0x1CF3 DUP9 DUP3 DUP10 ADD PUSH2 0x1B04 JUMP JUMPDEST SWAP5 POP POP PUSH1 0x40 PUSH2 0x1D04 DUP9 DUP3 DUP10 ADD PUSH2 0x1BD1 JUMP JUMPDEST SWAP4 POP POP PUSH1 0x60 DUP7 ADD CALLDATALOAD PUSH8 0xFFFFFFFFFFFFFFFF DUP2 GT ISZERO PUSH2 0x1D21 JUMPI PUSH1 0x0 DUP1 REVERT JUMPDEST PUSH2 0x1D2D DUP9 DUP3 DUP10 ADD PUSH2 0x1B43 JUMP JUMPDEST SWAP3 POP POP PUSH1 0x80 DUP7 ADD CALLDATALOAD PUSH8 0xFFFFFFFFFFFFFFFF DUP2 GT ISZERO PUSH2 0x1D4A JUMPI PUSH1 0x0 DUP1 REVERT JUMPDEST PUSH2 0x1D56 DUP9 DUP3 DUP10 ADD PUSH2 0x1B19 JUMP JUMPDEST SWAP2 POP POP SWAP3 SWAP6 POP SWAP3 SWAP6 SWAP1 SWAP4 POP JUMP JUMPDEST PUSH1 0x0 PUSH1 0x20 DUP3 DUP5 SUB SLT ISZERO PUSH2 0x1D75 JUMPI PUSH1 0x0 DUP1 REVERT JUMPDEST PUSH1 0x0 PUSH2 0x1D83 DUP5 DUP3 DUP6 ADD PUSH2 0x1BD1 JUMP JUMPDEST SWAP2 POP POP SWAP3 SWAP2 POP POP JUMP JUMPDEST PUSH1 0x0 PUSH2 0x1D97 DUP3 PUSH2 0x26BE JUMP JUMPDEST PUSH2 0x1DA1 DUP2 DUP6 PUSH2 0x26C9 JUMP JUMPDEST SWAP4 POP PUSH2 0x1DB1 DUP2 DUP6 PUSH1 0x20 DUP7 ADD PUSH2 0x2845 JUMP JUMPDEST PUSH2 0x1DBA DUP2 PUSH2 0x2A0A JUMP JUMPDEST DUP5 ADD SWAP2 POP POP SWAP3 SWAP2 POP POP JUMP JUMPDEST PUSH1 0x0 PUSH2 0x1DD0 DUP3 PUSH2 0x26BE JUMP JUMPDEST PUSH2 0x1DDA DUP2 DUP6 PUSH2 0x26DA JUMP JUMPDEST SWAP4 POP PUSH2 0x1DEA DUP2 DUP6 PUSH1 0x20 DUP7 ADD PUSH2 0x2845 JUMP JUMPDEST DUP1 DUP5 ADD SWAP2 POP POP SWAP3 SWAP2 POP POP JUMP JUMPDEST PUSH1 0x0 DUP2 SLOAD PUSH2 0x1E03 DUP2 PUSH2 0x28A2 JUMP JUMPDEST PUSH2 0x1E0D DUP2 DUP7 PUSH2 0x26DA JUMP JUMPDEST SWAP5 POP PUSH1 0x1 DUP3 AND PUSH1 0x0 DUP2 EQ PUSH2 0x1E28 JUMPI PUSH1 0x1 DUP2 EQ PUSH2 0x1E39 JUMPI PUSH2 0x1E6C JUMP JUMPDEST PUSH1 0xFF NOT DUP4 AND DUP7 MSTORE DUP2 DUP7 ADD SWAP4 POP PUSH2 0x1E6C JUMP JUMPDEST PUSH2 0x1E42 DUP6 PUSH2 0x26A9 JUMP JUMPDEST PUSH1 0x0 JUMPDEST DUP4 DUP2 LT ISZERO PUSH2 0x1E64 JUMPI DUP2 SLOAD DUP2 DUP10 ADD MSTORE PUSH1 0x1 DUP3 ADD SWAP2 POP PUSH1 0x20 DUP2 ADD SWAP1 POP PUSH2 0x1E45 JUMP JUMPDEST DUP4 DUP9 ADD SWAP6 POP POP POP JUMPDEST POP POP POP SWAP3 SWAP2 POP POP JUMP JUMPDEST PUSH1 0x0 PUSH2 0x1E82 PUSH1 0x20 DUP4 PUSH2 0x26C9 JUMP JUMPDEST SWAP2 POP PUSH32 0x537472696E67733A20686578206C656E67746820696E73756666696369656E74 PUSH1 0x0 DUP4 ADD MSTORE PUSH1 0x20 DUP3 ADD SWAP1 POP SWAP2 SWAP1 POP JUMP JUMPDEST PUSH1 0x0 PUSH2 0x1EC2 PUSH1 0x2 DUP4 PUSH2 0x26DA JUMP JUMPDEST SWAP2 POP PUSH32 0x2C0A000000000000000000000000000000000000000000000000000000000000 PUSH1 0x0 DUP4 ADD MSTORE PUSH1 0x2 DUP3 ADD SWAP1 POP SWAP2 SWAP1 POP JUMP JUMPDEST PUSH1 0x0 PUSH2 0x1F02 PUSH1 0x2C DUP4 PUSH2 0x26C9 JUMP JUMPDEST SWAP2 POP PUSH32 0x4F6E6C7920666163746F727920636F6E74726163742063616E2063616C6C2074 PUSH1 0x0 DUP4 ADD MSTORE PUSH32 0x6869732066756E6374696F6E0000000000000000000000000000000000000000 PUSH1 0x20 DUP4 ADD MSTORE PUSH1 0x40 DUP3 ADD SWAP1 POP SWAP2 SWAP1 POP JUMP JUMPDEST PUSH1 0x0 PUSH2 0x1F68 PUSH1 0x15 DUP4 PUSH2 0x26DA JUMP JUMPDEST SWAP2 POP PUSH32 0x284275696C64696E67277320416464726573733A200000000000000000000000 PUSH1 0x0 DUP4 ADD MSTORE PUSH1 0x15 DUP3 ADD SWAP1 POP SWAP2 SWAP1 POP JUMP JUMPDEST PUSH1 0x0 PUSH2 0x1FA8 PUSH1 0x20 DUP4 PUSH2 0x26C9 JUMP JUMPDEST SWAP2 POP PUSH32 0x436F6E74726163746F7220697320616C72656164792072656769737465726564 PUSH1 0x0 DUP4 ADD MSTORE PUSH1 0x20 DUP3 ADD SWAP1 POP SWAP2 SWAP1 POP JUMP JUMPDEST PUSH1 0x0 PUSH2 0x1FE8 PUSH1 0x1A DUP4 PUSH2 0x26C9 JUMP JUMPDEST SWAP2 POP PUSH32 0x436F6E747261637420686173206265656E2064697361626C6564000000000000 PUSH1 0x0 DUP4 ADD MSTORE PUSH1 0x20 DUP3 ADD SWAP1 POP SWAP2 SWAP1 POP JUMP JUMPDEST PUSH1 0x0 PUSH2 0x2028 PUSH1 0x25 DUP4 PUSH2 0x26C9 JUMP JUMPDEST SWAP2 POP PUSH32 0x43616E206F6E6C79206265206578656375746564206279207468652044657665 PUSH1 0x0 DUP4 ADD MSTORE PUSH32 0x6C6F706572000000000000000000000000000000000000000000000000000000 PUSH1 0x20 DUP4 ADD MSTORE PUSH1 0x40 DUP3 ADD SWAP1 POP SWAP2 SWAP1 POP JUMP JUMPDEST PUSH1 0x0 PUSH2 0x208E PUSH1 0x16 DUP4 PUSH2 0x26DA JUMP JUMPDEST SWAP2 POP PUSH32 0x28446576656C6F706572277320416464726573733A2000000000000000000000 PUSH1 0x0 DUP4 ADD MSTORE PUSH1 0x16 DUP3 ADD SWAP1 POP SWAP2 SWAP1 POP JUMP JUMPDEST PUSH1 0x0 PUSH2 0x20CE PUSH1 0x3 DUP4 PUSH2 0x26DA JUMP JUMPDEST SWAP2 POP PUSH32 0x2029200000000000000000000000000000000000000000000000000000000000 PUSH1 0x0 DUP4 ADD MSTORE PUSH1 0x3 DUP3 ADD SWAP1 POP SWAP2 SWAP1 POP JUMP JUMPDEST PUSH1 0x0 PUSH2 0x210E PUSH1 0x31 DUP4 PUSH2 0x26C9 JUMP JUMPDEST SWAP2 POP PUSH32 0x43616E206F6E6C79206265206578656375746564206279207468652072656769 PUSH1 0x0 DUP4 ADD MSTORE PUSH32 0x73746572656420436F6E74726163746F72000000000000000000000000000000 PUSH1 0x20 DUP4 ADD MSTORE PUSH1 0x40 DUP3 ADD SWAP1 POP SWAP2 SWAP1 POP JUMP JUMPDEST PUSH1 0x0 PUSH2 0x2174 PUSH1 0x12 DUP4 PUSH2 0x26DA JUMP JUMPDEST SWAP2 POP PUSH32 0x284275696C64696E672773204E616D653A200000000000000000000000000000 PUSH1 0x0 DUP4 ADD MSTORE PUSH1 0x12 DUP3 ADD SWAP1 POP SWAP2 SWAP1 POP JUMP JUMPDEST PUSH1 0x0 PUSH2 0x21B4 PUSH1 0x34 DUP4 PUSH2 0x26C9 JUMP JUMPDEST SWAP2 POP PUSH32 0x506C656173652074727920616761696E20617320726571756573746564206D61 PUSH1 0x0 DUP4 ADD MSTORE PUSH32 0x74657269616C20776173206E6F7420666F756E64000000000000000000000000 PUSH1 0x20 DUP4 ADD MSTORE PUSH1 0x40 DUP3 ADD SWAP1 POP SWAP2 SWAP1 POP JUMP JUMPDEST PUSH1 0x0 PUSH2 0x221A PUSH1 0x3 DUP4 PUSH2 0x26DA JUMP JUMPDEST SWAP2 POP PUSH32 0x2028200000000000000000000000000000000000000000000000000000000000 PUSH1 0x0 DUP4 ADD MSTORE PUSH1 0x3 DUP3 ADD SWAP1 POP SWAP2 SWAP1 POP JUMP JUMPDEST PUSH1 0x0 PUSH2 0x225A PUSH1 0x39 DUP4 PUSH2 0x26C9 JUMP JUMPDEST SWAP2 POP PUSH32 0x506C656173652074727920616761696E20617320726571756573746564206261 PUSH1 0x0 DUP4 ADD MSTORE PUSH32 0x746368206164647265737320776173206E6F7420666F756E6400000000000000 PUSH1 0x20 DUP4 ADD MSTORE PUSH1 0x40 DUP3 ADD SWAP1 POP SWAP2 SWAP1 POP JUMP JUMPDEST PUSH1 0x0 PUSH2 0x22C0 PUSH1 0x4 DUP4 PUSH2 0x26DA JUMP JUMPDEST SWAP2 POP PUSH32 0x202D3E2000000000000000000000000000000000000000000000000000000000 PUSH1 0x0 DUP4 ADD MSTORE PUSH1 0x4 DUP3 ADD SWAP1 POP SWAP2 SWAP1 POP JUMP JUMPDEST PUSH1 0x0 PUSH2 0x2300 PUSH1 0x4 DUP4 PUSH2 0x26DA JUMP JUMPDEST SWAP2 POP PUSH32 0x2029200A00000000000000000000000000000000000000000000000000000000 PUSH1 0x0 DUP4 ADD MSTORE PUSH1 0x4 DUP3 ADD SWAP1 POP SWAP2 SWAP1 POP JUMP JUMPDEST PUSH1 0x0 PUSH2 0x233F DUP3 DUP5 PUSH2 0x1DC5 JUMP JUMPDEST SWAP2 POP DUP2 SWAP1 POP SWAP3 SWAP2 POP POP JUMP JUMPDEST PUSH1 0x0 PUSH2 0x2356 DUP3 DUP6 PUSH2 0x1DC5 JUMP JUMPDEST SWAP2 POP PUSH2 0x2362 DUP3 DUP5 PUSH2 0x1DF6 JUMP JUMPDEST SWAP2 POP DUP2 SWAP1 POP SWAP4 SWAP3 POP POP POP JUMP JUMPDEST PUSH1 0x0 PUSH2 0x237A DUP3 DUP6 PUSH2 0x1DC5 JUMP JUMPDEST SWAP2 POP PUSH2 0x2386 DUP3 DUP5 PUSH2 0x1DF6 JUMP JUMPDEST SWAP2 POP PUSH2 0x2391 DUP3 PUSH2 0x1EB5 JUMP JUMPDEST SWAP2 POP DUP2 SWAP1 POP SWAP4 SWAP3 POP POP POP JUMP JUMPDEST PUSH1 0x0 PUSH2 0x23A9 DUP3 DUP9 PUSH2 0x1DC5 JUMP JUMPDEST SWAP2 POP PUSH2 0x23B4 DUP3 PUSH2 0x220D JUMP JUMPDEST SWAP2 POP PUSH2 0x23C0 DUP3 DUP8 PUSH2 0x1DC5 JUMP JUMPDEST SWAP2 POP PUSH2 0x23CB DUP3 PUSH2 0x22B3 JUMP JUMPDEST SWAP2 POP PUSH2 0x23D7 DUP3 DUP7 PUSH2 0x1DC5 JUMP JUMPDEST SWAP2 POP PUSH2 0x23E3 DUP3 DUP6 PUSH2 0x1DC5 JUMP JUMPDEST SWAP2 POP PUSH2 0x23EE DUP3 PUSH2 0x22B3 JUMP JUMPDEST SWAP2 POP PUSH2 0x23FA DUP3 DUP5 PUSH2 0x1DC5 JUMP JUMPDEST SWAP2 POP PUSH2 0x2405 DUP3 PUSH2 0x22F3 JUMP JUMPDEST SWAP2 POP DUP2 SWAP1 POP SWAP7 SWAP6 POP POP POP POP POP POP JUMP JUMPDEST PUSH1 0x0 PUSH2 0x2420 DUP3 DUP7 PUSH2 0x1DC5 JUMP JUMPDEST SWAP2 POP PUSH2 0x242B DUP3 PUSH2 0x220D JUMP JUMPDEST SWAP2 POP PUSH2 0x2437 DUP3 DUP6 PUSH2 0x1DC5 JUMP JUMPDEST SWAP2 POP PUSH2 0x2442 DUP3 PUSH2 0x22B3 JUMP JUMPDEST SWAP2 POP PUSH2 0x244E DUP3 DUP5 PUSH2 0x1DC5 JUMP JUMPDEST SWAP2 POP PUSH2 0x2459 DUP3 PUSH2 0x22F3 JUMP JUMPDEST SWAP2 POP DUP2 SWAP1 POP SWAP5 SWAP4 POP POP POP POP JUMP JUMPDEST PUSH1 0x0 PUSH2 0x2471 DUP3 PUSH2 0x2167 JUMP JUMPDEST SWAP2 POP PUSH2 0x247C DUP3 PUSH2 0x22B3 JUMP JUMPDEST SWAP2 POP PUSH2 0x2488 DUP3 DUP7 PUSH2 0x1DF6 JUMP JUMPDEST SWAP2 POP PUSH2 0x2493 DUP3 PUSH2 0x20C1 JUMP JUMPDEST SWAP2 POP PUSH2 0x249E DUP3 PUSH2 0x1F5B JUMP JUMPDEST SWAP2 POP PUSH2 0x24A9 DUP3 PUSH2 0x22B3 JUMP JUMPDEST SWAP2 POP PUSH2 0x24B5 DUP3 DUP6 PUSH2 0x1DC5 JUMP JUMPDEST SWAP2 POP PUSH2 0x24C0 DUP3 PUSH2 0x20C1 JUMP JUMPDEST SWAP2 POP PUSH2 0x24CB DUP3 PUSH2 0x2081 JUMP JUMPDEST SWAP2 POP PUSH2 0x24D6 DUP3 PUSH2 0x22B3 JUMP JUMPDEST SWAP2 POP PUSH2 0x24E2 DUP3 DUP5 PUSH2 0x1DC5 JUMP JUMPDEST SWAP2 POP PUSH2 0x24ED DUP3 PUSH2 0x22F3 JUMP JUMPDEST SWAP2 POP DUP2 SWAP1 POP SWAP5 SWAP4 POP POP POP POP JUMP JUMPDEST PUSH1 0x0 PUSH1 0x20 DUP3 ADD SWAP1 POP DUP2 DUP2 SUB PUSH1 0x0 DUP4 ADD MSTORE PUSH2 0x2514 DUP2 DUP5 PUSH2 0x1D8C JUMP JUMPDEST SWAP1 POP SWAP3 SWAP2 POP POP JUMP JUMPDEST PUSH1 0x0 PUSH1 0x20 DUP3 ADD SWAP1 POP DUP2 DUP2 SUB PUSH1 0x0 DUP4 ADD MSTORE PUSH2 0x2535 DUP2 PUSH2 0x1E75 JUMP JUMPDEST SWAP1 POP SWAP2 SWAP1 POP JUMP JUMPDEST PUSH1 0x0 PUSH1 0x20 DUP3 ADD SWAP1 POP DUP2 DUP2 SUB PUSH1 0x0 DUP4 ADD MSTORE PUSH2 0x2555 DUP2 PUSH2 0x1EF5 JUMP JUMPDEST SWAP1 POP SWAP2 SWAP1 POP JUMP JUMPDEST PUSH1 0x0 PUSH1 0x20 DUP3 ADD SWAP1 POP DUP2 DUP2 SUB PUSH1 0x0 DUP4 ADD MSTORE PUSH2 0x2575 DUP2 PUSH2 0x1F9B JUMP JUMPDEST SWAP1 POP SWAP2 SWAP1 POP JUMP JUMPDEST PUSH1 0x0 PUSH1 0x20 DUP3 ADD SWAP1 POP DUP2 DUP2 SUB PUSH1 0x0 DUP4 ADD MSTORE PUSH2 0x2595 DUP2 PUSH2 0x1FDB JUMP JUMPDEST SWAP1 POP SWAP2 SWAP1 POP JUMP JUMPDEST PUSH1 0x0 PUSH1 0x20 DUP3 ADD SWAP1 POP DUP2 DUP2 SUB PUSH1 0x0 DUP4 ADD MSTORE PUSH2 0x25B5 DUP2 PUSH2 0x201B JUMP JUMPDEST SWAP1 POP SWAP2 SWAP1 POP JUMP JUMPDEST PUSH1 0x0 PUSH1 0x20 DUP3 ADD SWAP1 POP DUP2 DUP2 SUB PUSH1 0x0 DUP4 ADD MSTORE PUSH2 0x25D5 DUP2 PUSH2 0x2101 JUMP JUMPDEST SWAP1 POP SWAP2 SWAP1 POP JUMP JUMPDEST PUSH1 0x0 PUSH1 0x20 DUP3 ADD SWAP1 POP DUP2 DUP2 SUB PUSH1 0x0 DUP4 ADD MSTORE PUSH2 0x25F5 DUP2 PUSH2 0x21A7 JUMP JUMPDEST SWAP1 POP SWAP2 SWAP1 POP JUMP JUMPDEST PUSH1 0x0 PUSH1 0x20 DUP3 ADD SWAP1 POP DUP2 DUP2 SUB PUSH1 0x0 DUP4 ADD MSTORE PUSH2 0x2615 DUP2 PUSH2 0x224D JUMP JUMPDEST SWAP1 POP SWAP2 SWAP1 POP JUMP JUMPDEST PUSH1 0x0 PUSH1 0x40 MLOAD SWAP1 POP DUP2 DUP2 ADD DUP2 DUP2 LT PUSH8 0xFFFFFFFFFFFFFFFF DUP3 GT OR ISZERO PUSH2 0x2643 JUMPI PUSH2 0x2642 PUSH2 0x29DB JUMP JUMPDEST JUMPDEST DUP1 PUSH1 0x40 MSTORE POP SWAP2 SWAP1 POP JUMP JUMPDEST PUSH1 0x0 PUSH8 0xFFFFFFFFFFFFFFFF DUP3 GT ISZERO PUSH2 0x2668 JUMPI PUSH2 0x2667 PUSH2 0x29DB JUMP JUMPDEST JUMPDEST PUSH1 0x20 DUP3 MUL SWAP1 POP PUSH1 0x20 DUP2 ADD SWAP1 POP SWAP2 SWAP1 POP JUMP JUMPDEST PUSH1 0x0 PUSH8 0xFFFFFFFFFFFFFFFF DUP3 GT ISZERO PUSH2 0x2694 JUMPI PUSH2 0x2693 PUSH2 0x29DB JUMP JUMPDEST JUMPDEST PUSH1 0x1F NOT PUSH1 0x1F DUP4 ADD AND SWAP1 POP PUSH1 0x20 DUP2 ADD SWAP1 POP SWAP2 SWAP1 POP JUMP JUMPDEST PUSH1 0x0 DUP2 SWAP1 POP DUP2 PUSH1 0x0 MSTORE PUSH1 0x20 PUSH1 0x0 KECCAK256 SWAP1 POP SWAP2 SWAP1 POP JUMP JUMPDEST PUSH1 0x0 DUP2 MLOAD SWAP1 POP SWAP2 SWAP1 POP JUMP JUMPDEST PUSH1 0x0 DUP3 DUP3 MSTORE PUSH1 0x20 DUP3 ADD SWAP1 POP SWAP3 SWAP2 POP POP JUMP JUMPDEST PUSH1 0x0 DUP2 SWAP1 POP SWAP3 SWAP2 POP POP JUMP JUMPDEST PUSH1 0x0 PUSH2 0x26F0 DUP3 PUSH2 0x282C JUMP JUMPDEST SWAP2 POP PUSH2 0x26FB DUP4 PUSH2 0x282C JUMP JUMPDEST SWAP3 POP DUP3 PUSH32 0xFFFFFFFFFFFFFFFFFFFFFFFFFFFFFFFFFFFFFFFFFFFFFFFFFFFFFFFFFFFFFFFF SUB DUP3 GT ISZERO PUSH2 0x2730 JUMPI PUSH2 0x272F PUSH2 0x294E JUMP JUMPDEST JUMPDEST DUP3 DUP3 ADD SWAP1 POP SWAP3 SWAP2 POP POP JUMP JUMPDEST PUSH1 0x0 PUSH2 0x2746 DUP3 PUSH2 0x282C JUMP JUMPDEST SWAP2 POP PUSH2 0x2751 DUP4 PUSH2 0x282C JUMP JUMPDEST SWAP3 POP DUP3 PUSH2 0x2761 JUMPI PUSH2 0x2760 PUSH2 0x297D JUMP JUMPDEST JUMPDEST DUP3 DUP3 DIV SWAP1 POP SWAP3 SWAP2 POP POP JUMP JUMPDEST PUSH1 0x0 PUSH2 0x2777 DUP3 PUSH2 0x282C JUMP JUMPDEST SWAP2 POP PUSH2 0x2782 DUP4 PUSH2 0x282C JUMP JUMPDEST SWAP3 POP DUP2 PUSH32 0xFFFFFFFFFFFFFFFFFFFFFFFFFFFFFFFFFFFFFFFFFFFFFFFFFFFFFFFFFFFFFFFF DIV DUP4 GT DUP3 ISZERO ISZERO AND ISZERO PUSH2 0x27BB JUMPI PUSH2 0x27BA PUSH2 0x294E JUMP JUMPDEST JUMPDEST DUP3 DUP3 MUL SWAP1 POP SWAP3 SWAP2 POP POP JUMP JUMPDEST PUSH1 0x0 PUSH2 0x27D1 DUP3 PUSH2 0x282C JUMP JUMPDEST SWAP2 POP PUSH2 0x27DC DUP4 PUSH2 0x282C JUMP JUMPDEST SWAP3 POP DUP3 DUP3 LT ISZERO PUSH2 0x27EF JUMPI PUSH2 0x27EE PUSH2 0x294E JUMP JUMPDEST JUMPDEST DUP3 DUP3 SUB SWAP1 POP SWAP3 SWAP2 POP POP JUMP JUMPDEST PUSH1 0x0 PUSH2 0x2805 DUP3 PUSH2 0x280C JUMP JUMPDEST SWAP1 POP SWAP2 SWAP1 POP JUMP JUMPDEST PUSH1 0x0 PUSH20 0xFFFFFFFFFFFFFFFFFFFFFFFFFFFFFFFFFFFFFFFF DUP3 AND SWAP1 POP SWAP2 SWAP1 POP JUMP JUMPDEST PUSH1 0x0 DUP2 SWAP1 POP SWAP2 SWAP1 POP JUMP JUMPDEST DUP3 DUP2 DUP4 CALLDATACOPY PUSH1 0x0 DUP4 DUP4 ADD MSTORE POP POP POP JUMP JUMPDEST PUSH1 0x0 JUMPDEST DUP4 DUP2 LT ISZERO PUSH2 0x2863 JUMPI DUP1 DUP3 ADD MLOAD DUP2 DUP5 ADD MSTORE PUSH1 0x20 DUP2 ADD SWAP1 POP PUSH2 0x2848 JUMP JUMPDEST DUP4 DUP2 GT ISZERO PUSH2 0x2872 JUMPI PUSH1 0x0 DUP5 DUP5 ADD MSTORE JUMPDEST POP POP POP POP JUMP JUMPDEST PUSH1 0x0 PUSH2 0x2883 DUP3 PUSH2 0x282C JUMP JUMPDEST SWAP2 POP PUSH1 0x0 DUP3 EQ ISZERO PUSH2 0x2897 JUMPI PUSH2 0x2896 PUSH2 0x294E JUMP JUMPDEST JUMPDEST PUSH1 0x1 DUP3 SUB SWAP1 POP SWAP2 SWAP1 POP JUMP JUMPDEST PUSH1 0x0 PUSH1 0x2 DUP3 DIV SWAP1 POP PUSH1 0x1 DUP3 AND DUP1 PUSH2 0x28BA JUMPI PUSH1 0x7F DUP3 AND SWAP2 POP JUMPDEST PUSH1 0x20 DUP3 LT DUP2 EQ ISZERO PUSH2 0x28CE JUMPI PUSH2 0x28CD PUSH2 0x29AC JUMP JUMPDEST JUMPDEST POP SWAP2 SWAP1 POP JUMP JUMPDEST PUSH1 0x0 PUSH2 0x28DF DUP3 PUSH2 0x282C JUMP JUMPDEST SWAP2 POP PUSH32 0xFFFFFFFFFFFFFFFFFFFFFFFFFFFFFFFFFFFFFFFFFFFFFFFFFFFFFFFFFFFFFFFF DUP3 EQ ISZERO PUSH2 0x2912 JUMPI PUSH2 0x2911 PUSH2 0x294E JUMP JUMPDEST JUMPDEST PUSH1 0x1 DUP3 ADD SWAP1 POP SWAP2 SWAP1 POP JUMP JUMPDEST PUSH1 0x0 PUSH2 0x2928 DUP3 PUSH2 0x282C JUMP JUMPDEST SWAP2 POP PUSH2 0x2933 DUP4 PUSH2 0x282C JUMP JUMPDEST SWAP3 POP DUP3 PUSH2 0x2943 JUMPI PUSH2 0x2942 PUSH2 0x297D JUMP JUMPDEST JUMPDEST DUP3 DUP3 MOD SWAP1 POP SWAP3 SWAP2 POP POP JUMP JUMPDEST PUSH32 0x4E487B7100000000000000000000000000000000000000000000000000000000 PUSH1 0x0 MSTORE PUSH1 0x11 PUSH1 0x4 MSTORE PUSH1 0x24 PUSH1 0x0 REVERT JUMPDEST PUSH32 0x4E487B7100000000000000000000000000000000000000000000000000000000 PUSH1 0x0 MSTORE PUSH1 0x12 PUSH1 0x4 MSTORE PUSH1 0x24 PUSH1 0x0 REVERT JUMPDEST PUSH32 0x4E487B7100000000000000000000000000000000000000000000000000000000 PUSH1 0x0 MSTORE PUSH1 0x22 PUSH1 0x4 MSTORE PUSH1 0x24 PUSH1 0x0 REVERT JUMPDEST PUSH32 0x4E487B7100000000000000000000000000000000000000000000000000000000 PUSH1 0x0 MSTORE PUSH1 0x41 PUSH1 0x4 MSTORE PUSH1 0x24 PUSH1 0x0 REVERT JUMPDEST PUSH1 0x0 PUSH1 0x1F NOT PUSH1 0x1F DUP4 ADD AND SWAP1 POP SWAP2 SWAP1 POP JUMP JUMPDEST PUSH2 0x2A24 DUP2 PUSH2 0x27FA JUMP JUMPDEST DUP2 EQ PUSH2 0x2A2F JUMPI PUSH1 0x0 DUP1 REVERT JUMPDEST POP JUMP JUMPDEST PUSH2 0x2A3B DUP2 PUSH2 0x282C JUMP JUMPDEST DUP2 EQ PUSH2 0x2A46 JUMPI PUSH1 0x0 DUP1 REVERT JUMPDEST POP JUMP INVALID LOG2 PUSH5 0x6970667358 0x22 SLT KECCAK256 0xC1 0xCA 0xC1 MSTORE 0x27 DUP12 LOG4 PUSH13 0x8A42C8DEC5895CA1AE82F3CA24 0x2A LT DUP14 SMOD DUP13 0xDB 0xBE 0xD7 0xD3 BALANCE SELFDESTRUCT PUSH5 0x736F6C6343 STOP ADDMOD STOP STOP CALLER "
				},
				"gasEstimates": {
					"creation": {
						"codeDepositCost": "2175800",
						"executionCost": "infinite",
						"totalCost": "infinite"
					},
					"external": {
						"BatchCertificate(address)": "infinite",
						"addContractor(address,string)": "infinite",
						"assignMaterial(string,address,uint256,string,(address,string)[])": "infinite",
						"disableOrEnableContract()": "22811",
						"generalInfo()": "infinite",
						"showAllRegisteredContractors()": "infinite",
						"showListOfMaterials()": "infinite",
						"showOverviewOfMaterial(string)": "infinite",
						"showSupplyChain(uint256)": "infinite"
					}
				},
				"methodIdentifiers": {
					"BatchCertificate(address)": "909fc14a",
					"addContractor(address,string)": "bd8976c4",
					"assignMaterial(string,address,uint256,string,(address,string)[])": "401d5026",
					"disableOrEnableContract()": "784b5031",
					"generalInfo()": "25a6c545",
					"showAllRegisteredContractors()": "27dd978f",
					"showListOfMaterials()": "64fbc026",
					"showOverviewOfMaterial(string)": "2968a545",
					"showSupplyChain(uint256)": "0eccf4f0"
				}
			},
			"storageLayout": {
				"storage": [
					{
						"astId": 245,
						"contract": "contracts/newBuilding.sol:newBuilding",
						"label": "contractIsDisabled",
						"offset": 0,
						"slot": "0",
						"type": "t_bool"
					},
					{
						"astId": 247,
						"contract": "contracts/newBuilding.sol:newBuilding",
						"label": "factoryContractAddress",
						"offset": 1,
						"slot": "0",
						"type": "t_address"
					},
					{
						"astId": 250,
						"contract": "contracts/newBuilding.sol:newBuilding",
						"label": "assignement_number",
						"offset": 0,
						"slot": "1",
						"type": "t_uint256"
					},
					{
						"astId": 253,
						"contract": "contracts/newBuilding.sol:newBuilding",
						"label": "listOfMaterials",
						"offset": 0,
						"slot": "2",
						"type": "t_array(t_string_storage)dyn_storage"
					},
					{
						"astId": 259,
						"contract": "contracts/newBuilding.sol:newBuilding",
						"label": "listOfBatches",
						"offset": 0,
						"slot": "3",
						"type": "t_mapping(t_string_memory_ptr,t_array(t_struct(Batch)237_storage)dyn_storage)"
					},
					{
						"astId": 265,
						"contract": "contracts/newBuilding.sol:newBuilding",
						"label": "supplyChain",
						"offset": 0,
						"slot": "4",
						"type": "t_mapping(t_uint256,t_array(t_struct(supplier)242_storage)dyn_storage)"
					},
					{
						"astId": 268,
						"contract": "contracts/newBuilding.sol:newBuilding",
						"label": "allContractorsAddresses",
						"offset": 0,
						"slot": "5",
						"type": "t_array(t_address)dyn_storage"
					},
					{
						"astId": 272,
						"contract": "contracts/newBuilding.sol:newBuilding",
						"label": "listOfContractors",
						"offset": 0,
						"slot": "6",
						"type": "t_mapping(t_address,t_string_storage)"
					},
					{
						"astId": 274,
						"contract": "contracts/newBuilding.sol:newBuilding",
						"label": "Developer",
						"offset": 0,
						"slot": "7",
						"type": "t_address"
					},
					{
						"astId": 276,
						"contract": "contracts/newBuilding.sol:newBuilding",
						"label": "BuildingAddress",
						"offset": 0,
						"slot": "8",
						"type": "t_address"
					},
					{
						"astId": 278,
						"contract": "contracts/newBuilding.sol:newBuilding",
						"label": "BuildingName",
						"offset": 0,
						"slot": "9",
						"type": "t_string_storage"
					},
					{
						"astId": 365,
						"contract": "contracts/newBuilding.sol:newBuilding",
						"label": "BatchCertificate",
						"offset": 0,
						"slot": "10",
						"type": "t_mapping(t_address,t_string_storage)"
					}
				],
				"types": {
					"t_address": {
						"encoding": "inplace",
						"label": "address",
						"numberOfBytes": "20"
					},
					"t_array(t_address)dyn_storage": {
						"base": "t_address",
						"encoding": "dynamic_array",
						"label": "address[]",
						"numberOfBytes": "32"
					},
					"t_array(t_string_storage)dyn_storage": {
						"base": "t_string_storage",
						"encoding": "dynamic_array",
						"label": "string[]",
						"numberOfBytes": "32"
					},
					"t_array(t_struct(Batch)237_storage)dyn_storage": {
						"base": "t_struct(Batch)237_storage",
						"encoding": "dynamic_array",
						"label": "struct newBuilding.Batch[]",
						"numberOfBytes": "32"
					},
					"t_array(t_struct(supplier)242_storage)dyn_storage": {
						"base": "t_struct(supplier)242_storage",
						"encoding": "dynamic_array",
						"label": "struct newBuilding.supplier[]",
						"numberOfBytes": "32"
					},
					"t_bool": {
						"encoding": "inplace",
						"label": "bool",
						"numberOfBytes": "1"
					},
					"t_mapping(t_address,t_string_storage)": {
						"encoding": "mapping",
						"key": "t_address",
						"label": "mapping(address => string)",
						"numberOfBytes": "32",
						"value": "t_string_storage"
					},
					"t_mapping(t_string_memory_ptr,t_array(t_struct(Batch)237_storage)dyn_storage)": {
						"encoding": "mapping",
						"key": "t_string_memory_ptr",
						"label": "mapping(string => struct newBuilding.Batch[])",
						"numberOfBytes": "32",
						"value": "t_array(t_struct(Batch)237_storage)dyn_storage"
					},
					"t_mapping(t_uint256,t_array(t_struct(supplier)242_storage)dyn_storage)": {
						"encoding": "mapping",
						"key": "t_uint256",
						"label": "mapping(uint256 => struct newBuilding.supplier[])",
						"numberOfBytes": "32",
						"value": "t_array(t_struct(supplier)242_storage)dyn_storage"
					},
					"t_string_memory_ptr": {
						"encoding": "bytes",
						"label": "string",
						"numberOfBytes": "32"
					},
					"t_string_storage": {
						"encoding": "bytes",
						"label": "string",
						"numberOfBytes": "32"
					},
					"t_struct(Batch)237_storage": {
						"encoding": "inplace",
						"label": "struct newBuilding.Batch",
						"members": [
							{
								"astId": 230,
								"contract": "contracts/newBuilding.sol:newBuilding",
								"label": "assignementId",
								"offset": 0,
								"slot": "0",
								"type": "t_uint256"
							},
							{
								"astId": 232,
								"contract": "contracts/newBuilding.sol:newBuilding",
								"label": "batchContractAddress",
								"offset": 0,
								"slot": "1",
								"type": "t_address"
							},
							{
								"astId": 234,
								"contract": "contracts/newBuilding.sol:newBuilding",
								"label": "quantityAssigned",
								"offset": 0,
								"slot": "2",
								"type": "t_uint256"
							},
							{
								"astId": 236,
								"contract": "contracts/newBuilding.sol:newBuilding",
								"label": "quantityUnit",
								"offset": 0,
								"slot": "3",
								"type": "t_string_storage"
							}
						],
						"numberOfBytes": "128"
					},
					"t_struct(supplier)242_storage": {
						"encoding": "inplace",
						"label": "struct newBuilding.supplier",
						"members": [
							{
								"astId": 239,
								"contract": "contracts/newBuilding.sol:newBuilding",
								"label": "supplierAddress",
								"offset": 0,
								"slot": "0",
								"type": "t_address"
							},
							{
								"astId": 241,
								"contract": "contracts/newBuilding.sol:newBuilding",
								"label": "supplierName",
								"offset": 0,
								"slot": "1",
								"type": "t_string_storage"
							}
						],
						"numberOfBytes": "64"
					},
					"t_uint256": {
						"encoding": "inplace",
						"label": "uint256",
						"numberOfBytes": "32"
					}
				}
			},
			"userdoc": {
				"kind": "user",
				"methods": {},
				"version": 1
			}
		}
	}
}